{"abi":[{"type":"constructor","inputs":[],"stateMutability":"nonpayable"},{"type":"function","name":"DELEGATION_APPROVAL_TYPEHASH","inputs":[],"outputs":[{"name":"","type":"bytes32","internalType":"bytes32"}],"stateMutability":"view"},{"type":"function","name":"DOMAIN_TYPEHASH","inputs":[],"outputs":[{"name":"","type":"bytes32","internalType":"bytes32"}],"stateMutability":"view"},{"type":"function","name":"MAX_STAKER_OPT_OUT_WINDOW_BLOCKS","inputs":[],"outputs":[{"name":"","type":"uint256","internalType":"uint256"}],"stateMutability":"view"},{"type":"function","name":"MAX_WITHDRAWAL_DELAY_BLOCKS","inputs":[],"outputs":[{"name":"","type":"uint256","internalType":"uint256"}],"stateMutability":"view"},{"type":"function","name":"STAKER_DELEGATION_TYPEHASH","inputs":[],"outputs":[{"name":"","type":"bytes32","internalType":"bytes32"}],"stateMutability":"view"},{"type":"function","name":"calculateCurrentStakerDelegationDigestHash","inputs":[{"name":"staker","type":"address","internalType":"address"},{"name":"operator","type":"address","internalType":"address"},{"name":"expiry","type":"uint256","internalType":"uint256"}],"outputs":[{"name":"","type":"bytes32","internalType":"bytes32"}],"stateMutability":"view"},{"type":"function","name":"calculateDelegationApprovalDigestHash","inputs":[{"name":"staker","type":"address","internalType":"address"},{"name":"operator","type":"address","internalType":"address"},{"name":"_delegationApprover","type":"address","internalType":"address"},{"name":"approverSalt","type":"bytes32","internalType":"bytes32"},{"name":"expiry","type":"uint256","internalType":"uint256"}],"outputs":[{"name":"","type":"bytes32","internalType":"bytes32"}],"stateMutability":"view"},{"type":"function","name":"calculateStakerDelegationDigestHash","inputs":[{"name":"staker","type":"address","internalType":"address"},{"name":"_stakerNonce","type":"uint256","internalType":"uint256"},{"name":"operator","type":"address","internalType":"address"},{"name":"expiry","type":"uint256","internalType":"uint256"}],"outputs":[{"name":"","type":"bytes32","internalType":"bytes32"}],"stateMutability":"view"},{"type":"function","name":"calculateWithdrawalRoot","inputs":[{"name":"withdrawal","type":"tuple","internalType":"struct IDelegationManager.Withdrawal","components":[{"name":"staker","type":"address","internalType":"address"},{"name":"delegatedTo","type":"address","internalType":"address"},{"name":"withdrawer","type":"address","internalType":"address"},{"name":"nonce","type":"uint256","internalType":"uint256"},{"name":"startBlock","type":"uint32","internalType":"uint32"},{"name":"strategies","type":"address[]","internalType":"contract IStrategy[]"},{"name":"shares","type":"uint256[]","internalType":"uint256[]"}]}],"outputs":[{"name":"","type":"bytes32","internalType":"bytes32"}],"stateMutability":"pure"},{"type":"function","name":"completeQueuedWithdrawal","inputs":[{"name":"withdrawal","type":"tuple","internalType":"struct IDelegationManager.Withdrawal","components":[{"name":"staker","type":"address","internalType":"address"},{"name":"delegatedTo","type":"address","internalType":"address"},{"name":"withdrawer","type":"address","internalType":"address"},{"name":"nonce","type":"uint256","internalType":"uint256"},{"name":"startBlock","type":"uint32","internalType":"uint32"},{"name":"strategies","type":"address[]","internalType":"contract IStrategy[]"},{"name":"shares","type":"uint256[]","internalType":"uint256[]"}]},{"name":"weth","type":"address","internalType":"contract IERC20"},{"name":"middlewareTimesIndex","type":"uint256","internalType":"uint256"},{"name":"receiveAsWeth","type":"bool","internalType":"bool"}],"outputs":[],"stateMutability":"nonpayable"},{"type":"function","name":"completeQueuedWithdrawals","inputs":[{"name":"withdrawals","type":"tuple[]","internalType":"struct IDelegationManager.Withdrawal[]","components":[{"name":"staker","type":"address","internalType":"address"},{"name":"delegatedTo","type":"address","internalType":"address"},{"name":"withdrawer","type":"address","internalType":"address"},{"name":"nonce","type":"uint256","internalType":"uint256"},{"name":"startBlock","type":"uint32","internalType":"uint32"},{"name":"strategies","type":"address[]","internalType":"contract IStrategy[]"},{"name":"shares","type":"uint256[]","internalType":"uint256[]"}]},{"name":"weth","type":"address","internalType":"contract IERC20"},{"name":"middlewareTimesIndexes","type":"uint256[]","internalType":"uint256[]"},{"name":"receiveAsWeth","type":"bool[]","internalType":"bool[]"}],"outputs":[],"stateMutability":"nonpayable"},{"type":"function","name":"cumulativeWithdrawalsQueued","inputs":[{"name":"","type":"address","internalType":"address"}],"outputs":[{"name":"","type":"uint256","internalType":"uint256"}],"stateMutability":"view"},{"type":"function","name":"decreaseDelegatedShares","inputs":[{"name":"staker","type":"address","internalType":"address"},{"name":"strategy","type":"address","internalType":"contract IStrategy"},{"name":"shares","type":"uint256","internalType":"uint256"}],"outputs":[],"stateMutability":"nonpayable"},{"type":"function","name":"delegateTo","inputs":[{"name":"operator","type":"address","internalType":"address"},{"name":"approverSignatureAndExpiry","type":"tuple","internalType":"struct ISignatureUtils.SignatureWithExpiry","components":[{"name":"signature","type":"bytes","internalType":"bytes"},{"name":"expiry","type":"uint256","internalType":"uint256"}]},{"name":"approverSalt","type":"bytes32","internalType":"bytes32"}],"outputs":[],"stateMutability":"nonpayable"},{"type":"function","name":"delegateToBySignature","inputs":[{"name":"staker","type":"address","internalType":"address"},{"name":"operator","type":"address","internalType":"address"},{"name":"stakerSignatureAndExpiry","type":"tuple","internalType":"struct ISignatureUtils.SignatureWithExpiry","components":[{"name":"signature","type":"bytes","internalType":"bytes"},{"name":"expiry","type":"uint256","internalType":"uint256"}]},{"name":"approverSignatureAndExpiry","type":"tuple","internalType":"struct ISignatureUtils.SignatureWithExpiry","components":[{"name":"signature","type":"bytes","internalType":"bytes"},{"name":"expiry","type":"uint256","internalType":"uint256"}]},{"name":"approverSalt","type":"bytes32","internalType":"bytes32"}],"outputs":[],"stateMutability":"nonpayable"},{"type":"function","name":"delegatedTo","inputs":[{"name":"","type":"address","internalType":"address"}],"outputs":[{"name":"","type":"address","internalType":"address"}],"stateMutability":"view"},{"type":"function","name":"delegationApprover","inputs":[{"name":"operator","type":"address","internalType":"address"}],"outputs":[{"name":"","type":"address","internalType":"address"}],"stateMutability":"view"},{"type":"function","name":"delegationApproverSaltIsSpent","inputs":[{"name":"","type":"address","internalType":"address"},{"name":"","type":"bytes32","internalType":"bytes32"}],"outputs":[{"name":"","type":"bool","internalType":"bool"}],"stateMutability":"view"},{"type":"function","name":"domainSeparator","inputs":[],"outputs":[{"name":"","type":"bytes32","internalType":"bytes32"}],"stateMutability":"view"},{"type":"function","name":"earningsReceiver","inputs":[{"name":"operator","type":"address","internalType":"address"}],"outputs":[{"name":"","type":"address","internalType":"address"}],"stateMutability":"view"},{"type":"function","name":"getDelegatableShares","inputs":[{"name":"staker","type":"address","internalType":"address"}],"outputs":[{"name":"","type":"address[]","internalType":"contract IStrategy[]"},{"name":"","type":"uint256[]","internalType":"uint256[]"}],"stateMutability":"view"},{"type":"function","name":"getOperatorShares","inputs":[{"name":"operator","type":"address","internalType":"address"},{"name":"strategies","type":"address[]","internalType":"contract IStrategy[]"}],"outputs":[{"name":"","type":"uint256[]","internalType":"uint256[]"}],"stateMutability":"view"},{"type":"function","name":"getWithdrawalDelay","inputs":[{"name":"strategies","type":"address[]","internalType":"contract IStrategy[]"}],"outputs":[{"name":"","type":"uint256","internalType":"uint256"}],"stateMutability":"view"},{"type":"function","name":"increaseDelegatedShares","inputs":[{"name":"staker","type":"address","internalType":"address"},{"name":"strategy","type":"address","internalType":"contract IStrategy"},{"name":"shares","type":"uint256","internalType":"uint256"}],"outputs":[],"stateMutability":"nonpayable"},{"type":"function","name":"initialize","inputs":[{"name":"initialOwner","type":"address","internalType":"address"},{"name":"_minWithdrawalDelayBlocks","type":"uint256","internalType":"uint256"},{"name":"_strategies","type":"address[]","internalType":"contract IStrategy[]"},{"name":"_withdrawalDelayBlocks","type":"uint256[]","internalType":"uint256[]"},{"name":"_strategyManager","type":"address","internalType":"contract IStrategyManager"},{"name":"_slasher","type":"address","internalType":"contract ISlashManager"},{"name":"_pauser","type":"address","internalType":"contract IL2Pauser"}],"outputs":[],"stateMutability":"nonpayable"},{"type":"function","name":"isDelegated","inputs":[{"name":"staker","type":"address","internalType":"address"}],"outputs":[{"name":"","type":"bool","internalType":"bool"}],"stateMutability":"view"},{"type":"function","name":"isOperator","inputs":[{"name":"operator","type":"address","internalType":"address"}],"outputs":[{"name":"","type":"bool","internalType":"bool"}],"stateMutability":"view"},{"type":"function","name":"migrateQueuedWithdrawals","inputs":[{"name":"withdrawalsToMigrate","type":"tuple[]","internalType":"struct IStrategyManager.DeprecatedStruct_QueuedWithdrawal[]","components":[{"name":"strategies","type":"address[]","internalType":"contract IStrategy[]"},{"name":"shares","type":"uint256[]","internalType":"uint256[]"},{"name":"staker","type":"address","internalType":"address"},{"name":"withdrawerAndNonce","type":"tuple","internalType":"struct IStrategyManager.DeprecatedStruct_WithdrawerAndNonce","components":[{"name":"withdrawer","type":"address","internalType":"address"},{"name":"nonce","type":"uint96","internalType":"uint96"}]},{"name":"withdrawalStartBlock","type":"uint32","internalType":"uint32"},{"name":"delegatedAddress","type":"address","internalType":"address"}]}],"outputs":[],"stateMutability":"nonpayable"},{"type":"function","name":"minWithdrawalDelayBlocks","inputs":[],"outputs":[{"name":"","type":"uint256","internalType":"uint256"}],"stateMutability":"view"},{"type":"function","name":"modifyOperatorDetails","inputs":[{"name":"newOperatorDetails","type":"tuple","internalType":"struct IDelegationManager.OperatorDetails","components":[{"name":"earningsReceiver","type":"address","internalType":"address"},{"name":"delegationApprover","type":"address","internalType":"address"},{"name":"stakerOptOutWindowBlocks","type":"uint32","internalType":"uint32"},{"name":"operatorType","type":"uint8","internalType":"enum IDelegationManager.OperatorType"}]}],"outputs":[],"stateMutability":"nonpayable"},{"type":"function","name":"operatorDetails","inputs":[{"name":"operator","type":"address","internalType":"address"}],"outputs":[{"name":"","type":"tuple","internalType":"struct IDelegationManager.OperatorDetails","components":[{"name":"earningsReceiver","type":"address","internalType":"address"},{"name":"delegationApprover","type":"address","internalType":"address"},{"name":"stakerOptOutWindowBlocks","type":"uint32","internalType":"uint32"},{"name":"operatorType","type":"uint8","internalType":"enum IDelegationManager.OperatorType"}]}],"stateMutability":"view"},{"type":"function","name":"operatorShares","inputs":[{"name":"","type":"address","internalType":"address"},{"name":"","type":"address","internalType":"contract IStrategy"}],"outputs":[{"name":"","type":"uint256","internalType":"uint256"}],"stateMutability":"view"},{"type":"function","name":"owner","inputs":[],"outputs":[{"name":"","type":"address","internalType":"address"}],"stateMutability":"view"},{"type":"function","name":"pauser","inputs":[],"outputs":[{"name":"","type":"address","internalType":"contract IL2Pauser"}],"stateMutability":"view"},{"type":"function","name":"pendingWithdrawals","inputs":[{"name":"","type":"bytes32","internalType":"bytes32"}],"outputs":[{"name":"","type":"bool","internalType":"bool"}],"stateMutability":"view"},{"type":"function","name":"queueWithdrawals","inputs":[{"name":"queuedWithdrawalParams","type":"tuple[]","internalType":"struct IDelegationManager.QueuedWithdrawalParams[]","components":[{"name":"strategies","type":"address[]","internalType":"contract IStrategy[]"},{"name":"shares","type":"uint256[]","internalType":"uint256[]"},{"name":"withdrawer","type":"address","internalType":"address"}]}],"outputs":[{"name":"","type":"bytes32[]","internalType":"bytes32[]"}],"stateMutability":"nonpayable"},{"type":"function","name":"registerAsOperator","inputs":[{"name":"registeringOperatorDetails","type":"tuple","internalType":"struct IDelegationManager.OperatorDetails","components":[{"name":"earningsReceiver","type":"address","internalType":"address"},{"name":"delegationApprover","type":"address","internalType":"address"},{"name":"stakerOptOutWindowBlocks","type":"uint32","internalType":"uint32"},{"name":"operatorType","type":"uint8","internalType":"enum IDelegationManager.OperatorType"}]},{"name":"nodeUrl","type":"string","internalType":"string"}],"outputs":[],"stateMutability":"nonpayable"},{"type":"function","name":"renounceOwnership","inputs":[],"outputs":[],"stateMutability":"nonpayable"},{"type":"function","name":"setMinWithdrawalDelayBlocks","inputs":[{"name":"newMinWithdrawalDelayBlocks","type":"uint256","internalType":"uint256"}],"outputs":[],"stateMutability":"nonpayable"},{"type":"function","name":"setStrategyWithdrawalDelayBlocks","inputs":[{"name":"strategies","type":"address[]","internalType":"contract IStrategy[]"},{"name":"withdrawalDelayBlocks","type":"uint256[]","internalType":"uint256[]"}],"outputs":[],"stateMutability":"nonpayable"},{"type":"function","name":"slasher","inputs":[],"outputs":[{"name":"","type":"address","internalType":"contract ISlashManager"}],"stateMutability":"view"},{"type":"function","name":"stakerNonce","inputs":[{"name":"","type":"address","internalType":"address"}],"outputs":[{"name":"","type":"uint256","internalType":"uint256"}],"stateMutability":"view"},{"type":"function","name":"stakerOptOutWindowBlocks","inputs":[{"name":"operator","type":"address","internalType":"address"}],"outputs":[{"name":"","type":"uint256","internalType":"uint256"}],"stateMutability":"view"},{"type":"function","name":"stakerStrategyOperatorShares","inputs":[{"name":"","type":"address","internalType":"address"},{"name":"","type":"address","internalType":"contract IStrategy"},{"name":"","type":"address","internalType":"address"}],"outputs":[{"name":"","type":"uint256","internalType":"uint256"}],"stateMutability":"view"},{"type":"function","name":"strategyManager","inputs":[],"outputs":[{"name":"","type":"address","internalType":"contract IStrategyManager"}],"stateMutability":"view"},{"type":"function","name":"strategyWithdrawalDelayBlocks","inputs":[{"name":"","type":"address","internalType":"contract IStrategy"}],"outputs":[{"name":"","type":"uint256","internalType":"uint256"}],"stateMutability":"view"},{"type":"function","name":"transferOwnership","inputs":[{"name":"newOwner","type":"address","internalType":"address"}],"outputs":[],"stateMutability":"nonpayable"},{"type":"function","name":"undelegate","inputs":[{"name":"staker","type":"address","internalType":"address"}],"outputs":[{"name":"withdrawalRoots","type":"bytes32[]","internalType":"bytes32[]"}],"stateMutability":"nonpayable"},{"type":"function","name":"updateOperatorNodeUrl","inputs":[{"name":"nodeUrl","type":"string","internalType":"string"}],"outputs":[],"stateMutability":"nonpayable"},{"type":"event","name":"Initialized","inputs":[{"name":"version","type":"uint64","indexed":false,"internalType":"uint64"}],"anonymous":false},{"type":"event","name":"MinWithdrawalDelayBlocksSet","inputs":[{"name":"previousValue","type":"uint256","indexed":false,"internalType":"uint256"},{"name":"newValue","type":"uint256","indexed":false,"internalType":"uint256"}],"anonymous":false},{"type":"event","name":"OperatorDetailsModified","inputs":[{"name":"operator","type":"address","indexed":true,"internalType":"address"},{"name":"newOperatorDetails","type":"tuple","indexed":false,"internalType":"struct IDelegationManager.OperatorDetails","components":[{"name":"earningsReceiver","type":"address","internalType":"address"},{"name":"delegationApprover","type":"address","internalType":"address"},{"name":"stakerOptOutWindowBlocks","type":"uint32","internalType":"uint32"},{"name":"operatorType","type":"uint8","internalType":"enum IDelegationManager.OperatorType"}]}],"anonymous":false},{"type":"event","name":"OperatorNodeUrlUpdated","inputs":[{"name":"operator","type":"address","indexed":true,"internalType":"address"},{"name":"metadataURI","type":"string","indexed":false,"internalType":"string"}],"anonymous":false},{"type":"event","name":"OperatorRegistered","inputs":[{"name":"operator","type":"address","indexed":true,"internalType":"address"},{"name":"operatorDetails","type":"tuple","indexed":false,"internalType":"struct IDelegationManager.OperatorDetails","components":[{"name":"earningsReceiver","type":"address","internalType":"address"},{"name":"delegationApprover","type":"address","internalType":"address"},{"name":"stakerOptOutWindowBlocks","type":"uint32","internalType":"uint32"},{"name":"operatorType","type":"uint8","internalType":"enum IDelegationManager.OperatorType"}]}],"anonymous":false},{"type":"event","name":"OperatorSharesDecreased","inputs":[{"name":"operator","type":"address","indexed":true,"internalType":"address"},{"name":"staker","type":"address","indexed":false,"internalType":"address"},{"name":"strategy","type":"address","indexed":false,"internalType":"contract IStrategy"},{"name":"shares","type":"uint256","indexed":false,"internalType":"uint256"}],"anonymous":false},{"type":"event","name":"OperatorSharesIncreased","inputs":[{"name":"operator","type":"address","indexed":true,"internalType":"address"},{"name":"staker","type":"address","indexed":false,"internalType":"address"},{"name":"strategy","type":"address","indexed":false,"internalType":"contract IStrategy"},{"name":"shares","type":"uint256","indexed":false,"internalType":"uint256"}],"anonymous":false},{"type":"event","name":"OwnershipTransferred","inputs":[{"name":"previousOwner","type":"address","indexed":true,"internalType":"address"},{"name":"newOwner","type":"address","indexed":true,"internalType":"address"}],"anonymous":false},{"type":"event","name":"StakerDelegated","inputs":[{"name":"staker","type":"address","indexed":true,"internalType":"address"},{"name":"operator","type":"address","indexed":true,"internalType":"address"}],"anonymous":false},{"type":"event","name":"StakerForceUndelegated","inputs":[{"name":"staker","type":"address","indexed":true,"internalType":"address"},{"name":"operator","type":"address","indexed":true,"internalType":"address"}],"anonymous":false},{"type":"event","name":"StakerUndelegated","inputs":[{"name":"staker","type":"address","indexed":true,"internalType":"address"},{"name":"operator","type":"address","indexed":true,"internalType":"address"}],"anonymous":false},{"type":"event","name":"StrategyWithdrawalDelayBlocksSet","inputs":[{"name":"strategy","type":"address","indexed":false,"internalType":"contract IStrategy"},{"name":"previousValue","type":"uint256","indexed":false,"internalType":"uint256"},{"name":"newValue","type":"uint256","indexed":false,"internalType":"uint256"}],"anonymous":false},{"type":"event","name":"WithdrawalCompleted","inputs":[{"name":"withdrawalRoot","type":"bytes32","indexed":false,"internalType":"bytes32"}],"anonymous":false},{"type":"event","name":"WithdrawalMigrated","inputs":[{"name":"oldWithdrawalRoot","type":"bytes32","indexed":false,"internalType":"bytes32"},{"name":"newWithdrawalRoot","type":"bytes32","indexed":false,"internalType":"bytes32"}],"anonymous":false},{"type":"event","name":"WithdrawalQueued","inputs":[{"name":"withdrawalRoot","type":"bytes32","indexed":false,"internalType":"bytes32"},{"name":"withdrawal","type":"tuple","indexed":false,"internalType":"struct IDelegationManager.Withdrawal","components":[{"name":"staker","type":"address","internalType":"address"},{"name":"delegatedTo","type":"address","internalType":"address"},{"name":"withdrawer","type":"address","internalType":"address"},{"name":"nonce","type":"uint256","internalType":"uint256"},{"name":"startBlock","type":"uint32","internalType":"uint32"},{"name":"strategies","type":"address[]","internalType":"contract IStrategy[]"},{"name":"shares","type":"uint256[]","internalType":"uint256[]"}]}],"anonymous":false},{"type":"error","name":"ECDSAInvalidSignature","inputs":[]},{"type":"error","name":"ECDSAInvalidSignatureLength","inputs":[{"name":"length","type":"uint256","internalType":"uint256"}]},{"type":"error","name":"ECDSAInvalidSignatureS","inputs":[{"name":"s","type":"bytes32","internalType":"bytes32"}]},{"type":"error","name":"InvalidInitialization","inputs":[]},{"type":"error","name":"NotInitializing","inputs":[]},{"type":"error","name":"OwnableInvalidOwner","inputs":[{"name":"owner","type":"address","internalType":"address"}]},{"type":"error","name":"OwnableUnauthorizedAccount","inputs":[{"name":"account","type":"address","internalType":"address"}]},{"type":"error","name":"ReentrancyGuardReentrantCall","inputs":[]}],"bytecode":{"object":"0x60a08060405234620000ca577ff0c57e16840df040f15088dc2f81fe391c3923bec73e23a9662efc9c229c6a009081549060ff8260401c16620000bb57506001600160401b036002600160401b03198282160162000075575b46608052604051614e3d9081620000d08239608051816137f00152f35b6001600160401b031990911681179091556040519081527fc7f505b2f371ae2175ee4913f4499e1f2633a7b5936321eed1cdaeb6115181d290602090a138808062000058565b63f92ee8a960e01b8152600490fd5b600080fdfe6080604052600436101561001257600080fd5b60003560e01c80630449ca3914612e1d57806304a4f97914612de25780630b9f487a14612da65780630dd8dd0214612ae057806311674578146124ed578063132d49671461248b5780631522bf021461243357806316928365146123ed5780631bbce091146123a65780631c8392d7146122a957806320606b701461226e57806328a573ae1461220c57806329c77d4f146121d257806330d0377b1461212357806339b70e38146120fa5780633cdeb5e0146120bc5780633e28391d1461207e57806343377382146120435780634fc40b6114612025578063597b36da14611ff05780635ce4c76114611e215780635cfe8d2c146119df5780635f966f14146119a4578063635bbd101461198057806365da1264146119455780636d70f7ae146118fd5780636f8c9884146114bd578063715018a614611453578063778e55f3146114025780637f548071146112d35780638da5cb5b1461129d57806390041347146111f25780639fd0506d146111c9578063a17884841461118f578063b134427114611166578063b7f06ebe14611135578063bb45fef2146110e8578063c448feb8146110ca578063c488375a14611090578063c5e480db14610fb4578063c94b511114610f81578063ca661c0414610f63578063cf80873e14610ee4578063da8be86414610a42578063e2b2390a146109da578063e92ae726146102f9578063eea9064b146102b3578063f2fde38b1461025f5763f698da251461023757600080fd5b3461025a57600036600319011261025a5760206102526137ed565b604051908152f35b600080fd5b3461025a57602036600319011261025a57610278612ed7565b61028061448c565b6001600160a01b0381161561029a57610298906147c9565b005b604051631e4fbdf760e01b815260006004820152602490fd5b3461025a57606036600319011261025a576102cc612ed7565b602435906001600160401b03821161025a576102ef6102989236906004016131fc565b6044359133613fd8565b3461025a57608036600319011261025a576001600160401b0360043581811161025a5761032a903690600401612ea7565b90610333612eed565b9260443581811161025a5761034c903690600401612ea7565b9160643590811161025a57610365903690600401612ea7565b9061036e61490b565b603554604051634994adeb60e01b815290602090829060049082906001600160a01b03165afa908115610605576000916109a0575b50156109405791926000959195935b8285106103df5760017f9b779b17422d0df92223018b32b4d1fa46e071723d6817e2486d003becc55f0055005b60de19863603018560051b870135121561025a576103fe8583836132c3565b5061040a8588866132c3565b3596871515880361025a5761042f61042a368860051b8a01358a01613155565b6135b9565b9788600052600860205260ff60406000205416156108db5761045b60808860051b8a01358a0101613cfe565b61046e60075463ffffffff439316614696565b1161085c576001600160a01b03610490600589901b8a01358a016040016132e9565b1633036107ea576000898152600860205260409020805460ff19169055156106405760005b6104cc600588901b890135890160a0810190613401565b905081101561061157610548888261052161051c61050d8c6104f860808260051b880135880101613cfe565b9560059190911b8101350160a0810190613401565b6001600160a01b0394916132c3565b6132e9565b16600052600b602052610541439163ffffffff6040600020549116614696565b111561494d565b61056c61051c8261056660058b901b8c01358c0160a0810190613401565b906132c3565b906105888161056660058b901b8c01358c0160c0810190613401565b6033546001600160a01b0316929035833b1561025a576040516370822b7f60e11b81523360048201526001600160a01b0392831660248201526044810191909152908c166064820152916000908390608490829084905af1918215610605576001926105f6575b50016104b5565b6105ff90613001565b8b6105ef565b6040513d6000823e3d90fd5b50929694600080516020614de883398151915260206001939694975b604051908152a1019390929591956103b2565b94959392919033600052600460205260018060a01b03604060002054169560005b61067860058a901b880135880160a0810190613401565b90508110156107c6576106b6898261052161051c61050d6106a360808e8760051b8101350101613cfe565b9460051b8d01358d0160a0810190613401565b6033546001600160a01b0316906106e161051c8261056660058e901b8c01358c0160a0810190613401565b916106fd8261056660058e901b8c01358c0160c0810190613401565b3592813b1561025a5760848e60008094604051978895869463c4623ea160e01b865233600487015260018060a01b0316602486015260018060a01b0316604485015260648401525af1918215610605576001926107b7575b50808a898b610768575b50505001610661565b6107af926107a691610566906107939061051c9084908490600589901b8101350160a0810190613401565b9360051b8d01358d0160c0810190613401565b3590338c6146a3565b808a8961075f565b6107c090613001565b8c610755565b5093929760019296506020600080516020614de8833981519152919892969861062d565b60405162461bcd60e51b81526020600482015260506024820152600080516020614da883398151915260448201527f645769746864726177616c3a206f6e6c7920776974686472617765722063616e60648201526f1031b7b6b83632ba329030b1ba34b7b760811b608482015260a490fd5b60405162461bcd60e51b815260206004820152605f6024820152600080516020614da883398151915260448201527f645769746864726177616c3a206d696e5769746864726177616c44656c61794260648201527f6c6f636b7320706572696f6420686173206e6f74207965742070617373656400608482015260a490fd5b60405162461bcd60e51b81526020600482015260436024820152600080516020614da883398151915260448201527f645769746864726177616c3a20616374696f6e206973206e6f7420696e20717560648201526265756560e81b608482015260a490fd5b60405162461bcd60e51b815260206004820152603260248201527f44656c65676174696f6e4d616e616765723a636f6d706c65746551756575656460448201527115da5d1a191c985dd85b1cc81c185d5cd95960721b6064820152608490fd5b90506020813d6020116109d2575b816109bb6020938361302f565b8101031261025a576109cc906133a0565b886103a3565b3d91506109ae565b3461025a57606036600319011261025a576109f3612ed7565b6109fb612eed565b90610a04612f03565b9160018060a01b0380921660005260026020528160406000209116600052602052604060002091166000526020526020604060002054604051908152f35b3461025a5760208060031936011261025a57610a5c612ed7565b60355460405163c77cf18d60e01b81526001600160a01b039184908290600490829086165afa90811561060557600091610eaf575b5015610e5e576001600160a01b038083166000908152600460205260409020541615610de7576001600160a01b0380831660009081526003602052604090205416610d7c57808216918215610d115782600052600484528160406000205416908333149182159283610d08575b8015610ced575b15610c8257610b1382613677565b959093610c56575b81817ffee30966a256b71e14bc0ebfc94315e28ef4a97a7131a9e2b7a310a73af44676600080a36000908152600487526040902080546001600160a01b0319169055825180610bb557505050505050604051908101908082106001600160401b03831117610b9f57610b9b91604052600081525b60405191829182612f2d565b0390f35b634e487b7160e01b600052604160045260246000fd5b610bc290969495966133ad565b9560005b8451811015610c4657600190610c35604051610be181612fcb565b839081815289368183013760405191610bf983612fcb565b82528936818401378a610c0c858b613443565b5116610c1782613436565b52610c228487613443565b51610c2c83613436565b52878781613822565b610c3f828b613443565b5201610bc6565b50505050505050610b9b90610b8f565b81817ff0eddf07e6ea14f388b47e1e94a0f464ecbd9eed4171130e0fc0e99fb4030a8a600080a3610b1b565b60405162461bcd60e51b815260048101879052603d60248201527f44656c65676174696f6e4d616e616765722e756e64656c65676174653a20636160448201527f6c6c65722063616e6e6f7420756e64656c6567617465207374616b65720000006064820152608490fd5b50806000526003865283600160406000200154163314610b05565b50803314610afe565b60405162461bcd60e51b815260048101859052603c60248201527f44656c65676174696f6e4d616e616765722e756e64656c65676174653a20636160448201527f6e6e6f7420756e64656c6567617465207a65726f2061646472657373000000006064820152608490fd5b60405162461bcd60e51b815260048101849052603d60248201527f44656c65676174696f6e4d616e616765722e756e64656c65676174653a206f7060448201527f657261746f72732063616e6e6f7420626520756e64656c6567617465640000006064820152608490fd5b60a4836040519062461bcd60e51b82526004820152604460248201527f44656c65676174696f6e4d616e616765722e756e64656c65676174653a20737460448201527f616b6572206d7573742062652064656c65676174656420746f20756e64656c656064820152636761746560e01b6084820152fd5b60405162461bcd60e51b815260048101849052602360248201527f44656c65676174696f6e4d616e616765723a756e64656c6567617465207061756044820152621cd95960ea1b6064820152608490fd5b90508381813d8311610edd575b610ec6818361302f565b8101031261025a57610ed7906133a0565b84610a91565b503d610ebc565b3461025a5760208060031936011261025a57610f06610f01612ed7565b613677565b6040929192519283916040830160408452825180915260206060850193019460005b828110610f43578580610b9b87878382036020850152613282565b86516001600160a01b031685529581019587955093810193600101610f28565b3461025a57600036600319011261025a57602060405162034bc08152f35b3461025a57608036600319011261025a576020610252610f9f612ed7565b610fa7612f03565b60643591602435906135fb565b3461025a57602036600319011261025a57610fcd612ed7565b60006060604051610fdd81613014565b828152826020820152826040820152015260018060a01b038091166000526003602052604060002060016040519161101483613014565b83815416835201546020820192808216845263ffffffff60ff6040850193828160a01c16855260c01c16926060850192600785101561107a5760809661107895855281604051975116875251166020860152511660408401525160608301906132b6565bf35b634e487b7160e01b600052602160045260246000fd5b3461025a57602036600319011261025a576001600160a01b036110b1612ed7565b16600052600b6020526020604060002054604051908152f35b3461025a57600036600319011261025a576020600754604051908152f35b3461025a57604036600319011261025a576001600160a01b03611109612ed7565b1660005260066020526040600020602435600052602052602060ff604060002054166040519015158152f35b3461025a57602036600319011261025a576004356000526008602052602060ff604060002054166040519015158152f35b3461025a57600036600319011261025a576034546040516001600160a01b039091168152602090f35b3461025a57602036600319011261025a576001600160a01b036111b0612ed7565b1660005260096020526020604060002054604051908152f35b3461025a57600036600319011261025a576035546040516001600160a01b039091168152602090f35b3461025a57604036600319011261025a5761120b612ed7565b6024356001600160401b03811161025a5761122a9036906004016130ce565b9061123582516133ad565b6001600160a01b039182169260005b8151811015611287576001908560005260208281526040600020908661126a8487613443565b5116600052526040600020546112808286613443565b5201611244565b60405160208082528190610b9b90820186613282565b3461025a57600036600319011261025a57600080516020614d88833981519152546040516001600160a01b039091168152602090f35b3461025a5760a036600319011261025a576112ec612ed7565b6112f4612eed565b6001600160401b03919060443583811161025a576113169036906004016131fc565b9260643590811161025a5761132f9036906004016131fc565b9060208401938451421161138d5761029894611384916001808060a01b0387169283600052600560205261136c604060002054915187838b6135fb565b936000526005602052016040600020555190856149ea565b60843592613fd8565b60405162461bcd60e51b815260206004820152604160248201527f44656c65676174696f6e4d616e616765722e64656c6567617465546f4279536960448201527f676e61747572653a207374616b6572207369676e6174757265206578706972656064820152601960fa1b608482015260a490fd5b3461025a57604036600319011261025a5761141b612ed7565b611423612eed565b9060018060a01b038091166000526001602052604060002091166000526020526020604060002054604051908152f35b3461025a57600036600319011261025a5761146c61448c565b600080516020614d8883398151915280546001600160a01b031981169091556000906001600160a01b03167f8be0079c531659141344cd1fd0a4f28419497f9722a3daafe3b4186f6b6457e08280a3005b3461025a5760031960803682011261025a576001600160401b036004351161025a5760e0906004353603011261025a576114f5612eed565b606435801515810361025a5761150961490b565b603554604051634994adeb60e01b815290602090829060049082906001600160a01b03165afa908115610605576000916118c3575b50156118645761155661042a36600435600401613155565b9081600052600860205260ff60406000205416156108db5761158e61157f608460043501613cfe565b63ffffffff6007549116614696565b431061085c576001600160a01b036115aa6004356044016132e9565b1633036107ea576000828152600860205260409020805460ff191690551561170c5760005b6115e360a460043501600435600401613401565b90508110156116c9576116186115fd608460043501613cfe565b8261052161051c61050d60a460043501600435600401613401565b61163361051c8261056660a460043501600435600401613401565b9061164c8161056660c460043501600435600401613401565b6033546001600160a01b0316929035833b1561025a576040516370822b7f60e11b81523360048201526001600160a01b03928316602482015260448101919091529085166064820152916000908390608490829084905af1918215610605576001926116ba575b50016115cf565b6116c390613001565b846116b3565b50600080516020614de883398151915291506020905b604051908152a160017f9b779b17422d0df92223018b32b4d1fa46e071723d6817e2486d003becc55f0055005b336000908152600460205260408120546001600160a01b0316905b61173b60a460043501600435600401613401565b9050811015611849576117556115fd608460043501613cfe565b6033546001600160a01b03169061177b61051c826105666004803560a481019101613401565b6117938261056660c460043501600435600401613401565b35833b1561025a5760405163c4623ea160e01b81523360048201526001600160a01b03888116602483015290921660448301526064820152916000908390608490829084905af19182156106055760019261183a575b50826117f6575b01611727565b61183561181461051c8361056660a460043501600435600401613401565b61182c8361056660c460043501600435600401613401565b359033866146a3565b6117f0565b61184390613001565b856117e9565b5050600080516020614de883398151915291506020906116df565b60405162461bcd60e51b815260206004820152603160248201527f44656c65676174696f6e4d616e616765723a636f6d706c65746551756575656460448201527015da5d1a191c985dd85b081c185d5cd959607a1b6064820152608490fd5b90506020813d6020116118f5575b816118de6020938361302f565b8101031261025a576118ef906133a0565b8361153e565b3d91506118d1565b3461025a57602036600319011261025a57602061193b61191b612ed7565b6001600160a01b0390811660009081526003602052604090205416151590565b6040519015158152f35b3461025a57602036600319011261025a5760206001600160a01b0380611969612ed7565b166000526004825260406000205416604051908152f35b3461025a57602036600319011261025a5761199961448c565b61029860043561481f565b3461025a57602036600319011261025a5760206001600160a01b03806119c8612ed7565b166000526003825260406000205416604051908152f35b3461025a57602036600319011261025a576004356001600160401b0380821161025a573660238301121561025a57816004013591611a1c83613061565b92611a2a604051948561302f565b8084526024602085019160051b8301019136831161025a5760248101915b838310611d28578560005b815181101561029857611a668183613443565b519060018060a01b03603354169160408051809463cd293f6f60e01b82526020600483015281600081611abf611aa9885160e060248501526101048401906134da565b6020890151838203602319016044850152613517565b878701516001600160a01b0390811660648401526060890151805182166084850152602001516001600160601b031660a4840152608089015163ffffffff1660c484015260a08901511660e483015203925af192831561060557600090600094611ce7575b50611b35575b506001915001611a53565b6040818101516001600160a01b031660008181526009602052919091208054919290611b60836135d6565b905560018060a01b0360a0820151169160018060a01b03606083015151169063ffffffff60808401511691602084519401519460405196611ba088612fe6565b8752602087015260408601526060850152608084015260a083015260c0820152611bc9816135b9565b92836000526008908160205260ff60406000205416611c6e57847f9009ab153e8014fbfb02f2217f5cde7aa7f9ad734ae85ca3ee3f4ca2fdd499f9611c5a7fdc00758b65eef71dc3780c04ebe36cab6bdb266c3a698187e29e0f0dca01263095604095600199600052602052856000208960ff1982541617905585519182918583528760208401528783019061354b565b0390a182519182526020820152a183611b2a565b60405162461bcd60e51b815260206004820152604560248201527f44656c65676174696f6e4d616e616765722e6d6967726174655175657565645760448201527f69746864726177616c733a207769746864726177616c20616c72656164792065606482015264786973747360d81b608482015260a490fd5b9350506040833d604011611d20575b81611d036040938361302f565b8101031261025a576020611d16846133a0565b9301519285611b24565b3d9150611cf6565b823585811161025a5782018036039160e060231984011261025a576040519260c0840184811089821117610b9f57604052602483013588811161025a57611d7590602436918601016130ce565b845260448301359088821161025a57611d966040926024369187010161313a565b6020860152611da760648501612f19565b85830152608319011261025a5760405192611dc184612fcb565b611dcd60848401612f19565b845260a4830135936001600160601b038516850361025a5760e46020959482879687611e119501526060850152611e0660c48201613050565b608085015201612f19565b60a0820152815201920191611a48565b3461025a5760e036600319011261025a57611e3a612ed7565b6001600160401b0360443581811161025a57611e5a903690600401612ea7565b60649391933583811161025a57611e75903690600401612ea7565b6001600160a01b039360843585811694939192919085900361025a5760a4359386851680950361025a5760c43596871680970361025a577ff0c57e16840df040f15088dc2f81fe391c3923bec73e23a9662efc9c229c6a0098895460ff8160401c161599811680159081611fe8575b6001149081611fde575b159081611fd5575b50611fc35767ffffffffffffffff1981166001178b55611f3b95611f2b918b611fa4575b50611f23614729565b6000556147c9565b611f3660243561481f565b6144c5565b6001600160601b0360a01b918260335416176033558160345416176034556035541617603555611f6757005b68ff00000000000000001981541690557fc7f505b2f371ae2175ee4913f4499e1f2633a7b5936321eed1cdaeb6115181d2602060405160018152a1005b68ffffffffffffffffff191668010000000000000001178c558c611f1a565b60405163f92ee8a960e01b8152600490fd5b9050158c611ef6565b303b159150611eee565b8b9150611ee4565b3461025a57602036600319011261025a576004356001600160401b03811161025a5761025261042a6020923690600401613155565b3461025a57600036600319011261025a5760206040516213c6808152f35b3461025a57600036600319011261025a5760206040517f39111bc4a4d688e1f685123d7497d4615370152a8ee4a0593e647bd06ad8bb0b8152f35b3461025a57602036600319011261025a57602061193b61209c612ed7565b6001600160a01b0390811660009081526004602052604090205416151590565b3461025a57602036600319011261025a5760206001600160a01b03806120e0612ed7565b166000526003825260016040600020015416604051908152f35b3461025a57600036600319011261025a576033546040516001600160a01b039091168152602090f35b3461025a57608036600319011261025a57336000908152600360205260409020546001600160a01b03161561215b5761029833613d0f565b60405162461bcd60e51b815260206004820152604360248201527f44656c65676174696f6e4d616e616765722e6d6f646966794f70657261746f7260448201527f44657461696c733a2063616c6c6572206d75737420626520616e206f706572616064820152623a37b960e91b608482015260a490fd5b3461025a57602036600319011261025a576001600160a01b036121f3612ed7565b1660005260056020526020604060002054604051908152f35b3461025a5761221a36612f96565b9060018060a01b03926122328460335416331461347f565b6001600160a01b038082166000908152600460205260409020541661225357005b836102989482166000526004602052604060002054166146a3565b3461025a57600036600319011261025a5760206040517f8cad95687ba82c2ce50e74f7b754645e5117c3a5bec8151c0726d5857980a8668152f35b3461025a57602036600319011261025a576004356001600160401b03811161025a576122d9903690600401612f69565b336000908152600360205260409020546001600160a01b03161561232f5761232a7f826d13513a58153c5878cd93af2008d3f8dfc32049e748b380b1b385645e280b91604051918291339583613457565b0390a2005b60405162461bcd60e51b815260206004820152604360248201527f44656c65676174696f6e4d616e616765722e7570646174654f70657261746f7260448201527f4e6f646555726c3a2063616c6c6572206d75737420626520616e206f706572616064820152623a37b960e91b608482015260a490fd5b3461025a57606036600319011261025a5760206102526123c4612ed7565b6123cc612eed565b6001600160a01b0382166000908152600585526040902054604435926135fb565b3461025a57602036600319011261025a576001600160a01b0361240e612ed7565b166000526003602052602063ffffffff60016040600020015460a01c16604051908152f35b3461025a57604036600319011261025a576001600160401b0360043581811161025a57612464903690600401612ea7565b9060243592831161025a57612480610298933690600401612ea7565b929091611f3661448c565b3461025a5761249936612f96565b9060018060a01b03926124b18460335416331461347f565b6001600160a01b03808216600090815260046020526040902054166124d257005b836102989482166000526004602052604060002054166143d7565b3461025a57366003190160a0811261025a5760801361025a57608480356001600160401b03811161025a57612526903690600401612f69565b919091336000526020916003835260018060a01b03908160406000205416612a695761255133613d0f565b60405161255d81612fcb565b606081528481019160008352600486856035541660405192838092634daaffaf60e11b82525afa90811561060557600091612a34575b50156129e657336000908152600460205260409020546001600160a01b031661297357336000908152600360205260409020546001600160a01b0316156128fe573360005260038652600192846001604060002001541691821515806128f4575b806128ec575b612749575b5050505033600052600484526040600020336001600160601b0360a01b82541617905533337fc3ee9f2e5fda98e8066a1f745b2df9285f416fe98cf2559cd21484b3d8743304600080a38061265333613677565b906000925b61270e575b505050506040519260043582811680910361025a57845260243591821680920361025a5783015260443563ffffffff811680910361025a57604083015260643590600782101561025a57826126da61232a9360607f826d13513a58153c5878cd93af2008d3f8dfc32049e748b380b1b385645e280b9601906132b6565b7f56911302237efb62a9bd04b0083a3bcf08e50246e09837cdae47ce169ff6d6c960803392a2604051918291339583613457565b805183101561274457838361273d87612728849786613443565b51166127348387613443565b519033336146a3565b0192612658565b61265d565b8151421161289c578260005260068852604060002060008052885260ff6040600020541661284c5750906128439291816000526006885260406000206000805288526040600020600160ff198254161790555160405190888201927f6d1fdcc5430bb8f0c2b78c3d153f848b370260144c36d3b8b064f06b5a04568e84523360408401523360608401526080830152600060a083015260c082015260c081526127f181612fe6565b5190206128296128376128026137ed565b926040519283918b83019586909160429261190160f01b8352600283015260228201520190565b03601f19810183528261302f565b519020905190336149ea565b858080806125ff565b60405162461bcd60e51b81526004810189905260376024820152600080516020614dc88339815191526044820152761c9bdd995c94d85b1d08185b1c9958591e481cdc195b9d604a1b6064820152fd5b60405162461bcd60e51b81526004810189905260376024820152600080516020614dc88339815191526044820152761c9bdd995c881cda59db985d1d5c9948195e1c1a5c9959604a1b6064820152fd5b5060006125fa565b50823314156125f4565b8562696e6b60e81b60a4926040519262461bcd60e51b84526004840152604360248401527f44656c65676174696f6e4d616e616765722e5f64656c65676174653a206f706560448401527f7261746f72206973206e6f74207265676973746572656420696e20446170704c6064840152820152fd5b85601960fa1b60a4926040519262461bcd60e51b84526004840152604160248401527f44656c65676174696f6e4d616e616765722e5f64656c65676174653a2073746160448401527f6b657220697320616c7265616479206163746976656c792064656c65676174656064840152820152fd5b60405162461bcd60e51b815260048101879052602360248201527f44656c65676174696f6e4d616e616765723a697344656c6567617465207061756044820152621cd95960ea1b6064820152fd5b90508681813d8311612a62575b612a4b818361302f565b8101031261025a57612a5c906133a0565b88612593565b503d612a41565b83641d195c995960da1b60a4926040519262461bcd60e51b84526004840152604560248401527f44656c65676174696f6e4d616e616765722e726567697374657241734f70657260448401527f61746f723a206f70657261746f722068617320616c72656164792072656769736064840152820152fd5b3461025a5760208060031936011261025a576004356001600160401b03811161025a57612b11903690600401612ea7565b603554604051634994adeb60e01b81526001600160a01b03929185908290600490829087165afa90811561060557600091612d71575b5015612d1a57612b56816133ad565b92336000526004855282604060002054169160005b818110612b805760405180610b9b8882612f2d565b612b94612b8e8284866133df565b80613401565b9050612bad612ba48385876133df565b89810190613401565b91905003612caf573385612bcd6040612bc78587896133df565b016132e9565b1603612c445780612c338885612c2b86612c23612c19612bf56040612bc760019b86896133df565b95612c1089612c08612b8e82888b6133df565b9690986133df565b90810190613401565b9490923691613078565b9236916130ec565b918833613822565b612c3d8289613443565b5201612b6b565b60405162461bcd60e51b815260048101889052603c60248201527f44656c65676174696f6e4d616e616765722e717565756557697468647261776160448201527f6c3a2077697468647261776572206d757374206265207374616b6572000000006064820152608490fd5b60405162461bcd60e51b815260048101889052603860248201527f44656c65676174696f6e4d616e616765722e717565756557697468647261776160448201527f6c3a20696e707574206c656e677468206d69736d6174636800000000000000006064820152608490fd5b60405162461bcd60e51b815260048101859052602960248201527f44656c65676174696f6e4d616e616765723a71756575655769746864726177616044820152681b1cc81c185d5cd95960ba1b6064820152608490fd5b90508481813d8311612d9f575b612d88818361302f565b8101031261025a57612d99906133a0565b85612b47565b503d612d7e565b3461025a5760a036600319011261025a576020610252612dc4612ed7565b612dcc612eed565b90612dd5612f03565b60843592606435926132fd565b3461025a57600036600319011261025a5760206040517f6d1fdcc5430bb8f0c2b78c3d153f848b370260144c36d3b8b064f06b5a04568e8152f35b3461025a5760208060031936011261025a576004356001600160401b03811161025a57612e4e903690600401612ea7565b90916007549260005b838110612e6957602085604051908152f35b6001600160a01b03612e7f61051c8387866132c3565b16600052600b8352604060002054858111612e9e575b50600101612e57565b94506001612e95565b9181601f8401121561025a578235916001600160401b03831161025a576020808501948460051b01011161025a57565b600435906001600160a01b038216820361025a57565b602435906001600160a01b038216820361025a57565b604435906001600160a01b038216820361025a57565b35906001600160a01b038216820361025a57565b602090602060408183019282815285518094520193019160005b828110612f55575050505090565b835185529381019392810192600101612f47565b9181601f8401121561025a578235916001600160401b03831161025a576020838186019501011161025a57565b606090600319011261025a576001600160a01b0390600435828116810361025a5791602435908116810361025a579060443590565b604081019081106001600160401b03821117610b9f57604052565b60e081019081106001600160401b03821117610b9f57604052565b6001600160401b038111610b9f57604052565b608081019081106001600160401b03821117610b9f57604052565b90601f801991011681019081106001600160401b03821117610b9f57604052565b359063ffffffff8216820361025a57565b6001600160401b038111610b9f5760051b60200190565b929161308382613061565b91613091604051938461302f565b829481845260208094019160051b810192831161025a57905b8282106130b75750505050565b8380916130c384612f19565b8152019101906130aa565b9080601f8301121561025a578160206130e993359101613078565b90565b92916130f782613061565b91613105604051938461302f565b829481845260208094019160051b810192831161025a57905b82821061312b5750505050565b8135815290830190830161311e565b9080601f8301121561025a578160206130e9933591016130ec565b919060e08382031261025a576040519061316e82612fe6565b819361317981612f19565b835261318760208201612f19565b602084015261319860408201612f19565b6040840152606081013560608401526131b360808201613050565b60808401526001600160401b039160a082013583811161025a57816131d99184016130ce565b60a085015260c082013592831161025a5760c0926131f7920161313a565b910152565b91909160408184031261025a576040519061321682612fcb565b81938135916001600160401b039283811161025a5781019180601f8401121561025a5782356020948111610b9f576040519161325b601f8301601f191687018461302f565b81835285828601011161025a57848160009282809701838601378301015284520135910152565b90815180825260208080930193019160005b8281106132a2575050505090565b835185529381019392810192600101613294565b90600782101561107a5752565b91908110156132d35760051b0190565b634e487b7160e01b600052603260045260246000fd5b356001600160a01b038116810361025a5790565b939192906040519360208501957f6d1fdcc5430bb8f0c2b78c3d153f848b370260144c36d3b8b064f06b5a04568e875260018060a01b039283809216604088015216606086015216608084015260a083015260c082015260c0815261336181612fe6565b51902061282961339a6133726137ed565b92604051928391602083019586909160429261190160f01b8352600283015260228201520190565b51902090565b5190811515820361025a57565b906133b782613061565b6133c4604051918261302f565b82815280926133d5601f1991613061565b0190602036910137565b91908110156132d35760051b81013590605e198136030182121561025a570190565b903590601e198136030182121561025a57018035906001600160401b03821161025a57602001918160051b3603831361025a57565b8051156132d35760200190565b80518210156132d35760209160051b010190565b90918060409360208452816020850152848401376000828201840152601f01601f1916010190565b1561348657565b60405162461bcd60e51b815260206004820152602660248201527f44656c65676174696f6e4d616e616765723a206f6e6c7953747261746567794d60448201526530b730b3b2b960d11b6064820152608490fd5b90815180825260208080930193019160005b8281106134fa575050505090565b83516001600160a01b0316855293810193928101926001016134ec565b90815180825260208080930193019160005b828110613537575050505090565b835185529381019392810192600101613529565b6130e99160018060a01b0380835116825280602084015116602083015260408301511660408201526060820151606082015263ffffffff608083015116608082015260c06135a860a084015160e060a085015260e08401906134da565b9201519060c0818403910152613517565b60405161339a81612829602082019460208652604083019061354b565b60001981146135e55760010190565b634e487b7160e01b600052601160045260246000fd5b9192906040519260208401947f39111bc4a4d688e1f685123d7497d4615370152a8ee4a0593e647bd06ad8bb0b865260018060a01b038092166040860152166060840152608083015260a082015260a0815260c081018181106001600160401b03821117610b9f5760405251902061282961339a6133726137ed565b6033546040516394f649dd60e01b81526001600160a01b0392831660048201529192919060009081908390602490829088165afa9384156137e057819282956136c2575b5050509190565b91945091503d8085833e6136d6818361302f565b81016040828203126137dc5781516001600160401b03908181116137b85783019282601f850112156137b85783519360209461371181613061565b9661371f604051988961302f565b818852868089019260051b840101928684116137d8578701915b8383106137bc5750505050838101519182116137b8570181601f820112156137b45780519061376782613061565b96613775604051988961302f565b828852848089019360051b8301019384116137b157508301905b8282106137a257505050503880806136bb565b8151815290830190830161378f565b80fd5b8580fd5b8680fd5b825182811681036137d4578152918701918701613739565b8b80fd5b8a80fd5b8480fd5b50604051903d90823e3d90fd5b467f00000000000000000000000000000000000000000000000000000000000000000361381a5760005490565b6130e9614729565b9394939291906001600160a01b03841615613c7a57825115613bf9576000945b8351861015613b2857603380546001600160a01b039081169060009060209061386b8b8a613443565b51169260446040518094819363f0249f1960e01b83528d60018060a01b03166004840152602497888401525af190811561060557600091613af6575b506138b2898b613443565b5111156138c1575b5050613842565b9196916001600160a01b038416613ac7575b6001600160a01b03878116908616148015613a40575b1561397d5750546001600160a01b0390811691906139078287613443565b5116613913828a613443565b51833b1561025a57604051638c80d4e560e01b81526001600160a01b0389811660048301529290921660248301526044820152916000908390606490829084905af19182156106055760019261396e575b50019438806138ba565b61397790613001565b38613964565b60e4907f73742062652073616d652061646472657373206173207374616b6572206966206040519162461bcd60e51b835260206004840152608480918401527f44656c65676174696f6e4d616e616765722e5f72656d6f76655368617265734160448401527f6e6451756575655769746864726177616c3a2077697468647261776572206d7560648401528201527f746869726450617274795472616e7366657273466f7262696464656e2061726560a482015263081cd95d60e21b60c4820152fd5b5081546001600160a01b0390811690602090613a5c868a613443565b51168360405180948193639b4da03d60e01b835260048301525afa90811561060557600091613a8d575b50156138e9565b906020823d602011613abf575b81613aa76020938361302f565b810103126137b15750613ab9906133a0565b38613a86565b3d9150613a9a565b613af16001600160a01b03613adc8589613443565b5116613ae8858c613443565b519089876143d7565b6138d3565b906020823d602011613b20575b81613b106020938361302f565b810103126137b1575051386138a7565b3d9150613b03565b95919450917f9009ab153e8014fbfb02f2217f5cde7aa7f9ad734ae85ca3ee3f4ca2fdd499f9939260018060a01b03841660005260096020526040958660002091825492613b75846135d6565b9055875195613b8387612fe6565b6001600160a01b0390811687529081166020870152168685015260608401524363ffffffff16608084015260a083015260c0820152613bc1816135b9565b9283600052600860205280600020600160ff19825416179055613bf3815192839286845280602085015283019061354b565b0390a190565b60405162461bcd60e51b815260206004820152604d60248201527f44656c65676174696f6e4d616e616765722e5f72656d6f76655368617265734160448201527f6e6451756575655769746864726177616c3a207374726174656769657320636160648201526c6e6e6f7420626520656d70747960981b608482015260a490fd5b60405162461bcd60e51b815260206004820152605060248201527f44656c65676174696f6e4d616e616765722e5f72656d6f76655368617265734160448201527f6e6451756575655769746864726177616c3a207374616b65722063616e6e6f7460648201526f206265207a65726f206164647265737360801b608482015260a490fd5b3563ffffffff8116810361025a5790565b6001600160a01b039190600435838116919082900361025a578115613f50576044359063ffffffff948583169182840361025a576213c6808311613eaa5781166000968188526003602052600160408920015460a01c168310613e235786526003602052600160408720856001600160601b0360a01b825416178155016024359182168092036137b857805493606435946007861015613e1f576001600160c81b031916831760a09190911b63ffffffff60a01b161760c085901b60ff60c01b1617905560408051948552602085019190915283015291925090613df79060608301906132b6565b7f8608ba5d3843c5892d0e0e7f8b3dbe140644275248c7acc0e70c6ab00524252760803392a2565b8880fd5b60405162461bcd60e51b815260206004820152605360248201527f44656c65676174696f6e4d616e616765722e5f7365744f70657261746f72446560448201527f7461696c733a207374616b65724f70744f757457696e646f77426c6f636b732060648201527218d85b9b9bdd08189948191958dc99585cd959606a1b608482015260a490fd5b60405162461bcd60e51b815260206004820152606c60248201527f44656c65676174696f6e4d616e616765722e5f7365744f70657261746f72446560448201527f7461696c733a207374616b65724f70744f757457696e646f77426c6f636b732060648201527f63616e6e6f74206265203e204d41585f5354414b45525f4f50545f4f55545f5760848201526b494e444f575f424c4f434b5360a01b60a482015260c490fd5b60405162461bcd60e51b815260206004820152605460248201527f44656c65676174696f6e4d616e616765722e5f7365744f70657261746f72446560448201527f7461696c733a2063616e6e6f742073657420606561726e696e677352656365696064820152737665726020746f207a65726f206164647265737360601b608482015260a490fd5b60355460408051634daaffaf60e11b81529496956001600160a01b039590949392600492602092909183908290869082908c165afa9081156143bf5760009161438a575b501561433d576001600160a01b03808516600090815260046020526040902054166142cc576001600160a01b0380861660009081526003602052604090205416156142595786851692836000526003835260019688600184600020015416908115158061424f575b80614245575b614131575b5050878798999a508516928360005252600020826001600160601b0360a01b8254161790557fc3ee9f2e5fda98e8066a1f745b2df9285f416fe98cf2559cd21484b3d8743304600080a36140e281613677565b91906000945b6140f6575b50505050505050565b805185101561412c57858561412589614110849986613443565b511661411c8388613443565b519086896146a3565b01946140e8565b6140ed565b848c01805142116141f45782600052600686528460002082600052865260ff8560002054166141a357828a9b9c9d926141919261419a95600052600689528760002082600052895287600020600160ff1982541617905551918b8b6132fd565b905190876149ea565b8998973861408f565b845162461bcd60e51b815280850187905260376024820152600080516020614dc88339815191526044820152761c9bdd995c94d85b1d08185b1c9958591e481cdc195b9d604a1b6064820152608490fd5b845162461bcd60e51b815280850187905260376024820152600080516020614dc88339815191526044820152761c9bdd995c881cda59db985d1d5c9948195e1c1a5c9959604a1b6064820152608490fd5b508533141561408a565b5081331415614084565b5162461bcd60e51b815291820152604360248201527f44656c65676174696f6e4d616e616765722e5f64656c65676174653a206f706560448201527f7261746f72206973206e6f74207265676973746572656420696e20446170704c606482015262696e6b60e81b608482015260a49150fd5b5162461bcd60e51b815291820152604160248201527f44656c65676174696f6e4d616e616765722e5f64656c65676174653a2073746160448201527f6b657220697320616c7265616479206163746976656c792064656c65676174656064820152601960fa1b608482015260a49150fd5b5162461bcd60e51b815291820152602360248201527f44656c65676174696f6e4d616e616765723a697344656c6567617465207061756044820152621cd95960ea1b606482015260849150fd5b90508281813d83116143b8575b6143a1818361302f565b8101031261025a576143b2906133a0565b3861401c565b503d614397565b82513d6000823e3d90fd5b919082039182116135e557565b92906144877f6909600037b75d7b4733aedd815442b5ec018a827751c832aaff64eba5d6d2dd939260018060a01b038096169560009087825260016020526040918291828220908816908183526020528282206144358682546143ca565b905589825260026020528282209082526020528181208982526020522061445d8382546143ca565b9055516001600160a01b039384168152939092166020840152604083019190915281906060820190565b0390a2565b600080516020614d88833981519152546001600160a01b031633036144ad57565b60405163118cdaa760e01b8152336004820152602490fd5b9190918383036146185760005b8381106144e0575050505050565b6001600160a01b036144f661051c8387866132c3565b1680600052600b6020818152604090816000205490614516868b8a6132c3565b359362034bc0851161456c579285927f0e7efa738e8b0ce6376a0c1af471655540d2e9a81647d7b09ed823018426576d95926060956001999860005281528383600020558251948552840152820152a1016144d2565b835162461bcd60e51b815260048101839052607360248201527f44656c65676174696f6e4d616e616765722e5f7365745374726174656779576960448201527f746864726177616c44656c6179426c6f636b733a205f7769746864726177616c60648201527f44656c6179426c6f636b732063616e6e6f74206265203e204d41585f5749544860848201527244524157414c5f44454c41595f424c4f434b5360681b60a482015260c490fd5b60405162461bcd60e51b815260206004820152604a60248201527f44656c65676174696f6e4d616e616765722e5f7365745374726174656779576960448201527f746864726177616c44656c6179426c6f636b733a20696e707574206c656e67746064820152690d040dad2e6dac2e8c6d60b31b608482015260a490fd5b919082018092116135e557565b92906144877f1ec042c965e2edd7107b51188ee0f383e22e76179041ab3a9d18ff151405166c939260018060a01b03809616956000908782526001602052604091829182822090881690818352602052828220614701868254614696565b905589825260026020528282209082526020528181208982526020522061445d838254614696565b67446170704c696e6b60c01b602060405161474381612fcb565b60088152015260405160208101907f8cad95687ba82c2ce50e74f7b754645e5117c3a5bec8151c0726d5857980a86682527fdadb978fc98e6e975439bb996be670dd8e228496518e61b3cb48e91f9251c40d60408201524660608201523060808201526080815260a081018181106001600160401b03821117610b9f5760405251902090565b600080516020614d8883398151915280546001600160a01b039283166001600160a01b0319821681179092559091167f8be0079c531659141344cd1fd0a4f28419497f9722a3daafe3b4186f6b6457e0600080a3565b62034bc08111614860577fafa003cd76f87ff9d62b35beea889920f33c0c42b8d45b74954d61d50f4b6b6960406007548151908152836020820152a1600755565b60405162461bcd60e51b815260206004820152607160248201527f44656c65676174696f6e4d616e616765722e5f7365744d696e5769746864726160448201527f77616c44656c6179426c6f636b733a205f6d696e5769746864726177616c446560648201527f6c6179426c6f636b732063616e6e6f74206265203e204d41585f5749544844526084820152704157414c5f44454c41595f424c4f434b5360781b60a482015260c490fd5b7f9b779b17422d0df92223018b32b4d1fa46e071723d6817e2486d003becc55f00600281541461493b5760029055565b604051633ee5aeb560e01b8152600490fd5b1561495457565b60405162461bcd60e51b815260206004820152606e6024820152600080516020614da883398151915260448201527f645769746864726177616c3a207769746864726177616c44656c6179426c6f6360648201527f6b7320706572696f6420686173206e6f74207965742070617373656420666f7260848201526d207468697320737472617465677960901b60a482015260c490fd5b909190803b15614b53576040518092630b135d3f60e11b9485835260048301526040602483015280519081604484015260005b828110614b3b57505091816064818560008360209884010152601f8019910116810103019160018060a01b03165afa90811561060557600091614af4575b506001600160e01b03191603614a6d57565b60405162461bcd60e51b815260206004820152605360248201527f454950313237315369676e61747572655574696c732e636865636b5369676e6160448201527f747572655f454950313237313a2045524331323731207369676e6174757265206064820152721d995c9a599a58d85d1a5bdb8819985a5b1959606a1b608482015260a490fd5b6020813d602011614b33575b81614b0d6020938361302f565b81010312614b2f5751906001600160e01b0319821682036137b1575038614a5b565b5080fd5b3d9150614b00565b60208282018101516064888401015286945001614a1d565b90916040519260208401917f19457468657265756d205369676e6564204d6573736167653a0a3332000000008352603c850152603c845260608401918483106001600160401b03841117610b9f57614bbd94614bb493604052519020614c4c565b90939193614c88565b6001600160a01b03908116911603614bd157565b60405162461bcd60e51b815260206004820152604760248201527f454950313237315369676e61747572655574696c732e636865636b5369676e6160448201527f747572655f454950313237313a207369676e6174757265206e6f742066726f6d6064820152661039b4b3b732b960c91b608482015260a490fd5b8151919060418303614c7d57614c7692506020820151906060604084015193015160001a90614cf7565b9192909190565b505060009160029190565b600481101561107a5780614c9a575050565b60018103614cb45760405163f645eedf60e01b8152600490fd5b60028103614cd55760405163fce698f760e01b815260048101839052602490fd5b600314614cdf5750565b602490604051906335e2f38360e21b82526004820152fd5b91907f7fffffffffffffffffffffffffffffff5d576e7357a4501ddfe92f46681b20a08411614d7b57926020929160ff608095604051948552168484015260408301526060820152600092839182805260015afa15614d6f5780516001600160a01b03811615614d6657918190565b50809160019190565b604051903d90823e3d90fd5b5050506000916003919056fe9016d09d72d40fdae2fd8ceac6b6234c7706214fd39c1cd1e609a0528c19930044656c65676174696f6e4d616e616765722e5f636f6d706c657465517565756544656c65676174696f6e4d616e616765722e5f64656c65676174653a20617070c97098c2f658800b4df29001527f7324bcdffcf6e8751a699ab920a1eced5b1da264697066735822122027fe8d045418ba599e4086aef605e05e4584d12deb4d526f0d66657f348f739164736f6c63430008180033","linkReferences":{}},"methodIdentifiers":{"DELEGATION_APPROVAL_TYPEHASH()":"04a4f979","DOMAIN_TYPEHASH()":"20606b70","MAX_STAKER_OPT_OUT_WINDOW_BLOCKS()":"4fc40b61","MAX_WITHDRAWAL_DELAY_BLOCKS()":"ca661c04","STAKER_DELEGATION_TYPEHASH()":"43377382","calculateCurrentStakerDelegationDigestHash(address,address,uint256)":"1bbce091","calculateDelegationApprovalDigestHash(address,address,address,bytes32,uint256)":"0b9f487a","calculateStakerDelegationDigestHash(address,uint256,address,uint256)":"c94b5111","calculateWithdrawalRoot((address,address,address,uint256,uint32,address[],uint256[]))":"597b36da","completeQueuedWithdrawal((address,address,address,uint256,uint32,address[],uint256[]),address,uint256,bool)":"6f8c9884","completeQueuedWithdrawals((address,address,address,uint256,uint32,address[],uint256[])[],address,uint256[],bool[])":"e92ae726","cumulativeWithdrawalsQueued(address)":"a1788484","decreaseDelegatedShares(address,address,uint256)":"132d4967","delegateTo(address,(bytes,uint256),bytes32)":"eea9064b","delegateToBySignature(address,address,(bytes,uint256),(bytes,uint256),bytes32)":"7f548071","delegatedTo(address)":"65da1264","delegationApprover(address)":"3cdeb5e0","delegationApproverSaltIsSpent(address,bytes32)":"bb45fef2","domainSeparator()":"f698da25","earningsReceiver(address)":"5f966f14","getDelegatableShares(address)":"cf80873e","getOperatorShares(address,address[])":"90041347","getWithdrawalDelay(address[])":"0449ca39","increaseDelegatedShares(address,address,uint256)":"28a573ae","initialize(address,uint256,address[],uint256[],address,address,address)":"5ce4c761","isDelegated(address)":"3e28391d","isOperator(address)":"6d70f7ae","migrateQueuedWithdrawals((address[],uint256[],address,(address,uint96),uint32,address)[])":"5cfe8d2c","minWithdrawalDelayBlocks()":"c448feb8","modifyOperatorDetails((address,address,uint32,uint8))":"30d0377b","operatorDetails(address)":"c5e480db","operatorShares(address,address)":"778e55f3","owner()":"8da5cb5b","pauser()":"9fd0506d","pendingWithdrawals(bytes32)":"b7f06ebe","queueWithdrawals((address[],uint256[],address)[])":"0dd8dd02","registerAsOperator((address,address,uint32,uint8),string)":"11674578","renounceOwnership()":"715018a6","setMinWithdrawalDelayBlocks(uint256)":"635bbd10","setStrategyWithdrawalDelayBlocks(address[],uint256[])":"1522bf02","slasher()":"b1344271","stakerNonce(address)":"29c77d4f","stakerOptOutWindowBlocks(address)":"16928365","stakerStrategyOperatorShares(address,address,address)":"e2b2390a","strategyManager()":"39b70e38","strategyWithdrawalDelayBlocks(address)":"c488375a","transferOwnership(address)":"f2fde38b","undelegate(address)":"da8be864","updateOperatorNodeUrl(string)":"1c8392d7"},"id":69}