{
  "_format": "hh-sol-artifact-1",
  "contractName": "L1Pool",
  "sourceName": "contracts/core/L1/L1Pool.sol",
  "abi": [
    {
      "inputs": [],
      "stateMutability": "nonpayable",
      "type": "constructor"
    },
    {
      "inputs": [],
      "name": "AccessControlBadConfirmation",
      "type": "error"
    },
    {
      "inputs": [
        {
          "internalType": "address",
          "name": "account",
          "type": "address"
        },
        {
          "internalType": "bytes32",
          "name": "neededRole",
          "type": "bytes32"
        }
      ],
      "name": "AccessControlUnauthorizedAccount",
      "type": "error"
    },
    {
      "inputs": [
        {
          "internalType": "address",
          "name": "target",
          "type": "address"
        }
      ],
      "name": "AddressEmptyCode",
      "type": "error"
    },
    {
      "inputs": [
        {
          "internalType": "address",
          "name": "account",
          "type": "address"
        }
      ],
      "name": "AddressInsufficientBalance",
      "type": "error"
    },
    {
      "inputs": [],
      "name": "AlreadyClaimed",
      "type": "error"
    },
    {
      "inputs": [],
      "name": "EnforcedPause",
      "type": "error"
    },
    {
      "inputs": [],
      "name": "ErrorBlockChain",
      "type": "error"
    },
    {
      "inputs": [],
      "name": "ExpectedPause",
      "type": "error"
    },
    {
      "inputs": [],
      "name": "FailedInnerCall",
      "type": "error"
    },
    {
      "inputs": [],
      "name": "InvalidInitialization",
      "type": "error"
    },
    {
      "inputs": [
        {
          "internalType": "uint256",
          "name": "minAmount",
          "type": "uint256"
        },
        {
          "internalType": "uint256",
          "name": "providedAmount",
          "type": "uint256"
        }
      ],
      "name": "LessThanMinStakeAmount",
      "type": "error"
    },
    {
      "inputs": [
        {
          "internalType": "uint256",
          "name": "amount",
          "type": "uint256"
        }
      ],
      "name": "LessThanZero",
      "type": "error"
    },
    {
      "inputs": [
        {
          "internalType": "uint256",
          "name": "PoolIndex",
          "type": "uint256"
        }
      ],
      "name": "NewPoolIsNotCreate",
      "type": "error"
    },
    {
      "inputs": [],
      "name": "NoReward",
      "type": "error"
    },
    {
      "inputs": [],
      "name": "NotInitializing",
      "type": "error"
    },
    {
      "inputs": [
        {
          "internalType": "uint256",
          "name": "poolIndex",
          "type": "uint256"
        }
      ],
      "name": "PoolIsCompleted",
      "type": "error"
    },
    {
      "inputs": [],
      "name": "ReentrancyGuardReentrantCall",
      "type": "error"
    },
    {
      "inputs": [
        {
          "internalType": "address",
          "name": "token",
          "type": "address"
        }
      ],
      "name": "SafeERC20FailedOperation",
      "type": "error"
    },
    {
      "inputs": [
        {
          "internalType": "address",
          "name": "token",
          "type": "address"
        },
        {
          "internalType": "bool",
          "name": "isSupported",
          "type": "bool"
        }
      ],
      "name": "TokenIsAlreadySupported",
      "type": "error"
    },
    {
      "inputs": [
        {
          "internalType": "address",
          "name": "token",
          "type": "address"
        }
      ],
      "name": "TokenIsNotSupported",
      "type": "error"
    },
    {
      "anonymous": false,
      "inputs": [
        {
          "indexed": true,
          "internalType": "address",
          "name": "user",
          "type": "address"
        },
        {
          "indexed": false,
          "internalType": "uint256",
          "name": "startPoolId",
          "type": "uint256"
        },
        {
          "indexed": false,
          "internalType": "uint256",
          "name": "endPoolId",
          "type": "uint256"
        },
        {
          "indexed": true,
          "internalType": "address",
          "name": "token",
          "type": "address"
        },
        {
          "indexed": false,
          "internalType": "uint256",
          "name": "amount",
          "type": "uint256"
        },
        {
          "indexed": false,
          "internalType": "uint256",
          "name": "fee",
          "type": "uint256"
        }
      ],
      "name": "ClaimEvent",
      "type": "event"
    },
    {
      "anonymous": false,
      "inputs": [
        {
          "indexed": true,
          "internalType": "address",
          "name": "token",
          "type": "address"
        },
        {
          "indexed": false,
          "internalType": "uint256",
          "name": "poolIndex",
          "type": "uint256"
        }
      ],
      "name": "CompletePoolEvent",
      "type": "event"
    },
    {
      "anonymous": false,
      "inputs": [
        {
          "indexed": false,
          "internalType": "uint64",
          "name": "version",
          "type": "uint64"
        }
      ],
      "name": "Initialized",
      "type": "event"
    },
    {
      "anonymous": false,
      "inputs": [
        {
          "indexed": false,
          "internalType": "address",
          "name": "account",
          "type": "address"
        }
      ],
      "name": "Paused",
      "type": "event"
    },
    {
      "anonymous": false,
      "inputs": [
        {
          "indexed": true,
          "internalType": "bytes32",
          "name": "role",
          "type": "bytes32"
        },
        {
          "indexed": true,
          "internalType": "bytes32",
          "name": "previousAdminRole",
          "type": "bytes32"
        },
        {
          "indexed": true,
          "internalType": "bytes32",
          "name": "newAdminRole",
          "type": "bytes32"
        }
      ],
      "name": "RoleAdminChanged",
      "type": "event"
    },
    {
      "anonymous": false,
      "inputs": [
        {
          "indexed": true,
          "internalType": "bytes32",
          "name": "role",
          "type": "bytes32"
        },
        {
          "indexed": true,
          "internalType": "address",
          "name": "account",
          "type": "address"
        },
        {
          "indexed": true,
          "internalType": "address",
          "name": "sender",
          "type": "address"
        }
      ],
      "name": "RoleGranted",
      "type": "event"
    },
    {
      "anonymous": false,
      "inputs": [
        {
          "indexed": true,
          "internalType": "bytes32",
          "name": "role",
          "type": "bytes32"
        },
        {
          "indexed": true,
          "internalType": "address",
          "name": "account",
          "type": "address"
        },
        {
          "indexed": true,
          "internalType": "address",
          "name": "sender",
          "type": "address"
        }
      ],
      "name": "RoleRevoked",
      "type": "event"
    },
    {
      "anonymous": false,
      "inputs": [
        {
          "indexed": true,
          "internalType": "address",
          "name": "token",
          "type": "address"
        },
        {
          "indexed": false,
          "internalType": "uint256",
          "name": "amount",
          "type": "uint256"
        }
      ],
      "name": "SetMinStakeAmountEvent",
      "type": "event"
    },
    {
      "anonymous": false,
      "inputs": [
        {
          "indexed": true,
          "internalType": "address",
          "name": "token",
          "type": "address"
        },
        {
          "indexed": false,
          "internalType": "bool",
          "name": "isSupport",
          "type": "bool"
        }
      ],
      "name": "SetSupportTokenEvent",
      "type": "event"
    },
    {
      "anonymous": false,
      "inputs": [
        {
          "indexed": true,
          "internalType": "address",
          "name": "user",
          "type": "address"
        },
        {
          "indexed": false,
          "internalType": "uint256",
          "name": "amount",
          "type": "uint256"
        }
      ],
      "name": "StakingETHEvent",
      "type": "event"
    },
    {
      "anonymous": false,
      "inputs": [
        {
          "indexed": true,
          "internalType": "address",
          "name": "user",
          "type": "address"
        },
        {
          "indexed": false,
          "internalType": "uint256",
          "name": "amount",
          "type": "uint256"
        }
      ],
      "name": "StakingWETHEvent",
      "type": "event"
    },
    {
      "anonymous": false,
      "inputs": [
        {
          "indexed": true,
          "internalType": "address",
          "name": "user",
          "type": "address"
        },
        {
          "indexed": true,
          "internalType": "address",
          "name": "token",
          "type": "address"
        },
        {
          "indexed": false,
          "internalType": "uint256",
          "name": "amount",
          "type": "uint256"
        }
      ],
      "name": "StarkingERC20Event",
      "type": "event"
    },
    {
      "anonymous": false,
      "inputs": [
        {
          "indexed": false,
          "internalType": "uint256",
          "name": "Blockchain",
          "type": "uint256"
        },
        {
          "indexed": true,
          "internalType": "address",
          "name": "token",
          "type": "address"
        },
        {
          "indexed": true,
          "internalType": "address",
          "name": "to",
          "type": "address"
        },
        {
          "indexed": false,
          "internalType": "uint256",
          "name": "amount",
          "type": "uint256"
        }
      ],
      "name": "TransferAssertTo",
      "type": "event"
    },
    {
      "anonymous": false,
      "inputs": [
        {
          "indexed": false,
          "internalType": "address",
          "name": "account",
          "type": "address"
        }
      ],
      "name": "Unpaused",
      "type": "event"
    },
    {
      "inputs": [],
      "name": "ClaimAll",
      "outputs": [],
      "stateMutability": "nonpayable",
      "type": "function"
    },
    {
      "inputs": [
        {
          "internalType": "address",
          "name": "_token",
          "type": "address"
        }
      ],
      "name": "ClaimSimpleAsset",
      "outputs": [],
      "stateMutability": "nonpayable",
      "type": "function"
    },
    {
      "inputs": [
        {
          "components": [
            {
              "internalType": "uint32",
              "name": "startTimestamp",
              "type": "uint32"
            },
            {
              "internalType": "uint32",
              "name": "endTimestamp",
              "type": "uint32"
            },
            {
              "internalType": "address",
              "name": "token",
              "type": "address"
            },
            {
              "internalType": "uint256",
              "name": "TotalAmount",
              "type": "uint256"
            },
            {
              "internalType": "uint256",
              "name": "TotalFee",
              "type": "uint256"
            },
            {
              "internalType": "uint256",
              "name": "TotalFeeClaimed",
              "type": "uint256"
            },
            {
              "internalType": "bool",
              "name": "IsCompleted",
              "type": "bool"
            }
          ],
          "internalType": "struct IL1Pool.Pool[]",
          "name": "CompletePools",
          "type": "tuple[]"
        }
      ],
      "name": "CompletePoolAndNew",
      "outputs": [],
      "stateMutability": "payable",
      "type": "function"
    },
    {
      "inputs": [],
      "name": "DEFAULT_ADMIN_ROLE",
      "outputs": [
        {
          "internalType": "bytes32",
          "name": "",
          "type": "bytes32"
        }
      ],
      "stateMutability": "view",
      "type": "function"
    },
    {
      "inputs": [],
      "name": "DepositAndStakingETH",
      "outputs": [],
      "stateMutability": "payable",
      "type": "function"
    },
    {
      "inputs": [
        {
          "internalType": "uint256",
          "name": "amount",
          "type": "uint256"
        }
      ],
      "name": "DepositAndStakingWETH",
      "outputs": [],
      "stateMutability": "nonpayable",
      "type": "function"
    },
    {
      "inputs": [
        {
          "internalType": "address",
          "name": "_token",
          "type": "address"
        },
        {
          "internalType": "uint256",
          "name": "_amount",
          "type": "uint256"
        }
      ],
      "name": "DepositAndStarking",
      "outputs": [],
      "stateMutability": "payable",
      "type": "function"
    },
    {
      "inputs": [
        {
          "internalType": "address",
          "name": "_token",
          "type": "address"
        },
        {
          "internalType": "uint256",
          "name": "_amount",
          "type": "uint256"
        }
      ],
      "name": "DepositAndStarkingERC20",
      "outputs": [],
      "stateMutability": "nonpayable",
      "type": "function"
    },
    {
      "inputs": [
        {
          "internalType": "address",
          "name": "",
          "type": "address"
        }
      ],
      "name": "IsSupportToken",
      "outputs": [
        {
          "internalType": "bool",
          "name": "",
          "type": "bool"
        }
      ],
      "stateMutability": "view",
      "type": "function"
    },
    {
      "inputs": [
        {
          "internalType": "address",
          "name": "",
          "type": "address"
        }
      ],
      "name": "MinStakeAmount",
      "outputs": [
        {
          "internalType": "uint256",
          "name": "",
          "type": "uint256"
        }
      ],
      "stateMutability": "view",
      "type": "function"
    },
    {
      "inputs": [
        {
          "internalType": "address",
          "name": "",
          "type": "address"
        },
        {
          "internalType": "uint256",
          "name": "",
          "type": "uint256"
        }
      ],
      "name": "Pools",
      "outputs": [
        {
          "internalType": "uint32",
          "name": "startTimestamp",
          "type": "uint32"
        },
        {
          "internalType": "uint32",
          "name": "endTimestamp",
          "type": "uint32"
        },
        {
          "internalType": "address",
          "name": "token",
          "type": "address"
        },
        {
          "internalType": "uint256",
          "name": "TotalAmount",
          "type": "uint256"
        },
        {
          "internalType": "uint256",
          "name": "TotalFee",
          "type": "uint256"
        },
        {
          "internalType": "uint256",
          "name": "TotalFeeClaimed",
          "type": "uint256"
        },
        {
          "internalType": "bool",
          "name": "IsCompleted",
          "type": "bool"
        }
      ],
      "stateMutability": "view",
      "type": "function"
    },
    {
      "inputs": [],
      "name": "ReLayer",
      "outputs": [
        {
          "internalType": "bytes32",
          "name": "",
          "type": "bytes32"
        }
      ],
      "stateMutability": "view",
      "type": "function"
    },
    {
      "inputs": [
        {
          "internalType": "address",
          "name": "_token",
          "type": "address"
        },
        {
          "internalType": "bool",
          "name": "_isSupport",
          "type": "bool"
        },
        {
          "internalType": "uint32",
          "name": "startTimes",
          "type": "uint32"
        }
      ],
      "name": "SetSupportToken",
      "outputs": [],
      "stateMutability": "nonpayable",
      "type": "function"
    },
    {
      "inputs": [
        {
          "internalType": "uint256",
          "name": "",
          "type": "uint256"
        }
      ],
      "name": "SupportTokens",
      "outputs": [
        {
          "internalType": "address",
          "name": "",
          "type": "address"
        }
      ],
      "stateMutability": "view",
      "type": "function"
    },
    {
      "inputs": [
        {
          "internalType": "uint256",
          "name": "Blockchain",
          "type": "uint256"
        },
        {
          "internalType": "address",
          "name": "_token",
          "type": "address"
        },
        {
          "internalType": "address",
          "name": "_to",
          "type": "address"
        },
        {
          "internalType": "uint256",
          "name": "_amount",
          "type": "uint256"
        }
      ],
      "name": "TransferAssertToBridge",
      "outputs": [],
      "stateMutability": "nonpayable",
      "type": "function"
    },
    {
      "inputs": [
        {
          "internalType": "address",
          "name": "",
          "type": "address"
        },
        {
          "internalType": "uint256",
          "name": "",
          "type": "uint256"
        }
      ],
      "name": "Users",
      "outputs": [
        {
          "internalType": "bool",
          "name": "isClaimed",
          "type": "bool"
        },
        {
          "internalType": "address",
          "name": "token",
          "type": "address"
        },
        {
          "internalType": "uint256",
          "name": "StartPoolId",
          "type": "uint256"
        },
        {
          "internalType": "uint256",
          "name": "EndPoolId",
          "type": "uint256"
        },
        {
          "internalType": "uint256",
          "name": "Amount",
          "type": "uint256"
        }
      ],
      "stateMutability": "view",
      "type": "function"
    },
    {
      "inputs": [
        {
          "internalType": "address",
          "name": "",
          "type": "address"
        }
      ],
      "name": "balances",
      "outputs": [
        {
          "internalType": "uint256",
          "name": "",
          "type": "uint256"
        }
      ],
      "stateMutability": "view",
      "type": "function"
    },
    {
      "inputs": [
        {
          "internalType": "address",
          "name": "_token",
          "type": "address"
        },
        {
          "internalType": "uint256",
          "name": "_index",
          "type": "uint256"
        }
      ],
      "name": "getPool",
      "outputs": [
        {
          "components": [
            {
              "internalType": "uint32",
              "name": "startTimestamp",
              "type": "uint32"
            },
            {
              "internalType": "uint32",
              "name": "endTimestamp",
              "type": "uint32"
            },
            {
              "internalType": "address",
              "name": "token",
              "type": "address"
            },
            {
              "internalType": "uint256",
              "name": "TotalAmount",
              "type": "uint256"
            },
            {
              "internalType": "uint256",
              "name": "TotalFee",
              "type": "uint256"
            },
            {
              "internalType": "uint256",
              "name": "TotalFeeClaimed",
              "type": "uint256"
            },
            {
              "internalType": "bool",
              "name": "IsCompleted",
              "type": "bool"
            }
          ],
          "internalType": "struct IL1Pool.Pool",
          "name": "",
          "type": "tuple"
        }
      ],
      "stateMutability": "view",
      "type": "function"
    },
    {
      "inputs": [
        {
          "internalType": "address",
          "name": "_token",
          "type": "address"
        }
      ],
      "name": "getPoolLength",
      "outputs": [
        {
          "internalType": "uint256",
          "name": "",
          "type": "uint256"
        }
      ],
      "stateMutability": "view",
      "type": "function"
    },
    {
      "inputs": [
        {
          "internalType": "bytes32",
          "name": "role",
          "type": "bytes32"
        }
      ],
      "name": "getRoleAdmin",
      "outputs": [
        {
          "internalType": "bytes32",
          "name": "",
          "type": "bytes32"
        }
      ],
      "stateMutability": "view",
      "type": "function"
    },
    {
      "inputs": [
        {
          "internalType": "address",
          "name": "_user",
          "type": "address"
        }
      ],
      "name": "getUser",
      "outputs": [
        {
          "components": [
            {
              "internalType": "bool",
              "name": "isClaimed",
              "type": "bool"
            },
            {
              "internalType": "address",
              "name": "token",
              "type": "address"
            },
            {
              "internalType": "uint256",
              "name": "StartPoolId",
              "type": "uint256"
            },
            {
              "internalType": "uint256",
              "name": "EndPoolId",
              "type": "uint256"
            },
            {
              "internalType": "uint256",
              "name": "Amount",
              "type": "uint256"
            }
          ],
          "internalType": "struct IL1Pool.User[]",
          "name": "",
          "type": "tuple[]"
        }
      ],
      "stateMutability": "view",
      "type": "function"
    },
    {
      "inputs": [
        {
          "internalType": "address",
          "name": "_user",
          "type": "address"
        },
        {
          "internalType": "uint256",
          "name": "_index",
          "type": "uint256"
        }
      ],
      "name": "getUser",
      "outputs": [
        {
          "components": [
            {
              "internalType": "bool",
              "name": "isClaimed",
              "type": "bool"
            },
            {
              "internalType": "address",
              "name": "token",
              "type": "address"
            },
            {
              "internalType": "uint256",
              "name": "StartPoolId",
              "type": "uint256"
            },
            {
              "internalType": "uint256",
              "name": "EndPoolId",
              "type": "uint256"
            },
            {
              "internalType": "uint256",
              "name": "Amount",
              "type": "uint256"
            }
          ],
          "internalType": "struct IL1Pool.User",
          "name": "",
          "type": "tuple"
        }
      ],
      "stateMutability": "view",
      "type": "function"
    },
    {
      "inputs": [
        {
          "internalType": "address",
          "name": "_user",
          "type": "address"
        }
      ],
      "name": "getUserLength",
      "outputs": [
        {
          "internalType": "uint256",
          "name": "",
          "type": "uint256"
        }
      ],
      "stateMutability": "view",
      "type": "function"
    },
    {
      "inputs": [
        {
          "internalType": "bytes32",
          "name": "role",
          "type": "bytes32"
        },
        {
          "internalType": "address",
          "name": "account",
          "type": "address"
        }
      ],
      "name": "grantRole",
      "outputs": [],
      "stateMutability": "nonpayable",
      "type": "function"
    },
    {
      "inputs": [
        {
          "internalType": "bytes32",
          "name": "role",
          "type": "bytes32"
        },
        {
          "internalType": "address",
          "name": "account",
          "type": "address"
        }
      ],
      "name": "hasRole",
      "outputs": [
        {
          "internalType": "bool",
          "name": "",
          "type": "bool"
        }
      ],
      "stateMutability": "view",
      "type": "function"
    },
    {
      "inputs": [
        {
          "internalType": "address",
          "name": "_MultisigWallet",
          "type": "address"
        }
      ],
      "name": "initialize",
      "outputs": [],
      "stateMutability": "nonpayable",
      "type": "function"
    },
    {
      "inputs": [],
      "name": "pause",
      "outputs": [],
      "stateMutability": "nonpayable",
      "type": "function"
    },
    {
      "inputs": [],
      "name": "paused",
      "outputs": [
        {
          "internalType": "bool",
          "name": "",
          "type": "bool"
        }
      ],
      "stateMutability": "view",
      "type": "function"
    },
    {
      "inputs": [],
      "name": "periodTime",
      "outputs": [
        {
          "internalType": "uint32",
          "name": "",
          "type": "uint32"
        }
      ],
      "stateMutability": "view",
      "type": "function"
    },
    {
      "inputs": [
        {
          "internalType": "bytes32",
          "name": "role",
          "type": "bytes32"
        },
        {
          "internalType": "address",
          "name": "callerConfirmation",
          "type": "address"
        }
      ],
      "name": "renounceRole",
      "outputs": [],
      "stateMutability": "nonpayable",
      "type": "function"
    },
    {
      "inputs": [
        {
          "internalType": "bytes32",
          "name": "role",
          "type": "bytes32"
        },
        {
          "internalType": "address",
          "name": "account",
          "type": "address"
        }
      ],
      "name": "revokeRole",
      "outputs": [],
      "stateMutability": "nonpayable",
      "type": "function"
    },
    {
      "inputs": [
        {
          "internalType": "address",
          "name": "_token",
          "type": "address"
        },
        {
          "internalType": "uint256",
          "name": "_amount",
          "type": "uint256"
        }
      ],
      "name": "setMinStakeAmount",
      "outputs": [],
      "stateMutability": "nonpayable",
      "type": "function"
    },
    {
      "inputs": [
        {
          "internalType": "bytes4",
          "name": "interfaceId",
          "type": "bytes4"
        }
      ],
      "name": "supportsInterface",
      "outputs": [
        {
          "internalType": "bool",
          "name": "",
          "type": "bool"
        }
      ],
      "stateMutability": "view",
      "type": "function"
    },
    {
      "inputs": [],
      "name": "unpause",
      "outputs": [],
      "stateMutability": "nonpayable",
      "type": "function"
    }
  ],
  "bytecode": "0x608060405234801562000010575f80fd5b506200001b62000021565b620000d5565b7ff0c57e16840df040f15088dc2f81fe391c3923bec73e23a9662efc9c229c6a00805468010000000000000000900460ff1615620000725760405163f92ee8a960e01b815260040160405180910390fd5b80546001600160401b0390811614620000d25780546001600160401b0319166001600160401b0390811782556040519081527fc7f505b2f371ae2175ee4913f4499e1f2633a7b5936321eed1cdaeb6115181d29060200160405180910390a15b50565b6139c480620000e35f395ff3fe6080604052600436106101f1575f3560e01c806391d1485411610108578063cb4f04ad1161009d578063f91fa9a81161006d578063f91fa9a8146106be578063f9f3ec9e146106dd578063fa861848146106f0578063faeb96a514610704578063ff2bf64f14610723575f80fd5b8063cb4f04ad14610609578063d547741f1461063d578063dac295681461065c578063f8fcc2aa1461068a575f80fd5b8063a217fddf116100d8578063a217fddf14610599578063bc42493d146105ac578063c4d66de8146105cb578063cb314fab146105ea575f80fd5b806391d148541461053457806395455eef1461055357806396f984e6146105725780639845c5c31461057a575f80fd5b806336568abe116101895780635c975abb116101595780635c975abb14610486578063626417b5146104a95780636d6a78bf146104e05780636f77926b146104f45780638456cb5914610520575f80fd5b806336568abe146103615780633f4ba83a146103805780634663cdc8146103945780635b5b9ea214610400575f80fd5b8063248a9ca3116101c4578063248a9ca3146102e357806327e235e3146103025780632f2ff15d1461032d5780633338562c1461034e575f80fd5b806301ffc9a7146101f557806313e8544e146102295780631ca2f1731461027a5780631d31fac0146102b3575b5f80fd5b348015610200575f80fd5b5061021461020f3660046133b7565b61074f565b60405190151581526020015b60405180910390f35b348015610234575f80fd5b506102486102433660046133f4565b610785565b6040805195151586526001600160a01b039094166020860152928401919091526060830152608082015260a001610220565b348015610285575f80fd5b506102a561029436600461341c565b60056020525f908152604090205481565b604051908152602001610220565b3480156102be575f80fd5b505f546102ce9063ffffffff1681565b60405163ffffffff9091168152602001610220565b3480156102ee575f80fd5b506102a56102fd366004613435565b6107db565b34801561030d575f80fd5b506102a561031c36600461341c565b60026020525f908152604090205481565b348015610338575f80fd5b5061034c61034736600461344c565b6107fb565b005b61034c61035c366004613504565b61081d565b34801561036c575f80fd5b5061034c61037b36600461344c565b610b94565b34801561038b575f80fd5b5061034c610bc7565b34801561039f575f80fd5b506103b36103ae3660046133f4565b610bdc565b6040805163ffffffff98891681529790961660208801526001600160a01b03909416948601949094526060850191909152608084015260a0830191909152151560c082015260e001610220565b34801561040b575f80fd5b5061041f61041a3660046133f4565b610c4d565b6040516102209190815163ffffffff9081168252602080840151909116908201526040808301516001600160a01b031690820152606080830151908201526080808301519082015260a0808301519082015260c09182015115159181019190915260e00190565b348015610491575f80fd5b505f8051602061390f8339815191525460ff16610214565b3480156104b4575f80fd5b506104c86104c3366004613435565b610d2f565b6040516001600160a01b039091168152602001610220565b3480156104eb575f80fd5b5061034c610d57565b3480156104ff575f80fd5b5061051361050e36600461341c565b610dcd565b6040516102209190613650565b34801561052b575f80fd5b5061034c610e7b565b34801561053f575f80fd5b5061021461054e36600461344c565b610e8d565b34801561055e575f80fd5b5061034c61056d36600461341c565b610ec3565b61034c6115f3565b348015610585575f80fd5b5061034c6105943660046133f4565b611900565b3480156105a4575f80fd5b506102a55f81565b3480156105b7575f80fd5b5061034c6105c6366004613435565b611b8d565b3480156105d6575f80fd5b5061034c6105e536600461341c565b611f03565b3480156105f5575f80fd5b5061034c6106043660046133f4565b612034565b348015610614575f80fd5b506102a561062336600461341c565b6001600160a01b03165f9081526004602052604090205490565b348015610648575f80fd5b5061034c61065736600461344c565b612097565b348015610667575f80fd5b5061021461067636600461341c565b60016020525f908152604090205460ff1681565b348015610695575f80fd5b506102a56106a436600461341c565b6001600160a01b03165f9081526003602052604090205490565b3480156106c9575f80fd5b5061034c6106d836600461369d565b6120b3565b61034c6106eb3660046133f4565b61228b565b3480156106fb575f80fd5b506102a561231c565b34801561070f575f80fd5b5061034c61071e3660046136de565b612376565b34801561072e575f80fd5b5061074261073d3660046133f4565b612669565b6040516102209190613720565b5f6001600160e01b03198216637965db0b60e01b148061077f57506301ffc9a760e01b6001600160e01b03198316145b92915050565b6004602052815f5260405f20818154811061079e575f80fd5b5f918252602090912060049091020180546001820154600283015460039093015460ff831695506101009092046001600160a01b03169350919085565b5f9081525f805160206138ef833981519152602052604090206001015490565b610804826107db565b61080d8161272b565b6108178383612735565b50505050565b60ff1961084b60017f33fe247d78fee2e7fd135c405eda4bd2911c0a73c0a81b36c3bcc967dd06e5ae613742565b60405160200161085d91815260200190565b604051602081830303815290604052805190602001201661087d8161272b565b5f5b8251811015610b8f575f83828151811061089b5761089b613755565b60200260200101516040015190505f600160035f846001600160a01b03166001600160a01b031681526020019081526020015f20805490506108dd9190613742565b6001600160a01b0383165f90815260036020526040902080549192506001918390811061090c5761090c613755565b905f5260205f2090600502016004015f6101000a81548160ff02191690831515021790555084838151811061094357610943613755565b60200260200101516080015160035f846001600160a01b03166001600160a01b031681526020019081526020015f20828154811061098357610983613755565b905f5260205f209060050201600201819055505f60035f846001600160a01b03166001600160a01b031681526020019081526020015f2082815481106109cb576109cb613755565b5f91825260208083206005909202909101546001600160a01b0386168352600382526040808420815160e0810190925263ffffffff64010000000090930483168083529454949550939092830191610a24911685613769565b63ffffffff168152602001856001600160a01b0316815260200160035f876001600160a01b03166001600160a01b031681526020019081526020015f208581548110610a7257610a72613755565b5f918252602080832060059283020160019081015485528482018490526040808601859052606095860185905287548083018955978552938290208651979093029092018054868301518786015163ffffffff998a1667ffffffffffffffff1990931692909217640100000000999091169890980297909717600160401b600160e01b031916600160401b6001600160a01b039889160217815593850151918401919091556080840151600284015560a0840151600384015560c0909301516004909201805460ff19169215159290921790915551848152918516917fb6f449f07ceaf55392c9899e0797c6529908ae827c2d498c682e90d42c241167910160405180910390a25050508080610b8790613786565b91505061087f565b505050565b6001600160a01b0381163314610bbd5760405163334bd91960e11b815260040160405180910390fd5b610b8f82826127dd565b5f610bd18161272b565b610bd9612856565b50565b6003602052815f5260405f208181548110610bf5575f80fd5b5f9182526020909120600590910201805460018201546002830154600384015460049094015463ffffffff80851697506401000000008504169550600160401b9093046001600160a01b031693919290919060ff1687565b6040805160e0810182525f8082526020808301829052828401829052606083018290526080830182905260a0830182905260c083018290526001600160a01b03861682526003905291909120805483908110610cab57610cab613755565b5f9182526020918290206040805160e081018252600593909302909101805463ffffffff808216855264010000000082041694840194909452600160401b9093046001600160a01b0316908201526001820154606082015260028201546080820152600382015460a082015260049091015460ff16151560c0820152905092915050565b60068181548110610d3e575f80fd5b5f918252602090912001546001600160a01b0316905081565b610d5f6128b5565b610d676128ec565b5f5b600654811015610db457610da260068281548110610d8957610d89613755565b5f918252602090912001546001600160a01b0316610ec3565b80610dac81613786565b915050610d69565b50610dcb60015f8051602061394f83398151915255565b565b6001600160a01b0381165f908152600460209081526040808320805482518185028101850190935280835260609492939192909184015b82821015610e70575f8481526020908190206040805160a08101825260048602909201805460ff81161515845261010090046001600160a01b03168385015260018082015492840192909252600281015460608401526003015460808301529083529092019101610e04565b505050509050919050565b5f610e858161272b565b610bd961291c565b5f9182525f805160206138ef833981519152602090815260408084206001600160a01b0393909316845291905290205460ff1690565b610ecb6128b5565b610ed36128ec565b6001600160a01b0381165f9081526001602052604090205460ff16610f1b576040516305fd61ad60e01b81526001600160a01b03821660048201526024015b60405180910390fd5b6001600160a01b0381165f908152600360205260408120549003610f5457604051637d58ebb960e01b81525f6004820152602401610f12565b5f5b335f908152600460205260409020548110156115dc57335f908152600460205260409020805482916001600160a01b0385169183908110610f9957610f99613755565b5f91825260209091206004909102015461010090046001600160a01b03160361146e57335f908152600460205260409020805482908110610fdc57610fdc613755565b5f91825260209091206004909102015460ff1615610ffa57506115ca565b6001600160a01b0383165f9081526003602052604081205461101e90600190613742565b335f9081526004602052604090208054919250908390811061104257611042613755565b5f918252602080832060036004909302018201546001600160a01b0388168452919052604090912080548390811061107c5761107c613755565b905f5260205f2090600502016001015f8282546110999190613742565b9091555050335f9081526004602052604081208054829190859081106110c1576110c1613755565b5f91825260208083206004928302016003015433845291905260408220805491935090869081106110f4576110f4613755565b905f5260205f209060040201600101549050838111156111275760405163374c934360e11b815260040160405180910390fd5b805b8481101561127b576001600160a01b0388165f9081526003602052604090205461115590600190613742565b81111561117857604051637d58ebb960e01b815260048101829052602401610f12565b6001600160a01b0388165f9081526003602052604081208054839081106111a1576111a1613755565b905f5260205f2090600502016001015460035f8b6001600160a01b03166001600160a01b031681526020019081526020015f2083815481106111e5576111e5613755565b905f5260205f2090600502016002015485611200919061379e565b61120a91906137b5565b905061121681866137d4565b6001600160a01b038a165f908152600360205260409020805491965082918490811061124457611244613755565b905f5260205f2090600502016003015f82825461126191906137d4565b90915550829150611273905081613786565b915050611129565b505f83116112b75760405162461bcd60e51b8152602060048201526009602482015268139bc814995dd85c9960ba1b6044820152606401610f12565b6112c183836137d4565b335f9081526004602052604090208054919350600191879081106112e7576112e7613755565b5f9182526020909120600490910201805460ff19169115159190911790556001600160a01b03871673eeeeeeeeeeeeeeeeeeeeeeeeeeeeeeeeeeeeeeed190161135a57604051339083156108fc029084905f818181858888f19350505050158015611354573d5f803e3d5ffd5b5061140c565b73c02aaa39b223fe8d0a0e5c4f27ead9083c756cc1196001600160a01b038816016113f85760405163a9059cbb60e01b81523360048201526024810183905273c02aaa39b223fe8d0a0e5c4f27ead9083c756cc29063a9059cbb906044016020604051808303815f875af11580156113d4573d5f803e3d5ffd5b505050506040513d601f19601f8201168201806040525081019061135491906137e7565b61140c6001600160a01b0388163384612964565b6001600160a01b038716337f991c329471ab5230e2301ee30d0d6fba5906e32411d5d154d5a8c278d021a2ab83876114448888613742565b604080519384526020840192909252908201526060810187905260800160405180910390a3505050505b335f90815260046020526040902054600110156115c857335f90815260046020526040902080546114a190600190613742565b815481106114b1576114b1613755565b905f5260205f20906004020160045f336001600160a01b03166001600160a01b031681526020019081526020015f2082815481106114f1576114f1613755565b5f918252602080832084546004938402909101805460ff909216151560ff1983168117825586546001600160a01b03610100918290041602610100600160a81b03199091166001600160a81b03199093169290921791909117815560018086015490820155600280860154908201556003948501549401939093553382529091526040902080548061158557611585613802565b5f8281526020812060045f199093019283020180546001600160a81b03191681556001810182905560028101829055600301559055816115c481613816565b9250505b505b806115d481613831565b915050610f56565b50610bd960015f8051602061394f83398151915255565b6115fb6128b5565b6116036128ec565b73eeeeeeeeeeeeeeeeeeeeeeeeeeeeeeeeeeeeeeee5f5260056020527fa1829a9003092132f585b6ccdd167c19fe9774dbdea4260287e8a8e8ca8185d7543410156116a95773eeeeeeeeeeeeeeeeeeeeeeeeeeeeeeeeeeeeeeee5f5260056020527fa1829a9003092132f585b6ccdd167c19fe9774dbdea4260287e8a8e8ca8185d7546040516327500c6d60e21b81526004810191909152346024820152604401610f12565b73eeeeeeeeeeeeeeeeeeeeeeeeeeeeeeeeeeeeeeee5f90815260036020525f8051602061396f833981519152546116e290600190613742565b73eeeeeeeeeeeeeeeeeeeeeeeeeeeeeeeeeeeeeeee5f90815260036020525f8051602061396f833981519152549192500361173357604051637d58ebb960e01b815260016004820152602401610f12565b73eeeeeeeeeeeeeeeeeeeeeeeeeeeeeeeeeeeeeeee5f5260036020525f8051602061396f83398151915280544291908390811061177257611772613755565b5f91825260209091206005909102015463ffffffff16111561188d57335f908152600460208181526040808420815160a08101835285815273eeeeeeeeeeeeeeeeeeeeeeeeeeeeeeeeeeeeeeee818501818152938201888152606083018881523460808501818152865460018082018955978c52898c2096519a02909501805497516001600160a81b0319909816991515610100600160a81b031916999099176101006001600160a01b03909816979097029690961788559051938701939093559151600286015551600394850155909352525f8051602061396f83398151915280548390811061186557611865613755565b905f5260205f2090600502016001015f82825461188291906137d4565b909155506118b49050565b6118988160016137d4565b604051637d58ebb960e01b8152600401610f1291815260200190565b60405134815233907fe7466ea83435490635fc76a5f33da4815758ab48b1d45858f0452ca6465569379060200160405180910390a250610dcb60015f8051602061394f83398151915255565b6119086128b5565b6119106128ec565b6001600160a01b0382165f9081526001602052604090205460ff16611953576040516305fd61ad60e01b81526001600160a01b0383166004820152602401610f12565b6001600160a01b0382165f908152600560205260409020548110156119af576001600160a01b0382165f90815260056020526040908190205490516327500c6d60e21b8152600481019190915260248101829052604401610f12565b6119c46001600160a01b0383163330846129c3565b6001600160a01b0382165f908152600360205260408120546119e890600190613742565b6001600160a01b0384165f9081526003602052604090208054919250429183908110611a1657611a16613755565b5f91825260209091206005909102015463ffffffff161115611b1657335f908152600460208181526040808420815160a0810183528581526001600160a01b038981168286018181528386018a8152606085018a8152608086018d8152875460018181018a55988d528a8d2097519b029096018054935190951661010002610100600160a81b03199a15159a909a166001600160a81b031990931692909217989098178355965193820193909355945160028601555160039485015584529190529020805483919083908110611aee57611aee613755565b905f5260205f2090600502016001015f828254611b0b91906137d4565b90915550611b329050565b604051637d58ebb960e01b815260048101829052602401610f12565b6040518281526001600160a01b0384169033907f3ac7d3823c11677fba9479ed26f696a3f17e16a5a5c39162fa6d183905aa67359060200160405180910390a350611b8960015f8051602061394f83398151915255565b5050565b611b956128b5565b611b9d6128ec565b73c02aaa39b223fe8d0a0e5c4f27ead9083c756cc25f5260056020527fa550ba85c46b24b567d2e17cd597f2283877afab43603f46d5de7858f1bdb73154811015611c30575f805260056020527f05b8ccbb9d4d8fb16ea74ce3c29a41f1b461fbdaff4714a0d9a8eb05499746bc546040516327500c6d60e21b8152600481019190915260248101829052604401610f12565b6040516323b872dd60e01b81523360048201523060248201526044810182905273c02aaa39b223fe8d0a0e5c4f27ead9083c756cc2906323b872dd906064016020604051808303815f875af1158015611c8b573d5f803e3d5ffd5b505050506040513d601f19601f82011682018060405250810190611caf91906137e7565b5073c02aaa39b223fe8d0a0e5c4f27ead9083c756cc25f90815260036020525f8051602061392f83398151915254611ce990600190613742565b73c02aaa39b223fe8d0a0e5c4f27ead9083c756cc25f5260036020525f8051602061392f83398151915280549192509082908110611d2957611d29613755565b5f91825260209091206004600590920201015460ff1615611d60576040516311cf1b0760e31b815260048101829052602401610f12565b73c02aaa39b223fe8d0a0e5c4f27ead9083c756cc25f5260036020525f8051602061392f833981519152805442919083908110611d9f57611d9f613755565b5f91825260209091206005909102015463ffffffff161115611eb757335f908152600460208181526040808420815160a08101835285815273c02aaa39b223fe8d0a0e5c4f27ead9083c756cc281850181815293820188815260608301888152608084018b8152855460018181018855968b52888b2095519902909401805496516001600160a01b031661010002610100600160a81b0319991515999099166001600160a81b03199097169690961797909717855551928401929092559351600283015592516003918201559190925290525f8051602061392f833981519152805483919083908110611e9457611e94613755565b905f5260205f2090600502016001015f828254611eb191906137d4565b90915550505b60405182815233907fc138e3bd6d13eefa5cb01c0d35c5794001141efaf4e5ad888cad059935f833839060200160405180910390a250610bd960015f8051602061394f83398151915255565b7ff0c57e16840df040f15088dc2f81fe391c3923bec73e23a9662efc9c229c6a008054600160401b810460ff16159067ffffffffffffffff165f81158015611f485750825b90505f8267ffffffffffffffff166001148015611f645750303b155b905081158015611f72575080155b15611f905760405163f92ee8a960e01b815260040160405180910390fd5b845467ffffffffffffffff191660011785558315611fba57845460ff60401b1916600160401b1785555b611fc26129fc565b611fca612a04565b611fd45f87612735565b505f805463ffffffff1916621baf80179055831561202c57845460ff60401b19168555604051600181527fc7f505b2f371ae2175ee4913f4499e1f2633a7b5936321eed1cdaeb6115181d29060200160405180910390a15b505050505050565b5f61203e8161272b565b6001600160a01b0383165f8181526005602052604090819020849055517ff54d3b756d286b6b08e5d4eda6dfe5b135664abf029e58e637cbf013c442c9509061208a9085815260200190565b60405180910390a2505050565b6120a0826107db565b6120a98161272b565b61081783836127dd565b60ff196120e160017f33fe247d78fee2e7fd135c405eda4bd2911c0a73c0a81b36c3bcc967dd06e5ae613742565b6040516020016120f391815260200190565b60405160208183030381529060405280519060200120166121138161272b565b6001600160a01b0384165f9081526001602052604090205460ff16612156576040516305fd61ad60e01b81526001600160a01b0385166004820152602401610f12565b8462082750036121e957604051636bb825d760e11b815261753060048201525f90730d7e906bd9cafa154b048cfa766cc1e54e39af9b9063d7704bae90602401602060405180830381865afa1580156121b1573d5f803e3d5ffd5b505050506040513d601f19601f820116820180604052508101906121d59190613848565b90506121e385858584612a14565b5061222e565b8461044d03612202576121fd848484612d08565b61222e565b84600a03612215576121fd848484612e7b565b604051639474dee160e01b815260040160405180910390fd5b826001600160a01b0316846001600160a01b03167f08ffba656e4ac665e1aa4bb6a342e1a69d4cc12fd751ac862fa3fe27b0c7524a878560405161227c929190918252602082015260400190565b60405180910390a35050505050565b6122936128b5565b61229b6128ec565b34156122ae576122a96115f3565b612306565b73c02aaa39b223fe8d0a0e5c4f27ead9083c756cc1196001600160a01b038316016122dc576122a981611b8d565b6001600160a01b0382165f9081526001602052604090205460ff1615612306576123068282611900565b611b8960015f8051602061394f83398151915255565b60ff1961234a60017f33fe247d78fee2e7fd135c405eda4bd2911c0a73c0a81b36c3bcc967dd06e5ae613742565b60405160200161235c91815260200190565b604051602081830303815290604052805190602001201681565b5f6123808161272b565b6001600160a01b0384165f9081526001602052604090205460ff16156123cc5760405163411befff60e11b81526001600160a01b03851660048201528315156024820152604401610f12565b6001600160a01b0384165f908152600160209081526040808320805460ff19168715151790556003909152808220815160e08101909252915481906124179063ffffffff168661385f565b63ffffffff908116825285811660208084018290526001600160a01b03808b1660408087018290525f60608089018290526080808a0183905260a0808b0184905260c09a8b018490528c5460018181018f559d85528885208d5160059092020180548e8b01518f890151909a16600160401b02600160401b600160e01b03199a8e166401000000000267ffffffffffffffff19909216938e16939093171798909816178755918b01519b86019b909b559989015160028501559888015160038085019190915597909601516004909201805492151560ff19909316929092179091558652938452828520835160e081019094529083529354919283019161251f911686613769565b63ffffffff90811682526001600160a01b0388811660208085018290525f60408087018290526060808801839052608080890184905260a09889018490528a5460018082018d559b85528585208b5160059092020180548c8801518d870151938c1667ffffffffffffffff199092169190911764010000000091909b160299909917600160401b600160e01b031916600160401b9190981602969096178755880151868a015593870151600286015594860151600385015560c0909501516004909301805460ff1916931515939093179092556006805495860181559092527ff652222313e28459528d920b65115c16c04f3efc82aaedc97be59f3f377c0d3f90930180546001600160a01b031916841790555185151581527fc8c34f23fafb34e68119c1d231ef03d0d47225b15e2c4de3efbefa14b0181d86910160405180910390a250505050565b6126a16040518060a001604052805f151581526020015f6001600160a01b031681526020015f81526020015f81526020015f81525090565b6001600160a01b0383165f9081526004602052604090208054839081106126ca576126ca613755565b5f9182526020918290206040805160a081018252600493909302909101805460ff81161515845261010090046001600160a01b0316938301939093526001830154908201526002820154606082015260039091015460808201529392505050565b610bd98133613036565b5f5f805160206138ef83398151915261274e8484610e8d565b6127cd575f848152602082815260408083206001600160a01b03871684529091529020805460ff191660011790556127833390565b6001600160a01b0316836001600160a01b0316857f2f8788117e7eff1d82e926ec794901d17c78024a50270940304540a733656f0d60405160405180910390a4600191505061077f565b5f91505061077f565b5092915050565b5f5f805160206138ef8339815191526127f68484610e8d565b156127cd575f848152602082815260408083206001600160a01b0387168085529252808320805460ff1916905551339287917ff6391f5c32d9c69d2a47ea670b442974b53935d1edc7fd64eb21e047a839171b9190a4600191505061077f565b61285e61306f565b5f8051602061390f833981519152805460ff191681557f5db9ee0a495bf2e6ff9c91a7834c1ba4fdd244a5e8aa4e537bd38aeae4b073aa335b6040516001600160a01b03909116815260200160405180910390a150565b5f8051602061394f8339815191528054600119016128e657604051633ee5aeb560e01b815260040160405180910390fd5b60029055565b5f8051602061390f8339815191525460ff1615610dcb5760405163d93c066560e01b815260040160405180910390fd5b6129246128ec565b5f8051602061390f833981519152805460ff191660011781557f62e78cea01bee320cd4e420270b5ea74000d11b0c9f74754ebdbfc544b05a25833612897565b6040516001600160a01b03838116602483015260448201839052610b8f91859182169063a9059cbb906064015b604051602081830303815290604052915060e01b6020820180516001600160e01b03838183161783525050505061309e565b6040516001600160a01b0384811660248301528381166044830152606482018390526108179186918216906323b872dd90608401612991565b610dcb6130ff565b612a0c6130ff565b610dcb613148565b73eeeeeeeeeeeeeeeeeeeeeeeeeeeeeeeeeeeeeeed196001600160a01b03851601612ac757736ea73e05adc79974b931123675ea8f78ffdacdf063ce0b63ce612a5d83856137d4565b85855a6040516001600160e01b031960e087901b1681526001600160a01b039093166004840152602483019190915260448201526064015f604051808303818588803b158015612aab575f80fd5b505af1158015612abd573d5f803e3d5ffd5b5050505050610817565b73c02aaa39b223fe8d0a0e5c4f27ead9083c756cc1196001600160a01b03851601612bf95760405163095ea7b360e01b8152737ac440cae8eb6328de4fa621163a792c1ea9d4fe6004820152602481018390526001600160a01b0385169063095ea7b3906044016020604051808303815f875af1158015612b4a573d5f803e3d5ffd5b505050506040513d601f19601f82011682018060405250810190612b6e91906137e7565b50737ac440cae8eb6328de4fa621163a792c1ea9d4fe63f219fa668585855a6040516001600160e01b031960e087901b1681526001600160a01b039485166004820152939092166024840152604483015260648201526084015f604051808303815f87803b158015612bde575f80fd5b505af1158015612bf0573d5f803e3d5ffd5b50505050610817565b60405163095ea7b360e01b8152737ac440cae8eb6328de4fa621163a792c1ea9d4fe6004820152602481018390526001600160a01b0385169063095ea7b3906044016020604051808303815f875af1158015612c57573d5f803e3d5ffd5b505050506040513d601f19601f82011682018060405250810190612c7b91906137e7565b5073d8a791fe2be73eb6e6cf1eb0cb3f36adc9b3f8f963f219fa668585855a6040516001600160e01b031960e087901b1681526001600160a01b039485166004820152939092166024840152604483015260648201526084015b5f604051808303815f87803b158015612cec575f80fd5b505af1158015612cfe573d5f803e3d5ffd5b5050505050505050565b73eeeeeeeeeeeeeeeeeeeeeeeeeeeeeeeeeeeeeeed196001600160a01b03841601612d865760405163cd58657960e01b8152732a3dd3eb832af982ec71669e178424b10dca2ede9063cd586579908390612d6f90600190879084908a905f9060040161387c565b5f604051808303818588803b158015612cec575f80fd5b60405163095ea7b360e01b8152732a3dd3eb832af982ec71669e178424b10dca2ede6004820152602481018290526001600160a01b0384169063095ea7b3906044016020604051808303815f875af1158015612de4573d5f803e3d5ffd5b505050506040513d601f19601f82011682018060405250810190612e0891906137e7565b5060405163cd58657960e01b8152732a3dd3eb832af982ec71669e178424b10dca2ede9063cd58657990612e49906001908690869089905f9060040161387c565b5f604051808303815f87803b158015612e60575f80fd5b505af1158015612e72573d5f803e3d5ffd5b50505050505050565b73eeeeeeeeeeeeeeeeeeeeeeeeeeeeeeeeeeeeeeed196001600160a01b03841601612f37577399c9fc46f92e8a1c0dec1b1747d010903e884be1639a2ac6d5650a064586222083855a6040516001600160e01b031960e087901b1681526001600160a01b03909216600483015263ffffffff166024820152606060448201525f60648201526084015f604051808303818589803b158015612f1a575f80fd5b5088f1158015612f2c573d5f803e3d5ffd5b505050505050505050565b5f612f4184613168565b60405163095ea7b360e01b81526010602160991b016004820152602481018490529091506001600160a01b0385169063095ea7b3906044016020604051808303815f875af1158015612f95573d5f803e3d5ffd5b505050506040513d601f19601f82011682018060405250810190612fb991906137e7565b507399c9fc46f92e8a1c0dec1b1747d010903e884be163838b2520858386865a6040516001600160e01b031960e088901b1681526001600160a01b0395861660048201529385166024850152939091166044830152606482015263ffffffff91909116608482015260c060a48201525f60c482015260e401612cd5565b6130408282610e8d565b611b895760405163e2517d3f60e01b81526001600160a01b038216600482015260248101839052604401610f12565b5f8051602061390f8339815191525460ff16610dcb57604051638dfc202b60e01b815260040160405180910390fd5b5f6130b26001600160a01b03841683613285565b905080515f141580156130d65750808060200190518101906130d491906137e7565b155b15610b8f57604051635274afe760e01b81526001600160a01b0384166004820152602401610f12565b7ff0c57e16840df040f15088dc2f81fe391c3923bec73e23a9662efc9c229c6a0054600160401b900460ff16610dcb57604051631afcd79f60e31b815260040160405180910390fd5b6131506130ff565b5f8051602061390f833981519152805460ff19169055565b5f73c02aaa39b223fe8d0a0e5c4f27ead9083c756cc1196001600160a01b0383160161319c57506006602160991b01919050565b73dac17f958d2ee523a2206206994597c13d831ec6196001600160a01b038316016131dc57507394b008aa00579c1307b0ef2c499ad98a8ce58e58919050565b73a0b86991c6218b36c1d19d4a2e9eb0ce3606eb47196001600160a01b0383160161321c5750730b2c639c533813f4aa9d7837caf62653d097ff85919050565b736b175474e89094c44da98b954eedeac495271d0e196001600160a01b0383160161325c575073da10009cbd5d07dd0cecc66161fc93d7c9000da1919050565b6040516305fd61ad60e01b81526001600160a01b0383166004820152602401610f12565b919050565b606061329283835f613299565b9392505050565b6060814710156132be5760405163cd78605960e01b8152306004820152602401610f12565b5f80856001600160a01b031684866040516132d991906138c2565b5f6040518083038185875af1925050503d805f8114613313576040519150601f19603f3d011682016040523d82523d5f602084013e613318565b606091505b5091509150613328868383613332565b9695505050505050565b606082613347576133428261338e565b613292565b815115801561335e57506001600160a01b0384163b155b1561338757604051639996b31560e01b81526001600160a01b0385166004820152602401610f12565b5080613292565b80511561339e5780518082602001fd5b604051630a12f52160e11b815260040160405180910390fd5b5f602082840312156133c7575f80fd5b81356001600160e01b031981168114613292575f80fd5b80356001600160a01b0381168114613280575f80fd5b5f8060408385031215613405575f80fd5b61340e836133de565b946020939093013593505050565b5f6020828403121561342c575f80fd5b613292826133de565b5f60208284031215613445575f80fd5b5035919050565b5f806040838503121561345d575f80fd5b8235915061346d602084016133de565b90509250929050565b634e487b7160e01b5f52604160045260245ffd5b60405160e0810167ffffffffffffffff811182821017156134ad576134ad613476565b60405290565b604051601f8201601f1916810167ffffffffffffffff811182821017156134dc576134dc613476565b604052919050565b803563ffffffff81168114613280575f80fd5b8015158114610bd9575f80fd5b5f6020808385031215613515575f80fd5b823567ffffffffffffffff8082111561352c575f80fd5b818501915085601f83011261353f575f80fd5b81358181111561355157613551613476565b61355f848260051b016134b3565b818152848101925060e091820284018501918883111561357d575f80fd5b938501935b8285101561360c5780858a031215613599575f8081fd5b6135a161348a565b6135aa866134e4565b81526135b78787016134e4565b8782015260406135c88188016133de565b90820152606086810135908201526080808701359082015260a0808701359082015260c0808701356135f9816134f7565b9082015284529384019392850192613582565b50979650505050505050565b8051151582526020808201516001600160a01b0316908301526040808201519083015260608082015190830152608090810151910152565b602080825282518282018190525f9190848201906040850190845b818110156136915761367e838551613618565b9284019260a0929092019160010161366b565b50909695505050505050565b5f805f80608085870312156136b0575f80fd5b843593506136c0602086016133de565b92506136ce604086016133de565b9396929550929360600135925050565b5f805f606084860312156136f0575f80fd5b6136f9846133de565b92506020840135613709816134f7565b9150613717604085016134e4565b90509250925092565b60a0810161077f8284613618565b634e487b7160e01b5f52601160045260245ffd5b8181038181111561077f5761077f61372e565b634e487b7160e01b5f52603260045260245ffd5b63ffffffff8181168382160190808211156127d6576127d661372e565b5f600182016137975761379761372e565b5060010190565b808202811582820484141761077f5761077f61372e565b5f826137cf57634e487b7160e01b5f52601260045260245ffd5b500490565b8082018082111561077f5761077f61372e565b5f602082840312156137f7575f80fd5b8151613292816134f7565b634e487b7160e01b5f52603160045260245ffd5b5f600160ff1b820161382a5761382a61372e565b505f190190565b5f6001600160ff1b0182016137975761379761372e565b5f60208284031215613858575f80fd5b5051919050565b63ffffffff8281168282160390808211156127d6576127d661372e565b63ffffffff9590951685526001600160a01b039384166020860152604085019290925290911660608301521515608082015260c060a082018190525f9082015260e00190565b5f82515f5b818110156138e157602081860181015185830152016138c7565b505f92019182525091905056fe02dd7bc7dec4dceedda775e58dd541e08a116c6c53815c0bd028192f7b626800cd5ed15c6e187e77e9aee88184c21f4f2182ab5827cb3b7e07fbedcd63f0330067aa9b7d2b6d14f3837d07b1073399a41e4104b1d98f169f02cc04f44f14f4b09b779b17422d0df92223018b32b4d1fa46e071723d6817e2486d003becc55f0040c35f83c179e47de306c9fe55fdc60064f11dd52adb51ab61b5643ee626f98da264697066735822122020f74d881cce9dc5dfce0835a0129840d98352b4e528ce798e075e8b0bb3385164736f6c63430008140033",
  "linkReferences": {},
  "deployedLinkReferences": {}
}