{
  "abi": [
    {
      "inputs": [],
      "stateMutability": "nonpayable",
      "type": "constructor"
    },
    {
      "inputs": [],
      "name": "AccessControlBadConfirmation",
      "type": "error"
    },
    {
      "inputs": [
        {
          "internalType": "address",
          "name": "account",
          "type": "address"
        },
        {
          "internalType": "bytes32",
          "name": "neededRole",
          "type": "bytes32"
        }
      ],
      "name": "AccessControlUnauthorizedAccount",
      "type": "error"
    },
    {
      "inputs": [
        {
          "internalType": "address",
          "name": "target",
          "type": "address"
        }
      ],
      "name": "AddressEmptyCode",
      "type": "error"
    },
    {
      "inputs": [
        {
          "internalType": "address",
          "name": "account",
          "type": "address"
        }
      ],
      "name": "AddressInsufficientBalance",
      "type": "error"
    },
    {
      "inputs": [],
      "name": "AlreadyClaimed",
      "type": "error"
    },
    {
      "inputs": [
        {
          "internalType": "uint256",
          "name": "id",
          "type": "uint256"
        }
      ],
      "name": "ChainIdIsNotSupported",
      "type": "error"
    },
    {
      "inputs": [
        {
          "internalType": "uint256",
          "name": "chainId",
          "type": "uint256"
        }
      ],
      "name": "ChainIdNotSupported",
      "type": "error"
    },
    {
      "inputs": [],
      "name": "EnforcedPause",
      "type": "error"
    },
    {
      "inputs": [],
      "name": "ErrorBlockChain",
      "type": "error"
    },
    {
      "inputs": [],
      "name": "ExpectedPause",
      "type": "error"
    },
    {
      "inputs": [],
      "name": "FailedInnerCall",
      "type": "error"
    },
    {
      "inputs": [],
      "name": "InvalidInitialization",
      "type": "error"
    },
    {
      "inputs": [
        {
          "internalType": "uint256",
          "name": "minAmount",
          "type": "uint256"
        },
        {
          "internalType": "uint256",
          "name": "providedAmount",
          "type": "uint256"
        }
      ],
      "name": "LessThanMinStakeAmount",
      "type": "error"
    },
    {
      "inputs": [
        {
          "internalType": "uint256",
          "name": "MinTransferAmount",
          "type": "uint256"
        },
        {
          "internalType": "uint256",
          "name": "value",
          "type": "uint256"
        }
      ],
      "name": "LessThanMinTransferAmount",
      "type": "error"
    },
    {
      "inputs": [
        {
          "internalType": "uint256",
          "name": "amount",
          "type": "uint256"
        }
      ],
      "name": "LessThanZero",
      "type": "error"
    },
    {
      "inputs": [],
      "name": "MantaNotWETH",
      "type": "error"
    },
    {
      "inputs": [],
      "name": "MantleNotWETH",
      "type": "error"
    },
    {
      "inputs": [
        {
          "internalType": "uint256",
          "name": "PoolIndex",
          "type": "uint256"
        }
      ],
      "name": "NewPoolIsNotCreate",
      "type": "error"
    },
    {
      "inputs": [],
      "name": "NoReward",
      "type": "error"
    },
    {
      "inputs": [],
      "name": "NotEnoughETH",
      "type": "error"
    },
    {
      "inputs": [
        {
          "internalType": "address",
          "name": "ERC20Address",
          "type": "address"
        }
      ],
      "name": "NotEnoughToken",
      "type": "error"
    },
    {
      "inputs": [],
      "name": "NotInitializing",
      "type": "error"
    },
    {
      "inputs": [
        {
          "internalType": "uint256",
          "name": "PoolId",
          "type": "uint256"
        },
        {
          "internalType": "uint256",
          "name": "PoolLength",
          "type": "uint256"
        }
      ],
      "name": "OutOfRange",
      "type": "error"
    },
    {
      "inputs": [
        {
          "internalType": "uint256",
          "name": "poolIndex",
          "type": "uint256"
        }
      ],
      "name": "PoolIsCompleted",
      "type": "error"
    },
    {
      "inputs": [],
      "name": "ReentrancyGuardReentrantCall",
      "type": "error"
    },
    {
      "inputs": [
        {
          "internalType": "address",
          "name": "token",
          "type": "address"
        }
      ],
      "name": "SafeERC20FailedOperation",
      "type": "error"
    },
    {
      "inputs": [
        {
          "internalType": "address",
          "name": "token",
          "type": "address"
        },
        {
          "internalType": "bool",
          "name": "isSupported",
          "type": "bool"
        }
      ],
      "name": "TokenIsAlreadySupported",
      "type": "error"
    },
    {
      "inputs": [
        {
          "internalType": "address",
          "name": "ERC20Address",
          "type": "address"
        }
      ],
      "name": "TokenIsNotSupported",
      "type": "error"
    },
    {
      "inputs": [],
      "name": "sourceChainIdError",
      "type": "error"
    },
    {
      "anonymous": false,
      "inputs": [
        {
          "indexed": false,
          "internalType": "uint256",
          "name": "amount",
          "type": "uint256"
        },
        {
          "indexed": false,
          "internalType": "address",
          "name": "stakingManager",
          "type": "address"
        },
        {
          "components": [
            {
              "internalType": "address",
              "name": "staker",
              "type": "address"
            },
            {
              "internalType": "uint256",
              "name": "amount",
              "type": "uint256"
            }
          ],
          "indexed": false,
          "internalType": "struct IDETH.BatchMint[]",
          "name": "batcher",
          "type": "tuple[]"
        }
      ],
      "name": "BridgeFinalizeETHForStakingEvent",
      "type": "event"
    },
    {
      "anonymous": false,
      "inputs": [
        {
          "indexed": true,
          "internalType": "address",
          "name": "user",
          "type": "address"
        },
        {
          "indexed": false,
          "internalType": "uint256",
          "name": "startPoolId",
          "type": "uint256"
        },
        {
          "indexed": false,
          "internalType": "uint256",
          "name": "endPoolId",
          "type": "uint256"
        },
        {
          "indexed": true,
          "internalType": "address",
          "name": "token",
          "type": "address"
        },
        {
          "indexed": false,
          "internalType": "uint256",
          "name": "amount",
          "type": "uint256"
        },
        {
          "indexed": false,
          "internalType": "uint256",
          "name": "fee",
          "type": "uint256"
        }
      ],
      "name": "ClaimEvent",
      "type": "event"
    },
    {
      "anonymous": false,
      "inputs": [
        {
          "indexed": false,
          "internalType": "address",
          "name": "_user",
          "type": "address"
        },
        {
          "indexed": false,
          "internalType": "uint256",
          "name": "startPoolId",
          "type": "uint256"
        },
        {
          "indexed": false,
          "internalType": "uint256",
          "name": "EndPoolId",
          "type": "uint256"
        },
        {
          "indexed": false,
          "internalType": "address",
          "name": "_token",
          "type": "address"
        },
        {
          "indexed": false,
          "internalType": "uint256",
          "name": "Reward",
          "type": "uint256"
        }
      ],
      "name": "ClaimReward",
      "type": "event"
    },
    {
      "anonymous": false,
      "inputs": [
        {
          "indexed": true,
          "internalType": "address",
          "name": "token",
          "type": "address"
        },
        {
          "indexed": false,
          "internalType": "uint256",
          "name": "poolIndex",
          "type": "uint256"
        }
      ],
      "name": "CompletePoolEvent",
      "type": "event"
    },
    {
      "anonymous": false,
      "inputs": [
        {
          "indexed": false,
          "internalType": "uint256",
          "name": "sourceChainId",
          "type": "uint256"
        },
        {
          "indexed": false,
          "internalType": "uint256",
          "name": "destChainId",
          "type": "uint256"
        },
        {
          "indexed": true,
          "internalType": "address",
          "name": "ERC20Address",
          "type": "address"
        },
        {
          "indexed": true,
          "internalType": "address",
          "name": "from",
          "type": "address"
        },
        {
          "indexed": true,
          "internalType": "address",
          "name": "to",
          "type": "address"
        },
        {
          "indexed": false,
          "internalType": "uint256",
          "name": "value",
          "type": "uint256"
        }
      ],
      "name": "FinalizeERC20",
      "type": "event"
    },
    {
      "anonymous": false,
      "inputs": [
        {
          "indexed": false,
          "internalType": "uint256",
          "name": "sourceChainId",
          "type": "uint256"
        },
        {
          "indexed": false,
          "internalType": "uint256",
          "name": "destChainId",
          "type": "uint256"
        },
        {
          "indexed": true,
          "internalType": "address",
          "name": "from",
          "type": "address"
        },
        {
          "indexed": true,
          "internalType": "address",
          "name": "to",
          "type": "address"
        },
        {
          "indexed": false,
          "internalType": "uint256",
          "name": "value",
          "type": "uint256"
        }
      ],
      "name": "FinalizeETH",
      "type": "event"
    },
    {
      "anonymous": false,
      "inputs": [
        {
          "indexed": false,
          "internalType": "uint256",
          "name": "sourceChainId",
          "type": "uint256"
        },
        {
          "indexed": false,
          "internalType": "uint256",
          "name": "destChainId",
          "type": "uint256"
        },
        {
          "indexed": true,
          "internalType": "address",
          "name": "from",
          "type": "address"
        },
        {
          "indexed": true,
          "internalType": "address",
          "name": "to",
          "type": "address"
        },
        {
          "indexed": false,
          "internalType": "uint256",
          "name": "value",
          "type": "uint256"
        }
      ],
      "name": "FinalizeWETH",
      "type": "event"
    },
    {
      "anonymous": false,
      "inputs": [
        {
          "indexed": false,
          "internalType": "uint64",
          "name": "version",
          "type": "uint64"
        }
      ],
      "name": "Initialized",
      "type": "event"
    },
    {
      "anonymous": false,
      "inputs": [
        {
          "indexed": false,
          "internalType": "uint256",
          "name": "sourceChainId",
          "type": "uint256"
        },
        {
          "indexed": false,
          "internalType": "uint256",
          "name": "destChainId",
          "type": "uint256"
        },
        {
          "indexed": true,
          "internalType": "address",
          "name": "ERC20Address",
          "type": "address"
        },
        {
          "indexed": true,
          "internalType": "address",
          "name": "from",
          "type": "address"
        },
        {
          "indexed": true,
          "internalType": "address",
          "name": "to",
          "type": "address"
        },
        {
          "indexed": false,
          "internalType": "uint256",
          "name": "value",
          "type": "uint256"
        }
      ],
      "name": "InitiateERC20",
      "type": "event"
    },
    {
      "anonymous": false,
      "inputs": [
        {
          "indexed": false,
          "internalType": "uint256",
          "name": "sourceChainId",
          "type": "uint256"
        },
        {
          "indexed": false,
          "internalType": "uint256",
          "name": "destChainId",
          "type": "uint256"
        },
        {
          "indexed": true,
          "internalType": "address",
          "name": "from",
          "type": "address"
        },
        {
          "indexed": true,
          "internalType": "address",
          "name": "to",
          "type": "address"
        },
        {
          "indexed": false,
          "internalType": "uint256",
          "name": "value",
          "type": "uint256"
        }
      ],
      "name": "InitiateETH",
      "type": "event"
    },
    {
      "anonymous": false,
      "inputs": [
        {
          "indexed": false,
          "internalType": "uint256",
          "name": "sourceChainId",
          "type": "uint256"
        },
        {
          "indexed": false,
          "internalType": "uint256",
          "name": "destChainId",
          "type": "uint256"
        },
        {
          "indexed": true,
          "internalType": "address",
          "name": "from",
          "type": "address"
        },
        {
          "indexed": true,
          "internalType": "address",
          "name": "to",
          "type": "address"
        },
        {
          "indexed": false,
          "internalType": "uint256",
          "name": "value",
          "type": "uint256"
        }
      ],
      "name": "InitiateWETH",
      "type": "event"
    },
    {
      "anonymous": false,
      "inputs": [
        {
          "indexed": false,
          "internalType": "address",
          "name": "account",
          "type": "address"
        }
      ],
      "name": "Paused",
      "type": "event"
    },
    {
      "anonymous": false,
      "inputs": [
        {
          "indexed": true,
          "internalType": "bytes32",
          "name": "role",
          "type": "bytes32"
        },
        {
          "indexed": true,
          "internalType": "bytes32",
          "name": "previousAdminRole",
          "type": "bytes32"
        },
        {
          "indexed": true,
          "internalType": "bytes32",
          "name": "newAdminRole",
          "type": "bytes32"
        }
      ],
      "name": "RoleAdminChanged",
      "type": "event"
    },
    {
      "anonymous": false,
      "inputs": [
        {
          "indexed": true,
          "internalType": "bytes32",
          "name": "role",
          "type": "bytes32"
        },
        {
          "indexed": true,
          "internalType": "address",
          "name": "account",
          "type": "address"
        },
        {
          "indexed": true,
          "internalType": "address",
          "name": "sender",
          "type": "address"
        }
      ],
      "name": "RoleGranted",
      "type": "event"
    },
    {
      "anonymous": false,
      "inputs": [
        {
          "indexed": true,
          "internalType": "bytes32",
          "name": "role",
          "type": "bytes32"
        },
        {
          "indexed": true,
          "internalType": "address",
          "name": "account",
          "type": "address"
        },
        {
          "indexed": true,
          "internalType": "address",
          "name": "sender",
          "type": "address"
        }
      ],
      "name": "RoleRevoked",
      "type": "event"
    },
    {
      "anonymous": false,
      "inputs": [
        {
          "indexed": true,
          "internalType": "address",
          "name": "token",
          "type": "address"
        },
        {
          "indexed": false,
          "internalType": "uint256",
          "name": "amount",
          "type": "uint256"
        }
      ],
      "name": "SetMinStakeAmountEvent",
      "type": "event"
    },
    {
      "anonymous": false,
      "inputs": [
        {
          "indexed": true,
          "internalType": "address",
          "name": "token",
          "type": "address"
        },
        {
          "indexed": false,
          "internalType": "bool",
          "name": "isSupport",
          "type": "bool"
        }
      ],
      "name": "SetSupportTokenEvent",
      "type": "event"
    },
    {
      "anonymous": false,
      "inputs": [
        {
          "indexed": true,
          "internalType": "address",
          "name": "user",
          "type": "address"
        },
        {
          "indexed": false,
          "internalType": "uint256",
          "name": "amount",
          "type": "uint256"
        }
      ],
      "name": "StakingETHEvent",
      "type": "event"
    },
    {
      "anonymous": false,
      "inputs": [
        {
          "indexed": true,
          "internalType": "address",
          "name": "user",
          "type": "address"
        },
        {
          "indexed": false,
          "internalType": "uint256",
          "name": "amount",
          "type": "uint256"
        }
      ],
      "name": "StakingWETHEvent",
      "type": "event"
    },
    {
      "anonymous": false,
      "inputs": [
        {
          "indexed": true,
          "internalType": "address",
          "name": "user",
          "type": "address"
        },
        {
          "indexed": true,
          "internalType": "address",
          "name": "token",
          "type": "address"
        },
        {
          "indexed": false,
          "internalType": "uint256",
          "name": "amount",
          "type": "uint256"
        }
      ],
      "name": "StarkingERC20Event",
      "type": "event"
    },
    {
      "anonymous": false,
      "inputs": [
        {
          "indexed": false,
          "internalType": "uint256",
          "name": "Blockchain",
          "type": "uint256"
        },
        {
          "indexed": true,
          "internalType": "address",
          "name": "token",
          "type": "address"
        },
        {
          "indexed": true,
          "internalType": "address",
          "name": "to",
          "type": "address"
        },
        {
          "indexed": false,
          "internalType": "uint256",
          "name": "amount",
          "type": "uint256"
        }
      ],
      "name": "TransferAssertTo",
      "type": "event"
    },
    {
      "anonymous": false,
      "inputs": [
        {
          "indexed": false,
          "internalType": "address",
          "name": "account",
          "type": "address"
        }
      ],
      "name": "Unpaused",
      "type": "event"
    },
    {
      "anonymous": false,
      "inputs": [
        {
          "indexed": false,
          "internalType": "address",
          "name": "_user",
          "type": "address"
        },
        {
          "indexed": false,
          "internalType": "uint256",
          "name": "startPoolId",
          "type": "uint256"
        },
        {
          "indexed": false,
          "internalType": "uint256",
          "name": "EndPoolId",
          "type": "uint256"
        },
        {
          "indexed": false,
          "internalType": "address",
          "name": "_token",
          "type": "address"
        },
        {
          "indexed": false,
          "internalType": "uint256",
          "name": "Amount",
          "type": "uint256"
        },
        {
          "indexed": false,
          "internalType": "uint256",
          "name": "Reward",
          "type": "uint256"
        }
      ],
      "name": "Withdraw",
      "type": "event"
    },
    {
      "inputs": [
        {
          "internalType": "uint256",
          "name": "sourceChainId",
          "type": "uint256"
        },
        {
          "internalType": "uint256",
          "name": "destChainId",
          "type": "uint256"
        },
        {
          "internalType": "address",
          "name": "to",
          "type": "address"
        },
        {
          "internalType": "address",
          "name": "ERC20Address",
          "type": "address"
        },
        {
          "internalType": "uint256",
          "name": "amount",
          "type": "uint256"
        },
        {
          "internalType": "uint256",
          "name": "_fee",
          "type": "uint256"
        },
        {
          "internalType": "uint256",
          "name": "_nonce",
          "type": "uint256"
        }
      ],
      "name": "BridgeFinalizeERC20",
      "outputs": [
        {
          "internalType": "bool",
          "name": "",
          "type": "bool"
        }
      ],
      "stateMutability": "nonpayable",
      "type": "function"
    },
    {
      "inputs": [
        {
          "internalType": "uint256",
          "name": "sourceChainId",
          "type": "uint256"
        },
        {
          "internalType": "uint256",
          "name": "destChainId",
          "type": "uint256"
        },
        {
          "internalType": "address",
          "name": "to",
          "type": "address"
        },
        {
          "internalType": "uint256",
          "name": "amount",
          "type": "uint256"
        },
        {
          "internalType": "uint256",
          "name": "_fee",
          "type": "uint256"
        },
        {
          "internalType": "uint256",
          "name": "_nonce",
          "type": "uint256"
        }
      ],
      "name": "BridgeFinalizeETH",
      "outputs": [
        {
          "internalType": "bool",
          "name": "",
          "type": "bool"
        }
      ],
      "stateMutability": "payable",
      "type": "function"
    },
    {
      "inputs": [
        {
          "internalType": "uint256",
          "name": "amount",
          "type": "uint256"
        },
        {
          "internalType": "address",
          "name": "stakingManager",
          "type": "address"
        },
        {
          "components": [
            {
              "internalType": "address",
              "name": "staker",
              "type": "address"
            },
            {
              "internalType": "uint256",
              "name": "amount",
              "type": "uint256"
            }
          ],
          "internalType": "struct IDETH.BatchMint[]",
          "name": "batcher",
          "type": "tuple[]"
        }
      ],
      "name": "BridgeFinalizeETHForStaking",
      "outputs": [],
      "stateMutability": "nonpayable",
      "type": "function"
    },
    {
      "inputs": [
        {
          "internalType": "uint256",
          "name": "sourceChainId",
          "type": "uint256"
        },
        {
          "internalType": "uint256",
          "name": "destChainId",
          "type": "uint256"
        },
        {
          "internalType": "address",
          "name": "to",
          "type": "address"
        },
        {
          "internalType": "uint256",
          "name": "amount",
          "type": "uint256"
        },
        {
          "internalType": "uint256",
          "name": "_fee",
          "type": "uint256"
        },
        {
          "internalType": "uint256",
          "name": "_nonce",
          "type": "uint256"
        }
      ],
      "name": "BridgeFinalizeWETH",
      "outputs": [
        {
          "internalType": "bool",
          "name": "",
          "type": "bool"
        }
      ],
      "stateMutability": "nonpayable",
      "type": "function"
    },
    {
      "inputs": [
        {
          "internalType": "uint256",
          "name": "sourceChainId",
          "type": "uint256"
        },
        {
          "internalType": "uint256",
          "name": "destChainId",
          "type": "uint256"
        },
        {
          "internalType": "address",
          "name": "to",
          "type": "address"
        },
        {
          "internalType": "address",
          "name": "ERC20Address",
          "type": "address"
        },
        {
          "internalType": "uint256",
          "name": "value",
          "type": "uint256"
        }
      ],
      "name": "BridgeInitiateERC20",
      "outputs": [
        {
          "internalType": "bool",
          "name": "",
          "type": "bool"
        }
      ],
      "stateMutability": "nonpayable",
      "type": "function"
    },
    {
      "inputs": [
        {
          "internalType": "uint256",
          "name": "sourceChainId",
          "type": "uint256"
        },
        {
          "internalType": "uint256",
          "name": "destChainId",
          "type": "uint256"
        },
        {
          "internalType": "address",
          "name": "to",
          "type": "address"
        }
      ],
      "name": "BridgeInitiateETH",
      "outputs": [
        {
          "internalType": "bool",
          "name": "",
          "type": "bool"
        }
      ],
      "stateMutability": "payable",
      "type": "function"
    },
    {
      "inputs": [
        {
          "internalType": "uint256",
          "name": "sourceChainId",
          "type": "uint256"
        },
        {
          "internalType": "uint256",
          "name": "destChainId",
          "type": "uint256"
        },
        {
          "internalType": "address",
          "name": "to",
          "type": "address"
        },
        {
          "internalType": "uint256",
          "name": "value",
          "type": "uint256"
        }
      ],
      "name": "BridgeInitiateWETH",
      "outputs": [
        {
          "internalType": "bool",
          "name": "",
          "type": "bool"
        }
      ],
      "stateMutability": "nonpayable",
      "type": "function"
    },
    {
      "inputs": [],
      "name": "ClaimAllReward",
      "outputs": [],
      "stateMutability": "nonpayable",
      "type": "function"
    },
    {
      "inputs": [
        {
          "internalType": "uint256",
          "name": "i",
          "type": "uint256"
        }
      ],
      "name": "ClaimbyID",
      "outputs": [],
      "stateMutability": "nonpayable",
      "type": "function"
    },
    {
      "inputs": [
        {
          "components": [
            {
              "internalType": "uint32",
              "name": "startTimestamp",
              "type": "uint32"
            },
            {
              "internalType": "uint32",
              "name": "endTimestamp",
              "type": "uint32"
            },
            {
              "internalType": "address",
              "name": "token",
              "type": "address"
            },
            {
              "internalType": "uint256",
              "name": "TotalAmount",
              "type": "uint256"
            },
            {
              "internalType": "uint256",
              "name": "TotalFee",
              "type": "uint256"
            },
            {
              "internalType": "uint256",
              "name": "TotalFeeClaimed",
              "type": "uint256"
            },
            {
              "internalType": "bool",
              "name": "IsCompleted",
              "type": "bool"
            }
          ],
          "internalType": "struct IL1PoolManager.Pool[]",
          "name": "CompletePools",
          "type": "tuple[]"
        }
      ],
      "name": "CompletePoolAndNew",
      "outputs": [],
      "stateMutability": "payable",
      "type": "function"
    },
    {
      "inputs": [],
      "name": "DEFAULT_ADMIN_ROLE",
      "outputs": [
        {
          "internalType": "bytes32",
          "name": "",
          "type": "bytes32"
        }
      ],
      "stateMutability": "view",
      "type": "function"
    },
    {
      "inputs": [
        {
          "internalType": "address",
          "name": "_token",
          "type": "address"
        },
        {
          "internalType": "uint256",
          "name": "_amount",
          "type": "uint256"
        }
      ],
      "name": "DepositAndStaking",
      "outputs": [],
      "stateMutability": "payable",
      "type": "function"
    },
    {
      "inputs": [
        {
          "internalType": "address",
          "name": "_token",
          "type": "address"
        },
        {
          "internalType": "uint256",
          "name": "_amount",
          "type": "uint256"
        }
      ],
      "name": "DepositAndStakingERC20",
      "outputs": [],
      "stateMutability": "nonpayable",
      "type": "function"
    },
    {
      "inputs": [],
      "name": "DepositAndStakingETH",
      "outputs": [],
      "stateMutability": "payable",
      "type": "function"
    },
    {
      "inputs": [
        {
          "internalType": "uint256",
          "name": "amount",
          "type": "uint256"
        }
      ],
      "name": "DepositAndStakingWETH",
      "outputs": [],
      "stateMutability": "nonpayable",
      "type": "function"
    },
    {
      "inputs": [
        {
          "internalType": "address",
          "name": "",
          "type": "address"
        }
      ],
      "name": "FeePoolValue",
      "outputs": [
        {
          "internalType": "uint256",
          "name": "",
          "type": "uint256"
        }
      ],
      "stateMutability": "view",
      "type": "function"
    },
    {
      "inputs": [
        {
          "internalType": "address",
          "name": "",
          "type": "address"
        }
      ],
      "name": "FundingPoolBalance",
      "outputs": [
        {
          "internalType": "uint256",
          "name": "",
          "type": "uint256"
        }
      ],
      "stateMutability": "view",
      "type": "function"
    },
    {
      "inputs": [
        {
          "internalType": "uint256",
          "name": "chainId",
          "type": "uint256"
        }
      ],
      "name": "IsSupportChainId",
      "outputs": [
        {
          "internalType": "bool",
          "name": "",
          "type": "bool"
        }
      ],
      "stateMutability": "view",
      "type": "function"
    },
    {
      "inputs": [
        {
          "internalType": "address",
          "name": "",
          "type": "address"
        }
      ],
      "name": "IsSupportToken",
      "outputs": [
        {
          "internalType": "bool",
          "name": "",
          "type": "bool"
        }
      ],
      "stateMutability": "view",
      "type": "function"
    },
    {
      "inputs": [],
      "name": "L2WETH",
      "outputs": [
        {
          "internalType": "address",
          "name": "",
          "type": "address"
        }
      ],
      "stateMutability": "view",
      "type": "function"
    },
    {
      "inputs": [
        {
          "internalType": "address",
          "name": "",
          "type": "address"
        }
      ],
      "name": "MinStakeAmount",
      "outputs": [
        {
          "internalType": "uint256",
          "name": "",
          "type": "uint256"
        }
      ],
      "stateMutability": "view",
      "type": "function"
    },
    {
      "inputs": [],
      "name": "MinTransferAmount",
      "outputs": [
        {
          "internalType": "uint256",
          "name": "",
          "type": "uint256"
        }
      ],
      "stateMutability": "view",
      "type": "function"
    },
    {
      "inputs": [],
      "name": "PerFee",
      "outputs": [
        {
          "internalType": "uint256",
          "name": "",
          "type": "uint256"
        }
      ],
      "stateMutability": "view",
      "type": "function"
    },
    {
      "inputs": [
        {
          "internalType": "address",
          "name": "",
          "type": "address"
        },
        {
          "internalType": "uint256",
          "name": "",
          "type": "uint256"
        }
      ],
      "name": "Pools",
      "outputs": [
        {
          "internalType": "uint32",
          "name": "startTimestamp",
          "type": "uint32"
        },
        {
          "internalType": "uint32",
          "name": "endTimestamp",
          "type": "uint32"
        },
        {
          "internalType": "address",
          "name": "token",
          "type": "address"
        },
        {
          "internalType": "uint256",
          "name": "TotalAmount",
          "type": "uint256"
        },
        {
          "internalType": "uint256",
          "name": "TotalFee",
          "type": "uint256"
        },
        {
          "internalType": "uint256",
          "name": "TotalFeeClaimed",
          "type": "uint256"
        },
        {
          "internalType": "bool",
          "name": "IsCompleted",
          "type": "bool"
        }
      ],
      "stateMutability": "view",
      "type": "function"
    },
    {
      "inputs": [
        {
          "internalType": "address",
          "name": "_token",
          "type": "address"
        },
        {
          "internalType": "address",
          "name": "to",
          "type": "address"
        },
        {
          "internalType": "uint256",
          "name": "_amount",
          "type": "uint256"
        }
      ],
      "name": "QuickSendAssertToUser",
      "outputs": [],
      "stateMutability": "nonpayable",
      "type": "function"
    },
    {
      "inputs": [],
      "name": "ReLayer",
      "outputs": [
        {
          "internalType": "bytes32",
          "name": "",
          "type": "bytes32"
        }
      ],
      "stateMutability": "view",
      "type": "function"
    },
    {
      "inputs": [
        {
          "internalType": "uint256",
          "name": "",
          "type": "uint256"
        }
      ],
      "name": "SupportTokens",
      "outputs": [
        {
          "internalType": "address",
          "name": "",
          "type": "address"
        }
      ],
      "stateMutability": "view",
      "type": "function"
    },
    {
      "inputs": [
        {
          "internalType": "uint256",
          "name": "Blockchain",
          "type": "uint256"
        },
        {
          "internalType": "address",
          "name": "_token",
          "type": "address"
        },
        {
          "internalType": "address",
          "name": "_to",
          "type": "address"
        },
        {
          "internalType": "uint256",
          "name": "_amount",
          "type": "uint256"
        }
      ],
      "name": "TransferAssertToBridge",
      "outputs": [],
      "stateMutability": "nonpayable",
      "type": "function"
    },
    {
      "inputs": [
        {
          "internalType": "address",
          "name": "token",
          "type": "address"
        },
        {
          "internalType": "uint256",
          "name": "amount",
          "type": "uint256"
        }
      ],
      "name": "UpdateFundingPoolBalance",
      "outputs": [],
      "stateMutability": "nonpayable",
      "type": "function"
    },
    {
      "inputs": [
        {
          "internalType": "address",
          "name": "",
          "type": "address"
        },
        {
          "internalType": "uint256",
          "name": "",
          "type": "uint256"
        }
      ],
      "name": "Users",
      "outputs": [
        {
          "internalType": "bool",
          "name": "isWithdrawed",
          "type": "bool"
        },
        {
          "internalType": "address",
          "name": "token",
          "type": "address"
        },
        {
          "internalType": "uint256",
          "name": "StartPoolId",
          "type": "uint256"
        },
        {
          "internalType": "uint256",
          "name": "EndPoolId",
          "type": "uint256"
        },
        {
          "internalType": "uint256",
          "name": "Amount",
          "type": "uint256"
        }
      ],
      "stateMutability": "view",
      "type": "function"
    },
    {
      "inputs": [],
      "name": "WithdrawAll",
      "outputs": [],
      "stateMutability": "nonpayable",
      "type": "function"
    },
    {
      "inputs": [
        {
          "internalType": "uint256",
          "name": "i",
          "type": "uint256"
        }
      ],
      "name": "WithdrawByID",
      "outputs": [],
      "stateMutability": "nonpayable",
      "type": "function"
    },
    {
      "inputs": [
        {
          "internalType": "address",
          "name": "_token",
          "type": "address"
        },
        {
          "internalType": "uint256",
          "name": "_index",
          "type": "uint256"
        }
      ],
      "name": "getPool",
      "outputs": [
        {
          "components": [
            {
              "internalType": "uint32",
              "name": "startTimestamp",
              "type": "uint32"
            },
            {
              "internalType": "uint32",
              "name": "endTimestamp",
              "type": "uint32"
            },
            {
              "internalType": "address",
              "name": "token",
              "type": "address"
            },
            {
              "internalType": "uint256",
              "name": "TotalAmount",
              "type": "uint256"
            },
            {
              "internalType": "uint256",
              "name": "TotalFee",
              "type": "uint256"
            },
            {
              "internalType": "uint256",
              "name": "TotalFeeClaimed",
              "type": "uint256"
            },
            {
              "internalType": "bool",
              "name": "IsCompleted",
              "type": "bool"
            }
          ],
          "internalType": "struct IL1PoolManager.Pool",
          "name": "",
          "type": "tuple"
        }
      ],
      "stateMutability": "view",
      "type": "function"
    },
    {
      "inputs": [
        {
          "internalType": "address",
          "name": "_token",
          "type": "address"
        }
      ],
      "name": "getPoolLength",
      "outputs": [
        {
          "internalType": "uint256",
          "name": "",
          "type": "uint256"
        }
      ],
      "stateMutability": "view",
      "type": "function"
    },
    {
      "inputs": [],
      "name": "getPrincipal",
      "outputs": [
        {
          "components": [
            {
              "internalType": "address",
              "name": "key",
              "type": "address"
            },
            {
              "internalType": "uint256",
              "name": "value",
              "type": "uint256"
            }
          ],
          "internalType": "struct IL1PoolManager.KeyValuePair[]",
          "name": "",
          "type": "tuple[]"
        }
      ],
      "stateMutability": "view",
      "type": "function"
    },
    {
      "inputs": [],
      "name": "getReward",
      "outputs": [
        {
          "components": [
            {
              "internalType": "address",
              "name": "key",
              "type": "address"
            },
            {
              "internalType": "uint256",
              "name": "value",
              "type": "uint256"
            }
          ],
          "internalType": "struct IL1PoolManager.KeyValuePair[]",
          "name": "",
          "type": "tuple[]"
        }
      ],
      "stateMutability": "view",
      "type": "function"
    },
    {
      "inputs": [
        {
          "internalType": "bytes32",
          "name": "role",
          "type": "bytes32"
        }
      ],
      "name": "getRoleAdmin",
      "outputs": [
        {
          "internalType": "bytes32",
          "name": "",
          "type": "bytes32"
        }
      ],
      "stateMutability": "view",
      "type": "function"
    },
    {
      "inputs": [
        {
          "internalType": "address",
          "name": "_user",
          "type": "address"
        }
      ],
      "name": "getUser",
      "outputs": [
        {
          "components": [
            {
              "internalType": "bool",
              "name": "isWithdrawed",
              "type": "bool"
            },
            {
              "internalType": "address",
              "name": "token",
              "type": "address"
            },
            {
              "internalType": "uint256",
              "name": "StartPoolId",
              "type": "uint256"
            },
            {
              "internalType": "uint256",
              "name": "EndPoolId",
              "type": "uint256"
            },
            {
              "internalType": "uint256",
              "name": "Amount",
              "type": "uint256"
            }
          ],
          "internalType": "struct IL1PoolManager.User[]",
          "name": "",
          "type": "tuple[]"
        }
      ],
      "stateMutability": "view",
      "type": "function"
    },
    {
      "inputs": [
        {
          "internalType": "address",
          "name": "_user",
          "type": "address"
        },
        {
          "internalType": "uint256",
          "name": "_index",
          "type": "uint256"
        }
      ],
      "name": "getUser",
      "outputs": [
        {
          "components": [
            {
              "internalType": "bool",
              "name": "isWithdrawed",
              "type": "bool"
            },
            {
              "internalType": "address",
              "name": "token",
              "type": "address"
            },
            {
              "internalType": "uint256",
              "name": "StartPoolId",
              "type": "uint256"
            },
            {
              "internalType": "uint256",
              "name": "EndPoolId",
              "type": "uint256"
            },
            {
              "internalType": "uint256",
              "name": "Amount",
              "type": "uint256"
            }
          ],
          "internalType": "struct IL1PoolManager.User",
          "name": "",
          "type": "tuple"
        }
      ],
      "stateMutability": "view",
      "type": "function"
    },
    {
      "inputs": [
        {
          "internalType": "address",
          "name": "_user",
          "type": "address"
        }
      ],
      "name": "getUserLength",
      "outputs": [
        {
          "internalType": "uint256",
          "name": "",
          "type": "uint256"
        }
      ],
      "stateMutability": "view",
      "type": "function"
    },
    {
      "inputs": [
        {
          "internalType": "bytes32",
          "name": "role",
          "type": "bytes32"
        },
        {
          "internalType": "address",
          "name": "account",
          "type": "address"
        }
      ],
      "name": "grantRole",
      "outputs": [],
      "stateMutability": "nonpayable",
      "type": "function"
    },
    {
      "inputs": [
        {
          "internalType": "bytes32",
          "name": "role",
          "type": "bytes32"
        },
        {
          "internalType": "address",
          "name": "account",
          "type": "address"
        }
      ],
      "name": "hasRole",
      "outputs": [
        {
          "internalType": "bool",
          "name": "",
          "type": "bool"
        }
      ],
      "stateMutability": "view",
      "type": "function"
    },
    {
      "inputs": [
        {
          "internalType": "address",
          "name": "_MultisigWallet",
          "type": "address"
        },
        {
          "internalType": "address",
          "name": "_messageManager",
          "type": "address"
        }
      ],
      "name": "initialize",
      "outputs": [],
      "stateMutability": "nonpayable",
      "type": "function"
    },
    {
      "inputs": [],
      "name": "messageManager",
      "outputs": [
        {
          "internalType": "contract IMessageManager",
          "name": "",
          "type": "address"
        }
      ],
      "stateMutability": "view",
      "type": "function"
    },
    {
      "inputs": [],
      "name": "pause",
      "outputs": [],
      "stateMutability": "nonpayable",
      "type": "function"
    },
    {
      "inputs": [],
      "name": "paused",
      "outputs": [
        {
          "internalType": "bool",
          "name": "",
          "type": "bool"
        }
      ],
      "stateMutability": "view",
      "type": "function"
    },
    {
      "inputs": [],
      "name": "periodTime",
      "outputs": [
        {
          "internalType": "uint32",
          "name": "",
          "type": "uint32"
        }
      ],
      "stateMutability": "view",
      "type": "function"
    },
    {
      "inputs": [
        {
          "internalType": "bytes32",
          "name": "role",
          "type": "bytes32"
        },
        {
          "internalType": "address",
          "name": "callerConfirmation",
          "type": "address"
        }
      ],
      "name": "renounceRole",
      "outputs": [],
      "stateMutability": "nonpayable",
      "type": "function"
    },
    {
      "inputs": [
        {
          "internalType": "bytes32",
          "name": "role",
          "type": "bytes32"
        },
        {
          "internalType": "address",
          "name": "account",
          "type": "address"
        }
      ],
      "name": "revokeRole",
      "outputs": [],
      "stateMutability": "nonpayable",
      "type": "function"
    },
    {
      "inputs": [
        {
          "internalType": "address",
          "name": "_token",
          "type": "address"
        },
        {
          "internalType": "uint256",
          "name": "_amount",
          "type": "uint256"
        }
      ],
      "name": "setMinStakeAmount",
      "outputs": [],
      "stateMutability": "nonpayable",
      "type": "function"
    },
    {
      "inputs": [
        {
          "internalType": "uint256",
          "name": "_MinTransferAmount",
          "type": "uint256"
        }
      ],
      "name": "setMinTransferAmount",
      "outputs": [],
      "stateMutability": "nonpayable",
      "type": "function"
    },
    {
      "inputs": [
        {
          "internalType": "uint256",
          "name": "_PerFee",
          "type": "uint256"
        }
      ],
      "name": "setPerFee",
      "outputs": [],
      "stateMutability": "nonpayable",
      "type": "function"
    },
    {
      "inputs": [
        {
          "internalType": "address",
          "name": "ERC20Address",
          "type": "address"
        },
        {
          "internalType": "bool",
          "name": "isValid",
          "type": "bool"
        }
      ],
      "name": "setSupportERC20Token",
      "outputs": [],
      "stateMutability": "nonpayable",
      "type": "function"
    },
    {
      "inputs": [
        {
          "internalType": "address",
          "name": "_token",
          "type": "address"
        },
        {
          "internalType": "bool",
          "name": "_isSupport",
          "type": "bool"
        },
        {
          "internalType": "uint32",
          "name": "startTimes",
          "type": "uint32"
        }
      ],
      "name": "setSupportToken",
      "outputs": [],
      "stateMutability": "nonpayable",
      "type": "function"
    },
    {
      "inputs": [
        {
          "internalType": "uint256",
          "name": "chainId",
          "type": "uint256"
        },
        {
          "internalType": "bool",
          "name": "isValid",
          "type": "bool"
        }
      ],
      "name": "setValidChainId",
      "outputs": [],
      "stateMutability": "nonpayable",
      "type": "function"
    },
    {
      "inputs": [
        {
          "internalType": "bytes4",
          "name": "interfaceId",
          "type": "bytes4"
        }
      ],
      "name": "supportsInterface",
      "outputs": [
        {
          "internalType": "bool",
          "name": "",
          "type": "bool"
        }
      ],
      "stateMutability": "view",
      "type": "function"
    },
    {
      "inputs": [],
      "name": "unpause",
      "outputs": [],
      "stateMutability": "nonpayable",
      "type": "function"
    }
  ],
  "bytecode": {
    "object": "0x60808060405234620000bd577ff0c57e16840df040f15088dc2f81fe391c3923bec73e23a9662efc9c229c6a009081549060ff8260401c16620000ae57506001600160401b036002600160401b03198282160162000068575b60405161616d9081620000c38239f35b6001600160401b031990911681179091556040519081527fc7f505b2f371ae2175ee4913f4499e1f2633a7b5936321eed1cdaeb6115181d290602090a138808062000058565b63f92ee8a960e01b8152600490fd5b600080fdfe60a080604052600436101561001357600080fd5b60008060805260e0908035821c92836301ffc9a714614f5e575050816309dc480c14614f3e5781630cd727df14614efb57816310875a1314614ed257816313e8544e14614e475781631ca2f17314614e0b5781631d31fac014614de5578163248a9ca314614da75781632c37388b14614a355781632f2ff15d146149e7578163325e5d43146149af5781633338562c146146ec57816334d34ef51461444e57816336568abe1461440757816338731c47146142b25781633b0230f0146140605781633d18b91214613e0a5781633f4ba83a14613d8d5781634663cdc814613ce9578163485cc95514613b195781634dfaef841461399557816354dc027e146139595781635765a4eb1461379a5781635a648bc51461333a5781635b5b9ea2146132205781635c975abb146131ee578163626417b5146131ac578163650c2276146131875781636f77926b1461308557816372fe6a7e146130525781638456cb5914612fe557816391d1485414612f8857816392d8473814612ddd5750806396f984e614612cdd5780639ab0b652146127225780639b44238014612567578063a217fddf14612549578063a69bdf16146123e9578063ab0f9e191461237d578063b1887e9b1461234e578063b92e639614612326578063bc42493d146120fe578063cb314fab1461208f578063cb4f04ad14612053578063cd01c66514611d64578063d547741f14611d0f578063d73f14e514611cc3578063dac2956814611c82578063dbb0481f14611c46578063dd0c346014611c26578063e207089314611a84578063f363e52d146118ee578063f62a89cf14611538578063f8fcc2aa146114fc578063f91fa9a814610380578063fa861848146103585763ff2bf64f1461029b57600080fd5b34610352576040366003190112610352576102b4614fb9565b6040516102c0816150be565b60805181526080516020820152608051604082015260805160608201526080805191015260018060a01b031660805152600a60205260a061031161030b60243560406080512061502a565b50615b67565b61035060405180926080809180511515845260018060a01b03602082015116602085015260408101516040850152606081015160608501520151910152565bf35b60805180fd5b34610352576080518060031936011261037d576020610375615233565b604051908152f35b80fd5b346103525760803660031901126103525760043561039c614fd4565b6103a4614fea565b606435906103b86103b3615233565b6152cd565b60018060a01b03918284169384608051526020906004825260ff6040608051205416156114e3576208275087036107e8576000805160206160b883398151915286036105375750604051636bb825d760e11b81526202981060048201819052908281602481730d7e906bd9cafa154b048cfa766cc1e54e39af9b5afa80156104fb5760805190610508575b61044e9150846155b4565b90737f2b8c31f88b6006c382775eea88297ec1e3e90590813b1561035257606460405180948193636705b1e760e11b83528a8a1660048401528860248401526044830152608051945af180156104fb576104e6575b509160008051602061609883398151915293916040935b86608051526005815284608051206104d3838254615210565b905584519788528701521693a360805180f35b6104ef9061508e565b60805180156104a35780fd5b6040513d608051823e3d90fd5b508281813d8311610530575b61051e81836150da565b810103126103525761044e9051610443565b503d610514565b73c02aaa39b223fe8d0a0e5c4f27ead9083c756cc286036106bb57604051636bb825d760e11b8152614e2060048201528281602481730d7e906bd9cafa154b048cfa766cc1e54e39af9b5afa9081156104fb578391610692575b50506040519063095ea7b360e01b8252737ac440cae8eb6328de4fa621163a792c1ea9d4fe9182600482015284602482015283816044816080518c5af180156104fb57610665575b50813b156103525760405163790cfd3360e11b81526080516001600160a01b039283166004830152918616602482015260448101859052614e2060648201529182908180608481015b0391608051905af180156104fb57610650575b509160008051602061609883398151915293916040936104ba565b6106599061508e565b60805180156106355780fd5b61068490843d861161068b575b61067c81836150da565b810190615644565b50886105d9565b503d610672565b813d83116106b4575b6106a581836150da565b81010312610352578188610591565b503d61069b565b604051636bb825d760e11b8152614e2060048201528281602481730d7e906bd9cafa154b048cfa766cc1e54e39af9b5afa9081156104fb5783916107bf575b505060405163095ea7b360e01b8152737ac440cae8eb6328de4fa621163a792c1ea9d4fe600482015283602482015282816044816080518b5af180156104fb576107a2575b5073d8a791fe2be73eb6e6cf1eb0cb3f36adc9b3f8f990813b156103525760405163790cfd3360e11b81526080516001600160a01b039283166004830152918616602482015260448101859052614e206064820152918290818060848101610622565b6107b890833d851161068b5761067c81836150da565b508761073f565b813d83116107e1575b6107d281836150da565b810103126103525781886106fa565b503d6107c8565b61044d870361098b576000805160206160b883398151915286036108a15750732a3dd3eb832af982ec71669e178424b10dca2ede803b156103525760405163cd58657960e01b8152608051600160048301526001600160a01b0386166024830152604482018590526000606483018190526084830181905260c060a484015260c48301529091829081868160e481015b03925af180156104fb5761065057509160008051602061609883398151915293916040936104ba565b6040519063095ea7b360e01b8252732a3dd3eb832af982ec71669e178424b10dca2ede9182600482015284602482015283816044816080518c5af180156104fb5761096e575b50813b156103525760405163cd58657960e01b815260808051600160048401526001600160a01b0388811660248501526044840188905293909316606483015260006084830181905260c060a484015260c4830152519092839160e4918391905af180156104fb5761065057509160008051602061609883398151915293916040936104ba565b61098490843d861161068b5761067c81836150da565b50886108e7565b600a8703610aad576000805160206160b88339815191528603610a0957507399c9fc46f92e8a1c0dec1b1747d010903e884be1803b1561035257604051639a2ac6d560e01b81526080516001600160a01b03861660048301526000602483018190526060604484015260648301529091829081868160848101610878565b610a1281615bb1565b906040519163095ea7b360e01b83527399c9fc46f92e8a1c0dec1b1747d010903e884be19283600482015285602482015284816044816080518d5af180156104fb57610a90575b5063ffffffff5a1692803b15610352578686926106226040519687958694859463041c592960e51b86526080519960048701615ae6565b610aa690853d871161068b5761067c81836150da565b5089610a59565b91939092909161a4b18703610c93576000805160206160b88339815191528603610b57575060405193634fb1a07b60e01b85526080518580610af484863060048501615a93565b0381847372ce9c846789fdb6fc1f34ac4ad25dd9ef7031ef5af19384156104fb5760008051602061609883398151915295604095610b33575b506104ba565b610b50903d80608051833e610b4881836150da565b8101906159cf565b5088610b2d565b9373c02aaa39b223fe8d0a0e5c4f27ead9083c756cc28603610c28576040519463095ea7b360e01b865273d92023e9d9911199a6711321d1277285e6d4e2db9586600482015282602482015285816044816080518c5af180156104fb57610c0b575b506040518096634fb1a07b60e01b82528180610bdf868860805197309060048601615a4d565b0391608051905af19384156104fb5760008051602061609883398151915295604095610b3357506104ba565b610c2190863d881161068b5761067c81836150da565b5088610bb9565b6040519463095ea7b360e01b865273a3a7b6f88361f48403514059f1f16c8e78d60eec9586600482015282602482015285816044816080518c5af180156104fb57610c0b57506040518096634fb1a07b60e01b82528180610bdf868860805197309060048601615a4d565b61a4ba8703610e04576000805160206160b88339815191528603610d12575060405193634fb1a07b60e01b85526080518580610cd484863060048501615a93565b03818473c840838bc438d73c16c2f8b22d2ce3669963cd485af19384156104fb5760008051602061609883398151915295604095610b3357506104ba565b9373c02aaa39b223fe8d0a0e5c4f27ead9083c756cc28603610d99576040519463095ea7b360e01b865273e4e2121b479017955be0b175305b35f312330bae9586600482015282602482015285816044816080518c5af180156104fb57610c0b57506040518096634fb1a07b60e01b82528180610bdf868860805197309060048601615a4d565b6040519463095ea7b360e01b865273b2535b988dce19f9d71dfb22db6da744acac21bf9586600482015282602482015285816044816080518c5af180156104fb57610c0b57506040518096634fb1a07b60e01b82528180610bdf868860805197309060048601615a4d565b919290916101448703610f9f57506000805160206160b88339815191528503610ed15760405163e8b99b1b60e01b8152828416600482015260808051602483015260448201869052805160648301525160848201523060a4820152818160c481887357891966931eb4bb6fb81430e6ce0a03aabde0635af180156104fb57610ea2575b509060008051602061609883398151915293604093926104ba565b9080939291813d8311610eca575b610eba81836150da565b8101031261035257909186610e87565b503d610eb0565b60405163095ea7b360e01b81527357891966931eb4bb6fb81430e6ce0a03aabde06380600483015285602483015282826044816080518b5af19081156104fb5760c4928492610f82575b506040519283809263e8b99b1b60e01b825288881660048301528a6024830152896044830152608051606483015260805160848301523060a4830152608051905af180156104fb57610ea257509060008051602061609883398151915293604093926104ba565b610f9890833d851161068b5761067c81836150da565b5089610f1b565b92939192611388870361112c576000805160206160b8833981519152860361104757507395fc37a27a2f68e3a647cdc081f0a89bb47c3012803b1561035257604051639a2ac6d560e01b8152608080516001600160a01b0387166004840152600060248401819052606060448501526064840152905191929091839160849183915af180156104fb5761065057509160008051602061609883398151915293916040936104ba565b60405163095ea7b360e01b81527395fc37a27a2f68e3a647cdc081f0a89bb47c30129182600483015284602483015283826044816080518c5af19182156104fb576110979261110f575b50615c95565b90803b1561035257856040519263041c592960e51b84528860048501521660248301528585166044830152836064830152608051608483015260c060a483015260805160c48301528160e48160805180945af180156104fb5761065057509160008051602061609883398151915293916040936104ba565b61112590853d871161068b5761067c81836150da565b5089611091565b60a98703611252576000805160206160b883398151915286036111cc5750733b95bc951ee0f553ba487327278cac44f29715e5803b1561035257604051639a2ac6d560e01b81526080516001600160a01b038616600483015260006024830181905260606044840152606483015290918290608490829087905af180156104fb5761065057509160008051602061609883398151915293916040936104ba565b6111d581615d06565b906040519163095ea7b360e01b8352733b95bc951ee0f553ba487327278cac44f29715e59283600482015285602482015284816044816080518d5af180156104fb57610a90575063ffffffff5a1692803b15610352578686926106226040519687958694859463041c592960e51b86526080519960048701615ae6565b61a70e87036113aa576000805160206160b883398151915286036112e65750739cb4706e20a18e59a48ffa7616d700a3891e1861803b156103525760405163cd58657960e01b8152608051600160048301526001600160a01b0386166024830152604482018590526000606483018190526084830181905260c060a484015260c48301529091829081868160e48101610878565b6040519063095ea7b360e01b8252739cb4706e20a18e59a48ffa7616d700a3891e18619182600482015284602482015283816044816080518c5af180156104fb5761138d575b50813b156103525760405163cd58657960e01b8152608051600160048301526001600160a01b03808816602484015260448301879052909216606482015260006084820181905260c060a483015260c4820152918290818060e48101610622565b6113a390843d861161068b5761067c81836150da565b508861132c565b61210587036114d1576000805160206160b8833981519152860361144b5750733154cf16ccdb4c6d922629664174b904d80f2c35803b1561035257604051639a2ac6d560e01b81526080516001600160a01b038616600483015260006024830181905260606044840152606483015290918290608490829087905af180156104fb5761065057509160008051602061609883398151915293916040936104ba565b61145481615bb1565b906040519163095ea7b360e01b8352733154cf16ccdb4c6d922629664174b904d80f2c359283600482015285602482015284816044816080518d5af180156104fb57610a90575063ffffffff5a1692803b15610352578686926106226040519687958694859463041c592960e51b86526080519960048701615ae6565b604051639474dee160e01b8152600490fd5b6040516305fd61ad60e01b815260048101879052602490fd5b34610352576020366003190112610352576001600160a01b0361151d614fb9565b16608051526009602052602060406080512054604051908152f35b346103525760208060031936011261035257600435906115566155c1565b61155e6154f1565b3360805152600a9182825260406080512054808210156118d0575033608051528282526115908160406080512061502a565b5060018060a01b03905460081c1692836080515260099081845260805194604086205493600019968786019586116118a7575033608051528286526115da8160406080512061502a565b50926003809401549683608051528581526115fa876040608051206151bd565b509761160c6001809a01918254615210565b905560805194338652828252806116288560406080512061502a565b500154903360805152838352896116448660406080512061502a565b500154978989116118be57908791895b8b81106117db575050506116729161166d8215156157b8565b6155b4565b92336080515282825261168a8160406080512061502a565b5060ff19908a828254161790553360805152838352896116af8360406080512061502a565b50918254161790556116c2843387615f3a565b5033608051528282526080519960408b208054918b83116116f5575b8b6000805160206161188339815191525560805180f35b82019182116117c4577f0ad30059d4072ae2525ebaaa5b6878f1c50df5f3b921615031c7d0f12dc4a77b9a9b509261175a8897969361175461173f61177398956117b09c9861502a565b5091336080515285855260406080512061502a565b906157f0565b33608051525261176e604060805120615858565b615210565b6040805133815260208101969096528501959095526001600160a01b03166060840152608083019390935260a082019290925290819060c0820190565b0390a18082808080808080808080806116de565b634e487b7160e01b8c526011600452608051602490fd5b9091925087608051528185528c60805160408120549182019182116118a75750811161188f57611886906118596118528e8b608051528589526118316002611828866040608051206151bd565b50015489615785565b908c60805152868a52611849856040608051206151bd565b50015490615798565b809b6155b4565b99896080515283875261187f85611875846040608051206151bd565b50019182546155b4565b9055615776565b90889291611654565b60249060405190637d58ebb960e01b82526004820152fd5b634e487b7160e01b90526011600452608051602490fd5b60405163374c934360e11b8152600490fd5b604492506040519163abe5c32f60e01b835260048301526024820152fd5b346103525760603660031901126103525760043561190a614fd4565b6044359167ffffffffffffffff918284116103525736602385011215610352578360040135928311610352576024840193602436918560061b010111610352576119556103b3615233565b6801bc16d674ec800000820415611a3f576001600160a01b031691823b1561035257604051936337a6c88160e01b85528260048601526040602486015260805185806119a560448201868661597c565b038186885af19182156104fb577f33fa5868f7aec03a4bae17d5ca8d0869adac2237298253519ebf80c25ddf7fe395611a2793611a30575b506000805160206160b8833981519152608051526005602052604060805120611a07858254615210565b90556040519485948552602085015260606040850152606084019161597c565b0390a160805180f35b611a399061508e565b866119dd565b60405162461bcd60e51b815260206004820152601760248201527f457468206e6f7420656e6f75676820746f207374616b650000000000000000006044820152606490fd5b3461035257606036600319011261035257611a9d614fb9565b611aa5615125565b6044359063ffffffff9081831680840361035257611ac1615275565b60018060a01b0385169384608051526020936004855260ff6040608051205416611c0557856080515260048552608051611b0a85604083209060ff801983541691151516179055565b600986526040812082600854168503918383116118a757509282611b94611bf696937fc8c34f23fafb34e68119c1d231ef03d0d47225b15e2c4de3efbefa14b0181d869a9b96611bf19660405192611b618461505c565b168252858b8301528c60408301526080516060830152608051608083015260805160a083015260805160c08301526158ce565b896080515260098852611bb2604060805120928260085416906158b6565b60405193611bbf8561505c565b845216878301528860408301526080516060830152608051608083015260805160a083015260805160c08301526158ce565b615b2a565b6040519015158152a260805180f35b60405163411befff60e11b8152600481018790528415156024820152604490fd5b34610352576080518060031936011261037d576020600254604051908152f35b34610352576020366003190112610352576001600160a01b03611c67614fb9565b16608051526005602052602060406080512054604051908152f35b34610352576020366003190112610352576001600160a01b03611ca3614fb9565b16608051526004602052602060ff60406080512054166040519015158152f35b3461035257604036600319011261035257611cdc615125565b611ce4615275565b600435608051526003602052611d0c60805191604083209060ff801983541691151516179055565b80f35b3461035257604036600319011261035257611d5d600435611d2e614fd4565b9080608051526000805160206160d8833981519152602052611d58600160406080512001546152cd565b61542d565b5060805180f35b3461035257608036600319011261035257600435602435611d83614fea565b914681036120415781608051526020926003845260ff604060805120541615612028576001600160a01b0380611db7615e45565b166040516370a0823160e01b8082523060048301528782602481865afa9182156104fb5760805192611ff9575b506040516323b872dd60e01b81523360048201523060248201526064803560448301526080519192918a9184918290885af19182156104fb578992611fdc575b5060246040518095819382523060048301525afa80156104fb5760805190611fad575b611e519250615210565b91600154808410611f8f575073c02aaa39b223fe8d0a0e5c4f27ead9083c756cc2806080515260058752604060805120611e8c8582546155b4565b9055611ea9620f4240611ea160025487615785565b048095615210565b906080515260068752604060805120611ec38582546155b4565b90556080518381541690813b1561037d575060405163305f478560e21b81526080805160048301899052602483018a90526001600160a01b038616604484015260648301859052608483019790975251909591869160a4918391905af19081156104fb577fcb9e641636f35317739cff2833f1831bf3a25b930b5615ada09367c080d64a8994611f7492611f80575b5060405193849316963396846040919493926060820195825260208201520152565b0390a360405160018152f35b611f899061508e565b88611f52565b60449084604051916358f8331360e11b835260048301526024820152fd5b508682813d8311611fd5575b611fc381836150da565b8101031261035257611e519151611e47565b503d611fb9565b611ff290833d851161068b5761067c81836150da565b5089611e24565b9091508781813d8311612021575b61201181836150da565b8101031261035257519088611de4565b503d612007565b6040516363b5c9db60e01b815260048101849052602490fd5b604051631a26aa4d60e21b8152600490fd5b34610352576020366003190112610352576001600160a01b03612074614fb9565b1660805152600a602052602060406080512054604051908152f35b34610352576040366003190112610352576120a8614fb9565b7ff54d3b756d286b6b08e5d4eda6dfe5b135664abf029e58e637cbf013c442c9506020602435926120d7615275565b60018060a01b0316928360805152600b82528060406080512055604051908152a260805180f35b34610352576020806003193601126103525760043561211b6155c1565b6121236154f1565b73c02aaa39b223fe8d0a0e5c4f27ead9083c756cc2918260805152600b8152608051604081205483106122fe57506040516323b872dd60e01b815233600482015230602482015260448101839052818180606481010381608051885af180156104fb576122e1575b508260805152600981526080519260408420549360001985019485116118a7575080608051526009825260ff60046121c8866040608051206151bd565b500154166122c8577fc138e3bd6d13eefa5cb01c0d35c5794001141efaf4e5ad888cad059935f83383929381608051526009835263ffffffff612210826040608051206151bd565b5054164210612257575b5060805152600581526040608051206122348482546155b4565b90556040519283523392a260016000805160206161188339815191525560805180f35b6122b36001913360805152600a855261229f6040608051206040519061227c826150be565b60805182528688830152836040830152608051606083015289608083015261551c565b8360805152600985526040608051206151bd565b50016122c08582546155b4565b90558461221a565b6040516311cf1b0760e31b815260048101859052602490fd5b6122f790823d841161068b5761067c81836150da565b508361218b565b8281604492526040608051205490604051916327500c6d60e21b835260048301526024820152fd5b34610352576020366003190112610352576123426103b3615233565b60043560015560805180f35b34610352576080518060031936011261037d57602061236b615e45565b6040516001600160a01b039091168152f35b3461035257604036600319011261035257612396614fb9565b61239e615125565b6123a6615275565b608080516001600160a01b038416905260046020525160409020805460ff191660ff831515161790556123da575b60805180f35b6123e390615b2a565b806123d4565b34610352576080518060031936011261037d5760075461240881615dab565b906080515b8181106124265760405180612422858261516a565b0390f35b60805191825b3360805152600a60209080825260406080512080548410156124ee57836124529161502a565b50546001600160a01b03929060081c831661246c876151d9565b949054600395861b1c161461248d575b50505061248890615776565b61242c565b959295336080515281815260ff6124a98860406080512061502a565b5054166124e1579161248893916124d8933360805152526124cf8760406080512061502a565b500154906155b4565b9390868061247c565b5050509261248890615776565b50505050919061254491612501826151d9565b9190549160405192612512846150a2565b60039190911b1c6001600160a01b03168252602082015261253382866158a2565b5261253e81856158a2565b50615776565b61240d565b34610352576080518060031936011261037d57602090604051908152f35b606036600319011261035257600435602435612581614fea565b91468103612041578160805152600360205260ff604060805120541615612709576001548034106126eb57506000805160206160b8833981519152806080515260056020526040608051206125d73482546155b4565b9055620f42406125e960025434615785565b04936125f58534615210565b916080515260066020526040608051206126108682546155b4565b905560805180546001600160a01b03939190841690813b1561037d575060405163305f478560e21b815260808051466004840152602483018990526001600160a01b03861660448401526064830185905260848301999099525196979596909591869160a4918391905af19081156104fb577f0b671089787b6d29f730bc690214e6a7e28064fef5a3cdbb9b930a22fac01dc5946126ce926126dc575060405193849316963396846040919493926060820195825260208201520152565b0390a3602060405160018152f35b6126e59061508e565b87611f52565b604490604051906358f8331360e11b82526004820152346024820152fd5b604051632ef6974160e11b815260048101839052602490fd5b604036600319011261035257612736614fb9565b6024908135906127446154f1565b34156128f75750506127546155c1565b61275c6154f1565b6000805160206160b88339815191528060805152602091600b8352604060805120548034106128da57508160805152600983526080519060408220546000198101928184116128c5575083608051526009855260406080512054156128ae5783608051526009855263ffffffff6127d8846040608051206151bd565b50541642101561289957505061282c6001913360805152600a855261229f60406080512060405190612809826150be565b60805182528688830152836040830152608051606083015234608083015261551c565b50016128393482546155b4565b905560805152600581526040608051206128543482546155b4565b90557fe7466ea83435490635fc76a5f33da4815758ab48b1d45858f0452ca646556937604051913483523392a260016000805160206161188339815191525560805180f35b60405190637d58ebb960e01b82526004820152fd5b50604051637d58ebb960e01b815260016004820152fd5b634e487b7160e01b9052506011600452608051fd5b604491604051916327500c6d60e21b835260048301523490820152fd5b73c02aaa39b223fe8d0a0e5c4f27ead9083c756cc2906001600160a01b0316818103612af957506129266155c1565b61292e6154f1565b8060805152602090600b825260805160408120548410612ad257506040516323b872dd60e01b815233600482015230602482015260448101849052828180606481010381608051865af180156104fb57612ab5575b508060805152600982526080516040812054906000198201918211612a9f575081608051526009835260ff60046129bf836040608051206151bd565b50015416612a88577fc138e3bd6d13eefa5cb01c0d35c5794001141efaf4e5ad888cad059935f8338393945081608051526009835263ffffffff612a08826040608051206151bd565b5054164210612a4e575b506080515260058152604060805120612a2c8482546155b4565b90556040519283523392a26001600080516020616118833981519152556123d4565b612a736001913360805152600a855261229f6040608051206040519061227c826150be565b5001612a808582546155b4565b905584612a12565b8490604051906311cf1b0760e31b82526004820152fd5b634e487b7160e01b905260116004526080518590fd5b612acb90833d851161068b5761067c81836150da565b5084612983565b848482604493526040608051205491604051926327500c6d60e21b84526004840152820152fd5b80939150608051526020906004825260ff6040608051205416612b20575b505050506123d4565b612b286155c1565b612b306154f1565b83608051526004825260ff604060805120541615612cc7578360805152600b825260406080512054808410612cab5750612b6c833033876155f1565b836080515260098252608051906040822054916000198301928311612c97575084608051526009835263ffffffff612ba9836040608051206151bd565b505416421015612c815750906001612c327f3ac7d3823c11677fba9479ed26f696a3f17e16a5a5c39162fa6d183905aa6735933360805152600a8452612c1e60406080512060405190612bfb826150be565b60805182528987830152836040830152608051606083015288608083015261551c565b8660805152600984526040608051206151bd565b5001612c3f8482546155b4565b9055836080515260058152604060805120612c5b8482546155b4565b90556040519283523392a360016000805160206161188339815191525580808080612b17565b9060405190637d58ebb960e01b82526004820152fd5b634e487b7160e01b90526011600452608051fd5b83604492604051926327500c6d60e21b84526004840152820152fd5b6040516305fd61ad60e01b815260048101859052fd5b6080518060031936011261037d57612cf36155c1565b612cfb6154f1565b6000805160206160b88339815191528060805152602090600b825260406080512054803410612dbf575080608051526009825260805160408120546000198101918183116118a757508260805152600984526040608051205415612da65782608051526009845263ffffffff612d76836040608051206151bd565b50541642101561188f575061282c6001913360805152600a855261229f60406080512060405190612809826150be565b604051637d58ebb960e01b815260016004820152602490fd5b604490604051906327500c6d60e21b82526004820152346024820152fd5b346103525736600319011261035257602435600435612dfa614fea565b612e02615000565b60843590612e116103b3615233565b468503612041578360805152600360205260ff604060805120541615612f6f5760018060a01b03809116928360805152600460205260ff604060805120541615612f5657612e60838286615e0c565b83608051526005602052604060805120612e7b848254615210565b9055608051928284541693843b1561037d5750604051631eb65ffb60e01b81526080805160048301899052602483018a90526001600160a01b038516604484015260a4803560648501526084840185905260c48035918501919091529151929690928792918391905af19081156104fb577f0f50ec03884adc78b9840a90cf8805a70ffe160f18d6b83198103b6fade443fe94612f3992612f47575b5060405193849316973097846040919493926060820195825260208201520152565b0390a4602060405160018152f35b612f509061508e565b88612f17565b6040516305fd61ad60e01b815260048101859052602490fd5b604051632ef6974160e11b815260048101859052602490fd5b3461035257604036600319011261035257612fa1614fd4565b600435608051526000805160206160d8833981519152602052608051604081209160018060a01b03169052602052602060ff60406080512054166040519015158152f35b34610352576080518060031936011261037d57613000615275565b6130086154f1565b6000805160206160f8833981519152600160ff198254161790557f62e78cea01bee320cd4e420270b5ea74000d11b0c9f74754ebdbfc544b05a2586020604051338152a160805180f35b3461035257602036600319011261035257600435608051526003602052602060ff60406080512054166040519015158152f35b3461035257602080600319360112610352576001600160a01b036130a7614fb9565b1660805152600a81526040608051209081546130c2816150fc565b906130d060405192836150da565b80825282820180946080515260805184812090915b83831061316a578585886040519183830190848452518091526040830191936080515b8281106131155784840385f35b9091928260a08261315b6001948a516080809180511515845260018060a01b03602082015116602085015260408101516040850152606081015160608501520151910152565b01960191019492919094613108565b60048660019261317985615b67565b8152019201920191906130e5565b34610352576020366003190112610352576131a0615275565b60043560025560805180f35b3461035257602036600319011261035257600435600754811015610352576131d56020916151d9565b905460405160039290921b1c6001600160a01b03168152f35b34610352576080518060031936011261037d57602060ff6000805160206160f883398151915254166040519015158152f35b3461035257604036600319011261035257613239614fb9565b6040516132458161505c565b6080518152608051602082015260805160408201526080516060820152608051608082015260805160a082015260c060805191015260018060a01b0380911660805152600960205261329e6024356040608051206151bd565b50604051906132ac8261505c565b805463ffffffff808216948585526020850192828160201c16845281604087019160401c168152600185015492606087019384526002860154946080880195865260c060ff600460038a01549960a08c019a8b520154169801971515885260405198895251166020880152511660408601525160608501525160808401525160a083015251151560c0820152f35b34610352576080518060031936011261037d576133556155c1565b61335d6154f1565b6080515b60075481101561378257613374816151d9565b90549060018060a01b03828260031b1c166080515260096020526040608051205415613768576080515b3360805152600a602052604060805120805482101561375657816133c19161502a565b505460081c6001600160a01b03908116600384901b85901c90911614613410575b6001600160ff1b0381146133f85760010161339e565b634e487b7160e01b6080515260116004526024608051fd5b3360805152600a60205260ff61342b8260406080512061502a565b5054166137515760808051600384901b85901c6001600160a01b03169052600960205251604081205490600019820182106118a757503360805152600a602052600361347c8360406080512061502a565b50015460018060a01b03858560031b1c166080515260096020526134b860016134ae60001985016040608051206151bd565b5001918254615210565b9055608051338152600a60205260036134d68460406080512061502a565b500154913360805152600a60205260016134f58560406080512061502a565b50015492600019820184116118be5782845b6000198401811061367957506135229161166d8215156157b8565b923360805152600a60205261353c8560406080512061502a565b50805460ff191660011790556135638433600389901b8a901c6001600160a01b0316615f3a565b503360805152600a602052608051604081208054916001831161358d575b505050505050506133e2565b60009793949596971983019283116118a757506135c7916135ad9161502a565b503360805152600a6020526117548360406080512061502a565b3360805152600a6020526135df604060805120615858565b600160ff1b81146133f8578361361e7f0ad30059d4072ae2525ebaaa5b6878f1c50df5f3b921615031c7d0f12dc4a77b9561366a936000190197615210565b60408051338152602081019590955260001990950194840194909452600387901b88901c6001600160a01b03166060840152608083019390935260a082019290925290819060c0820190565b0390a184808080808080613581565b6080805160038a901b8b901c6001600160a01b03169052600960205251604081205491925060001982019182116118a75750811161188f5761374a9060018060a01b03898960031b1c1660805152600960205261371e6137176136ef60026136e6856040608051206151bd565b50015486615785565b60018060a01b038c8c60031b1c166080515260096020526001611849856040608051206151bd565b80966155b4565b9460018060a01b038a8a60031b1c1660805152600960205261187f6003611875846040608051206151bd565b8390613507565b6133e2565b5050505061376390615776565b613361565b604051637d58ebb960e01b81526080516004820152602490fd5b60016000805160206161188339815191525560805180f35b34610352576137a836615134565b9094926137b66103b3615233565b4685036120415783608051526020956003875260ff604060805120541615613940576001600160a01b0392836137ea615e45565b60405163a9059cbb60e01b81526001600160a01b03861660048201526024810188905260805190928b9284926044928492165af180156104fb57613923575b5073c02aaa39b223fe8d0a0e5c4f27ead9083c756cc26080515260058852604060805120613858868254615210565b9055608051908482541691823b1561037d5750604051631eb65ffb60e01b815260808051600483018a9052602483018b90526001600160a01b038716604484015260648301959095526084820188905260a4820192909252905190959291869160c4918391905af19081156104fb577f7dc80be13e04000533f3763be4b9359a36a0aeb0daabbf09fd96c3a275c1cc1494611f7492613914575b5060405193849316963096846040919493926060820195825260208201520152565b61391d9061508e565b886138f2565b61393990893d8b1161068b5761067c81836150da565b5088613829565b604051632ef6974160e11b815260048101869052602490fd5b34610352576020366003190112610352576001600160a01b0361397a614fb9565b16608051526006602052602060406080512054604051908152f35b34610352576040366003190112610352576139ae614fb9565b602435906139ba6155c1565b6139c26154f1565b60018060a01b031690816080515260206004815260ff604060805120541615613b00578260805152600b815260406080512054808310613ae25750613a09823033866155f1565b82608051526009815260805160408120549060001982019182116118a7575083608051526009825263ffffffff613a45826040608051206151bd565b50541642101561188f57906001613a967f3ac7d3823c11677fba9479ed26f696a3f17e16a5a5c39162fa6d183905aa6735933360805152600a8452612c1e60406080512060405190612bfb826150be565b5001613aa38482546155b4565b9055836080515260058152604060805120613abf8482546155b4565b90556040519283523392a360016000805160206161188339815191525560805180f35b60449083604051916327500c6d60e21b835260048301526024820152fd5b6040516305fd61ad60e01b815260048101849052602490fd5b3461035257604036600319011261035257613b32614fb9565b613b3a614fd4565b907ff0c57e16840df040f15088dc2f81fe391c3923bec73e23a9662efc9c229c6a0091825460ff8160401c16159267ffffffffffffffff821680159081613ce1575b6001149081613cd7575b159081613cce575b50613cbc5767ffffffffffffffff1982166001178555613c1f9184613c9d575b50613bb76154b0565b613bbf6154b0565b613bc76154b0565b600160008051602061611883398151915255613be16154b0565b613be96154b0565b6000805160206160f8833981519152805460ff19169055613c086154b0565b67016345785d8a0000600155612710600255615300565b5060805180546001600160a01b0319166001600160a01b039092169190911790556008805463ffffffff1916621baf80179055613c5c5760805180f35b68ff00000000000000001981541690557fc7f505b2f371ae2175ee4913f4499e1f2633a7b5936321eed1cdaeb6115181d2602060405160018152a1806123d4565b68ffffffffffffffffff19166801000000000000000117855585613bae565b60405163f92ee8a960e01b8152600490fd5b90501586613b8e565b303b159150613b86565b859150613b7c565b3461035257604036600319011261035257613d02614fb9565b608080516001600160a01b039283169052600960205251604081208054602435929083101561037d575090613d36916151bd565b5090815491600181015460028201549060ff6004600385015494015416936040519563ffffffff80821688528160201c16602088015260401c1660408601526060850152608084015260a0830152151560c0820152f35b34610352576080518060031936011261037d57613da8615275565b6000805160206160f8833981519152805460ff811615613df85760ff191690557f5db9ee0a495bf2e6ff9c91a7834c1ba4fdd244a5e8aa4e537bd38aeae4b073aa6020604051338152a160805180f35b604051638dfc202b60e01b8152600490fd5b34610352576080518060031936011261037d57600754613e2981615dab565b6080515b828110613e425760405180612422848261516a565b9060805192835b3360805152600a8060205260406080512080548310156140465782613e6d9161502a565b505460081c6001600160a01b0316613e84866151d9565b905460039190911b1c6001600160a01b031614613eab575b50613ea690615776565b613e49565b33608051528060205260ff613ec58360406080512061502a565b505416613e9c57613ed5856151d9565b60018060a01b0391549060031b1c1660805152600960205260805190604082205491826000198101116118a757503360805152806020526003613f1d8460406080512061502a565b5001549033608051526020526001613f3a8460406080512061502a565b5001546000198301811161403a5791905b60001982018310613f5d575050613e9c565b909196613f69876151d9565b60018060a01b0391549060031b1c1660805152600960205260805160408120549060001982019182116118a7575088116140215761401461401a91613fad896151d9565b60018060a01b0391549060031b1c1660805152600960205261400e613fdc60026136e68d6040608051206151bd565b613fe58b6151d9565b60018060a01b0391549060031b1c1660805152600960205260016118498d6040608051206151bd565b906155b4565b97615776565b9190613f4b565b604051637d58ebb960e01b815260048101899052602490fd5b505050613ea690615776565b505050916140589193612501826151d9565b919091613e2d565b346103525760a03660031901126103525760043560243561407f614fea565b91614088615000565b926084354683036120415783608051526020946003865260ff6040608051205416156139405760018060a01b038091169283608051526004875260ff604060805120541615612f56576040516370a0823160e01b808252306004830152908881602481895afa9081156104fb5760805191614285575b5061410b853033896155f1565b6040519182523060048301528882602481895afa80156104fb5760805190614256575b6141389250615210565b928460805152600588526141536040608051209182546155b4565b9055614170620f424061416860025486615785565b048094615210565b84608051526006885260406080512061418a8582546155b4565b90556080518381541690813b1561037d575060405163305f478560e21b815260808051600483018a9052602483018b90526001600160a01b038616604484015260648301859052608483019790975251909591869160a4918391905af19081156104fb577fece797608c81cc46a09f9859cf8ef650ec541b5da6989f30acb30dba9b8a40a49461423b92614247575b5060405193849316973397846040919493926060820195825260208201520152565b0390a460405160018152f35b6142509061508e565b89614219565b508882813d831161427e575b61426c81836150da565b8101031261035257614138915161412e565b503d614262565b90508881813d83116142ab575b61429c81836150da565b810103126103525751896140fe565b503d614292565b6142bb36615134565b929493906142ca6103b3615233565b468203612041578460805152600360205260ff604060805120541615613940576080516001600160a01b03878116979092918089818880156143fd575b83928392f1156104fb576000805160206160b883398151915260805152600560205260406080512061433a868254615210565b90556080519283541692833b1561037d5750604051631eb65ffb60e01b815260808051600483018a9052602483018790526001600160a01b0393909316604483015260648201939093526084810186905260a481019690965290519091859160c4918391905af19283156104fb577f61d99af9dd09bd984d42cc07939d4cba4388e85aa29b3cc88df954e4ca719f32936143ee575b50604080519485526020850191909152830152309180606081016126ce565b6143f79061508e565b856143cf565b6108fc9150614307565b3461035257604036600319011261035257614420614fd4565b336001600160a01b0382160361443c57611d5d9060043561542d565b60405163334bd91960e11b8152600490fd5b3461035257602080600319360112610352576004359061446c6155c1565b6144746154f1565b3360805152600a80825260406080512054808410156146ce575033608051528082526144a58360406080512061502a565b5060018060a01b03905460081c1691826080515260099081815260805193604085205493600019958686019586116118a7575033608051528083526144ef8760406080512061502a565b509260038094015496836080515285825261450f876040608051206151bd565b50976145216001809a01918254615210565b9055608051943386528383528061453d8b60406080512061502a565b500154913360805152848452896145598c60406080512061502a565b500154978989116118be57885b8a81106146435750505050966145e4819986959489946145b0887f7e6fedb6f824b2112ac0626ced32f6be6324d554cc03efd112aa021ee4d740ac9d61166d61462a9c15156157b8565b5033608051528181526145c88360406080512061502a565b508560ff1982541617905533608051525260406080512061502a565b5001556145f2823383615f3a565b506040805133815260208101959095528401949094526001600160a01b039093166060830152608082019290925290819060a0820190565b0390a16000805160206161188339815191525560805180f35b87608051528186526080516040812054908482019182116118a75750811161188f576146c9906146ad6118528e8b60805152858a52614695600261468c866040608051206151bd565b5001548a615785565b908c60805152868b52611849856040608051206151bd565b99896080515283885261187f86611875846040608051206151bd565b614566565b836044916040519163abe5c32f60e01b835260048301526024820152fd5b60209081600319360112610352576004359067ffffffffffffffff821161035257366023830112156103525780826004013592614728846150fc565b9361473660405195866150da565b80855260249302810183019085850190368311610352578401905b82821061492d57505050506147676103b3615233565b6080515b82518110156123d4576001600160a01b03604061478883866158a2565b51015116806080515260098086526080519060408220546000198101928184116149175750836080515281885260805190604082209060011901918483116149015750926148b47fb6f449f07ceaf55392c9899e0797c6529908ae827c2d498c682e90d42c241167938360046148048d966148c09b9a996151bd565b5001906001918260ff19825416179055806148c5575b508660805152818552614832846040608051206151bd565b509163ffffffff809354871c169288608051528187526040608051209261485d8260085416866158b6565b928a608051528852614874876040608051206151bd565b50015491604051946148858661505c565b855216868401528760408401526060830152608051608083015260805160a083015260805160c08301526158ce565b604051908152a2615776565b61476b565b876080515260069081875260026148e96080519260408085205494888c52206151bd565b5001558760805152855260805160408120558c61481a565b634e487b7160e01b905260116004526080518790fd5b634e487b7160e01b905260116004526080518690fd5b838236031261035257604051906149438261505c565b61494c83615114565b8252614959888401615114565b8883015261496960408401615016565b6040830152606080840135908301526080830135608083015260a0808401359083015260c090818401359283151584036103525786938a93820152815201910190614751565b3461035257606036600319011261035257611d5d6149cb614fb9565b6149d3614fd4565b6149de6103b3615233565b60443591615f3a565b3461035257604036600319011261035257611d5d600435614a06614fd4565b9080608051526000805160206160d8833981519152602052614a30600160406080512001546152cd565b6153a0565b34610352576080518060031936011261037d57614a506155c1565b614a586154f1565b6080515b60075481101561378257614a6f816151d9565b9190549160018060a01b03838260031b1c166080515260096020526040608051205415613768576080515b3360805152600a6020526040608051208054821015614d955781614abd9161502a565b505460081c6001600160a01b03908116600384901b86901c90911614614af4575b6001600160ff1b0381146133f857600101614a9a565b9291903360805152600a60205260ff614b128560406080512061502a565b505416614d8d5760808051600383901b85901c6001600160a01b0316905260096020525160408120549490600019860186106118a757503360805152600a6020526003614b648260406080512061502a565b50015460018060a01b03858460031b1c16608051526009602052614b9660016134ae60001989016040608051206151bd565b905560805194338652600a6020526003614bb58360406080512061502a565b500154953360805152600a6020526001614bd48460406080512061502a565b50015490600019830182116118be57815b60001984018110614cb9575080614c2a817f7e6fedb6f824b2112ac0626ced32f6be6324d554cc03efd112aa021ee4d740ac969798999a61166d614cb19515156157b8565b503360805152600a602052614c448660406080512061502a565b50600019850160019190910155614c6c813360038a901b8c901c6001600160a01b0316615f3a565b5060408051338152602081019490945260001990940193830193909352600386901b88901c6001600160a01b03166060830152608082019290925290819060a0820190565b0390a1614ade565b60808051600388901b8a901c6001600160a01b0316905260096020525160408120546000198101919082116118a75750811161188f57614d889060018060a01b03898860031b1c16608051526009602052614d5c614d55614d2d6002614d24856040608051206151bd565b5001548d615785565b60018060a01b038c8b60031b1c166080515260096020526001611849856040608051206151bd565b80946155b4565b9260018060a01b038a8960031b1c1660805152600960205261187f6003611875846040608051206151bd565b614be5565b909192614ade565b505050614da29150615776565b614a5c565b3461035257602036600319011261035257600435608051526000805160206160d8833981519152602052602060016040608051200154604051908152f35b34610352576080518060031936011261037d57602063ffffffff60085416604051908152f35b34610352576020366003190112610352576001600160a01b03614e2c614fb9565b1660805152600b602052602060406080512054604051908152f35b3461035257604036600319011261035257614e60614fb9565b608080516001600160a01b039283169052600a6020525160408120805460243593929084101561037d575060a092614e979161502a565b5090815491600181015460036002830154920154926040519460ff81161515865260081c166020850152604084015260608301526080820152f35b34610352576080518060031936011261037d57546040516001600160a01b039091168152602090f35b3461035257604036600319011261035257614f14614fb9565b614f1f6103b3615233565b60018060a01b0316608051526005602052608051602435604082205580f35b34610352576080518060031936011261037d576020600154604051908152f35b34614fb5576020366003190112614fb55760043563ffffffff60e01b8116809103614fb15760209250637965db0b60e01b8114908115614fa0575b5015158152f35b6301ffc9a760e01b14905083614f99565b8280fd5b5080fd5b600435906001600160a01b0382168203614fcf57565b600080fd5b602435906001600160a01b0382168203614fcf57565b604435906001600160a01b0382168203614fcf57565b606435906001600160a01b0382168203614fcf57565b35906001600160a01b0382168203614fcf57565b80548210156150465760005260206000209060021b0190600090565b634e487b7160e01b600052603260045260246000fd5b60e0810190811067ffffffffffffffff82111761507857604052565b634e487b7160e01b600052604160045260246000fd5b67ffffffffffffffff811161507857604052565b6040810190811067ffffffffffffffff82111761507857604052565b60a0810190811067ffffffffffffffff82111761507857604052565b90601f8019910116810190811067ffffffffffffffff82111761507857604052565b67ffffffffffffffff81116150785760051b60200190565b359063ffffffff82168203614fcf57565b602435908115158203614fcf57565b60c0906003190112614fcf5760043590602435906044356001600160a01b0381168103614fcf5790606435906084359060a43590565b60208082019080835283518092528060408094019401926000905b83821061519457505050505090565b845180516001600160a01b03168752830151868401529485019493820193600190910190615185565b8054821015615046576000526005602060002091020190600090565b6007548110156150465760076000527fa66cc928b5edb82af9bd49922954155ab7b0942694bea4ce44661d9a8736c6880190600090565b9190820391821161521d57565b634e487b7160e01b600052601160045260246000fd5b604051602081017f33fe247d78fee2e7fd135c405eda4bd2911c0a73c0a81b36c3bcc967dd06e5ad81526020825261526a826150a2565b9051902060ff191690565b3360009081527fb7db2dd08fcb62d0c9e08c51941cae53c267786a0b75803fb7960902fc8ef97d602052604081205460ff16156152af5750565b6044906040519063e2517d3f60e01b82523360048301526024820152fd5b806000526000805160206160d883398151915260205260406000203360005260205260ff60406000205416156152af5750565b6001600160a01b031660008181527fb7db2dd08fcb62d0c9e08c51941cae53c267786a0b75803fb7960902fc8ef97d60205260408120549091906000805160206160d88339815191529060ff1661539b578280526020526040822081835260205260408220600160ff1982541617905533917f2f8788117e7eff1d82e926ec794901d17c78024a50270940304540a733656f0d8180a4600190565b505090565b906000918083526000805160206160d883398151915280602052604084209260018060a01b03169283855260205260ff60408520541615600014615427578184526020526040832082845260205260408320600160ff198254161790557f2f8788117e7eff1d82e926ec794901d17c78024a50270940304540a733656f0d339380a4600190565b50505090565b906000918083526000805160206160d883398151915280602052604084209260018060a01b03169283855260205260ff60408520541660001461542757818452602052604083208284526020526040832060ff1981541690557ff6391f5c32d9c69d2a47ea670b442974b53935d1edc7fd64eb21e047a839171b339380a4600190565b60ff7ff0c57e16840df040f15088dc2f81fe391c3923bec73e23a9662efc9c229c6a005460401c16156154df57565b604051631afcd79f60e31b8152600490fd5b60ff6000805160206160f8833981519152541661550a57565b60405163d93c066560e01b8152600490fd5b8054600160401b811015615078576155399160018201815561502a565b91909161559e5760808161555e600393511515859060ff801983541691151516179055565b60208101518454610100600160a81b03191660089190911b610100600160a81b031617845560408101516001850155606081015160028501550151910155565b634e487b7160e01b600052600060045260246000fd5b9190820180921161521d57565b60008051602061611883398151915260028154146155df5760029055565b604051633ee5aeb560e01b8152600490fd5b6040516323b872dd60e01b60208201526001600160a01b03928316602482015292909116604483015260648201929092526156429161563d82608481015b03601f1981018452836150da565b61565c565b565b90816020910312614fcf57518015158103614fcf5790565b6000806156a69260018060a01b03169360208151910182865af13d156156ef573d90615687826156f7565b9161569560405193846150da565b82523d6000602084013e5b83615713565b80519081151591826156d4575b50506156bc5750565b60249060405190635274afe760e01b82526004820152fd5b6156e79250602080918301019101615644565b1538806156b3565b6060906156a0565b67ffffffffffffffff811161507857601f01601f191660200190565b9061573a575080511561572857805190602001fd5b604051630a12f52160e11b8152600490fd5b8151158061576d575b61574b575090565b604051639996b31560e01b81526001600160a01b039091166004820152602490fd5b50803b15615743565b600019811461521d5760010190565b8181029291811591840414171561521d57565b81156157a2570490565b634e487b7160e01b600052601260045260246000fd5b156157bf57565b60405162461bcd60e51b8152602060048201526009602482015268139bc814995dd85c9960ba1b6044820152606490fd5b919061559e57808203615801575050565b60038161581f60ff83945416859060ff801983541691151516179055565b80548454610100600160a81b031916610100600160a81b0390911617845560018101546001850155600281015460028501550154910155565b8054801561588c57600019019061586f828261502a565b61559e576003816000809355826001820155826002820155015555565b634e487b7160e01b600052603160045260246000fd5b80518210156150465760209160051b010190565b91909163ffffffff8080941691160191821161521d57565b8054600160401b811015615078576158eb916001820181556151bd565b61559e578151815460208085015160408087015168010000000000000000600160e01b03911b1667ffffffff000000009190921b1663ffffffff9093166001600160e01b03199092169190911791909117178155606082015160018201556080820151600282015560a0820151600382015560c0909101516004909101805460ff191691151560ff16919091179055565b9190808252602080920192916000905b82821061599a575050505090565b9293919290916001906001600160a01b036159b487615016565b1681528583013583820152604090810195019392019061598c565b91906020928381830312614fcf5780519067ffffffffffffffff8211614fcf57019281601f85011215614fcf578351615a07816156f7565b92615a1560405194856150da565b818452828287010111614fcf5760005b818110615a3a57508260009394955001015290565b8581018301518482018401528201615a25565b9261010094929160018060a01b0392838092168652166020850152166040830152606082015260006080820152600060a082015260e060c0820152600060e08201520190565b6000805160206160b883398151915281526001600160a01b03918216602082015291166040820152606081019190915260006080820181905260a0820181905260e060c083018190528201526101000190565b93909163ffffffff9360e0969360018060a01b0392838092168852166020870152166040850152606084015216608082015260c060a0820152600060c08201520190565b600754600160401b81101561507857806001615b4992016007556151d9565b819291549060031b9160018060a01b03809116831b921b1916179055565b90604051615b74816150be565b825460ff81161515825260081c6001600160a01b031660208201526001830154604082015260028301546060820152600392909201546080830152565b6001600160a01b031673c02aaa39b223fe8d0a0e5c4f27ead9083c756cc28103615be157506006602160991b0190565b73dac17f958d2ee523a2206206994597c13d831ec78103615c1557507394b008aa00579c1307b0ef2c499ad98a8ce58e5890565b73a0b86991c6218b36c1d19d4a2e9eb0ce3606eb488103615c495750730b2c639c533813f4aa9d7837caf62653d097ff8590565b736b175474e89094c44da98b954eedeac495271d0f8103615c7d575073da10009cbd5d07dd0cecc66161fc93d7c9000da190565b602490604051906305fd61ad60e01b82526004820152fd5b6001600160a01b031673dac17f958d2ee523a2206206994597c13d831ec78103615cd2575073201eba5cc46d216ce6dc03f6a759e8e766e956ae90565b73a0b86991c6218b36c1d19d4a2e9eb0ce3606eb488103615c7d575073201eba5cc46d216ce6dc03f6a759e8e766e956ae90565b6001600160a01b031673dac17f958d2ee523a2206206994597c13d831ec78103615d43575073f417f5a458ec102b90352f697d6e2ac3a3d2851f90565b73a0b86991c6218b36c1d19d4a2e9eb0ce3606eb488103615d77575073b73603c5d87fa094b7314c74ace2e64d165016fb90565b736b175474e89094c44da98b954eedeac495271d0f8103615c7d5750731c466b9371f8aba0d7c458be10a62192fcb8aa7190565b90615db5826150fc565b604090615dc4825191826150da565b8381528093615dd5601f19916150fc565b0191600090815b848110615dea575050505050565b6020908251615df8816150a2565b848152828581830152828701015201615ddc565b60405163a9059cbb60e01b60208201526001600160a01b03909216602483015260448201929092526156429161563d826064810161562f565b466208275003615e5a576004605360981b0190565b4661044d03615e7b57734f9a0e7fd2bf6067db6994cf12e4495df938e6e990565b46600a03615e8e576006602160991b0190565b4661a4b103615eaf577382af49447d8a07e3bd95bd0d56f35241523fbab190565b4661a4ba03615ed05773722e8bdd2ce80a4422e880164f2079488e11536590565b4661014403615ef157735aea5775959fbc2557cc8789bc1bf90a239d9a9190565b4661138803615f0c5760405163e31d668960e01b8152600490fd5b4660a903615f26576040516322c20c6960e11b8152600490fd5b46612105036114d1576006602160991b0190565b9160018060a01b03809316916000938385526020936004855260409460ff86882054161561607f5781875260058152858720615f77868254615210565b90556000805160206160b88339815191528203615fdb575050824710615fca578480938193829383918315615fc0575b1690f115615fb6575050600190565b51903d90823e3d90fd5b6108fc9250615fa7565b8351632c1d501360e11b8152600490fd5b915091929395948651906370a0823160e01b82523060048301528282602481875afa928315616073579086939291819361603f575b5050501061602857616023939450615e0c565b600190565b6024908551906311745b6160e21b82526004820152fd5b919350915082813d811161606c575b61605881836150da565b8101031261037d5750839051388080616010565b503d61604e565b508751903d90823e3d90fd5b85516305fd61ad60e01b815260048101839052602490fdfe08ffba656e4ac665e1aa4bb6a342e1a69d4cc12fd751ac862fa3fe27b0c7524a000000000000000000000000eeeeeeeeeeeeeeeeeeeeeeeeeeeeeeeeeeeeeeee02dd7bc7dec4dceedda775e58dd541e08a116c6c53815c0bd028192f7b626800cd5ed15c6e187e77e9aee88184c21f4f2182ab5827cb3b7e07fbedcd63f033009b779b17422d0df92223018b32b4d1fa46e071723d6817e2486d003becc55f00a26469706673582212207364c492851e625a5a7ec97cb7decb3443b3e9af28287ebcd54649ed9dfc8ea164736f6c63430008140033",
    "linkReferences": {}
  },
  "methodIdentifiers": {
    "BridgeFinalizeERC20(uint256,uint256,address,address,uint256,uint256,uint256)": "92d84738",
    "BridgeFinalizeETH(uint256,uint256,address,uint256,uint256,uint256)": "38731c47",
    "BridgeFinalizeETHForStaking(uint256,address,(address,uint256)[])": "f363e52d",
    "BridgeFinalizeWETH(uint256,uint256,address,uint256,uint256,uint256)": "5765a4eb",
    "BridgeInitiateERC20(uint256,uint256,address,address,uint256)": "3b0230f0",
    "BridgeInitiateETH(uint256,uint256,address)": "9b442380",
    "BridgeInitiateWETH(uint256,uint256,address,uint256)": "cd01c665",
    "ClaimAllReward()": "2c37388b",
    "ClaimbyID(uint256)": "34d34ef5",
    "CompletePoolAndNew((uint32,uint32,address,uint256,uint256,uint256,bool)[])": "3338562c",
    "DEFAULT_ADMIN_ROLE()": "a217fddf",
    "DepositAndStaking(address,uint256)": "9ab0b652",
    "DepositAndStakingERC20(address,uint256)": "4dfaef84",
    "DepositAndStakingETH()": "96f984e6",
    "DepositAndStakingWETH(uint256)": "bc42493d",
    "FeePoolValue(address)": "54dc027e",
    "FundingPoolBalance(address)": "dbb0481f",
    "IsSupportChainId(uint256)": "72fe6a7e",
    "IsSupportToken(address)": "dac29568",
    "L2WETH()": "b1887e9b",
    "MinStakeAmount(address)": "1ca2f173",
    "MinTransferAmount()": "09dc480c",
    "PerFee()": "dd0c3460",
    "Pools(address,uint256)": "4663cdc8",
    "QuickSendAssertToUser(address,address,uint256)": "325e5d43",
    "ReLayer()": "fa861848",
    "SupportTokens(uint256)": "626417b5",
    "TransferAssertToBridge(uint256,address,address,uint256)": "f91fa9a8",
    "UpdateFundingPoolBalance(address,uint256)": "0cd727df",
    "Users(address,uint256)": "13e8544e",
    "WithdrawAll()": "5a648bc5",
    "WithdrawByID(uint256)": "f62a89cf",
    "getPool(address,uint256)": "5b5b9ea2",
    "getPoolLength(address)": "f8fcc2aa",
    "getPrincipal()": "a69bdf16",
    "getReward()": "3d18b912",
    "getRoleAdmin(bytes32)": "248a9ca3",
    "getUser(address)": "6f77926b",
    "getUser(address,uint256)": "ff2bf64f",
    "getUserLength(address)": "cb4f04ad",
    "grantRole(bytes32,address)": "2f2ff15d",
    "hasRole(bytes32,address)": "91d14854",
    "initialize(address,address)": "485cc955",
    "messageManager()": "10875a13",
    "pause()": "8456cb59",
    "paused()": "5c975abb",
    "periodTime()": "1d31fac0",
    "renounceRole(bytes32,address)": "36568abe",
    "revokeRole(bytes32,address)": "d547741f",
    "setMinStakeAmount(address,uint256)": "cb314fab",
    "setMinTransferAmount(uint256)": "b92e6396",
    "setPerFee(uint256)": "650c2276",
    "setSupportERC20Token(address,bool)": "ab0f9e19",
    "setSupportToken(address,bool,uint32)": "e2070893",
    "setValidChainId(uint256,bool)": "d73f14e5",
    "supportsInterface(bytes4)": "01ffc9a7",
    "unpause()": "3f4ba83a"
  },
  "id": 60
}