{
  "abi": [
    {
      "inputs": [],
      "stateMutability": "nonpayable",
      "type": "constructor"
    },
    {
      "inputs": [],
      "name": "AccessControlBadConfirmation",
      "type": "error"
    },
    {
      "inputs": [
        {
          "internalType": "address",
          "name": "account",
          "type": "address"
        },
        {
          "internalType": "bytes32",
          "name": "neededRole",
          "type": "bytes32"
        }
      ],
      "name": "AccessControlUnauthorizedAccount",
      "type": "error"
    },
    {
      "inputs": [
        {
          "internalType": "address",
          "name": "target",
          "type": "address"
        }
      ],
      "name": "AddressEmptyCode",
      "type": "error"
    },
    {
      "inputs": [
        {
          "internalType": "address",
          "name": "account",
          "type": "address"
        }
      ],
      "name": "AddressInsufficientBalance",
      "type": "error"
    },
    {
      "inputs": [
        {
          "internalType": "uint256",
          "name": "id",
          "type": "uint256"
        }
      ],
      "name": "ChainIdIsNotSupported",
      "type": "error"
    },
    {
      "inputs": [
        {
          "internalType": "uint256",
          "name": "chainId",
          "type": "uint256"
        }
      ],
      "name": "ChainIdNotSupported",
      "type": "error"
    },
    {
      "inputs": [],
      "name": "EnforcedPause",
      "type": "error"
    },
    {
      "inputs": [],
      "name": "ErrorBlockChain",
      "type": "error"
    },
    {
      "inputs": [],
      "name": "ExpectedPause",
      "type": "error"
    },
    {
      "inputs": [],
      "name": "FailedInnerCall",
      "type": "error"
    },
    {
      "inputs": [],
      "name": "InvalidInitialization",
      "type": "error"
    },
    {
      "inputs": [
        {
          "internalType": "uint256",
          "name": "MinTransferAmount",
          "type": "uint256"
        },
        {
          "internalType": "uint256",
          "name": "value",
          "type": "uint256"
        }
      ],
      "name": "LessThanMinTransferAmount",
      "type": "error"
    },
    {
      "inputs": [],
      "name": "MantaNotWETH",
      "type": "error"
    },
    {
      "inputs": [],
      "name": "MantleNotWETH",
      "type": "error"
    },
    {
      "inputs": [],
      "name": "NotEnoughETH",
      "type": "error"
    },
    {
      "inputs": [
        {
          "internalType": "address",
          "name": "ERC20Address",
          "type": "address"
        }
      ],
      "name": "NotEnoughToken",
      "type": "error"
    },
    {
      "inputs": [],
      "name": "NotInitializing",
      "type": "error"
    },
    {
      "inputs": [],
      "name": "ReentrancyGuardReentrantCall",
      "type": "error"
    },
    {
      "inputs": [
        {
          "internalType": "address",
          "name": "token",
          "type": "address"
        }
      ],
      "name": "SafeERC20FailedOperation",
      "type": "error"
    },
    {
      "inputs": [
        {
          "internalType": "address",
          "name": "ERC20Address",
          "type": "address"
        }
      ],
      "name": "TokenIsNotSupported",
      "type": "error"
    },
    {
      "inputs": [],
      "name": "sourceChainIdError",
      "type": "error"
    },
    {
      "anonymous": false,
      "inputs": [
        {
          "indexed": true,
          "internalType": "bytes32",
          "name": "messageHash",
          "type": "bytes32"
        }
      ],
      "name": "BridgeInitiateForStakingSuccess",
      "type": "event"
    },
    {
      "anonymous": false,
      "inputs": [
        {
          "indexed": false,
          "internalType": "uint256",
          "name": "sourceChainId",
          "type": "uint256"
        },
        {
          "indexed": false,
          "internalType": "uint256",
          "name": "destChainId",
          "type": "uint256"
        },
        {
          "indexed": true,
          "internalType": "address",
          "name": "ERC20Address",
          "type": "address"
        },
        {
          "indexed": true,
          "internalType": "address",
          "name": "from",
          "type": "address"
        },
        {
          "indexed": true,
          "internalType": "address",
          "name": "to",
          "type": "address"
        },
        {
          "indexed": false,
          "internalType": "uint256",
          "name": "value",
          "type": "uint256"
        }
      ],
      "name": "FinalizeERC20",
      "type": "event"
    },
    {
      "anonymous": false,
      "inputs": [
        {
          "indexed": false,
          "internalType": "uint256",
          "name": "sourceChainId",
          "type": "uint256"
        },
        {
          "indexed": false,
          "internalType": "uint256",
          "name": "destChainId",
          "type": "uint256"
        },
        {
          "indexed": true,
          "internalType": "address",
          "name": "from",
          "type": "address"
        },
        {
          "indexed": true,
          "internalType": "address",
          "name": "to",
          "type": "address"
        },
        {
          "indexed": false,
          "internalType": "uint256",
          "name": "value",
          "type": "uint256"
        }
      ],
      "name": "FinalizeETH",
      "type": "event"
    },
    {
      "anonymous": false,
      "inputs": [
        {
          "indexed": false,
          "internalType": "uint256",
          "name": "sourceChainId",
          "type": "uint256"
        },
        {
          "indexed": false,
          "internalType": "uint256",
          "name": "destChainId",
          "type": "uint256"
        },
        {
          "indexed": true,
          "internalType": "address",
          "name": "from",
          "type": "address"
        },
        {
          "indexed": true,
          "internalType": "address",
          "name": "to",
          "type": "address"
        },
        {
          "indexed": false,
          "internalType": "uint256",
          "name": "value",
          "type": "uint256"
        }
      ],
      "name": "FinalizeWETH",
      "type": "event"
    },
    {
      "anonymous": false,
      "inputs": [
        {
          "indexed": false,
          "internalType": "uint64",
          "name": "version",
          "type": "uint64"
        }
      ],
      "name": "Initialized",
      "type": "event"
    },
    {
      "anonymous": false,
      "inputs": [
        {
          "indexed": false,
          "internalType": "uint256",
          "name": "sourceChainId",
          "type": "uint256"
        },
        {
          "indexed": false,
          "internalType": "uint256",
          "name": "destChainId",
          "type": "uint256"
        },
        {
          "indexed": true,
          "internalType": "address",
          "name": "ERC20Address",
          "type": "address"
        },
        {
          "indexed": true,
          "internalType": "address",
          "name": "from",
          "type": "address"
        },
        {
          "indexed": true,
          "internalType": "address",
          "name": "to",
          "type": "address"
        },
        {
          "indexed": false,
          "internalType": "uint256",
          "name": "value",
          "type": "uint256"
        }
      ],
      "name": "InitiateERC20",
      "type": "event"
    },
    {
      "anonymous": false,
      "inputs": [
        {
          "indexed": false,
          "internalType": "uint256",
          "name": "sourceChainId",
          "type": "uint256"
        },
        {
          "indexed": false,
          "internalType": "uint256",
          "name": "destChainId",
          "type": "uint256"
        },
        {
          "indexed": true,
          "internalType": "address",
          "name": "from",
          "type": "address"
        },
        {
          "indexed": true,
          "internalType": "address",
          "name": "to",
          "type": "address"
        },
        {
          "indexed": false,
          "internalType": "uint256",
          "name": "value",
          "type": "uint256"
        }
      ],
      "name": "InitiateETH",
      "type": "event"
    },
    {
      "anonymous": false,
      "inputs": [
        {
          "indexed": false,
          "internalType": "uint256",
          "name": "sourceChainId",
          "type": "uint256"
        },
        {
          "indexed": false,
          "internalType": "uint256",
          "name": "destChainId",
          "type": "uint256"
        },
        {
          "indexed": true,
          "internalType": "address",
          "name": "from",
          "type": "address"
        },
        {
          "indexed": true,
          "internalType": "address",
          "name": "to",
          "type": "address"
        },
        {
          "indexed": false,
          "internalType": "uint256",
          "name": "value",
          "type": "uint256"
        }
      ],
      "name": "InitiateWETH",
      "type": "event"
    },
    {
      "anonymous": false,
      "inputs": [
        {
          "indexed": false,
          "internalType": "address",
          "name": "account",
          "type": "address"
        }
      ],
      "name": "Paused",
      "type": "event"
    },
    {
      "anonymous": false,
      "inputs": [
        {
          "indexed": true,
          "internalType": "bytes32",
          "name": "role",
          "type": "bytes32"
        },
        {
          "indexed": true,
          "internalType": "bytes32",
          "name": "previousAdminRole",
          "type": "bytes32"
        },
        {
          "indexed": true,
          "internalType": "bytes32",
          "name": "newAdminRole",
          "type": "bytes32"
        }
      ],
      "name": "RoleAdminChanged",
      "type": "event"
    },
    {
      "anonymous": false,
      "inputs": [
        {
          "indexed": true,
          "internalType": "bytes32",
          "name": "role",
          "type": "bytes32"
        },
        {
          "indexed": true,
          "internalType": "address",
          "name": "account",
          "type": "address"
        },
        {
          "indexed": true,
          "internalType": "address",
          "name": "sender",
          "type": "address"
        }
      ],
      "name": "RoleGranted",
      "type": "event"
    },
    {
      "anonymous": false,
      "inputs": [
        {
          "indexed": true,
          "internalType": "bytes32",
          "name": "role",
          "type": "bytes32"
        },
        {
          "indexed": true,
          "internalType": "address",
          "name": "account",
          "type": "address"
        },
        {
          "indexed": true,
          "internalType": "address",
          "name": "sender",
          "type": "address"
        }
      ],
      "name": "RoleRevoked",
      "type": "event"
    },
    {
      "anonymous": false,
      "inputs": [
        {
          "indexed": false,
          "internalType": "address",
          "name": "account",
          "type": "address"
        }
      ],
      "name": "Unpaused",
      "type": "event"
    },
    {
      "anonymous": false,
      "inputs": [
        {
          "indexed": false,
          "internalType": "uint256",
          "name": "chainId",
          "type": "uint256"
        },
        {
          "indexed": false,
          "internalType": "uint256",
          "name": "timestamp",
          "type": "uint256"
        },
        {
          "indexed": false,
          "internalType": "address",
          "name": "token",
          "type": "address"
        },
        {
          "indexed": false,
          "internalType": "address",
          "name": "to",
          "type": "address"
        },
        {
          "indexed": false,
          "internalType": "uint256",
          "name": "value",
          "type": "uint256"
        }
      ],
      "name": "WithdrawERC20toL1Success",
      "type": "event"
    },
    {
      "anonymous": false,
      "inputs": [
        {
          "indexed": false,
          "internalType": "uint256",
          "name": "chainId",
          "type": "uint256"
        },
        {
          "indexed": false,
          "internalType": "uint256",
          "name": "timestamp",
          "type": "uint256"
        },
        {
          "indexed": false,
          "internalType": "address",
          "name": "to",
          "type": "address"
        },
        {
          "indexed": false,
          "internalType": "uint256",
          "name": "value",
          "type": "uint256"
        }
      ],
      "name": "WithdrawETHtoL1Success",
      "type": "event"
    },
    {
      "anonymous": false,
      "inputs": [
        {
          "indexed": false,
          "internalType": "uint256",
          "name": "chainId",
          "type": "uint256"
        },
        {
          "indexed": false,
          "internalType": "uint256",
          "name": "timestamp",
          "type": "uint256"
        },
        {
          "indexed": false,
          "internalType": "address",
          "name": "to",
          "type": "address"
        },
        {
          "indexed": false,
          "internalType": "uint256",
          "name": "value",
          "type": "uint256"
        }
      ],
      "name": "WithdrawWETHtoL1Success",
      "type": "event"
    },
    {
      "inputs": [
        {
          "internalType": "uint256",
          "name": "sourceChainId",
          "type": "uint256"
        },
        {
          "internalType": "uint256",
          "name": "destChainId",
          "type": "uint256"
        },
        {
          "internalType": "address",
          "name": "to",
          "type": "address"
        },
        {
          "internalType": "address",
          "name": "ERC20Address",
          "type": "address"
        },
        {
          "internalType": "uint256",
          "name": "amount",
          "type": "uint256"
        },
        {
          "internalType": "uint256",
          "name": "_fee",
          "type": "uint256"
        },
        {
          "internalType": "uint256",
          "name": "_nonce",
          "type": "uint256"
        }
      ],
      "name": "BridgeFinalizeERC20",
      "outputs": [
        {
          "internalType": "bool",
          "name": "",
          "type": "bool"
        }
      ],
      "stateMutability": "nonpayable",
      "type": "function"
    },
    {
      "inputs": [
        {
          "internalType": "uint256",
          "name": "sourceChainId",
          "type": "uint256"
        },
        {
          "internalType": "uint256",
          "name": "destChainId",
          "type": "uint256"
        },
        {
          "internalType": "address",
          "name": "to",
          "type": "address"
        },
        {
          "internalType": "uint256",
          "name": "amount",
          "type": "uint256"
        },
        {
          "internalType": "uint256",
          "name": "_fee",
          "type": "uint256"
        },
        {
          "internalType": "uint256",
          "name": "_nonce",
          "type": "uint256"
        }
      ],
      "name": "BridgeFinalizeETH",
      "outputs": [
        {
          "internalType": "bool",
          "name": "",
          "type": "bool"
        }
      ],
      "stateMutability": "payable",
      "type": "function"
    },
    {
      "inputs": [
        {
          "internalType": "uint256",
          "name": "sourceChainId",
          "type": "uint256"
        },
        {
          "internalType": "uint256",
          "name": "destChainId",
          "type": "uint256"
        },
        {
          "internalType": "address",
          "name": "to",
          "type": "address"
        },
        {
          "internalType": "uint256",
          "name": "amount",
          "type": "uint256"
        },
        {
          "internalType": "uint256",
          "name": "_fee",
          "type": "uint256"
        },
        {
          "internalType": "uint256",
          "name": "_nonce",
          "type": "uint256"
        }
      ],
      "name": "BridgeFinalizeWETH",
      "outputs": [
        {
          "internalType": "bool",
          "name": "",
          "type": "bool"
        }
      ],
      "stateMutability": "nonpayable",
      "type": "function"
    },
    {
      "inputs": [
        {
          "internalType": "uint256",
          "name": "sourceChainId",
          "type": "uint256"
        },
        {
          "internalType": "uint256",
          "name": "destChainId",
          "type": "uint256"
        },
        {
          "internalType": "address",
          "name": "to",
          "type": "address"
        },
        {
          "internalType": "address",
          "name": "ERC20Address",
          "type": "address"
        },
        {
          "internalType": "uint256",
          "name": "value",
          "type": "uint256"
        }
      ],
      "name": "BridgeInitiateERC20",
      "outputs": [
        {
          "internalType": "bool",
          "name": "",
          "type": "bool"
        }
      ],
      "stateMutability": "nonpayable",
      "type": "function"
    },
    {
      "inputs": [
        {
          "internalType": "uint256",
          "name": "sourceChainId",
          "type": "uint256"
        },
        {
          "internalType": "uint256",
          "name": "destChainId",
          "type": "uint256"
        },
        {
          "internalType": "address",
          "name": "to",
          "type": "address"
        },
        {
          "internalType": "address",
          "name": "ERC20Address",
          "type": "address"
        },
        {
          "internalType": "uint256",
          "name": "value",
          "type": "uint256"
        },
        {
          "internalType": "uint256",
          "name": "nonce",
          "type": "uint256"
        }
      ],
      "name": "BridgeInitiateERC20ForStaking",
      "outputs": [
        {
          "internalType": "bool",
          "name": "",
          "type": "bool"
        }
      ],
      "stateMutability": "nonpayable",
      "type": "function"
    },
    {
      "inputs": [
        {
          "internalType": "uint256",
          "name": "sourceChainId",
          "type": "uint256"
        },
        {
          "internalType": "uint256",
          "name": "destChainId",
          "type": "uint256"
        },
        {
          "internalType": "address",
          "name": "to",
          "type": "address"
        }
      ],
      "name": "BridgeInitiateETH",
      "outputs": [
        {
          "internalType": "bool",
          "name": "",
          "type": "bool"
        }
      ],
      "stateMutability": "payable",
      "type": "function"
    },
    {
      "inputs": [
        {
          "internalType": "uint256",
          "name": "sourceChainId",
          "type": "uint256"
        },
        {
          "internalType": "uint256",
          "name": "destChainId",
          "type": "uint256"
        },
        {
          "internalType": "address",
          "name": "to",
          "type": "address"
        },
        {
          "internalType": "uint256",
          "name": "nonce",
          "type": "uint256"
        }
      ],
      "name": "BridgeInitiateETHForStaking",
      "outputs": [
        {
          "internalType": "bool",
          "name": "",
          "type": "bool"
        }
      ],
      "stateMutability": "payable",
      "type": "function"
    },
    {
      "inputs": [
        {
          "internalType": "uint256",
          "name": "sourceChainId",
          "type": "uint256"
        },
        {
          "internalType": "uint256",
          "name": "destChainId",
          "type": "uint256"
        },
        {
          "internalType": "address",
          "name": "to",
          "type": "address"
        },
        {
          "internalType": "uint256",
          "name": "value",
          "type": "uint256"
        }
      ],
      "name": "BridgeInitiateWETH",
      "outputs": [
        {
          "internalType": "bool",
          "name": "",
          "type": "bool"
        }
      ],
      "stateMutability": "nonpayable",
      "type": "function"
    },
    {
      "inputs": [],
      "name": "DEFAULT_ADMIN_ROLE",
      "outputs": [
        {
          "internalType": "bytes32",
          "name": "",
          "type": "bytes32"
        }
      ],
      "stateMutability": "view",
      "type": "function"
    },
    {
      "inputs": [
        {
          "internalType": "address",
          "name": "",
          "type": "address"
        }
      ],
      "name": "FeePoolValue",
      "outputs": [
        {
          "internalType": "uint256",
          "name": "",
          "type": "uint256"
        }
      ],
      "stateMutability": "view",
      "type": "function"
    },
    {
      "inputs": [
        {
          "internalType": "address",
          "name": "",
          "type": "address"
        }
      ],
      "name": "FundingPoolBalance",
      "outputs": [
        {
          "internalType": "uint256",
          "name": "",
          "type": "uint256"
        }
      ],
      "stateMutability": "view",
      "type": "function"
    },
    {
      "inputs": [
        {
          "internalType": "uint256",
          "name": "chainId",
          "type": "uint256"
        }
      ],
      "name": "IsSupportChainId",
      "outputs": [
        {
          "internalType": "bool",
          "name": "",
          "type": "bool"
        }
      ],
      "stateMutability": "view",
      "type": "function"
    },
    {
      "inputs": [
        {
          "internalType": "address",
          "name": "",
          "type": "address"
        }
      ],
      "name": "IsSupportToken",
      "outputs": [
        {
          "internalType": "bool",
          "name": "",
          "type": "bool"
        }
      ],
      "stateMutability": "view",
      "type": "function"
    },
    {
      "inputs": [],
      "name": "L2WETH",
      "outputs": [
        {
          "internalType": "address",
          "name": "",
          "type": "address"
        }
      ],
      "stateMutability": "view",
      "type": "function"
    },
    {
      "inputs": [],
      "name": "MAX_GAS_Limit",
      "outputs": [
        {
          "internalType": "uint32",
          "name": "",
          "type": "uint32"
        }
      ],
      "stateMutability": "view",
      "type": "function"
    },
    {
      "inputs": [],
      "name": "MinTransferAmount",
      "outputs": [
        {
          "internalType": "uint256",
          "name": "",
          "type": "uint256"
        }
      ],
      "stateMutability": "view",
      "type": "function"
    },
    {
      "inputs": [],
      "name": "PerFee",
      "outputs": [
        {
          "internalType": "uint256",
          "name": "",
          "type": "uint256"
        }
      ],
      "stateMutability": "view",
      "type": "function"
    },
    {
      "inputs": [
        {
          "internalType": "address",
          "name": "_token",
          "type": "address"
        },
        {
          "internalType": "address",
          "name": "to",
          "type": "address"
        },
        {
          "internalType": "uint256",
          "name": "_amount",
          "type": "uint256"
        }
      ],
      "name": "QuickSendAssertToUser",
      "outputs": [],
      "stateMutability": "nonpayable",
      "type": "function"
    },
    {
      "inputs": [],
      "name": "ReLayer",
      "outputs": [
        {
          "internalType": "bytes32",
          "name": "",
          "type": "bytes32"
        }
      ],
      "stateMutability": "view",
      "type": "function"
    },
    {
      "inputs": [
        {
          "internalType": "uint256",
          "name": "",
          "type": "uint256"
        }
      ],
      "name": "SupportTokens",
      "outputs": [
        {
          "internalType": "address",
          "name": "",
          "type": "address"
        }
      ],
      "stateMutability": "view",
      "type": "function"
    },
    {
      "inputs": [
        {
          "internalType": "address",
          "name": "token",
          "type": "address"
        },
        {
          "internalType": "uint256",
          "name": "amount",
          "type": "uint256"
        }
      ],
      "name": "UpdateFundingPoolBalance",
      "outputs": [],
      "stateMutability": "nonpayable",
      "type": "function"
    },
    {
      "inputs": [
        {
          "internalType": "address",
          "name": "_token",
          "type": "address"
        },
        {
          "internalType": "address",
          "name": "_to",
          "type": "address"
        },
        {
          "internalType": "uint256",
          "name": "_amount",
          "type": "uint256"
        }
      ],
      "name": "WithdrawERC20ToL1",
      "outputs": [
        {
          "internalType": "bool",
          "name": "",
          "type": "bool"
        }
      ],
      "stateMutability": "payable",
      "type": "function"
    },
    {
      "inputs": [
        {
          "internalType": "address",
          "name": "_to",
          "type": "address"
        },
        {
          "internalType": "uint256",
          "name": "_amount",
          "type": "uint256"
        }
      ],
      "name": "WithdrawETHtoL1",
      "outputs": [
        {
          "internalType": "bool",
          "name": "",
          "type": "bool"
        }
      ],
      "stateMutability": "payable",
      "type": "function"
    },
    {
      "inputs": [
        {
          "internalType": "address",
          "name": "_to",
          "type": "address"
        },
        {
          "internalType": "uint256",
          "name": "_amount",
          "type": "uint256"
        }
      ],
      "name": "WithdrawWETHToL1",
      "outputs": [
        {
          "internalType": "bool",
          "name": "",
          "type": "bool"
        }
      ],
      "stateMutability": "payable",
      "type": "function"
    },
    {
      "inputs": [
        {
          "internalType": "bytes32",
          "name": "role",
          "type": "bytes32"
        }
      ],
      "name": "getRoleAdmin",
      "outputs": [
        {
          "internalType": "bytes32",
          "name": "",
          "type": "bytes32"
        }
      ],
      "stateMutability": "view",
      "type": "function"
    },
    {
      "inputs": [
        {
          "internalType": "bytes32",
          "name": "role",
          "type": "bytes32"
        },
        {
          "internalType": "address",
          "name": "account",
          "type": "address"
        }
      ],
      "name": "grantRole",
      "outputs": [],
      "stateMutability": "nonpayable",
      "type": "function"
    },
    {
      "inputs": [
        {
          "internalType": "bytes32",
          "name": "role",
          "type": "bytes32"
        },
        {
          "internalType": "address",
          "name": "account",
          "type": "address"
        }
      ],
      "name": "hasRole",
      "outputs": [
        {
          "internalType": "bool",
          "name": "",
          "type": "bool"
        }
      ],
      "stateMutability": "view",
      "type": "function"
    },
    {
      "inputs": [
        {
          "internalType": "address",
          "name": "_MultisigWallet",
          "type": "address"
        },
        {
          "internalType": "address",
          "name": "_messageManager",
          "type": "address"
        }
      ],
      "name": "initialize",
      "outputs": [],
      "stateMutability": "nonpayable",
      "type": "function"
    },
    {
      "inputs": [],
      "name": "messageManager",
      "outputs": [
        {
          "internalType": "contract IMessageManager",
          "name": "",
          "type": "address"
        }
      ],
      "stateMutability": "view",
      "type": "function"
    },
    {
      "inputs": [],
      "name": "pause",
      "outputs": [],
      "stateMutability": "nonpayable",
      "type": "function"
    },
    {
      "inputs": [],
      "name": "paused",
      "outputs": [
        {
          "internalType": "bool",
          "name": "",
          "type": "bool"
        }
      ],
      "stateMutability": "view",
      "type": "function"
    },
    {
      "inputs": [
        {
          "internalType": "bytes32",
          "name": "role",
          "type": "bytes32"
        },
        {
          "internalType": "address",
          "name": "callerConfirmation",
          "type": "address"
        }
      ],
      "name": "renounceRole",
      "outputs": [],
      "stateMutability": "nonpayable",
      "type": "function"
    },
    {
      "inputs": [
        {
          "internalType": "bytes32",
          "name": "role",
          "type": "bytes32"
        },
        {
          "internalType": "address",
          "name": "account",
          "type": "address"
        }
      ],
      "name": "revokeRole",
      "outputs": [],
      "stateMutability": "nonpayable",
      "type": "function"
    },
    {
      "inputs": [
        {
          "internalType": "uint256",
          "name": "_MinTransferAmount",
          "type": "uint256"
        }
      ],
      "name": "setMinTransferAmount",
      "outputs": [],
      "stateMutability": "nonpayable",
      "type": "function"
    },
    {
      "inputs": [
        {
          "internalType": "uint256",
          "name": "_PerFee",
          "type": "uint256"
        }
      ],
      "name": "setPerFee",
      "outputs": [],
      "stateMutability": "nonpayable",
      "type": "function"
    },
    {
      "inputs": [
        {
          "internalType": "address",
          "name": "ERC20Address",
          "type": "address"
        },
        {
          "internalType": "bool",
          "name": "isValid",
          "type": "bool"
        }
      ],
      "name": "setSupportERC20Token",
      "outputs": [],
      "stateMutability": "nonpayable",
      "type": "function"
    },
    {
      "inputs": [
        {
          "internalType": "uint256",
          "name": "chainId",
          "type": "uint256"
        },
        {
          "internalType": "bool",
          "name": "isValid",
          "type": "bool"
        }
      ],
      "name": "setValidChainId",
      "outputs": [],
      "stateMutability": "nonpayable",
      "type": "function"
    },
    {
      "inputs": [
        {
          "internalType": "bytes4",
          "name": "interfaceId",
          "type": "bytes4"
        }
      ],
      "name": "supportsInterface",
      "outputs": [
        {
          "internalType": "bool",
          "name": "",
          "type": "bool"
        }
      ],
      "stateMutability": "view",
      "type": "function"
    },
    {
      "inputs": [],
      "name": "unpause",
      "outputs": [],
      "stateMutability": "nonpayable",
      "type": "function"
    }
  ],
  "bytecode": {
    "object": "0x60808060405234620000bd577ff0c57e16840df040f15088dc2f81fe391c3923bec73e23a9662efc9c229c6a009081549060ff8260401c16620000ae57506001600160401b036002600160401b03198282160162000068575b6040516137d09081620000c38239f35b6001600160401b031990911681179091556040519081527fc7f505b2f371ae2175ee4913f4499e1f2633a7b5936321eed1cdaeb6115181d290602090a138808062000058565b63f92ee8a960e01b8152600490fd5b600080fdfe608060408181526004918236101561001657600080fd5b600092833560e01c91826301ffc9a714612e7c575081630227047a1461266157816309dc480c146126425781630cd727df1461260357816310875a13146125db578163248a9ca3146125a35781632f2ff15d14612579578163325e5d431461241757816336568abe146123d157816338731c471461225657816339891dd714611bac5781633b0230f0146118f25781633b90b1f9146118305781633f4ba83a146117b8578163485cc9551461161357816354dc027e146115db5781635765a4eb146114105781635c975abb146113df578163626417b51461139e578163650c22761461137c57816372fe6a7e1461134f5781638456cb59146112d557816391d148541461128257816392d84738146110dc5781639b44238014610f20578163a217fddf14610f05578163a525ae2b14610ee0578163ab0f9e1914610e35578163b1887e9b14610e07578163b92e639614610de2578163ba97e76e14610cd1578163cd01c665146109e4578163d28597f414610320578163d547741f146102d3578163d73f14e51461028e578163dac295681461024d57508063dbb0481f14610216578063dd0c3460146101f85763fa861848146101d257600080fd5b346101f457816003193601126101f4576020906101ed61308b565b9051908152f35b5080fd5b50346101f457816003193601126101f4576020906002549051908152f35b50346101f45760203660031901126101f45760209181906001600160a01b0361023d612ecf565b1681526005845220549051908152f35b90503461028a57602036600319011261028a5760209260ff918391906001600160a01b03610279612ecf565b168252855220541690519015158152f35b8280fd5b90503461028a578160031936011261028a576102d0916102ac61300d565b916102b56130de565b358452600360205283209060ff801983541691151516179055565b80f35b9190503461028a578060031936011261028a5761031c913561031760016102f8612ee5565b9383875260008051602061371b83398151915260205286200154613136565b613296565b5080f35b90508160031936011261028a57610335612ecf565b9260249384359261034c61034761308b565b613136565b6001600160a01b0361035c6135f3565b168551966370a0823160e01b8852308389015260209788818381865afa9081156105065786916109b2575b50861161099e578488466208275003610510575050865163095ea7b360e01b815286737003e7b7186f0e6601203b99f7b8decbfa391cf9928386840152820152888160448189875af18015610506576104d9575b5063ffffffff6008541692813b156104d557875163a93a4af960e01b81526001600160a01b0393841691810191825292851660208201526040810187905260608101849052919285928492839185919083906080010393f180156104cb579184939186936104af575b506104a69360008051602061377b833981519152915b84514681524260208201526001600160a01b039190911660408201526060810191909152608090a173c02aaa39b223fe8d0a0e5c4f27ead9083c756cc28152600586522091825461301c565b90555160018152f35b8294506104bd91935061303f565b6101f4578291849138610444565b85513d85823e3d90fd5b8580fd5b6104f890893d8b116104ff575b6104f08183613069565b8101906133e0565b50386103db565b503d6104e6565b88513d88823e3d90fd5b9091939261044d461460001461063357604489518094819363095ea7b360e01b83528b732a3dd3eb832af982ec71669e178424b10dca2ede998a8a8601528401525af180156106295761060c575b50813b1561060857855163cd58657960e01b815260009181018281526001600160a01b038516602082015260408101879052606081018390526080810183905260c060a0820181905281019290925291849183919082908890829060e0015b03925af180156104cb579184939186936105ec575b506104a69360008051602061377b8339815191529161045a565b8294506105fa91935061303f565b6101f45782918491386105d2565b8380fd5b61062290883d8a116104ff576104f08183613069565b503861055e565b87513d87823e3d90fd5b9291505046600a036106c657865163095ea7b360e01b81526010602160991b01828201819052938101879052888160448189875af18015610506576106a9575b5063ffffffff60085416833b156104d5579285928786936105bd82978c5198899788968795631474f2a960e31b875286016133a6565b6106bf90893d8b116104ff576104f08183613069565b5038610673565b8488466121050361073c575050865163095ea7b360e01b81526010602160991b01828201819052938101879052888160448189875af18015610506576106a9575063ffffffff60085416833b156104d5579285928786936105bd82978c5198899788968795631474f2a960e31b875286016133a6565b90919261a4b1461460001461085557604489518094819363095ea7b360e01b83528b736c411ad3e74de3e7bd422b94a27770f5b86c623b998a8a8601528401525af1801561062957928486809489946107e997610838575b508a5196879586948593637b3a3c8b60e01b85528401909160a09273c02aaa39b223fe8d0a0e5c4f27ead9083c756cc28352600180851b03166020830152604082015260806060820152600060808201520190565b03925af180156104cb578486936104a6959360008051602061377b83398151915293610816575b5061045a565b610831903d8087833e6108298183613069565b810190613414565b5038610810565b61084e908d803d106104ff576104f08183613069565b5038610794565b4661a4ba036108fb57604489518094819363095ea7b360e01b83528b737626841cb6113412f9c88d3adc720c9fac88d9ed998a8a8601528401525af1801561062957928486809489946107e99761083857508a5196879586948593637b3a3c8b60e01b85528401909160a09273c02aaa39b223fe8d0a0e5c4f27ead9083c756cc28352600180851b03166020830152604082015260806060820152600060808201520190565b935050504661014403610990577311f943b2c77b743ab90f4a0ae7d5a4e7fca3e10290813b1561098c578651636ce5768960e11b81526001600160a01b038086169282019283529093166020820152604081018690528491839182908890829060600103925af180156104cb579184939186936105ec57506104a69360008051602061377b8339815191529161045a565b8480fd5b8551639474dee160e01b8152fd5b92508551916311745b6160e21b8352820152fd5b90508881813d83116109dd575b6109c98183613069565b810103126109d8575138610387565b600080fd5b503d6109bf565b90503461028a576109f436612f92565b9193468403610cc3578487526020966003885260ff878220541615610cac576001600160a01b039384610a256135f3565b16908851906370a0823160e01b9081835230868401528b83602481875afa928315610c6f57908c918694610c79575b508b516323b872dd60e01b81523388820190815230602082015260408101929092529190829081906060015b038188885af18015610c6f57908c9291610c52575b5060248b5180958193825230898301525afa8015610c48578390610c19575b610abe925061301c565b600154808210610bfe575073c02aaa39b223fe8d0a0e5c4f27ead9083c756cc29283835260058a52888320610af4838254613492565b9055610b11620f4240610b096002548561349f565b04809361301c565b93835260068a52888320610b26838254613492565b90558583541691823b1561060857895163305f478560e21b8152918201888152602081018a90526001600160a01b03871660408201526060810186905260808101919091529091839183919082908490829060a00103925af18015610bf457610bdd575b505090610bd37fcb9e641636f35317739cff2833f1831bf3a25b930b5615ada09367c080d64a899392875193849316963396846040919493926060820195825260208201520152565b0390a35160018152f35b610be7829161303f565b610bf15780610b8a565b80fd5b88513d84823e3d90fd5b88516358f8331360e11b815293840152602483015250604490fd5b508982813d8311610c41575b610c2f8183613069565b810103126109d857610abe9151610ab4565b503d610c25565b89513d85823e3d90fd5b610c6890833d85116104ff576104f08183613069565b5038610a95565b8b513d87823e3d90fd5b8281939295503d8311610ca5575b610c918183613069565b810103126109d85751918b90610a80610a54565b503d610c87565b86516363b5c9db60e01b8152808301879052602490fd5b8551631a26aa4d60e21b8152fd5b90503461028a5760c036600319011261028a578035602435916020610cf4612efb565b610cfc612f11565b86516303b0230f60e41b8152938401858152602081018790526001600160a01b0392831660408201529116606082015260843560808201528290819060a001038188305af18015610dd857610dad7f48917de34e53153e06b5ed7e1c30d2458abfe4ba4ddb223cfce220c13131c5f693602097969593610d9f93610dbb575b508551888101918252602082019490945260a4356040820152929182906060850190565b03601f198101835282613069565b51902091519280a260018152f35b610dd190893d81116104ff576104f08183613069565b5038610d7b565b84513d87823e3d90fd5b8390346101f45760203660031901126101f457610e0061034761308b565b3560015580f35b5050346101f457816003193601126101f457602090610e246135f3565b90516001600160a01b039091168152f35b9190503461028a578060031936011261028a57610e50612ecf565b91610e5961300d565b610e616130de565b6001600160a01b039384168086526020839052928520805460ff191660ff83151516179055610e8e578380f35b6007549068010000000000000000821015610ecd5750806001610eb49201600755612fc0565b909283549160031b92831b921b19161790553880808380f35b634e487b7160e01b855260419052602484fd5b5050346101f457816003193601126101f45760209063ffffffff600854169051908152f35b5050346101f457816003193601126101f45751908152602090f35b82846060366003190112610bf157823560243591610f3c612efb565b904683036110cc57838152600360205260ff8582205416156110b557600154803410611099575073eeeeeeeeeeeeeeeeeeeeeeeeeeeeeeeeeeeeeeee908181526005602052858120610f8f348254613492565b9055620f4240610fa16002543461349f565b04610fac813461301c565b9282526006602052868220610fc2828254613492565b905581546001600160a01b039890891691823b1561060857885163305f478560e21b815246928101928352602083018990526001600160a01b038716604084015260608301869052608083019190915291839183919082908490829060a00103925af1801561108f5761107b575b5050947f0b671089787b6d29f730bc690214e6a7e28064fef5a3cdbb9b930a22fac01dc591610bd3602097875193849316963396846040919493926060820195825260208201520152565b611085829161303f565b610bf15780611030565b87513d84823e3d90fd5b866044918751916358f8331360e11b8352820152346024820152fd5b8451632ef6974160e11b8152808701859052602490fd5b8451631a26aa4d60e21b81528690fd5b90503461028a5760e036600319011261028a578035602435916110fd612efb565b611105612f11565b956084359061111561034761308b565b46860361127257848152600360205260ff87822054161561125b576001600160a01b0397881680825260208590528782205490949060ff16156112445761115d8385876135b0565b848252600560205287822061117384825461301c565b905588825416803b1561028a578851631eb65ffb60e01b8152918201878152602081018990526001600160a01b038616604082015260a43560608201526080810185905260c43560a08201528391839182908490829060c00103925af18015610bf457611230575b5050957f0f50ec03884adc78b9840a90cf8805a70ffe160f18d6b83198103b6fade443fe91611226602098885193849316973097846040919493926060820195825260208201520152565b0390a45160018152f35b61123a829161303f565b610bf157806111db565b87516305fd61ad60e01b8152908101859052602490fd5b8651632ef6974160e11b8152808501869052602490fd5b8651631a26aa4d60e21b81528490fd5b90503461028a578160031936011261028a57816020936112a0612ee5565b9235815260008051602061371b8339815191528552209060018060a01b0316600052825260ff81600020541690519015158152f35b90503461028a578260031936011261028a576112ef6130de565b60008051602061375b8339815191529081549060ff8216611341575060ff19166001179055513381527f62e78cea01bee320cd4e420270b5ea74000d11b0c9f74754ebdbfc544b05a25890602090a180f35b835163d93c066560e01b8152fd5b90503461028a57602036600319011261028a578160209360ff923581526003855220541690519015158152f35b8390346101f45760203660031901126101f4576113976130de565b3560025580f35b90503461028a57602036600319011261028a573591600754831015610bf157506113c9602092612fc0565b905491519160018060a01b039160031b1c168152f35b5050346101f457816003193601126101f45760209060ff60008051602061375b833981519152541690519015158152f35b828434610bf15761142036612f5c565b93959061142e61034761308b565b4687036115cb5785825260209860038a5260ff8984205416156115b4576001600160a01b03956114958b868c89888c6114656135f3565b16925180968195829463a9059cbb60e01b84528b840160209093929193604081019460018060a01b031681520152565b03925af18015610c6f57611597575b5073c02aaa39b223fe8d0a0e5c4f27ead9083c756cc2845260058b528984206114ce86825461301c565b90558684541692833b1561098c578a51631eb65ffb60e01b8152928301898152602081018b90526001600160a01b038816604082015260608101919091526080810186905260a08101919091529091839183919082908490829060c00103925af18015610bf457611583575b505090610bd37f7dc80be13e04000533f3763be4b9359a36a0aeb0daabbf09fd96c3a275c1cc149392875193849316963096846040919493926060820195825260208201520152565b61158d829161303f565b610bf1578061153a565b6115ad908c8d3d106104ff576104f08183613069565b508b6114a4565b8851632ef6974160e11b8152908101879052602490fd5b8751631a26aa4d60e21b81528990fd5b5050346101f45760203660031901126101f45760209181906001600160a01b03611603612ecf565b1681526006845220549051908152f35b90503461028a578160031936011261028a5761162d612ecf565b90611636612ee5565b7ff0c57e16840df040f15088dc2f81fe391c3923bec73e23a9662efc9c229c6a0092835460ff81871c16159367ffffffffffffffff8216801590816117b0575b60011490816117a6575b15908161179d575b5061178f575067ffffffffffffffff19811660011785556116f9919084611770575b506116b3613319565b6116bb613319565b6116c3613319565b60008051602061375b833981519152805460ff191690556116e2613319565b67016345785d8a0000600155612710600255613169565b5084546001600160a01b0319166001600160a01b03919091161784556008805463ffffffff1916620493e017905561172f578280f35b805468ff00000000000000001916905551600181527fc7f505b2f371ae2175ee4913f4499e1f2633a7b5936321eed1cdaeb6115181d290602090a138808280f35b68ffffffffffffffffff191668010000000000000001178555386116aa565b865163f92ee8a960e01b8152fd5b90501538611688565b303b159150611680565b869150611676565b90503461028a578260031936011261028a576117d26130de565b60008051602061375b8339815191529081549060ff821615611822575060ff19169055513381527f5db9ee0a495bf2e6ff9c91a7834c1ba4fdd244a5e8aa4e537bd38aeae4b073aa90602090a180f35b8351638dfc202b60e01b8152fd5b905061183b36612f92565b8551630136884760e71b8152948501849052602485018390526001600160a01b039091166044850152919260208160648189305af180156118e8576020969594927f48917de34e53153e06b5ed7e1c30d2458abfe4ba4ddb223cfce220c13131c5f69492610dad926118cb575b508551888101948552602085019190915260408401929092528160608401610d9f565b6118e190893d81116104ff576104f08183613069565b50386118a8565b85513d88823e3d90fd5b90503461028a5760a036600319011261028a5780356024803592611914612efb565b61191c612f11565b9160843597468603611b9d5786815260209860038a5260ff898320541615611b87576001600160a01b03948516808352838b528983205490969060ff1615611b735789516370a0823160e01b80825230868301528c8284818c5afa918215611b6957908d918693611b38575b508c516323b872dd60e01b8382015233858201908152306020820152604081018790526119c491906119be908290606001610d9f565b8b6134b2565b8c5193849182523088830152818b5afa8015611b2e578490611aff575b6119eb925061301c565b9086835260058b52611a018a8420918254613492565b9055611a1e620f4240611a166002548461349f565b04809261301c565b9286835260068b52898320611a34838254613492565b90558583541691823b15610608578a5163305f478560e21b8152918201898152602081018b90526001600160a01b03871660408201526060810186905260808101919091529091839183919082908490829060a00103925af18015611af557611ae1575b5050906112267fece797608c81cc46a09f9859cf8ef650ec541b5da6989f30acb30dba9b8a40a49392885193849316973397846040919493926060820195825260208201520152565b611aeb829161303f565b610bf15780611a98565b89513d84823e3d90fd5b508b82813d8311611b27575b611b158183613069565b810103126109d8576119eb91516119e1565b503d611b0b565b8b513d86823e3d90fd5b8281939294503d8311611b62575b611b508183613069565b810103126109d8578c90519138611988565b503d611b46565b8c513d87823e3d90fd5b89516305fd61ad60e01b8152808501889052fd5b8851632ef6974160e11b81528084018990528690fd5b508651631a26aa4d60e21b8152fd5b90508160031936011261028a57611bc1612ecf565b602491823592611bd261034761308b565b4784116122475785908484466208275003611cd057505063ffffffff6008541692736ea73e05adc79974b931123675ea8f78ffdacdf090813b15610608578660649281968a5197889687956317e614fd60e11b875260018060a01b038c1690870152850152806044850152f18015610dd857611cbc575b50906000805160206136fb83398151915291836020955b73eeeeeeeeeeeeeeeeeeeeeeeeeeeeeeeeeeeeeeee81526005875220611c8783825461301c565b905583514681524260208201526001600160a01b039091166040820152606081019190915280608081015b0390a15160018152f35b611cc6859161303f565b6106085738611c49565b9092914661044d03611d8f5750509050732a3dd3eb832af982ec71669e178424b10dca2ede91823b156101f457855163cd58657960e01b815260009181018281526001600160a01b038616602082015260408101879052606081018390526080810183905260c060a0820181905281019290925292839182908790829060e0015b03925af18015610dd857611d7b575b50906000805160206136fb8339815191529183602095611c60565b611d85859161303f565b6106085738611d60565b46600a03611dd657505060085463ffffffff16929091506010602160991b01803b1561028a5784868093611d518a5197889687958694631474f2a960e31b8652850161335a565b61a4b194919293944614600014611e9a57508651637b3a3c8b60e01b815273eeeeeeeeeeeeeeeeeeeeeeeeeeeeeeeeeeeeeeee9181019182526001600160a01b0390921660208201526040810193909352608060608401819052600090840152918290819060a001038186735288c571fd7ad117bea99bf60fe0846c4e84f9335af18015610dd8576020956000805160206136fb8339815191529493928692611e80575b50611c60565b611e93903d8084833e6108298183613069565b5038611e7a565b4661a4ba03611f3b57508651637b3a3c8b60e01b815273eeeeeeeeeeeeeeeeeeeeeeeeeeeeeeeeeeeeeeee9181019182526001600160a01b0390921660208201526040810193909352608060608401819052600090840152918290819060a0010381867321903d3f8176b1a0c17e953cd896610be9ffdfa85af18015610dd8576020956000805160206136fb8339815191529493928692611e805750611c60565b915092506101444614600014611fbc577311f943b2c77b743ab90f4a0ae7d5a4e7fca3e102803b1561028a576000938660649289519687958694636ce5768960e11b865260018060a01b038b16908601528401528160448401525af18015610dd857611d7b5750906000805160206136fb8339815191529183602095611c60565b9146611388036120b257855163095ea7b360e01b81526010602160991b0182820181905284820187905273deaddeaddeaddeaddeaddeaddeaddeaddead111192909160208160448188885af180156120a85761208a575b5063ffffffff60085416823b1561098c5760c49285918a51978896879563297e27a960e11b875286015260018060a01b038a1690850152896044850152606484015260a06084840152600060a48401525af18015610dd857611d7b5750906000805160206136fb8339815191529183602095611c60565b6120a19060203d81116104ff576104f08183613069565b5038612013565b89513d87823e3d90fd5b91904660a9036120f95760085463ffffffff16929091506010602160991b01803b1561028a5784868093611d518a5197889687958694631474f2a960e31b8652850161335a565b90914661a70e036121f15785519063095ea7b360e01b8252732c4813276869d93afdab4dd2b01cd670342da1949081818401528685840152734b21b980d0dc7d3c0c6175b0a412694f3a1c7c6b9260208160448188885af180156120a8576121d3575b50813b15610608578360e4926000948a51978896879563cd58657960e01b875286015260018060a01b038a169085015289604485015260648401526000608484015260c060a4840152600060c48401525af18015610dd857611d7b5750906000805160206136fb8339815191529183602095611c60565b6121ea9060203d81116104ff576104f08183613069565b503861215c565b91505046612105036122395760085463ffffffff169085906010602160991b01803b1561028a5784868093611d518a5197889687958694631474f2a960e31b8652850161335a565b8351639474dee160e01b8152fd5b508351632c1d501360e11b8152fd5b91905061226236612f5c565b9792919661227161034761308b565b4685036123c357858452600360205260ff8785205416156123ac57969795966001600160a01b038381169790858080808e8d8282156123a3575bf1156120a85773eeeeeeeeeeeeeeeeeeeeeeeeeeeeeeeeeeeeeeee865260056020528986206122db8c825461301c565b905585541692833b156104d5578951631eb65ffb60e01b8152928301888152602081018890526001600160a01b0390951660408601526060850152608084018a905260a0840152918391839182908490829060c00103925af1801561239957612385575b50508351918252602082810191909152604082019490945230907f61d99af9dd09bd984d42cc07939d4cba4388e85aa29b3cc88df954e4ca719f32908060608101610bd3565b61238f829161303f565b610bf1578061233f565b86513d84823e3d90fd5b506108fc6122ab565b8651632ef6974160e11b8152908101869052602490fd5b8651631a26aa4d60e21b8152fd5b8383346101f457806003193601126101f4576123eb612ee5565b90336001600160a01b03831603612408575061031c919235613296565b5163334bd91960e11b81528390fd5b90503461028a5761242736612f27565b9261243661034793929361308b565b6001600160a01b0391821680875260208281528688205460ff1615612562578188526005815286882061246a87825461301c565b905573eeeeeeeeeeeeeeeeeeeeeeeeeeeeeeeeeeeeeeee82036124cf5750508347106124c1575084809381938293839183156124b7575b1690f1156124ad575080f35b51903d90823e3d90fd5b6108fc92506124a1565b8451632c1d501360e11b8152fd5b909250859695516370a0823160e01b815230838201528181602481875afa91821561255857908692918892612527575b50501061251257506102d09394506135b0565b6024918651916311745b6160e21b8352820152fd5b8193508092503d8311612551575b61253f8183613069565b810103126109d85784905138806124ff565b503d612535565b88513d89823e3d90fd5b86516305fd61ad60e01b8152808401839052602490fd5b9190503461028a578060031936011261028a5761031c913561259e60016102f8612ee5565b613209565b90503461028a57602036600319011261028a578160209360019235815260008051602061371b83398151915285522001549051908152f35b5050346101f457816003193601126101f457905490516001600160a01b039091168152602090f35b5050346101f457806003193601126101f45761261d612ecf565b61262861034761308b565b6001600160a01b0316825260056020528120602435905580f35b5050346101f457816003193601126101f4576020906001549051908152f35b91905061266d36612f27565b61267b61034793929361308b565b6001600160a01b03821680875260208681528588205490969060ff1615612e67574662082750036127e8578786519163095ea7b360e01b835273d8a791fe2be73eb6e6cf1eb0cb3f36adc9b3f8f9928382820152856024820152898160448186895af18015610c48576127cb575b5063ffffffff60085416833b1561028a57885163a93a4af960e01b81526001600160a01b038089169382019384528916602084015260408301879052606083018290529384928391859183906080010393f180156127c1576127a9575b50908460008051602061373b833981519152959697611cb2935b8152600589522061277282825461301c565b905585514681524260208201526001600160a01b0393841660408201529390921660608401526080830191909152819060a0820190565b6127b3889161303f565b6127bd5738612746565b8680fd5b86513d8a823e3d90fd5b6127e1908a3d8c116104ff576104f08183613069565b50386126e9565b4661044d036128ef578786519163095ea7b360e01b8352732a3dd3eb832af982ec71669e178424b10dca2ede928382820152856024820152898160448186895af18015610c48576128d2575b50823b156101f457875163cd58657960e01b815260009181018281526001600160a01b03808a16602083015260408201889052881660608201526080810183905260c060a0820181905281019290925292839182908490829060e0015b03925af180156127c1576128be575b50908460008051602061373b833981519152959697611cb293612760565b6128c8889161303f565b6127bd57386128a0565b6128e8908a3d8c116104ff576104f08183613069565b5038612834565b46600a0361298057855163095ea7b360e01b81526010602160991b01828201819052602482018590528991898160448186895af18015610c4857612963575b5063ffffffff6008541690803b1561028a57868680956128918b958d5198899788968795631474f2a960e31b875286016133a6565b612979908a3d8c116104ff576104f08183613069565b503861292e565b46612105036129f457855163095ea7b360e01b81526010602160991b01828201819052602482018590528991898160448186895af18015610c4857612963575063ffffffff6008541690803b1561028a57868680956128918b958d5198899788968795631474f2a960e31b875286016133a6565b61a4b1979293949596974614600014612b0c5786519063095ea7b360e01b82527309e9222e96e7b4ae2a407b98d48e330053351eee918282820152856024820152898160448188885af180156120a85792878680948d8c958b98612aee575b5050612a9b8d5197889687958694637b3a3c8b60e01b86528501919060a09391600180861b038092168452166020830152604082015260806060820152600060808201520190565b03925af18015612ae4579260008051602061373b833981519152969594928892611cb295612aca575b50612760565b612add903d8085833e6108298183613069565b5038612ac4565b87513d85823e3d90fd5b81612b0492903d106104ff576104f08183613069565b508d38612a53565b4661a4ba03612ba85786519063095ea7b360e01b825273b2535b988dce19f9d71dfb22db6da744acac21bf918282820152856024820152898160448188885af180156120a85792878680948d8c958b98612aee575050612a9b8d5197889687958694637b3a3c8b60e01b86528501919060a09391600180861b038092168452166020830152604082015260806060820152600060808201520190565b919695949392914661014403612c3957877311f943b2c77b743ab90f4a0ae7d5a4e7fca3e10291823b156101f4578751636ce5768960e11b81526001600160a01b03808916928201928352871660208301526040820186905292839182908790829060600103925af180156127c1576128be5750908460008051602061373b833981519152959697611cb293612760565b4661138803612ccb57855163095ea7b360e01b81526010602160991b01828201819052602482018590528991898160448186895af18015610c4857612cae575b5063ffffffff6008541690803b1561028a57868387956128918b958d519889978896879563297e27a960e11b875286016133a6565b612cc4908a3d8c116104ff576104f08183613069565b5038612c79565b4660a903612d3e57855163095ea7b360e01b81526010602160991b01828201819052602482018590528991898160448186895af18015610c4857612963575063ffffffff6008541690803b1561028a57868680956128918b958d5198899788968795631474f2a960e31b875286016133a6565b61a70e97919293949596974614600014612e595786519063095ea7b360e01b8252732c4813276869d93afdab4dd2b01cd670342da194918282820152856024820152898160448187895af18015612e4f57612e32575b50813b1561028a57875163cd58657960e01b815260009181018281526001600160a01b03808a16602083015260408201889052881660608201526080810183905260c060a0820181905281019290925291839183919082908490829060e00103925af1801561108f579260008051602061373b833981519152969594928892611cb295612e23575b5090612760565b612e2c9061303f565b38612e1c565b612e48908a3d8c116104ff576104f08183613069565b5038612d94565b89513d86823e3d90fd5b8651639474dee160e01b8152fd5b6024918651916305fd61ad60e01b8352820152fd5b84913461028a57602036600319011261028a573563ffffffff60e01b811680910361028a5760209250637965db0b60e01b8114908115612ebe575b5015158152f35b6301ffc9a760e01b14905083612eb7565b600435906001600160a01b03821682036109d857565b602435906001600160a01b03821682036109d857565b604435906001600160a01b03821682036109d857565b606435906001600160a01b03821682036109d857565b60609060031901126109d8576001600160a01b039060043582811681036109d8579160243590811681036109d8579060443590565b60c09060031901126109d85760043590602435906044356001600160a01b03811681036109d85790606435906084359060a43590565b60809060031901126109d85760043590602435906044356001600160a01b03811681036109d8579060643590565b600754811015612ff75760076000527fa66cc928b5edb82af9bd49922954155ab7b0942694bea4ce44661d9a8736c6880190600090565b634e487b7160e01b600052603260045260246000fd5b6024359081151582036109d857565b9190820391821161302957565b634e487b7160e01b600052601160045260246000fd5b67ffffffffffffffff811161305357604052565b634e487b7160e01b600052604160045260246000fd5b90601f8019910116810190811067ffffffffffffffff82111761305357604052565b604051602081017f33fe247d78fee2e7fd135c405eda4bd2911c0a73c0a81b36c3bcc967dd06e5ad8152602082526040820182811067ffffffffffffffff821117613053576040529051902060ff191690565b3360009081527fb7db2dd08fcb62d0c9e08c51941cae53c267786a0b75803fb7960902fc8ef97d602052604081205460ff16156131185750565b6044906040519063e2517d3f60e01b82523360048301526024820152fd5b8060005260008051602061371b83398151915260205260406000203360005260205260ff60406000205416156131185750565b6001600160a01b031660008181527fb7db2dd08fcb62d0c9e08c51941cae53c267786a0b75803fb7960902fc8ef97d602052604081205490919060008051602061371b8339815191529060ff16613204578280526020526040822081835260205260408220600160ff1982541617905533917f2f8788117e7eff1d82e926ec794901d17c78024a50270940304540a733656f0d8180a4600190565b505090565b9060009180835260008051602061371b83398151915280602052604084209260018060a01b03169283855260205260ff60408520541615600014613290578184526020526040832082845260205260408320600160ff198254161790557f2f8788117e7eff1d82e926ec794901d17c78024a50270940304540a733656f0d339380a4600190565b50505090565b9060009180835260008051602061371b83398151915280602052604084209260018060a01b03169283855260205260ff60408520541660001461329057818452602052604083208284526020526040832060ff1981541690557ff6391f5c32d9c69d2a47ea670b442974b53935d1edc7fd64eb21e047a839171b339380a4600190565b60ff7ff0c57e16840df040f15088dc2f81fe391c3923bec73e23a9662efc9c229c6a005460401c161561334857565b604051631afcd79f60e31b8152600490fd5b919260c09363ffffffff9273deaddeaddeaddeaddeaddeaddeaddeaddead0000855260018060a01b03166020850152604084015216606082015260a06080820152600060a08201520190565b9260c0949163ffffffff9360018060a01b038092168652166020850152604084015216606082015260a06080820152600060a08201520190565b908160209103126109d8575180151581036109d85790565b67ffffffffffffffff811161305357601f01601f191660200190565b919060209283818303126109d85780519067ffffffffffffffff82116109d857019281601f850112156109d857835161344c816133f8565b9261345a6040519485613069565b8184528282870101116109d85760005b81811061347f57508260009394955001015290565b858101830151848201840152820161346a565b9190820180921161302957565b8181029291811591840414171561302957565b6000806134fc9260018060a01b03169360208151910182865af13d15613545573d906134dd826133f8565b916134eb6040519384613069565b82523d6000602084013e5b8361354d565b805190811515918261352a575b50506135125750565b60249060405190635274afe760e01b82526004820152fd5b61353d92506020809183010191016133e0565b153880613509565b6060906134f6565b90613574575080511561356257805190602001fd5b604051630a12f52160e11b8152600490fd5b815115806135a7575b613585575090565b604051639996b31560e01b81526001600160a01b039091166004820152602490fd5b50803b1561357d565b60405163a9059cbb60e01b60208201526001600160a01b039290921660248301526044808301939093529181526135f1916135ec606483613069565b6134b2565b565b466208275003613608576004605360981b0190565b4661044d0361362957734f9a0e7fd2bf6067db6994cf12e4495df938e6e990565b46600a0361363c576006602160991b0190565b4661a4b10361365d577382af49447d8a07e3bd95bd0d56f35241523fbab190565b4661a4ba0361367e5773722e8bdd2ce80a4422e880164f2079488e11536590565b466101440361369f57735aea5775959fbc2557cc8789bc1bf90a239d9a9190565b46611388036136ba5760405163e31d668960e01b8152600490fd5b4660a9036136d4576040516322c20c6960e11b8152600490fd5b46612105036136e8576006602160991b0190565b604051639474dee160e01b8152600490fdfef1fa6dbbb3e74f1bef249f22545b238726c1cc79c5571a1416575674c7e63f3902dd7bc7dec4dceedda775e58dd541e08a116c6c53815c0bd028192f7b6268001bc1b1207e0c319b7baad0317c09f30575218af6f5a59f1f0f15de8d217672cccd5ed15c6e187e77e9aee88184c21f4f2182ab5827cb3b7e07fbedcd63f03300cb1a101498aadad4159168d719f955e559e768912e6f5f5c57b094eb047d000fa2646970667358221220ef4804491b845c280e16b00222337281e5fac259475bb7e50c3744be7d00910864736f6c63430008140033",
    "linkReferences": {}
  },
  "methodIdentifiers": {
    "BridgeFinalizeERC20(uint256,uint256,address,address,uint256,uint256,uint256)": "92d84738",
    "BridgeFinalizeETH(uint256,uint256,address,uint256,uint256,uint256)": "38731c47",
    "BridgeFinalizeWETH(uint256,uint256,address,uint256,uint256,uint256)": "5765a4eb",
    "BridgeInitiateERC20(uint256,uint256,address,address,uint256)": "3b0230f0",
    "BridgeInitiateERC20ForStaking(uint256,uint256,address,address,uint256,uint256)": "ba97e76e",
    "BridgeInitiateETH(uint256,uint256,address)": "9b442380",
    "BridgeInitiateETHForStaking(uint256,uint256,address,uint256)": "3b90b1f9",
    "BridgeInitiateWETH(uint256,uint256,address,uint256)": "cd01c665",
    "DEFAULT_ADMIN_ROLE()": "a217fddf",
    "FeePoolValue(address)": "54dc027e",
    "FundingPoolBalance(address)": "dbb0481f",
    "IsSupportChainId(uint256)": "72fe6a7e",
    "IsSupportToken(address)": "dac29568",
    "L2WETH()": "b1887e9b",
    "MAX_GAS_Limit()": "a525ae2b",
    "MinTransferAmount()": "09dc480c",
    "PerFee()": "dd0c3460",
    "QuickSendAssertToUser(address,address,uint256)": "325e5d43",
    "ReLayer()": "fa861848",
    "SupportTokens(uint256)": "626417b5",
    "UpdateFundingPoolBalance(address,uint256)": "0cd727df",
    "WithdrawERC20ToL1(address,address,uint256)": "0227047a",
    "WithdrawETHtoL1(address,uint256)": "39891dd7",
    "WithdrawWETHToL1(address,uint256)": "d28597f4",
    "getRoleAdmin(bytes32)": "248a9ca3",
    "grantRole(bytes32,address)": "2f2ff15d",
    "hasRole(bytes32,address)": "91d14854",
    "initialize(address,address)": "485cc955",
    "messageManager()": "10875a13",
    "pause()": "8456cb59",
    "paused()": "5c975abb",
    "renounceRole(bytes32,address)": "36568abe",
    "revokeRole(bytes32,address)": "d547741f",
    "setMinTransferAmount(uint256)": "b92e6396",
    "setPerFee(uint256)": "650c2276",
    "setSupportERC20Token(address,bool)": "ab0f9e19",
    "setValidChainId(uint256,bool)": "d73f14e5",
    "supportsInterface(bytes4)": "01ffc9a7",
    "unpause()": "3f4ba83a"
  },
  "id": 59
}