{
  "abi": [
    {
      "inputs": [],
      "stateMutability": "nonpayable",
      "type": "constructor"
    },
    {
      "inputs": [],
      "name": "AccessControlBadConfirmation",
      "type": "error"
    },
    {
      "inputs": [
        {
          "internalType": "address",
          "name": "account",
          "type": "address"
        },
        {
          "internalType": "bytes32",
          "name": "neededRole",
          "type": "bytes32"
        }
      ],
      "name": "AccessControlUnauthorizedAccount",
      "type": "error"
    },
    {
      "inputs": [
        {
          "internalType": "address",
          "name": "target",
          "type": "address"
        }
      ],
      "name": "AddressEmptyCode",
      "type": "error"
    },
    {
      "inputs": [
        {
          "internalType": "address",
          "name": "account",
          "type": "address"
        }
      ],
      "name": "AddressInsufficientBalance",
      "type": "error"
    },
    {
      "inputs": [],
      "name": "DoesNotReceiveETH",
      "type": "error"
    },
    {
      "inputs": [],
      "name": "FailedInnerCall",
      "type": "error"
    },
    {
      "inputs": [],
      "name": "InvalidConfiguration",
      "type": "error"
    },
    {
      "inputs": [
        {
          "internalType": "bytes32",
          "name": "",
          "type": "bytes32"
        }
      ],
      "name": "InvalidDepositRoot",
      "type": "error"
    },
    {
      "inputs": [],
      "name": "InvalidInitialization",
      "type": "error"
    },
    {
      "inputs": [
        {
          "internalType": "bytes12",
          "name": "",
          "type": "bytes12"
        }
      ],
      "name": "InvalidWithdrawalCredentialsNotETH1",
      "type": "error"
    },
    {
      "inputs": [
        {
          "internalType": "address",
          "name": "",
          "type": "address"
        }
      ],
      "name": "InvalidWithdrawalCredentialsWrongAddress",
      "type": "error"
    },
    {
      "inputs": [
        {
          "internalType": "uint256",
          "name": "",
          "type": "uint256"
        }
      ],
      "name": "InvalidWithdrawalCredentialsWrongLength",
      "type": "error"
    },
    {
      "inputs": [],
      "name": "MathOverflowedMulDiv",
      "type": "error"
    },
    {
      "inputs": [],
      "name": "MaximumDETHSupplyExceeded",
      "type": "error"
    },
    {
      "inputs": [],
      "name": "MaximumValidatorDepositExceeded",
      "type": "error"
    },
    {
      "inputs": [],
      "name": "MinimumDepositAmountNotSatisfied",
      "type": "error"
    },
    {
      "inputs": [],
      "name": "MinimumStakeBoundNotSatisfied",
      "type": "error"
    },
    {
      "inputs": [],
      "name": "MinimumUnstakeBoundNotSatisfied",
      "type": "error"
    },
    {
      "inputs": [],
      "name": "MinimumValidatorDepositNotSatisfied",
      "type": "error"
    },
    {
      "inputs": [],
      "name": "NotDappLinkBridge",
      "type": "error"
    },
    {
      "inputs": [],
      "name": "NotEnoughDepositETH",
      "type": "error"
    },
    {
      "inputs": [],
      "name": "NotEnoughUnallocatedETH",
      "type": "error"
    },
    {
      "inputs": [],
      "name": "NotInitializing",
      "type": "error"
    },
    {
      "inputs": [],
      "name": "NotReturnsAggregator",
      "type": "error"
    },
    {
      "inputs": [],
      "name": "NotUnstakeRequestsManager",
      "type": "error"
    },
    {
      "inputs": [],
      "name": "Paused",
      "type": "error"
    },
    {
      "inputs": [],
      "name": "PreviouslyUsedValidator",
      "type": "error"
    },
    {
      "inputs": [],
      "name": "ReentrancyGuardReentrantCall",
      "type": "error"
    },
    {
      "inputs": [
        {
          "internalType": "address",
          "name": "token",
          "type": "address"
        }
      ],
      "name": "SafeERC20FailedOperation",
      "type": "error"
    },
    {
      "inputs": [
        {
          "internalType": "uint256",
          "name": "ethAmount",
          "type": "uint256"
        },
        {
          "internalType": "uint256",
          "name": "expectedMinimum",
          "type": "uint256"
        }
      ],
      "name": "UnstakeBelowMinimudETHAmount",
      "type": "error"
    },
    {
      "inputs": [],
      "name": "ZeroAddress",
      "type": "error"
    },
    {
      "anonymous": false,
      "inputs": [
        {
          "indexed": false,
          "internalType": "uint256",
          "name": "amount",
          "type": "uint256"
        }
      ],
      "name": "AllocatedETHToDeposits",
      "type": "event"
    },
    {
      "anonymous": false,
      "inputs": [
        {
          "indexed": false,
          "internalType": "uint256",
          "name": "amount",
          "type": "uint256"
        }
      ],
      "name": "AllocatedETHToUnstakeRequestsManager",
      "type": "event"
    },
    {
      "anonymous": false,
      "inputs": [
        {
          "indexed": false,
          "internalType": "uint64",
          "name": "version",
          "type": "uint64"
        }
      ],
      "name": "Initialized",
      "type": "event"
    },
    {
      "anonymous": false,
      "inputs": [
        {
          "indexed": true,
          "internalType": "bytes4",
          "name": "setterSelector",
          "type": "bytes4"
        },
        {
          "indexed": false,
          "internalType": "string",
          "name": "setterSignature",
          "type": "string"
        },
        {
          "indexed": false,
          "internalType": "bytes",
          "name": "value",
          "type": "bytes"
        }
      ],
      "name": "ProtocolConfigChanged",
      "type": "event"
    },
    {
      "anonymous": false,
      "inputs": [
        {
          "indexed": false,
          "internalType": "uint256",
          "name": "amount",
          "type": "uint256"
        }
      ],
      "name": "ReturnsReceived",
      "type": "event"
    },
    {
      "anonymous": false,
      "inputs": [
        {
          "indexed": true,
          "internalType": "bytes32",
          "name": "role",
          "type": "bytes32"
        },
        {
          "indexed": true,
          "internalType": "bytes32",
          "name": "previousAdminRole",
          "type": "bytes32"
        },
        {
          "indexed": true,
          "internalType": "bytes32",
          "name": "newAdminRole",
          "type": "bytes32"
        }
      ],
      "name": "RoleAdminChanged",
      "type": "event"
    },
    {
      "anonymous": false,
      "inputs": [
        {
          "indexed": true,
          "internalType": "bytes32",
          "name": "role",
          "type": "bytes32"
        },
        {
          "indexed": true,
          "internalType": "address",
          "name": "account",
          "type": "address"
        },
        {
          "indexed": true,
          "internalType": "address",
          "name": "sender",
          "type": "address"
        }
      ],
      "name": "RoleGranted",
      "type": "event"
    },
    {
      "anonymous": false,
      "inputs": [
        {
          "indexed": true,
          "internalType": "bytes32",
          "name": "role",
          "type": "bytes32"
        },
        {
          "indexed": true,
          "internalType": "address",
          "name": "account",
          "type": "address"
        },
        {
          "indexed": true,
          "internalType": "address",
          "name": "sender",
          "type": "address"
        }
      ],
      "name": "RoleRevoked",
      "type": "event"
    },
    {
      "anonymous": false,
      "inputs": [
        {
          "indexed": true,
          "internalType": "address",
          "name": "staker",
          "type": "address"
        },
        {
          "indexed": false,
          "internalType": "uint256",
          "name": "ethAmount",
          "type": "uint256"
        },
        {
          "indexed": false,
          "internalType": "uint256",
          "name": "dETHAmount",
          "type": "uint256"
        }
      ],
      "name": "Staked",
      "type": "event"
    },
    {
      "anonymous": false,
      "inputs": [
        {
          "indexed": true,
          "internalType": "address",
          "name": "staker",
          "type": "address"
        },
        {
          "indexed": false,
          "internalType": "uint256",
          "name": "dETHLocked",
          "type": "uint256"
        }
      ],
      "name": "UnstakeLaveAmount",
      "type": "event"
    },
    {
      "anonymous": false,
      "inputs": [
        {
          "indexed": true,
          "internalType": "address",
          "name": "staker",
          "type": "address"
        },
        {
          "indexed": true,
          "internalType": "address[]",
          "name": "l2Strategys",
          "type": "address[]"
        },
        {
          "indexed": true,
          "internalType": "address",
          "name": "bridge",
          "type": "address"
        },
        {
          "indexed": false,
          "internalType": "uint256",
          "name": "sourceChainId",
          "type": "uint256"
        },
        {
          "indexed": false,
          "internalType": "uint256",
          "name": "destChainId",
          "type": "uint256"
        }
      ],
      "name": "UnstakeRequestClaimed",
      "type": "event"
    },
    {
      "anonymous": false,
      "inputs": [
        {
          "indexed": true,
          "internalType": "address",
          "name": "staker",
          "type": "address"
        },
        {
          "indexed": true,
          "internalType": "address",
          "name": "l2Strategy",
          "type": "address"
        },
        {
          "indexed": false,
          "internalType": "uint256",
          "name": "ethAmount",
          "type": "uint256"
        },
        {
          "indexed": false,
          "internalType": "uint256",
          "name": "dETHLocked",
          "type": "uint256"
        },
        {
          "indexed": false,
          "internalType": "uint256",
          "name": "destChainId",
          "type": "uint256"
        }
      ],
      "name": "UnstakeRequested",
      "type": "event"
    },
    {
      "anonymous": false,
      "inputs": [
        {
          "indexed": true,
          "internalType": "bytes32",
          "name": "id",
          "type": "bytes32"
        },
        {
          "indexed": true,
          "internalType": "uint256",
          "name": "operatorID",
          "type": "uint256"
        },
        {
          "indexed": false,
          "internalType": "bytes",
          "name": "pubkey",
          "type": "bytes"
        },
        {
          "indexed": false,
          "internalType": "uint256",
          "name": "amountDeposited",
          "type": "uint256"
        }
      ],
      "name": "ValidatorInitiated",
      "type": "event"
    },
    {
      "inputs": [],
      "name": "ALLOCATOR_SERVICE_ROLE",
      "outputs": [
        {
          "internalType": "bytes32",
          "name": "",
          "type": "bytes32"
        }
      ],
      "stateMutability": "view",
      "type": "function"
    },
    {
      "inputs": [],
      "name": "DEFAULT_ADMIN_ROLE",
      "outputs": [
        {
          "internalType": "bytes32",
          "name": "",
          "type": "bytes32"
        }
      ],
      "stateMutability": "view",
      "type": "function"
    },
    {
      "inputs": [],
      "name": "INITIATOR_SERVICE_ROLE",
      "outputs": [
        {
          "internalType": "bytes32",
          "name": "",
          "type": "bytes32"
        }
      ],
      "stateMutability": "view",
      "type": "function"
    },
    {
      "inputs": [],
      "name": "STAKING_ALLOWLIST_MANAGER_ROLE",
      "outputs": [
        {
          "internalType": "bytes32",
          "name": "",
          "type": "bytes32"
        }
      ],
      "stateMutability": "view",
      "type": "function"
    },
    {
      "inputs": [],
      "name": "STAKING_ALLOWLIST_ROLE",
      "outputs": [
        {
          "internalType": "bytes32",
          "name": "",
          "type": "bytes32"
        }
      ],
      "stateMutability": "view",
      "type": "function"
    },
    {
      "inputs": [],
      "name": "STAKING_MANAGER_ROLE",
      "outputs": [
        {
          "internalType": "bytes32",
          "name": "",
          "type": "bytes32"
        }
      ],
      "stateMutability": "view",
      "type": "function"
    },
    {
      "inputs": [],
      "name": "TOP_UP_ROLE",
      "outputs": [
        {
          "internalType": "bytes32",
          "name": "",
          "type": "bytes32"
        }
      ],
      "stateMutability": "view",
      "type": "function"
    },
    {
      "inputs": [
        {
          "internalType": "uint256",
          "name": "allocateToUnstakeRequestsManager",
          "type": "uint256"
        },
        {
          "internalType": "uint256",
          "name": "allocateToDeposits",
          "type": "uint256"
        }
      ],
      "name": "allocateETH",
      "outputs": [],
      "stateMutability": "nonpayable",
      "type": "function"
    },
    {
      "inputs": [],
      "name": "allocatedETHForDeposits",
      "outputs": [
        {
          "internalType": "uint256",
          "name": "",
          "type": "uint256"
        }
      ],
      "stateMutability": "view",
      "type": "function"
    },
    {
      "inputs": [
        {
          "internalType": "address[]",
          "name": "requests",
          "type": "address[]"
        },
        {
          "internalType": "uint256",
          "name": "sourceChainId",
          "type": "uint256"
        },
        {
          "internalType": "uint256",
          "name": "destChainId",
          "type": "uint256"
        },
        {
          "internalType": "uint256",
          "name": "gasLimit",
          "type": "uint256"
        }
      ],
      "name": "claimUnstakeRequest",
      "outputs": [],
      "stateMutability": "nonpayable",
      "type": "function"
    },
    {
      "inputs": [
        {
          "internalType": "uint256",
          "name": "dETHAmount",
          "type": "uint256"
        }
      ],
      "name": "dETHToETH",
      "outputs": [
        {
          "internalType": "uint256",
          "name": "",
          "type": "uint256"
        }
      ],
      "stateMutability": "nonpayable",
      "type": "function"
    },
    {
      "inputs": [
        {
          "internalType": "uint256",
          "name": "ethAmount",
          "type": "uint256"
        }
      ],
      "name": "ethToDETH",
      "outputs": [
        {
          "internalType": "uint256",
          "name": "",
          "type": "uint256"
        }
      ],
      "stateMutability": "nonpayable",
      "type": "function"
    },
    {
      "inputs": [],
      "name": "exchangeAdjustmentRate",
      "outputs": [
        {
          "internalType": "uint16",
          "name": "",
          "type": "uint16"
        }
      ],
      "stateMutability": "view",
      "type": "function"
    },
    {
      "inputs": [],
      "name": "getLocator",
      "outputs": [
        {
          "internalType": "contract L1ILocator",
          "name": "",
          "type": "address"
        }
      ],
      "stateMutability": "view",
      "type": "function"
    },
    {
      "inputs": [
        {
          "internalType": "bytes32",
          "name": "role",
          "type": "bytes32"
        }
      ],
      "name": "getRoleAdmin",
      "outputs": [
        {
          "internalType": "bytes32",
          "name": "",
          "type": "bytes32"
        }
      ],
      "stateMutability": "view",
      "type": "function"
    },
    {
      "inputs": [
        {
          "internalType": "bytes32",
          "name": "role",
          "type": "bytes32"
        },
        {
          "internalType": "uint256",
          "name": "index",
          "type": "uint256"
        }
      ],
      "name": "getRoleMember",
      "outputs": [
        {
          "internalType": "address",
          "name": "",
          "type": "address"
        }
      ],
      "stateMutability": "view",
      "type": "function"
    },
    {
      "inputs": [
        {
          "internalType": "bytes32",
          "name": "role",
          "type": "bytes32"
        }
      ],
      "name": "getRoleMemberCount",
      "outputs": [
        {
          "internalType": "uint256",
          "name": "",
          "type": "uint256"
        }
      ],
      "stateMutability": "view",
      "type": "function"
    },
    {
      "inputs": [
        {
          "internalType": "bytes32",
          "name": "role",
          "type": "bytes32"
        },
        {
          "internalType": "address",
          "name": "account",
          "type": "address"
        }
      ],
      "name": "grantRole",
      "outputs": [],
      "stateMutability": "nonpayable",
      "type": "function"
    },
    {
      "inputs": [
        {
          "internalType": "bytes32",
          "name": "role",
          "type": "bytes32"
        },
        {
          "internalType": "address",
          "name": "account",
          "type": "address"
        }
      ],
      "name": "hasRole",
      "outputs": [
        {
          "internalType": "bool",
          "name": "",
          "type": "bool"
        }
      ],
      "stateMutability": "view",
      "type": "function"
    },
    {
      "inputs": [],
      "name": "initializationBlockNumber",
      "outputs": [
        {
          "internalType": "uint256",
          "name": "",
          "type": "uint256"
        }
      ],
      "stateMutability": "view",
      "type": "function"
    },
    {
      "inputs": [
        {
          "components": [
            {
              "internalType": "address",
              "name": "admin",
              "type": "address"
            },
            {
              "internalType": "address",
              "name": "manager",
              "type": "address"
            },
            {
              "internalType": "address",
              "name": "allocatorService",
              "type": "address"
            },
            {
              "internalType": "address",
              "name": "initiatorService",
              "type": "address"
            },
            {
              "internalType": "address",
              "name": "withdrawalWallet",
              "type": "address"
            }
          ],
          "internalType": "struct StakingManager.Init",
          "name": "init",
          "type": "tuple"
        }
      ],
      "name": "initialize",
      "outputs": [],
      "stateMutability": "nonpayable",
      "type": "function"
    },
    {
      "inputs": [
        {
          "components": [
            {
              "internalType": "uint256",
              "name": "operatorID",
              "type": "uint256"
            },
            {
              "internalType": "uint256",
              "name": "depositAmount",
              "type": "uint256"
            },
            {
              "internalType": "bytes",
              "name": "pubkey",
              "type": "bytes"
            },
            {
              "internalType": "bytes",
              "name": "withdrawalCredentials",
              "type": "bytes"
            },
            {
              "internalType": "bytes",
              "name": "signature",
              "type": "bytes"
            },
            {
              "internalType": "bytes32",
              "name": "depositDataRoot",
              "type": "bytes32"
            }
          ],
          "internalType": "struct StakingManagerStorage.ValidatorParams[]",
          "name": "validators",
          "type": "tuple[]"
        },
        {
          "internalType": "bytes32",
          "name": "expectedDepositRoot",
          "type": "bytes32"
        }
      ],
      "name": "initiateValidatorsWithDeposits",
      "outputs": [],
      "stateMutability": "nonpayable",
      "type": "function"
    },
    {
      "inputs": [],
      "name": "isStakingAllowlist",
      "outputs": [
        {
          "internalType": "bool",
          "name": "",
          "type": "bool"
        }
      ],
      "stateMutability": "view",
      "type": "function"
    },
    {
      "inputs": [],
      "name": "locator",
      "outputs": [
        {
          "internalType": "address",
          "name": "",
          "type": "address"
        }
      ],
      "stateMutability": "view",
      "type": "function"
    },
    {
      "inputs": [],
      "name": "maximumDETHSupply",
      "outputs": [
        {
          "internalType": "uint256",
          "name": "",
          "type": "uint256"
        }
      ],
      "stateMutability": "view",
      "type": "function"
    },
    {
      "inputs": [],
      "name": "maximumDepositAmount",
      "outputs": [
        {
          "internalType": "uint256",
          "name": "",
          "type": "uint256"
        }
      ],
      "stateMutability": "view",
      "type": "function"
    },
    {
      "inputs": [],
      "name": "minimumDepositAmount",
      "outputs": [
        {
          "internalType": "uint256",
          "name": "",
          "type": "uint256"
        }
      ],
      "stateMutability": "view",
      "type": "function"
    },
    {
      "inputs": [],
      "name": "minimumUnstakeBound",
      "outputs": [
        {
          "internalType": "uint256",
          "name": "",
          "type": "uint256"
        }
      ],
      "stateMutability": "view",
      "type": "function"
    },
    {
      "inputs": [],
      "name": "numInitiatedValidators",
      "outputs": [
        {
          "internalType": "uint256",
          "name": "",
          "type": "uint256"
        }
      ],
      "stateMutability": "view",
      "type": "function"
    },
    {
      "inputs": [],
      "name": "receiveFromUnstakeRequestsManager",
      "outputs": [],
      "stateMutability": "payable",
      "type": "function"
    },
    {
      "inputs": [],
      "name": "receiveReturns",
      "outputs": [],
      "stateMutability": "payable",
      "type": "function"
    },
    {
      "inputs": [],
      "name": "reclaimAllocatedETHSurplus",
      "outputs": [],
      "stateMutability": "nonpayable",
      "type": "function"
    },
    {
      "inputs": [
        {
          "internalType": "bytes32",
          "name": "role",
          "type": "bytes32"
        },
        {
          "internalType": "address",
          "name": "callerConfirmation",
          "type": "address"
        }
      ],
      "name": "renounceRole",
      "outputs": [],
      "stateMutability": "nonpayable",
      "type": "function"
    },
    {
      "inputs": [
        {
          "internalType": "bytes32",
          "name": "role",
          "type": "bytes32"
        },
        {
          "internalType": "address",
          "name": "account",
          "type": "address"
        }
      ],
      "name": "revokeRole",
      "outputs": [],
      "stateMutability": "nonpayable",
      "type": "function"
    },
    {
      "inputs": [
        {
          "internalType": "uint16",
          "name": "exchangeAdjustmentRate_",
          "type": "uint16"
        }
      ],
      "name": "setExchangeAdjustmentRate",
      "outputs": [],
      "stateMutability": "nonpayable",
      "type": "function"
    },
    {
      "inputs": [
        {
          "internalType": "address",
          "name": "_locator",
          "type": "address"
        }
      ],
      "name": "setLocator",
      "outputs": [],
      "stateMutability": "nonpayable",
      "type": "function"
    },
    {
      "inputs": [
        {
          "internalType": "uint256",
          "name": "maximumDETHSupply_",
          "type": "uint256"
        }
      ],
      "name": "setMaximumDETHSupply",
      "outputs": [],
      "stateMutability": "nonpayable",
      "type": "function"
    },
    {
      "inputs": [
        {
          "internalType": "uint256",
          "name": "minimumDepositAmount_",
          "type": "uint256"
        }
      ],
      "name": "setMinimumDepositAmount",
      "outputs": [],
      "stateMutability": "nonpayable",
      "type": "function"
    },
    {
      "inputs": [
        {
          "internalType": "uint256",
          "name": "minimumUnstakeBound_",
          "type": "uint256"
        }
      ],
      "name": "setMinimumUnstakeBound",
      "outputs": [],
      "stateMutability": "nonpayable",
      "type": "function"
    },
    {
      "inputs": [
        {
          "internalType": "bool",
          "name": "isStakingAllowlist_",
          "type": "bool"
        }
      ],
      "name": "setStakingAllowlist",
      "outputs": [],
      "stateMutability": "nonpayable",
      "type": "function"
    },
    {
      "inputs": [
        {
          "internalType": "address",
          "name": "withdrawalWallet_",
          "type": "address"
        }
      ],
      "name": "setWithdrawalWallet",
      "outputs": [],
      "stateMutability": "nonpayable",
      "type": "function"
    },
    {
      "inputs": [
        {
          "internalType": "uint256",
          "name": "stakeAmount",
          "type": "uint256"
        },
        {
          "components": [
            {
              "internalType": "address",
              "name": "staker",
              "type": "address"
            },
            {
              "internalType": "uint256",
              "name": "amount",
              "type": "uint256"
            }
          ],
          "internalType": "struct IDETH.BatchMint[]",
          "name": "batchMints",
          "type": "tuple[]"
        }
      ],
      "name": "stake",
      "outputs": [],
      "stateMutability": "payable",
      "type": "function"
    },
    {
      "inputs": [
        {
          "internalType": "bytes4",
          "name": "interfaceId",
          "type": "bytes4"
        }
      ],
      "name": "supportsInterface",
      "outputs": [
        {
          "internalType": "bool",
          "name": "",
          "type": "bool"
        }
      ],
      "stateMutability": "view",
      "type": "function"
    },
    {
      "inputs": [],
      "name": "topUp",
      "outputs": [],
      "stateMutability": "payable",
      "type": "function"
    },
    {
      "inputs": [],
      "name": "totalControlled",
      "outputs": [
        {
          "internalType": "uint256",
          "name": "",
          "type": "uint256"
        }
      ],
      "stateMutability": "nonpayable",
      "type": "function"
    },
    {
      "inputs": [],
      "name": "totalDepositedInValidators",
      "outputs": [
        {
          "internalType": "uint256",
          "name": "",
          "type": "uint256"
        }
      ],
      "stateMutability": "view",
      "type": "function"
    },
    {
      "inputs": [],
      "name": "unallocatedETH",
      "outputs": [
        {
          "internalType": "uint256",
          "name": "",
          "type": "uint256"
        }
      ],
      "stateMutability": "view",
      "type": "function"
    },
    {
      "inputs": [
        {
          "internalType": "uint128",
          "name": "dethAmount",
          "type": "uint128"
        },
        {
          "internalType": "uint128",
          "name": "minETHAmount",
          "type": "uint128"
        },
        {
          "internalType": "address",
          "name": "l2Strategy",
          "type": "address"
        },
        {
          "internalType": "uint256",
          "name": "destChainId",
          "type": "uint256"
        }
      ],
      "name": "unstakeRequest",
      "outputs": [],
      "stateMutability": "nonpayable",
      "type": "function"
    },
    {
      "inputs": [
        {
          "internalType": "uint256",
          "name": "destChainId",
          "type": "uint256"
        },
        {
          "internalType": "address",
          "name": "l2strategy",
          "type": "address"
        }
      ],
      "name": "unstakeRequestInfo",
      "outputs": [
        {
          "internalType": "bool",
          "name": "",
          "type": "bool"
        },
        {
          "internalType": "uint256",
          "name": "",
          "type": "uint256"
        }
      ],
      "stateMutability": "view",
      "type": "function"
    },
    {
      "inputs": [
        {
          "internalType": "bytes",
          "name": "pubkey",
          "type": "bytes"
        }
      ],
      "name": "usedValidators",
      "outputs": [
        {
          "internalType": "bool",
          "name": "exists",
          "type": "bool"
        }
      ],
      "stateMutability": "view",
      "type": "function"
    },
    {
      "inputs": [],
      "name": "withdrawalWallet",
      "outputs": [
        {
          "internalType": "address",
          "name": "",
          "type": "address"
        }
      ],
      "stateMutability": "view",
      "type": "function"
    }
  ],
  "bytecode": {
    "object": "0x608080604052346100b9577ff0c57e16840df040f15088dc2f81fe391c3923bec73e23a9662efc9c229c6a009081549060ff8260401c166100aa57506001600160401b036002600160401b031982821601610065575b6040516132a89081620000bf8239f35b6001600160401b031990911681179091556040519081527fc7f505b2f371ae2175ee4913f4499e1f2633a7b5936321eed1cdaeb6115181d290602090a1388080610055565b63f92ee8a960e01b8152600490fd5b600080fdfe608060408181526004918236101561001657600080fd5b600090813560e01c90816301ffc9a714611e3c575080630208e4b514611da457806304f36cc214611cee5780630633af7614611ccb578063080c279a14611cac57806312e9ead6146119a9578063147d36d51461198a5780631943190d1461192657806319efd5c7146118fd5780631d2d35ce14611868578063248a9ca31461183057806329d48704146117425780632f2ff15d146116ba5780633101d9101461169157806335ead2a41461167257806336568abe1461162c57806337a6c881146112f35780633937c0b3146112ca57806342d3915d146112a357806349336f0f146112845780634a7d80b31461125b5780635915ded1146111ea5780635940d90b146111cd57806360a0f628146111ae57806366fe446c14610f2a5780636daa01a214610d195780636fce8ab214610cde57806375796f7614610c0e57806378abb49b14610bef5780637c957fc81461036c5780637dfcdd2914610bd0578063808d663f14610b1d57806389e80ed314610ae25780638f656d22146107d05780639010d07c1461078257806391d148541461072f57806399dd1deb1461069a578063a217fddf1461067f578063a5e8456214610641578063aab483d6146105a6578063ac1e2257146104ef578063b91590b2146104d0578063bb635c65146104b1578063c151aa7214610416578063ca15c873146103e1578063d547741f14610394578063d8343dcb1461036c578063dc29f1de146102db578063e55d6cc0146102a0578063ea452b6d1461027d5763ed9daafb1461025557600080fd5b3461027a57602036600319011261027a575061027360209235612895565b9051908152f35b80fd5b50903461029c578160031936011261029c576020906037549051908152f35b5080fd5b50903461029c578160031936011261029c57602090517f8ea5b4dbd68db0bf23bf4cda958b61a749f8c5aec6f2912d75a03246753ddd168152f35b50919082600319360112610368577f5e4bd437d29fad01c10cdcfff414f0d6b0e84b96d2dade88d780d45b5630696b90816000526000805160206131f3833981519152602052806000203360005260205260ff8160002054161561034c578361034634603654612081565b60365580f35b60449350519163e2517d3f60e01b835233908301526024820152fd5b8280fd5b50903461029c578160031936011261029c57905490516001600160a01b039091168152602090f35b509190346103685780600319360112610368576103dd91356103d860016103b9611ef0565b938387526000805160206131f3833981519152602052862001546129e2565b612bc6565b5080f35b5091346103685760203660031901126103685760209282913581526000805160206131b3833981519152845220549051908152f35b50919082600319360112610368578254815163352a8adf60e21b81526001600160a01b039160209082908690829086165afa9081156104a7578591610478575b5016330361046b578261034634603654612081565b51637154fc4360e01b8152fd5b61049a915060203d6020116104a0575b6104928183611f74565b810190612619565b38610456565b503d610488565b83513d87823e3d90fd5b50903461029c578160031936011261029c576020906035549051908152f35b50903461029c578160031936011261029c57602090603d549051908152f35b50823461029c578260031936011261029c578261050a611ef0565b6001600160a01b03926044908461051f612b8c565b168451958694859363d4be074f60e01b85528035908501521660248301525afa90811561059c5782809261055e575b5050825191151582526020820152f35b915091508282813d8311610595575b6105778183611f74565b8101031261027a5750602061058b8261200a565b910151838061054e565b503d61056d565b83513d84823e3d90fd5b509134610368576020366003190112610368576000805160206132338339815191529035916105d361297a565b82603a558051926020840152602083526105ec83611f59565b60208151918083528201527f7365744d696e696d756d4465706f736974416d6f756e742875696e74323536296060820152608060208201528061063b63555a41eb60e11b9460808301906124d0565b0390a280f35b503461027a57602036600319011261027a576001600160a01b03610663611f06565b166bffffffffffffffffffffffff60a01b600054161760005580f35b50903461029c578160031936011261029c5751908152602090f35b509134610368576020366003190112610368576000805160206132338339815191529035916106c761297a565b826038558051926020840152602083526106e083611f59565b601f8151918083528201527f7365744d696e696d756d556e7374616b65426f756e642875696e7432353629006060820152608060208201528061063b6399dd1deb60e01b9460808301906124d0565b5091346103685781600319360112610368578160209361074d611ef0565b923581526000805160206131f38339815191528552209060018060a01b0316600052825260ff81600020541690519015158152f35b5091346103685781600319360112610368576020926107ba913581526000805160206131b38339815191528452826024359120612f9d565b905491519160018060a01b039160031b1c168152f35b5091346103685760a03660031901126103685781516001600160401b039060a0810182811182821017610acd578452610807611f06565b8152610811611ef0565b9060208101918252610821611eda565b8186019081526001600160a01b039260643591908483168303610ac85760608401928352608435938585168503610ac857608081019485527ff0c57e16840df040f15088dc2f81fe391c3923bec73e23a9662efc9c229c6a009788549060ff828c1c161598821680159081610ac0575b6001149081610ab6575b159081610aad575b50610a9f575086949391928b86809581948c8e60016001600160401b03198416179055610a80575b5051166108d6612f5c565b6108de612f5c565b8c6108e882612c0e565b610a58575b50505051166108fb81612c9c565b610a22575b50511661090c81612d34565b6109ec575b50511661091d81612dcc565b6109b6575b505116603c5490662386f26fc100006038556801bc16d674ec800000603a55600160a01b916affffffffffffffffffffff60a81b161717603c5543603d55683782dace9d90000000603e55610975578280f35b805468ff00000000000000001916905551600181527fc7f505b2f371ae2175ee4913f4499e1f2633a7b5936321eed1cdaeb6115181d290602090a138808280f35b6109e5906000805160206131d383398151915288526000805160206131b3833981519152602052868820612fb5565b5038610922565b610a1b906000805160206132138339815191528a526000805160206131b3833981519152602052888a20612fb5565b5038610911565b610a51906000805160206132538339815191528c526000805160206131b38339815191526020528a8c20612fb5565b5038610900565b8280610a7794526000805160206131b383398151915260205220612fb5565b508b388c6108ed565b68ffffffffffffffffff191668010000000000000001178d55386108cb565b8a5163f92ee8a960e01b8152fd5b905015386108a3565b303b15915061089b565b8a9150610891565b600080fd5b604184634e487b7160e01b6000525260246000fd5b50903461029c578160031936011261029c57602090517fdec9d30de0821ad67aa5b141b13a539f584a19f99319e6041698a892b0e795598152f35b5091826003193601126103685782548251631faa859d60e11b81526001600160a01b039160209082908590829086165afa908115610bc6578591610ba7575b50163303610b9a575060207f4cbb9d73b003a252cee3f2ee51d8d65a562af35eebb23730dd4a76d68127b3709151348152a161034634603654612081565b9051626310df60e31b8152fd5b610bc0915060203d6020116104a0576104928183611f74565b38610b5c565b84513d87823e3d90fd5b50903461029c578160031936011261029c576020906036549051908152f35b50903461029c578160031936011261029c57602090603b549051908152f35b5091903461036857602036600319011261036857610c2a611f06565b610c3261297a565b6001600160a01b0316918215610cd0575060008051602061323383398151915290826bffffffffffffffffffffffff60a01b603c541617603c55805192602084015260208352610c8183611f59565b601c8151918083528201527f7365745769746864726177616c57616c6c6574286164647265737329000000006060820152608060208201528061063b633abcb7bb60e11b9460808301906124d0565b905163d92e233d60e01b8152fd5b50903461029c578160031936011261029c57602090517f5e4bd437d29fad01c10cdcfff414f0d6b0e84b96d2dade88d780d45b5630696b8152f35b50903461029c578060031936011261029c5782359060243593600080516020613213833981519152806000526020906000805160206131f383398151915282528360002033600052825260ff84600020541615610f0d57506001600160a01b0390828183610d85612a15565b16865192838092637ee56d2f60e11b82525afa908115610f03578791610eca575b50610eba57610db58786612081565b96603654809811610eaa57610dd58798610dcf8389612081565b906120c5565b6036558181610e6c575b505084610dea578580f35b7ffe89805cf5299ef9fbd1d1ddefb8dcc3fa9408064d2ea31e3fca6565768f5217908451868152a1610e1a612b8c565b16803b15610e68578491835180958193632689dfd360e11b83525af1908115610e5f5750610e4b575b808080808580f35b610e5490611f30565b61027a578038610e43565b513d84823e3d90fd5b8480fd5b81610e9a7f9d04ecb465d2c8754acb798a22293dd26215a1c2f7a2a56607afa215c1aadc7793603754612081565b6037558651908152a13881610ddf565b84516396b0c75160e01b81528490fd5b83516313d0ff5960e31b81528390fd5b90508181813d8311610efc575b610ee18183611f74565b81010312610ef857610ef29061200a565b38610da6565b8680fd5b503d610ed7565b85513d89823e3d90fd5b9050604492519163e2517d3f60e01b835233908301526024820152fd5b50823461029c57608036600319011261029c5780356001600160401b03811161036857610f5a9036908301611eaa565b83548551636c9c724960e11b80825260443597946001600160a01b039490936024359391926020929187169183818b81865afa908115611177579088918c91611191575b5016330361118157888388610fb1612a15565b168a51928380926345b09c8d60e11b82525afa908115611177578b9161113e575b5061112e5782908989518094819382525afa908115611124578991611107575b5086518080878c5b868882106110e457505050039020868851928684528c8585015216917fad6735aba298e7700470a993c5cbfd34a66ca15b17ac9b2b0984435d6f11f48d893392a484611044612b8c565b1694853b156110e05791908187519863608e630b60e01b8a52608060848b01918b01525260a48801949289905b8382106110bc575050505050918486818094829a839760248401526044830152606435606483015203925af1908115610e5f57506110ac5750f35b6110b590611f30565b61027a5780f35b90919293958380600192846110d08b611f1c565b1681520197019493920190611071565b8880fd5b8294508091938c6110f6600195611f1c565b168152019301910190839291610ffa565b61111e9150823d84116104a0576104928183611f74565b8a610ff2565b87513d8b823e3d90fd5b87516313d0ff5960e31b81528990fd5b90508381813d8311611170575b6111558183611f74565b8101031261116c576111669061200a565b8c610fd2565b8a80fd5b503d61114b565b89513d8d823e3d90fd5b875163c68e02cf60e01b81528990fd5b6111a89150853d87116104a0576104928183611f74565b8d610f9e565b50903461029c578160031936011261029c576020906034549051908152f35b50903461029c578160031936011261029c57602090610273612660565b503461027a57602036600319011261027a578235906001600160401b03821161027a573660238301121561027a57506112466020611234819584602460ff96369301359101611fb0565b81855193828580945193849201611fe7565b81016033815203019020541690519015158152f35b50903461029c578160031936011261029c57603c5490516001600160a01b039091168152602090f35b50903461029c578160031936011261029c57602090603e549051908152f35b50903461029c578160031936011261029c5760209060ff603c5460a01c1690519015158152f35b50903461029c578160031936011261029c57602090516000805160206132538339815191528152f35b50919080600319360112610368578135906024356001600160401b0380821161162857366023830112156116285781850135908111611628573660248260061b840101116116285760018060a01b03918287541684519283636c9c724960e11b92838252818a60209788935afa9081156115f1579086918b9161160b575b501633036115fb57878486611384612a15565b16885192838092631ea7ca8960e01b82525afa9081156115f1578a916115b8575b506115a857603a5480341090811561159e575b5061158e576113c6876124f5565b928885876113d2612aa6565b168951928380926318160ddd60e01b82525afa8015611584578b90611555575b6113fd915085612081565b603e54106115455761141188603654612081565b6036558561141d612aa6565b1690813b1561116c57908a9291885192639386e19760e01b8452808c89602487019187015252602460448501920190855b8b82821061151557505050508391838381809403925af1801561150b5790859392916114ee575b50859054169786518099819382525afa9182156114e4577f1449c6dd7851abc30abf37f57715f492010519147cc2652fbc38202c18a6ee90959688936114c5575b5084519687528601521692a280f35b816114dd9294503d85116104a0576104928183611f74565b91386114b6565b84513d89823e3d90fd5b6114fa91929350611f30565b6115075782908838611475565b8780fd5b87513d84823e3d90fd5b8395969750600192948c61152a839496611f1c565b1681528b8701358c8201520194019101918d9594939261144e565b8651630935f98160e31b81528990fd5b508581813d831161157d575b61156b8183611f74565b81010312610ac8576113fd90516113f2565b503d611561565b88513d8d823e3d90fd5b8551630a3287a960e21b81528890fd5b90508710386113b8565b85516313d0ff5960e31b81528890fd5b90508481813d83116115ea575b6115cf8183611f74565b810103126115e6576115e09061200a565b386113a5565b8980fd5b503d6115c5565b87513d8c823e3d90fd5b855163c68e02cf60e01b81528890fd5b6116229150863d88116104a0576104928183611f74565b38611371565b8580fd5b50903461029c578060031936011261029c57611646611ef0565b90336001600160a01b0383160361166357506103dd919235612bc6565b5163334bd91960e11b81528390fd5b50903461029c578160031936011261029c576020906038549051908152f35b50903461029c578160031936011261029c57602090516000805160206132138339815191528152f35b50913461036857816003193601126103685735906116d6611ef0565b908284526000805160206131f38339815191526020526116fb600182862001546129e2565b6117058284612e64565b61170d578380f35b60009283526000805160206131b383398151915260205290912061173a916001600160a01b031690612fb5565b503880808380f35b509190346103685760203660031901126103685781359161ffff831680930361182c5761176d61297a565b6103e8831161181e57612710831161180b5750600080516020613233833981519152908261ffff1960395416176039558051926020840152602083526117b283611f59565b60218151918083528201527f73657445786368616e676541646a7573746d656e74526174652875696e7431366060820152602960f81b608082015260a060208201528061063b630a7521c160e21b9460a08301906124d0565b634e487b7160e01b845260019052602483fd5b905163c52a9bd360e01b8152fd5b8380fd5b50913461036857602036600319011261036857816020936001923581526000805160206131f383398151915285522001549051908152f35b5091346103685760203660031901126103685760008051602061323383398151915290359161189561297a565b82603e558051926020840152602083526118ae83611f59565b601d8151918083528201527f7365744d6178696d756d44455448537570706c792875696e74323536290000006060820152608060208201528061063b630e969ae760e11b9460808301906124d0565b50903461029c578160031936011261029c57602090516000805160206131d38339815191528152f35b509182913461198657826003193601126119865761194261297a565b6001600160a01b03611952612b8c565b1691823b1561198157815163596a15a360e11b81529284918491829084905af1908115610e5f57506110ac5750f35b505050fd5b5050fd5b503461027a57602036600319011261027a5750610273602092356124f5565b5091346103685760803660031901126103685780356001600160801b0392838216809203610e68576024938435818116809103610ef8576119e8611eda565b6001600160a01b0391606435836119fd612a15565b1694865180966345b09c8d60e11b8252818b6020998a935afa908115611ca2578c91611c69575b50611c59576038548810611c4a57611a3b88612895565b1691808310611c2f575083611a4e612b8c565b168a813b1561027a578a9460a48b8389958c51968795869462448d8d60e91b8652339086015216809a8401528d60448401528860648401528760848401525af18015611c2557611c0c575b50908793929186519182528786830152868201527f7fd59a2c98b4d595be25d7976e588f7b6189ace6d41522f11868d951c293436760603392a3611adb612aa6565b83828a541686519485809263352a8adf60e21b82525afa928315611c02578993611be1575b50811694845191848301936323b872dd60e01b8552338a85015216604483015260648201526064815260a081018181106001600160401b03821117611bcd57845251611b7b918891829182885af13d15611bc5573d90611b5f82611f95565b91611b6c86519384611f74565b82523d898584013e5b8561312f565b8051918215159283611ba4575b505050611b93578480f35b51635274afe760e01b815291820152fd5b82935091819281010312610ef857611bbc910161200a565b15388080611b88565b606090611b75565b87604188634e487b7160e01b600052526000fd5b82919350611bfb90853d87116104a0576104928183611f74565b9290611b00565b85513d8b823e3d90fd5b99611c1b89959493929b611f30565b9990919293611a99565b87513d8d823e3d90fd5b886044918b858a51936347f961e960e11b8552840152820152fd5b865162771ba760e71b81528990fd5b86516313d0ff5960e31b81528990fd5b90508681813d8311611c9b575b611c808183611f74565b81010312611c9757611c919061200a565b38611a24565b8b80fd5b503d611c76565b88513d8e823e3d90fd5b50903461029c578160031936011261029c57602090603a549051908152f35b50903461029c578160031936011261029c5760209061ffff603954169051908152f35b5091346103685760203660031901126103685735908115158092036103685760008051602061323383398151915290611d2561297a565b603c805460ff60a01b191660a085901b60ff60a01b161790558051602080820194909452928352611d5583611f59565b60198151918083528201527f7365745374616b696e67416c6c6f776c69737428626f6f6c29000000000000006060820152608060208201528061063b630279b66160e11b9460808301906124d0565b50823461029c578260031936011261029c5780356001600160401b03811161036857611dd39036908301611eaa565b90916000805160206131d38339815191528085526000805160206131f383398151915260205285852033865260205260ff868620541615611e1f5784611e1c60243585876120d2565b80f35b6044925085519163e2517d3f60e01b835233908301526024820152fd5b90508334610368576020366003190112610368573563ffffffff60e01b81168091036103685760209250635a05180f60e01b8114908115611e7f575b5015158152f35b637965db0b60e01b811491508115611e99575b5083611e78565b6301ffc9a760e01b14905083611e92565b9181601f84011215610ac8578235916001600160401b038311610ac8576020808501948460051b010111610ac857565b604435906001600160a01b0382168203610ac857565b602435906001600160a01b0382168203610ac857565b600435906001600160a01b0382168203610ac857565b35906001600160a01b0382168203610ac857565b6001600160401b038111611f4357604052565b634e487b7160e01b600052604160045260246000fd5b604081019081106001600160401b03821117611f4357604052565b90601f801991011681019081106001600160401b03821117611f4357604052565b6001600160401b038111611f4357601f01601f191660200190565b929192611fbc82611f95565b91611fca6040519384611f74565b829481845281830111610ac8578281602093846000960137010152565b60005b838110611ffa5750506000910152565b8181015183820152602001611fea565b51908115158203610ac857565b91908110156120395760051b8101359060be1981360301821215610ac8570190565b634e487b7160e01b600052603260045260246000fd5b903590601e1981360301821215610ac857018035906001600160401b038211610ac857602001918136038313610ac857565b9190820180921161208e57565b634e487b7160e01b600052601160045260246000fd5b908060209392818452848401376000828201840152601f01601f1916010190565b9190820391821161208e57565b90916001600160a01b0390816120e6612a15565b16604094855192838093637750955b60e11b8252602094859160049788915afa9081156122805760009161249b575b5061248b5781156124825783838661212b612a6c565b1689519283809263c5f2892f60e01b82525afa90811561228057600091612455575b5080910361243f57506000805b82811061229b575060375480821161228b579061217a81612185936120c5565b603755603454612081565b60345561219481603554612081565b60355560005b8181106121aa5750505050505050565b6121b5818388612017565b856121be612a6c565b166121cb8983018361204f565b90926121da606082018261204f565b90936080916121eb8385018561204f565b9091833b15610ac8578f978d928d9461223a6122499461222660009d519e8f9d8e9c8d9a6304512a2360e31b8c528b015260848a01916120a4565b9060031995868984030160248a01526120a4565b928584030160448601526120a4565b60a0860135606483015203930135905af18015612280579060019291612271575b500161219a565b61227a90611f30565b3861226a565b88513d6000823e3d90fd5b87516307bb2bd760e21b81528590fd5b60ff6122a882858a612017565b92898401906122b7828661204f565b8c51949181908637840193888160339687815203019020541661242f578685013592603a54840361241f5760606122f08188018861204f565b908a820361240857600c91808311610ac85781356001600160a01b0319166001600160f81b031981016123ed57508b11610ac8570135901c8a603c541681036123d757506123c78c6123908686957f15f16c2e13e50235799a97b981bf4a66c8cd86051f06aca745c5ff26f39b330e958d61236f60019c9b9a8e61204f565b928388519485938437820190815203019020805460ff19168b179055612081565b976123b56123a86123a1878461204f565b3691611fb0565b8c8151910120958261204f565b939083519484869586528501916120a4565b958b83015235940390a30161215a565b896024918e5191631b4d561960e01b8352820152fd5b90508f602493508d925051916308ebf56560e01b8352820152fd5b508a6024918f5191639b0ec52760e01b8352820152fd5b8b516305cacc5560e21b81528990fd5b8a5163932c5b0d60e01b81528890fd5b83602491885191631497ae9360e01b8352820152fd5b90508381813d831161247b575b61246c8183611f74565b81010312610ac857513861214d565b503d612462565b50505050505050565b86516313d0ff5960e31b81528490fd5b90508381813d83116124c9575b6124b28183611f74565b81010312610ac8576124c39061200a565b38612115565b503d6124a8565b906020916124e981518092818552858086019101611fe7565b601f01601f1916010190565b6001600160a01b0380612506612aa6565b169060405190816318160ddd60e01b9384825281600460209586935afa9081156125da576000916125ec575b50156125e6578190612542612aa6565b169260046040518095819382525afa9081156125da576000916125ae575b50603954612710925061ffff908116830381811161208e57169081810291818304149015171561208e57612592612660565b82810292818404149015171561208e576125ab92612ae0565b90565b82813d83116125d3575b6125c28183611f74565b8101031261027a5750518038612560565b503d6125b8565b6040513d6000823e3d90fd5b50505090565b90508281813d8311612612575b6126038183611f74565b81010312610ac8575138612532565b503d6125f9565b90816020910312610ac857516001600160a01b0381168103610ac85790565b51906001600160401b0382168203610ac857565b51906001600160801b0382168203610ac857565b600080546040805163159761e360e21b815292939290916001600160a01b039160209182908290600490829087165afa90811561288b57869161286e575b508284519163079d004d60e51b835282600481610100948594165afa918215610f0357879261278b575b505090806127136004936126e160365460375490612081565b60c0612709603454926127036001600160801b03948560e088015116906120c5565b90612081565b9201511690612081565b9361271c612b8c565b168551938480926316d3df1560e31b82525afa9384156127825750859361274b575b50506125ab929350612081565b9080929350813d831161277b575b6127638183611f74565b8101031261182c576125ab929350519083923861273e565b503d612759565b513d87823e3d90fd5b9080925081813d8311612867575b6127a38183611f74565b81010312610ef85784519182018281106001600160401b0382111761285357839261284660e060049694612713948a526127dc81612638565b84526127e9868201612638565b868501526127f88a8201612638565b8a85015261280860608201612638565b60608501526128196080820161264c565b608085015261282a60a0820161264c565b60a085015261283b60c0820161264c565b60c08501520161264c565b60e08201529293506126c8565b634e487b7160e01b88526041600452602488fd5b503d612799565b6128859150823d84116104a0576104928183611f74565b3861269e565b84513d88823e3d90fd5b6001600160a01b0390816128a7612aa6565b169160405191826318160ddd60e01b9485825281600460209687935afa9081156125da5760009161294d575b501561294657826128e2612660565b926128eb612aa6565b169460046040518097819382525afa9283156125da57600093612914575b506125ab9350612ae0565b90925083813d831161293f575b61292b8183611f74565b81010312610ac8576125ab92519138612909565b503d612921565b9250505090565b90508381813d8311612973575b6129648183611f74565b81010312610ac85751386128d3565b503d61295a565b3360009081527fc5abc2d863e77a76627fe1702320d3afc3f93a9ad30aebcafab5d12854da5c0f60205260409020546000805160206132538339815191529060ff16156129c45750565b6044906040519063e2517d3f60e01b82523360048301526024820152fd5b806000526000805160206131f383398151915260205260406000203360005260205260ff60406000205416156129c45750565b600054604051639fd0506d60e01b81526001600160a01b03916020908290600490829086165afa9081156125da57600091612a4f57501690565b612a68915060203d6020116104a0576104928183611f74565b1690565b60005460405163e94ad65b60e01b81526001600160a01b03916020908290600490829086165afa9081156125da57600091612a4f57501690565b6000546040516304efe2eb60e31b81526001600160a01b03916020908290600490829086165afa9081156125da57600091612a4f57501690565b90918282029160001984820993838086109503948086039514612b685784831115612b565782910981600003821680920460028082600302188083028203028083028203028083028203028083028203028083028203028092029003029360018380600003040190848311900302920304170290565b60405163227bc15360e01b8152600490fd5b505080925015612b76570490565b634e487b7160e01b600052601260045260246000fd5b60005460405163352a8adf60e21b81526001600160a01b03916020908290600490829086165afa9081156125da57600091612a4f57501690565b612bd08282612ed9565b9182612bdb57505090565b60009182526000805160206131b38339815191526020526040909120612c0a916001600160a01b03169061303f565b5090565b6001600160a01b031660008181527fb7db2dd08fcb62d0c9e08c51941cae53c267786a0b75803fb7960902fc8ef97d60205260408120549091906000805160206131f38339815191529060ff16612c97578280526020526040822081835260205260408220600160ff1982541617905533916000805160206131938339815191528180a4600190565b505090565b6001600160a01b031660008181527fc5abc2d863e77a76627fe1702320d3afc3f93a9ad30aebcafab5d12854da5c0f6020526040812054909190600080516020613253833981519152906000805160206131f38339815191529060ff166125e6578184526020526040832082845260205260408320600160ff19825416179055600080516020613193833981519152339380a4600190565b6001600160a01b031660008181527ff79084f49a5c4fa4c48f70bba1e67b61c2b9ca8b3d302dc944c028fdea010b826020526040812054909190600080516020613213833981519152906000805160206131f38339815191529060ff166125e6578184526020526040832082845260205260408320600160ff19825416179055600080516020613193833981519152339380a4600190565b6001600160a01b031660008181527ff1e23661530d14d05c9291333c54312223931d3f1ab2285de8cf548f5a18240d60205260408120549091906000805160206131d3833981519152906000805160206131f38339815191529060ff166125e6578184526020526040832082845260205260408320600160ff19825416179055600080516020613193833981519152339380a4600190565b906000918083526000805160206131f383398151915280602052604084209260018060a01b03169283855260205260ff604085205416156000146125e6578184526020526040832082845260205260408320600160ff19825416179055600080516020613193833981519152339380a4600190565b906000918083526000805160206131f383398151915280602052604084209260018060a01b03169283855260205260ff6040852054166000146125e657818452602052604083208284526020526040832060ff1981541690557ff6391f5c32d9c69d2a47ea670b442974b53935d1edc7fd64eb21e047a839171b339380a4600190565b60ff7ff0c57e16840df040f15088dc2f81fe391c3923bec73e23a9662efc9c229c6a005460401c1615612f8b57565b604051631afcd79f60e31b8152600490fd5b80548210156120395760005260206000200190600090565b9190600183016000908282528060205260408220541560001461303957845494680100000000000000008610156130255783613015612ffe886001604098999a01855584612f9d565b819391549060031b91821b91600019901b19161790565b9055549382526020522055600190565b634e487b7160e01b83526041600452602483fd5b50925050565b90600182019060009281845282602052604084205490811515600014613128576000199180830181811161311457825490848201918211613100578181036130cb575b505050805480156130b75782019161309a8383612f9d565b909182549160031b1b191690555582526020526040812055600190565b634e487b7160e01b86526031600452602486fd5b6130eb6130db612ffe9386612f9d565b90549060031b1c92839286612f9d565b90558652846020526040862055388080613082565b634e487b7160e01b88526011600452602488fd5b634e487b7160e01b87526011600452602487fd5b5050505090565b90613156575080511561314457805190602001fd5b604051630a12f52160e11b8152600490fd5b81511580613189575b613167575090565b604051639996b31560e01b81526001600160a01b039091166004820152602490fd5b50803b1561315f56fe2f8788117e7eff1d82e926ec794901d17c78024a50270940304540a733656f0dc1f6fe24621ce81ec5827caf0253cadb74709b061630e6b55e82371705932000e30bb2df90b65284acd0e8b5ebe3483bb2bbe65a08e43f0f9e8300fd8607ee1102dd7bc7dec4dceedda775e58dd541e08a116c6c53815c0bd028192f7b626800e6ef7125bfa79685f3bd2e4c4cea243c1e988ebbc0801ab7641ae36b9e2c529101d854e8dde9402801a4c6f2840193465752abfad61e0bb7c4258d526ae42e74a6b5d83d32632203555cb9b2c2f68a8d94da48cadd9266ac0d17babedb52ea5ba264697066735822122075eab6b311140890ccac56c1328d8166b986dc8c358a07d6568dc7e44be8939064736f6c63430008180033",
    "linkReferences": {}
  },
  "methodIdentifiers": {
    "ALLOCATOR_SERVICE_ROLE()": "3101d910",
    "DEFAULT_ADMIN_ROLE()": "a217fddf",
    "INITIATOR_SERVICE_ROLE()": "19efd5c7",
    "STAKING_ALLOWLIST_MANAGER_ROLE()": "e55d6cc0",
    "STAKING_ALLOWLIST_ROLE()": "89e80ed3",
    "STAKING_MANAGER_ROLE()": "3937c0b3",
    "TOP_UP_ROLE()": "6fce8ab2",
    "allocateETH(uint256,uint256)": "6daa01a2",
    "allocatedETHForDeposits()": "ea452b6d",
    "claimUnstakeRequest(address[],uint256,uint256,uint256)": "66fe446c",
    "dETHToETH(uint256)": "ed9daafb",
    "ethToDETH(uint256)": "147d36d5",
    "exchangeAdjustmentRate()": "0633af76",
    "getLocator()": "d8343dcb",
    "getRoleAdmin(bytes32)": "248a9ca3",
    "getRoleMember(bytes32,uint256)": "9010d07c",
    "getRoleMemberCount(bytes32)": "ca15c873",
    "grantRole(bytes32,address)": "2f2ff15d",
    "hasRole(bytes32,address)": "91d14854",
    "initializationBlockNumber()": "b91590b2",
    "initialize((address,address,address,address,address))": "8f656d22",
    "initiateValidatorsWithDeposits((uint256,uint256,bytes,bytes,bytes,bytes32)[],bytes32)": "0208e4b5",
    "isStakingAllowlist()": "42d3915d",
    "locator()": "7c957fc8",
    "maximumDETHSupply()": "49336f0f",
    "maximumDepositAmount()": "78abb49b",
    "minimumDepositAmount()": "080c279a",
    "minimumUnstakeBound()": "35ead2a4",
    "numInitiatedValidators()": "bb635c65",
    "receiveFromUnstakeRequestsManager()": "c151aa72",
    "receiveReturns()": "808d663f",
    "reclaimAllocatedETHSurplus()": "1943190d",
    "renounceRole(bytes32,address)": "36568abe",
    "revokeRole(bytes32,address)": "d547741f",
    "setExchangeAdjustmentRate(uint16)": "29d48704",
    "setLocator(address)": "a5e84562",
    "setMaximumDETHSupply(uint256)": "1d2d35ce",
    "setMinimumDepositAmount(uint256)": "aab483d6",
    "setMinimumUnstakeBound(uint256)": "99dd1deb",
    "setStakingAllowlist(bool)": "04f36cc2",
    "setWithdrawalWallet(address)": "75796f76",
    "stake(uint256,(address,uint256)[])": "37a6c881",
    "supportsInterface(bytes4)": "01ffc9a7",
    "topUp()": "dc29f1de",
    "totalControlled()": "5940d90b",
    "totalDepositedInValidators()": "60a0f628",
    "unallocatedETH()": "7dfcdd29",
    "unstakeRequest(uint128,uint128,address,uint256)": "12e9ead6",
    "unstakeRequestInfo(uint256,address)": "ac1e2257",
    "usedValidators(bytes)": "5915ded1",
    "withdrawalWallet()": "4a7d80b3"
  },
  "id": 76
}