{"abi":[{"type":"constructor","inputs":[],"stateMutability":"nonpayable"},{"type":"function","name":"DEPOSIT_TYPEHASH","inputs":[],"outputs":[{"name":"","type":"bytes32","internalType":"bytes32"}],"stateMutability":"view"},{"type":"function","name":"DOMAIN_TYPEHASH","inputs":[],"outputs":[{"name":"","type":"bytes32","internalType":"bytes32"}],"stateMutability":"view"},{"type":"function","name":"addShares","inputs":[{"name":"staker","type":"address","internalType":"address"},{"name":"weth","type":"address","internalType":"contract IERC20"},{"name":"strategy","type":"address","internalType":"contract IStrategy"},{"name":"shares","type":"uint256","internalType":"uint256"}],"outputs":[],"stateMutability":"nonpayable"},{"type":"function","name":"addStrategiesToDepositWhitelist","inputs":[{"name":"strategiesToWhitelist","type":"address[]","internalType":"contract IStrategy[]"},{"name":"thirdPartyTransfersForbiddenValues","type":"bool[]","internalType":"bool[]"}],"outputs":[],"stateMutability":"nonpayable"},{"type":"function","name":"calculateWithdrawalRoot","inputs":[{"name":"queuedWithdrawal","type":"tuple","internalType":"struct IStrategyManager.DeprecatedStruct_QueuedWithdrawal","components":[{"name":"strategies","type":"address[]","internalType":"contract IStrategy[]"},{"name":"shares","type":"uint256[]","internalType":"uint256[]"},{"name":"staker","type":"address","internalType":"address"},{"name":"withdrawerAndNonce","type":"tuple","internalType":"struct IStrategyManager.DeprecatedStruct_WithdrawerAndNonce","components":[{"name":"withdrawer","type":"address","internalType":"address"},{"name":"nonce","type":"uint96","internalType":"uint96"}]},{"name":"withdrawalStartBlock","type":"uint32","internalType":"uint32"},{"name":"delegatedAddress","type":"address","internalType":"address"}]}],"outputs":[{"name":"","type":"bytes32","internalType":"bytes32"}],"stateMutability":"pure"},{"type":"function","name":"delegation","inputs":[],"outputs":[{"name":"","type":"address","internalType":"contract IDelegationManager"}],"stateMutability":"view"},{"type":"function","name":"depositETHIntoStrategy","inputs":[{"name":"strategy","type":"address","internalType":"contract IStrategy"}],"outputs":[{"name":"shares","type":"uint256","internalType":"uint256"}],"stateMutability":"payable"},{"type":"function","name":"depositETHIntoStrategyWithSignature","inputs":[{"name":"strategy","type":"address","internalType":"contract IStrategy"},{"name":"amount","type":"uint256","internalType":"uint256"},{"name":"staker","type":"address","internalType":"address"},{"name":"expiry","type":"uint256","internalType":"uint256"},{"name":"signature","type":"bytes","internalType":"bytes"}],"outputs":[{"name":"shares","type":"uint256","internalType":"uint256"}],"stateMutability":"nonpayable"},{"type":"function","name":"depositWETHIntoStrategy","inputs":[{"name":"strategy","type":"address","internalType":"contract IStrategy"},{"name":"weth","type":"address","internalType":"contract IERC20"},{"name":"amount","type":"uint256","internalType":"uint256"}],"outputs":[{"name":"shares","type":"uint256","internalType":"uint256"}],"stateMutability":"nonpayable"},{"type":"function","name":"depositWETHIntoStrategyWithSignature","inputs":[{"name":"strategy","type":"address","internalType":"contract IStrategy"},{"name":"weth","type":"address","internalType":"contract IERC20"},{"name":"amount","type":"uint256","internalType":"uint256"},{"name":"staker","type":"address","internalType":"address"},{"name":"expiry","type":"uint256","internalType":"uint256"},{"name":"signature","type":"bytes","internalType":"bytes"}],"outputs":[{"name":"shares","type":"uint256","internalType":"uint256"}],"stateMutability":"nonpayable"},{"type":"function","name":"domainSeparator","inputs":[],"outputs":[{"name":"","type":"bytes32","internalType":"bytes32"}],"stateMutability":"view"},{"type":"function","name":"getDeposits","inputs":[{"name":"staker","type":"address","internalType":"address"}],"outputs":[{"name":"","type":"address[]","internalType":"contract IStrategy[]"},{"name":"","type":"uint256[]","internalType":"uint256[]"}],"stateMutability":"view"},{"type":"function","name":"getStakerStrategyL1BackShares","inputs":[{"name":"staker","type":"address","internalType":"address"},{"name":"strategy","type":"address","internalType":"contract IStrategy"}],"outputs":[{"name":"","type":"uint256","internalType":"uint256"}],"stateMutability":"nonpayable"},{"type":"function","name":"initialize","inputs":[{"name":"initialOwner","type":"address","internalType":"address"},{"name":"initialStrategyWhitelister","type":"address","internalType":"address"},{"name":"_relayer","type":"address","internalType":"address"},{"name":"_delegation","type":"address","internalType":"contract IDelegationManager"},{"name":"_slasher","type":"address","internalType":"contract ISlashManager"},{"name":"_pauser","type":"address","internalType":"contract IL2Pauser"}],"outputs":[],"stateMutability":"nonpayable"},{"type":"function","name":"migrateQueuedWithdrawal","inputs":[{"name":"queuedWithdrawal","type":"tuple","internalType":"struct IStrategyManager.DeprecatedStruct_QueuedWithdrawal","components":[{"name":"strategies","type":"address[]","internalType":"contract IStrategy[]"},{"name":"shares","type":"uint256[]","internalType":"uint256[]"},{"name":"staker","type":"address","internalType":"address"},{"name":"withdrawerAndNonce","type":"tuple","internalType":"struct IStrategyManager.DeprecatedStruct_WithdrawerAndNonce","components":[{"name":"withdrawer","type":"address","internalType":"address"},{"name":"nonce","type":"uint96","internalType":"uint96"}]},{"name":"withdrawalStartBlock","type":"uint32","internalType":"uint32"},{"name":"delegatedAddress","type":"address","internalType":"address"}]}],"outputs":[{"name":"","type":"bool","internalType":"bool"},{"name":"","type":"bytes32","internalType":"bytes32"}],"stateMutability":"nonpayable"},{"type":"function","name":"migrateRelatedL1StakerShares","inputs":[{"name":"staker","type":"address","internalType":"address"},{"name":"strategy","type":"address","internalType":"contract IStrategy"},{"name":"shares","type":"uint256","internalType":"uint256"},{"name":"l1UnStakeMessageNonce","type":"uint256","internalType":"uint256"}],"outputs":[{"name":"","type":"bool","internalType":"bool"}],"stateMutability":"nonpayable"},{"type":"function","name":"nonces","inputs":[{"name":"","type":"address","internalType":"address"}],"outputs":[{"name":"","type":"uint256","internalType":"uint256"}],"stateMutability":"view"},{"type":"function","name":"owner","inputs":[],"outputs":[{"name":"","type":"address","internalType":"address"}],"stateMutability":"view"},{"type":"function","name":"pauser","inputs":[],"outputs":[{"name":"","type":"address","internalType":"contract IL2Pauser"}],"stateMutability":"view"},{"type":"function","name":"relayer","inputs":[],"outputs":[{"name":"","type":"address","internalType":"address"}],"stateMutability":"view"},{"type":"function","name":"removeShares","inputs":[{"name":"staker","type":"address","internalType":"address"},{"name":"strategy","type":"address","internalType":"contract IStrategy"},{"name":"shares","type":"uint256","internalType":"uint256"}],"outputs":[],"stateMutability":"nonpayable"},{"type":"function","name":"removeStrategiesFromDepositWhitelist","inputs":[{"name":"strategiesToRemoveFromWhitelist","type":"address[]","internalType":"contract IStrategy[]"}],"outputs":[],"stateMutability":"nonpayable"},{"type":"function","name":"renounceOwnership","inputs":[],"outputs":[],"stateMutability":"nonpayable"},{"type":"function","name":"setStrategyWhitelister","inputs":[{"name":"newStrategyWhitelister","type":"address","internalType":"address"}],"outputs":[],"stateMutability":"nonpayable"},{"type":"function","name":"setThirdPartyTransfersForbidden","inputs":[{"name":"strategy","type":"address","internalType":"contract IStrategy"},{"name":"value","type":"bool","internalType":"bool"}],"outputs":[],"stateMutability":"nonpayable"},{"type":"function","name":"slasher","inputs":[],"outputs":[{"name":"","type":"address","internalType":"contract ISlashManager"}],"stateMutability":"view"},{"type":"function","name":"stakerStrategyL1BackShares","inputs":[{"name":"","type":"address","internalType":"address"},{"name":"","type":"address","internalType":"contract IStrategy"}],"outputs":[{"name":"","type":"uint256","internalType":"uint256"}],"stateMutability":"view"},{"type":"function","name":"stakerStrategyList","inputs":[{"name":"","type":"address","internalType":"address"},{"name":"","type":"uint256","internalType":"uint256"}],"outputs":[{"name":"","type":"address","internalType":"contract IStrategy"}],"stateMutability":"view"},{"type":"function","name":"stakerStrategyListLength","inputs":[{"name":"staker","type":"address","internalType":"address"}],"outputs":[{"name":"","type":"uint256","internalType":"uint256"}],"stateMutability":"view"},{"type":"function","name":"stakerStrategyShares","inputs":[{"name":"","type":"address","internalType":"address"},{"name":"","type":"address","internalType":"contract IStrategy"}],"outputs":[{"name":"","type":"uint256","internalType":"uint256"}],"stateMutability":"view"},{"type":"function","name":"strategyIsWhitelistedForDeposit","inputs":[{"name":"","type":"address","internalType":"contract IStrategy"}],"outputs":[{"name":"","type":"bool","internalType":"bool"}],"stateMutability":"view"},{"type":"function","name":"strategyWhitelister","inputs":[],"outputs":[{"name":"","type":"address","internalType":"address"}],"stateMutability":"view"},{"type":"function","name":"thirdPartyTransfersForbidden","inputs":[{"name":"","type":"address","internalType":"contract IStrategy"}],"outputs":[{"name":"","type":"bool","internalType":"bool"}],"stateMutability":"view"},{"type":"function","name":"transferOwnership","inputs":[{"name":"newOwner","type":"address","internalType":"address"}],"outputs":[],"stateMutability":"nonpayable"},{"type":"function","name":"updateStakerStrategyL1BackShares","inputs":[{"name":"staker","type":"address","internalType":"address"},{"name":"strategy","type":"address","internalType":"contract IStrategy"},{"name":"shares","type":"uint256","internalType":"uint256"}],"outputs":[],"stateMutability":"nonpayable"},{"type":"function","name":"withdrawSharesAsWeth","inputs":[{"name":"recipient","type":"address","internalType":"address"},{"name":"strategy","type":"address","internalType":"contract IStrategy"},{"name":"shares","type":"uint256","internalType":"uint256"},{"name":"weth","type":"address","internalType":"contract IERC20"}],"outputs":[],"stateMutability":"nonpayable"},{"type":"function","name":"withdrawalRootPending","inputs":[{"name":"","type":"bytes32","internalType":"bytes32"}],"outputs":[{"name":"","type":"bool","internalType":"bool"}],"stateMutability":"view"},{"type":"event","name":"Deposit","inputs":[{"name":"staker","type":"address","indexed":false,"internalType":"address"},{"name":"weth","type":"address","indexed":false,"internalType":"contract IERC20"},{"name":"strategy","type":"address","indexed":false,"internalType":"contract IStrategy"},{"name":"shares","type":"uint256","indexed":false,"internalType":"uint256"}],"anonymous":false},{"type":"event","name":"Initialized","inputs":[{"name":"version","type":"uint64","indexed":false,"internalType":"uint64"}],"anonymous":false},{"type":"event","name":"MigrateRelatedL1StakerShares","inputs":[{"name":"staker","type":"address","indexed":false,"internalType":"address"},{"name":"strategy","type":"address","indexed":false,"internalType":"contract IStrategy"},{"name":"shares","type":"uint256","indexed":false,"internalType":"uint256"},{"name":"l1UnStakeMessageNonce","type":"uint256","indexed":false,"internalType":"uint256"}],"anonymous":false},{"type":"event","name":"OwnershipTransferred","inputs":[{"name":"previousOwner","type":"address","indexed":true,"internalType":"address"},{"name":"newOwner","type":"address","indexed":true,"internalType":"address"}],"anonymous":false},{"type":"event","name":"StrategyAddedToDepositWhitelist","inputs":[{"name":"strategy","type":"address","indexed":false,"internalType":"contract IStrategy"}],"anonymous":false},{"type":"event","name":"StrategyRemovedFromDepositWhitelist","inputs":[{"name":"strategy","type":"address","indexed":false,"internalType":"contract IStrategy"}],"anonymous":false},{"type":"event","name":"StrategyWhitelisterChanged","inputs":[{"name":"previousAddress","type":"address","indexed":false,"internalType":"address"},{"name":"newAddress","type":"address","indexed":false,"internalType":"address"}],"anonymous":false},{"type":"event","name":"UpdatedThirdPartyTransfersForbidden","inputs":[{"name":"strategy","type":"address","indexed":false,"internalType":"contract IStrategy"},{"name":"value","type":"bool","indexed":false,"internalType":"bool"}],"anonymous":false},{"type":"error","name":"AddressEmptyCode","inputs":[{"name":"target","type":"address","internalType":"address"}]},{"type":"error","name":"AddressInsufficientBalance","inputs":[{"name":"account","type":"address","internalType":"address"}]},{"type":"error","name":"ECDSAInvalidSignature","inputs":[]},{"type":"error","name":"ECDSAInvalidSignatureLength","inputs":[{"name":"length","type":"uint256","internalType":"uint256"}]},{"type":"error","name":"ECDSAInvalidSignatureS","inputs":[{"name":"s","type":"bytes32","internalType":"bytes32"}]},{"type":"error","name":"FailedInnerCall","inputs":[]},{"type":"error","name":"InvalidInitialization","inputs":[]},{"type":"error","name":"NotInitializing","inputs":[]},{"type":"error","name":"OwnableInvalidOwner","inputs":[{"name":"owner","type":"address","internalType":"address"}]},{"type":"error","name":"OwnableUnauthorizedAccount","inputs":[{"name":"account","type":"address","internalType":"address"}]},{"type":"error","name":"ReentrancyGuardReentrantCall","inputs":[]},{"type":"error","name":"SafeERC20FailedOperation","inputs":[{"name":"token","type":"address","internalType":"address"}]}],"bytecode":{"object":"0x60a080604052346100c6577ff0c57e16840df040f15088dc2f81fe391c3923bec73e23a9662efc9c229c6a009081549060ff8260401c166100b757506001600160401b036002600160401b031982821601610072575b46608052604051612ff99081620000cc823960805181611e670152f35b6001600160401b031990911681179091556040519081527fc7f505b2f371ae2175ee4913f4499e1f2633a7b5936321eed1cdaeb6115181d290602090a1388080610055565b63f92ee8a960e01b8152600490fd5b600080fdfe6040608081526004908136101561001557600080fd5b600091823560e01c9081630891e0ed1461149957816320606b701461145e57816348825e94146114235781634e5a4263146113e0578163663c1de4146113a2578163715018a61461133857816372e80be61461123857816378dab7a8146111485781637a7e0d92146110ff5781637ecebe00146110c75781638406c0791461109e5781638b8aac3c146110665781638c80d4e5146110355781638da5cb5b14610fff57816394f649dd14610ec95781639573ddbb14610de0578163967fc0d214610db75781639b4da03d14610d795781639fd0506d14610d50578163b134427114610d27578163b43b514b14610d11578163b5d8b5b814610bd6578163c3c6b3a914610ba9578163c4623ea114610b5d578163c665670214610b38578163c75a04b714610ac7578163cbc2bd6214610a6e578163cbc336c214610804578163cc2a9a5b1461064e578163cd293f6f146105e7578163df5b354714610421578163df5cf723146103f8578163e10456fe146102a4578163f0249f1914610287578163f2fde38b1461022d57508063f698da251461020a5763fd769186146101ba57600080fd5b346102065780600319360112610206576020916101d56116ca565b826101de6116e5565b6001600160a01b03928316845260058652922091166000908152908352819020549051908152f35b5080fd5b5034610206578160031936011261020657602090610226611e64565b9051908152f35b905034610283576020366003190112610283576102486116ca565b9161025161234e565b6001600160a01b0383161561026d578361026a84612387565b80f35b51631e4fbdf760e01b8152908101839052602490fd5b8280fd5b5050346102065780600319360112610206576020916101d56116ca565b91905034610283576080366003190112610283576102c06116ca565b916102c96116e5565b90604435906102d6611725565b9460018060a01b0380916102ef82603354163314611ca6565b169384885260056020528186892091169081895260205283868920541061036957908188959493923b156103655760649386928851998a978896636ce5768960e11b885287015216602485015260448401525af190811561035c5750610353575080f35b61026a9061173b565b513d84823e3d90fd5b8580fd5b855162461bcd60e51b8152602081850152605c60248201527f53747261746567794d616e616765722e7769746864726177536861726573417360448201527f576574683a20546865204c6179657231206f662044455448206861736e27742060648201527f6265656e20636f6d706c6574656c792072656c65617365642079657400000000608482015260a490fd5b50503461020657816003193601126102065760335490516001600160a01b039091168152602090f35b9050346102835781600319360112610283576001600160401b0381358181116105e3576104519036908401611a8c565b90916024359081116103655761046a9036908501611a8c565b92909360018060a01b039061048482600254163314611c05565b8484036105665750865b838110610499578780f35b816104ad6104a8838787611db8565b611dc8565b168852600960209080825260ff898b205416156104cf575b505060010161048e565b907f0c35b17d91c96eb2751cd456e1252f42a386e524ef9ff26ecc9950859fdc04fe91846105016104a8868a8a611db8565b168b528152888a20805460ff191660011790556105226104a8848888611db8565b848a5191168152a16105386104a8828686611db8565b90610544818789611db8565b359182151583036105625760019261055b916122f5565b90386104c5565b8980fd5b60a490602088519162461bcd60e51b8352820152604b60248201527f53747261746567794d616e616765722e61646453747261746567696573546f4460448201527f65706f73697457686974656c6973743a206172726179206c656e67746873206460648201526a0de40dcdee840dac2e8c6d60ab1b6084820152fd5b8480fd5b82843461064b576106146105fa366118da565b61060f60018060a01b03603354163314611ca6565b611d17565b8282828152600760205220805460ff811661063a575b5050825191151582526020820152f35b60ff1916905560019150838061062a565b80fd5b9050346102835760c0366003190112610283576106696116ca565b906106726116e5565b61067a6116fb565b6064356001600160a01b0381811693909291849003610800576084358381168091036107fc5760a43591848316809303610562577ff0c57e16840df040f15088dc2f81fe391c3923bec73e23a9662efc9c229c6a0097885460ff818c1c1615986001600160401b038216801590816107f4575b60011490816107ea575b1590816107e1575b506107d3575067ffffffffffffffff1981166001178a5561073a9291610735918a6107b4575b5061072e612d45565b8d55612387565b612cf7565b6001600160601b0360a01b9485603354161760335584603454161760345583603554161760355516906036541617603655610773578280f35b805468ff00000000000000001916905551600181527fc7f505b2f371ae2175ee4913f4499e1f2633a7b5936321eed1cdaeb6115181d290602090a138808280f35b68ffffffffffffffffff191668010000000000000001178b5538610725565b8b5163f92ee8a960e01b8152fd5b905015386106ff565b303b1591506106f7565b8b91506106ed565b8880fd5b8780fd5b8383346102065760a03660031901126102065761081f6116ca565b6108276116fb565b6001600160401b03936064356084358681116102835761084a90369089016117d6565b91610853611e9c565b6035548651631c187a5960e11b8152602098916001600160a01b0391908a9082908d90829086165afa908115610a64578491610a37575b50156109ce5780871690818452600b8a526108ab60ff8a8620541615611b02565b6108b742861015611b87565b86169384845260018a5288842054928951918b8301937fc30199eab143dcbbc0ef8cbfd8b775cd4bca1eb79e78a127fe762ed2304163458552878c850152606084015260243560808401528460a084015260c083015260c0825260e0820190828210908211176109bb5789525190209282526001808952918790209101905561099093929161098b9161097461098261094e611e64565b9289519283918c83019586909160429261190160f01b8352600283015260228201520190565b03601f19810183528261179a565b51902083611ede565b6126ae565b9060017f9b779b17422d0df92223018b32b4d1fa46e071723d6817e2486d003becc55f005551908152f35b634e487b7160e01b855260418c52602485fd5b875162461bcd60e51b8152808b018a9052603a60248201527f53747261746567794d616e616765723a6465706f736974455448496e746f537460448201527f726174656779576974685369676e6174757265207061757365640000000000006064820152608490fd5b610a5791508a3d8c11610a5d575b610a4f818361179a565b810190611aea565b8b61088a565b503d610a45565b89513d86823e3d90fd5b505034610206578060031936011261020657610a886116ca565b6001600160a01b03908116835260066020528183208054602435949085101561064b5750602093610ab891611abc565b92905490519260031b1c168152f35b90503461028357610ad73661181d565b6001600160a01b03918216808752600960205285872054919593909291610b009060ff16611ddc565b16855260056020528185209085526020528320908154928303928311610b2557505580f35b634e487b7160e01b845260119052602483fd5b833461064b57602036600319011261064b5761026a610b556116ca565b61073561234e565b833461064b57608036600319011261064b5761026a610b7a6116ca565b610b826116e5565b610b8a6116fb565b90610ba060018060a01b03603354163314611ca6565b60643592612a9a565b905034610283576020366003190112610283578160209360ff923581526007855220541690519015158152f35b919050346102835760209182600319360112610d0d578035906001600160401b0382116105e357610c0991369101611a8c565b6002546001600160a01b039492939290610c269086163314611c05565b855b828110610c33578680f35b8086610c456104a8600194878a611db8565b168852600980845260ff868a205416610c60575b5001610c28565b87610c6f6104a884888b611db8565b168952835284882060ff19908181541690557f4074413b4b443e4e58019f2855a8765113358c7c72e39509c6af45fc0f5ba03084610cb16104a885898c611db8565b8a895191168152a1610cc76104a883878a611db8565b7f77d930df4937793473a95024d87a98fd2ccb9e92d3c2463b3dacd65d3e6a5786878a81519316928381528c88820152a18952600b845285892090815416905538610c59565b8380fd5b5050346102065760209061022661060f366118da565b50503461020657816003193601126102065760345490516001600160a01b039091168152602090f35b50503461020657816003193601126102065760355490516001600160a01b039091168152602090f35b5050346102065760203660031901126102065760209160ff9082906001600160a01b03610da46116ca565b168152600b855220541690519015158152f35b50503461020657816003193601126102065760025490516001600160a01b039091168152602090f35b82846020928360031936011261020657610df86116ca565b91610e01611e9c565b6035548451631c187a5960e11b81529086908290859082906001600160a01b03165afa918215610ebe5791610ea1575b5015610e42575061099090336126ae565b825162461bcd60e51b8152908101849052603360248201527f53747261746567794d616e616765722e742e736f6c3a6465706f736974455448604482015272125b9d1bd4dd1c985d1959de481c185d5cd959606a1b6064820152608490fd5b610eb89150853d8711610a5d57610a4f818361179a565b85610e31565b8551903d90823e3d90fd5b83833461020657602080600319360112610283576001600160a01b039384610eef6116ca565b168085526006916006845284862054610f07816118c3565b93610f148751958661179a565b818552601f19610f23836118c3565b013687870137875b828110610fa8575050505084526006825282842094835194858488549182815201978252848220915b818110610f92578787610f8e8888610f6e858f038661179a565b610f818451958587968752860190611852565b918483039085015261188f565b0390f35b8254841689529785019760019283019201610f54565b8489528387528789208288528a610fc1838b8d20611abc565b90549060031b1c168a528752878920548651821015610fec57600582901b8701880152600101610f2b565b634e487b7160e01b8a526032855260248afd5b505034610206578160031936011261020657600080516020612f848339815191525490516001600160a01b039091168152602090f35b833461064b576110626110473661181d565b9161105d60018060a01b03603354163314611ca6565b6123dd565b5080f35b5050346102065760203660031901126102065760209181906001600160a01b0361108e6116ca565b1681526006845220549051908152f35b50503461020657816003193601126102065760365490516001600160a01b039091168152602090f35b5050346102065760203660031901126102065760209181906001600160a01b036110ef6116ca565b1681526001845220549051908152f35b905034610283578160031936011261028357602092829161111e6116ca565b6111266116e5565b6001600160a01b03918216845291865283832091168252845220549051908152f35b9050823461064b57608036600319011261064b576111646116ca565b9061116d6116e5565b6036546001600160a01b03946044359492939291861633036111f5576020877fce34b7dd67090a34b625a73404430e44a695f90160883cd318b40858e856a2b66080898989858a848b169485825260058a528282209316928382528952206111d6838254611c83565b9055855192835286830152848201526064356060820152a15160018152f35b606490602088519162461bcd60e51b8352820152601b60248201527f53747261746567794d616e616765722e6f6e6c7952656c6179657200000000006044820152fd5b9050823461064b57606036600319011261064b576112546116ca565b9161125d6116e5565b91611266611e9c565b6035548551631c187a5960e11b8152906020908290859082906001600160a01b03165afa91821561132d579161130e575b50156112ae57602084610990604435858733612148565b608490602085519162461bcd60e51b8352820152603460248201527f53747261746567794d616e616765722e742e736f6c3a6465706f73697457455460448201527312125b9d1bd4dd1c985d1959de481c185d5cd95960621b6064820152fd5b611327915060203d602011610a5d57610a4f818361179a565b85611297565b8651903d90823e3d90fd5b833461064b578060031936011261064b5761135161234e565b600080516020612f8483398151915280546001600160a01b0319811690915581906001600160a01b03167f8be0079c531659141344cd1fd0a4f28419497f9722a3daafe3b4186f6b6457e08280a380f35b5050346102065760203660031901126102065760209160ff9082906001600160a01b036113cd6116ca565b1681526009855220541690519015158152f35b5050346102065736600319011261064b576113f96116ca565b60243580151581036102835761026a9161141e60018060a01b03600254163314611c05565b6122f5565b505034610206578160031936011261020657602090517fc30199eab143dcbbc0ef8cbfd8b775cd4bca1eb79e78a127fe762ed2304163458152f35b505034610206578160031936011261020657602090517f8cad95687ba82c2ce50e74f7b754645e5117c3a5bec8151c0726d5857980a8668152f35b8383346102065760c0366003190112610206576114b46116ca565b6114bc6116e5565b604435916114c8611725565b6001600160401b039560843560a435888111610283576114eb9036908b016117d6565b916114f4611e9c565b6035548851631c187a5960e11b815260209a6001600160a01b0394929091908c9082908f90829089165afa9081156116c05784916116a3575b501561163a578a8a9185891693848652600b835261155160ff858820541615611b02565b61155d42821015611b87565b86891696878752600184528487205495888651958601967fc30199eab143dcbbc0ef8cbfd8b775cd4bca1eb79e78a127fe762ed230416345885286015260608501528b1660808401528b60a08401528460c084015260e083015260e0825261010082019082821090821117611626578b525190209282526001808b5291899020910190556109909594939291611621916115f5611e64565b895161190160f01b818d0190815260028101929092526022820192909252906109828160428401610974565b612148565b50634e487b7160e01b845260418d52602484fd5b895162461bcd60e51b8152808d018c9052603b60248201527f53747261746567794d616e616765723a6465706f73697457455448496e746f5360448201527f74726174656779576974685369676e61747572652070617573656400000000006064820152608490fd5b6116ba91508c8d3d10610a5d57610a4f818361179a565b8d61152d565b8b513d86823e3d90fd5b600435906001600160a01b03821682036116e057565b600080fd5b602435906001600160a01b03821682036116e057565b604435906001600160a01b03821682036116e057565b35906001600160a01b03821682036116e057565b606435906001600160a01b03821682036116e057565b6001600160401b03811161174e57604052565b634e487b7160e01b600052604160045260246000fd5b604081019081106001600160401b0382111761174e57604052565b60a081019081106001600160401b0382111761174e57604052565b90601f801991011681019081106001600160401b0382111761174e57604052565b6001600160401b03811161174e57601f01601f191660200190565b81601f820112156116e0578035906117ed826117bb565b926117fb604051948561179a565b828452602083830101116116e057816000926020809301838601378301015290565b60609060031901126116e0576001600160a01b039060043582811681036116e0579160243590811681036116e0579060443590565b90815180825260208080930193019160005b828110611872575050505090565b83516001600160a01b031685529381019392810192600101611864565b90815180825260208080930193019160005b8281106118af575050505090565b8351855293810193928101926001016118a1565b6001600160401b03811161174e5760051b60200190565b60031990602082820181136116e057600435916001600160401b03938484116116e05760e0848303918201126116e05760409182519560c087018781108282111761174e57845285600401358181116116e0578601826023820112156116e057600481013590611949826118c3565b916119568751938461179a565b80835260248884019160051b830101918583116116e0576024899101915b838310611a745750505050875260248601359081116116e057850190806023830112156116e05760048201356119a9816118c3565b926119b68651948561179a565b81845260248785019260051b8201019283116116e05790866024879695949301915b838310611a6157509150508701526119f260448601611711565b8683015260631901126116e0575190611a0a82611764565b611a1660648401611711565b82526084830135906001600160601b03821682036116e057820152606083015260a481013563ffffffff811681036116e0576080830152611a599060c401611711565b60a082015290565b82358152879650918101918891016119d8565b8190611a7f84611711565b8152019101908890611974565b9181601f840112156116e0578235916001600160401b0383116116e0576020808501948460051b0101116116e057565b8054821015611ad45760005260206000200190600090565b634e487b7160e01b600052603260045260246000fd5b908160209103126116e0575180151581036116e05790565b15611b0957565b60405162461bcd60e51b815260206004820152604a60248201527f53747261746567794d616e616765722e6465706f736974496e746f537472617460448201527f656779576974685369676e61747572653a207468697264207472616e736665726064820152691cc8191a5cd8589b195960b21b608482015260a490fd5b15611b8e57565b60405162461bcd60e51b815260206004820152604360248201527f53747261746567794d616e616765722e6465706f736974496e746f537472617460448201527f656779576974685369676e61747572653a207369676e617475726520657870696064820152621c995960ea1b608482015260a490fd5b15611c0c57565b60a460405162461bcd60e51b815260206004820152604460248201527f53747261746567794d616e616765722e6f6e6c7953747261746567795768697460448201527f656c69737465723a206e6f742074686520737472617465677957686974656c6960648201526339ba32b960e11b6084820152fd5b91908201809211611c9057565b634e487b7160e01b600052601160045260246000fd5b15611cad57565b608460405162461bcd60e51b815260206004820152604060248201527f53747261746567794d616e616765722e6f6e6c7944656c65676174696f6e4d6160448201527f6e616765723a206e6f74207468652044656c65676174696f6e4d616e616765726064820152fd5b611d73611db260e092805160208201519160018060a01b0380604083015116916001600160601b03602060608301518460a063ffffffff6080870151169501511694611d866040519b8c99858b019e8f526101008b0190611852565b601f199a8b8b83030160408c015261188f565b966060890152815116608088015201511660a085015260c084015260e08301520390810183528261179a565b51902090565b9190811015611ad45760051b0190565b356001600160a01b03811681036116e05790565b15611de357565b60405162461bcd60e51b815260206004820152604d60248201527f53747261746567794d616e616765722e6f6e6c7953747261746567696573576860448201527f6974656c6973746564466f724465706f7369743a207374726174656779206e6f60648201526c1d081dda1a5d195b1a5cdd1959609a1b608482015260a490fd5b467f000000000000000000000000000000000000000000000000000000000000000003611e915760005490565b611e99612d45565b90565b7f9b779b17422d0df92223018b32b4d1fa46e071723d6817e2486d003becc55f006002815414611ecc5760029055565b604051633ee5aeb560e01b8152600490fd5b909190803b1561204f576040518092630b135d3f60e11b9485835260048301526040602483015280519081604484015260005b82811061203757505091816064818560008360209884010152601f8019910116810103019160018060a01b03165afa90811561202b57600091611fe8575b506001600160e01b03191603611f6157565b60405162461bcd60e51b815260206004820152605360248201527f454950313237315369676e61747572655574696c732e636865636b5369676e6160448201527f747572655f454950313237313a2045524331323731207369676e6174757265206064820152721d995c9a599a58d85d1a5bdb8819985a5b1959606a1b608482015260a490fd5b6020813d602011612023575b816120016020938361179a565b810103126102065751906001600160e01b03198216820361064b575038611f4f565b3d9150611ff4565b6040513d6000823e3d90fd5b60208282018101516064888401015286945001611f11565b90916040519260208401917f19457468657265756d205369676e6564204d6573736167653a0a3332000000008352603c850152603c845260608401918483106001600160401b0384111761174e576120b9946120b093604052519020612dcf565b90939193612e0b565b6001600160a01b039081169116036120cd57565b60405162461bcd60e51b815260206004820152604760248201527f454950313237315369676e61747572655574696c732e636865636b5369676e6160448201527f747572655f454950313237313a207369676e6174757265206e6f742066726f6d6064820152661039b4b3b732b960c91b608482015260a490fd5b6001600160a01b0380831660008181526009602090815260408083205491989097929694939161217a9060ff16611ddc565b87516121c688808c84016323b872dd60e01b8152336024860152866044860152856064860152606485526121ad8561177f565b88881694519082865af16121bf612a6a565b9083612f20565b8051908b82151592836122dc575b5050506122c5579060448a92898b5195869485936311f9fbc960e21b8552600485015260248401525af19788156122bb578698612287575b5050868361221a9286612a9a565b6033541691823b15610d0d578451631452b9d760e11b81526001600160a01b039182166004820152911660248201526044810185905292919081908490818381606481015b03925af191821561227d575050612274575090565b611e999061173b565b51903d90823e3d90fd5b90809293949850813d83116122b4575b6122a1818361179a565b810103126105e35751959190808361220c565b503d612297565b87513d88823e3d90fd5b602490895190635274afe760e01b82526004820152fd5b6122ec9350820181019101611aea565b15388b816121d4565b907f77d930df4937793473a95024d87a98fd2ccb9e92d3c2463b3dacd65d3e6a5786604080519360018060a01b031692838552151593846020820152a1600052600b60205260406000209060ff80198354169116179055565b600080516020612f84833981519152546001600160a01b0316330361236f57565b60405163118cdaa760e01b8152336004820152602490fd5b600080516020612f8483398151915280546001600160a01b039283166001600160a01b0319821681179092559091167f8be0079c531659141344cd1fd0a4f28419497f9722a3daafe3b4186f6b6457e0600080a3565b82156126435760018060a01b03809116600093818552600491602090838252604092858489209716968789528352838820548082116125e457828952858452848920888a528452818103858a2055146124395750505050505090565b9091929395948186526006808452848720549187915b838310612522575b5050146124a85790600691855252822091825491821561249557505060001901916124828383611abc565b909182549160031b1b1916905555600190565b634e487b7160e01b825260319052602490fd5b50905162461bcd60e51b815291820152604960248201527f53747261746567794d616e616765722e5f72656d6f766553747261746567794660448201527f726f6d5374616b657253747261746567794c6973743a207374726174656779206064820152681b9bdd08199bdd5b9960ba1b608482015260a490fd5b909897969594939291838852818552888a61253f83898c20611abc565b929054600393841b1c16146125625750600101989098919293949596979861244f565b9092938881969798999a9b505281865286892080549060001982019182116125d157916125948c926125ca9594611abc565b9054911b1c1690858a5286526125ac83888b20611abc565b90919060018060a01b038084549260031b9316831b921b1916179055565b3880612457565b634e487b7160e01b8b5260118a5260248bfd5b845162461bcd60e51b8152808701859052603360248201527f53747261746567794d616e616765722e5f72656d6f76655368617265733a20736044820152720d0c2e4ca82dadeeadce840e8dede40d0d2ced606b1b6064820152608490fd5b60405162461bcd60e51b815260206004820152603e60248201527f53747261746567794d616e616765722e5f72656d6f76655368617265733a207360448201527f68617265416d6f756e742073686f756c64206e6f74206265207a65726f2100006064820152608490fd5b919060018060a01b0380821691600094838652602092600984526040936126da60ff868a205416611ddc565b87808080348a5af16126ea612a6a565b50156129f657908792918551966311f9fbc960e21b885273eeeeeeeeeeeeeeeeeeeeeeeeeeeeeeeeeeeeeeee8289604481600499858b830152346024830152865af19889156129ec578b996129b9575b508385169283156129555789156128f457838c52868152888c20838d528152888c81812054156127fc575b9185939183600080516020612fa48339815191529760809795528a83528181208582528352206127968d8254611c83565b90558a5193845283015288820152886060820152a16033541691823b15610800578451631452b9d760e11b81526001600160a01b03928316918101918252919093166020840152604083018590529495939493918291859182908490829060600161225f565b859150526006815280898d2054101561287357838c5260068152888c20805490600160401b82101561286057918a8e6128538c6125ac8660809a986001600080516020612fa48339815191529d9b99018155611abc565b9193955091939550612765565b634e487b7160e01b8e526041895260248efd5b8660a4918a519162461bcd60e51b8352820152605060248201527f53747261746567794d616e616765722e5f6164645368617265733a206465706f60448201527f73697420776f756c6420657863656564204d41585f5354414b45525f5354524160648201526f0a88a8eb2be9892a6a8be988a9c8ea8960831b6084820152fd5b866084918a519162461bcd60e51b8352820152603660248201527f53747261746567794d616e616765722e5f6164645368617265733a207368617260448201527565732073686f756c64206e6f74206265207a65726f2160501b6064820152fd5b866084918a519162461bcd60e51b8352820152603960248201527f53747261746567794d616e616765722e5f6164645368617265733a207374616b60448201527865722063616e6e6f74206265207a65726f206164647265737360381b6064820152fd5b9098508281813d83116129e5575b6129d1818361179a565b810103126129e15751973861273a565b8a80fd5b503d6129c7565b88513d8d823e3d90fd5b60a49085519062461bcd60e51b82526004820152604260248201527f53747261746567794d616e616765722e5f6465706f736974455448496e746f5360448201527f747261746567793a2073656e642065746820746f2073747261746567792066616064820152611a5b60f21b6084820152fd5b3d15612a95573d90612a7b826117bb565b91612a89604051938461179a565b82523d6000602084013e565b606090565b6001600160a01b0394939085169290918315612c90578215612c2c57600095848752602090600482526040928389209482811695868b528452848a205415612b2b575b5090839291879695948a608099600080516020612fa48339815191529b9c5260048552818120878252855220612b14878254611c83565b9055835196875216908501528301526060820152a1565b878a526006845283858b20541015612ba957878a5260068452848a20805490600160401b821015612b95579a612b8587969594936125ac84600080516020612fa48339815191529e9f600160809f9e9d9c97018155611abc565b9a99505090919293949596612add565b634e487b7160e01b8c52604160045260248cfd5b845162461bcd60e51b815260048101859052605060248201527f53747261746567794d616e616765722e5f6164645368617265733a206465706f60448201527f73697420776f756c6420657863656564204d41585f5354414b45525f5354524160648201526f0a88a8eb2be9892a6a8be988a9c8ea8960831b608482015260a490fd5b60405162461bcd60e51b815260206004820152603660248201527f53747261746567794d616e616765722e5f6164645368617265733a207368617260448201527565732073686f756c64206e6f74206265207a65726f2160501b6064820152608490fd5b60405162461bcd60e51b815260206004820152603960248201527f53747261746567794d616e616765722e5f6164645368617265733a207374616b60448201527865722063616e6e6f74206265207a65726f206164647265737360381b6064820152608490fd5b6002547f4264275e593955ff9d6146a51a4525f6ddace2e81db9391abcc9d1ca48047d29604060018060a01b0381519481851686521693846020820152a16001600160a01b03191617600255565b67446170704c696e6b60c01b6020604051612d5f81611764565b60088152015260405160208101907f8cad95687ba82c2ce50e74f7b754645e5117c3a5bec8151c0726d5857980a86682527fdadb978fc98e6e975439bb996be670dd8e228496518e61b3cb48e91f9251c40d604082015246606082015230608082015260808152611db28161177f565b8151919060418303612e0057612df992506020820151906060604084015193015160001a90612e90565b9192909190565b505060009160029190565b6004811015612e7a5780612e1d575050565b60018103612e375760405163f645eedf60e01b8152600490fd5b60028103612e585760405163fce698f760e01b815260048101839052602490fd5b600314612e625750565b602490604051906335e2f38360e21b82526004820152fd5b634e487b7160e01b600052602160045260246000fd5b91907f7fffffffffffffffffffffffffffffff5d576e7357a4501ddfe92f46681b20a08411612f1457926020929160ff608095604051948552168484015260408301526060820152600092839182805260015afa15612f085780516001600160a01b03811615612eff57918190565b50809160019190565b604051903d90823e3d90fd5b50505060009160039190565b90612f475750805115612f3557805190602001fd5b604051630a12f52160e11b8152600490fd5b81511580612f7a575b612f58575090565b604051639996b31560e01b81526001600160a01b039091166004820152602490fd5b50803b15612f5056fe9016d09d72d40fdae2fd8ceac6b6234c7706214fd39c1cd1e609a0528c1993007cfff908a4b583f36430b25d75964c458d8ede8a99bd61be750e97ee1b2f3a96a2646970667358221220ac866b58a6fe13ed272e36d61175fa0f7b721dab916288f364c23c3e4b4fb16f64736f6c63430008180033","linkReferences":{}},"methodIdentifiers":{"DEPOSIT_TYPEHASH()":"48825e94","DOMAIN_TYPEHASH()":"20606b70","addShares(address,address,address,uint256)":"c4623ea1","addStrategiesToDepositWhitelist(address[],bool[])":"df5b3547","calculateWithdrawalRoot((address[],uint256[],address,(address,uint96),uint32,address))":"b43b514b","delegation()":"df5cf723","depositETHIntoStrategy(address)":"9573ddbb","depositETHIntoStrategyWithSignature(address,uint256,address,uint256,bytes)":"cbc336c2","depositWETHIntoStrategy(address,address,uint256)":"72e80be6","depositWETHIntoStrategyWithSignature(address,address,uint256,address,uint256,bytes)":"0891e0ed","domainSeparator()":"f698da25","getDeposits(address)":"94f649dd","getStakerStrategyL1BackShares(address,address)":"f0249f19","initialize(address,address,address,address,address,address)":"cc2a9a5b","migrateQueuedWithdrawal((address[],uint256[],address,(address,uint96),uint32,address))":"cd293f6f","migrateRelatedL1StakerShares(address,address,uint256,uint256)":"78dab7a8","nonces(address)":"7ecebe00","owner()":"8da5cb5b","pauser()":"9fd0506d","relayer()":"8406c079","removeShares(address,address,uint256)":"8c80d4e5","removeStrategiesFromDepositWhitelist(address[])":"b5d8b5b8","renounceOwnership()":"715018a6","setStrategyWhitelister(address)":"c6656702","setThirdPartyTransfersForbidden(address,bool)":"4e5a4263","slasher()":"b1344271","stakerStrategyL1BackShares(address,address)":"fd769186","stakerStrategyList(address,uint256)":"cbc2bd62","stakerStrategyListLength(address)":"8b8aac3c","stakerStrategyShares(address,address)":"7a7e0d92","strategyIsWhitelistedForDeposit(address)":"663c1de4","strategyWhitelister()":"967fc0d2","thirdPartyTransfersForbidden(address)":"9b4da03d","transferOwnership(address)":"f2fde38b","updateStakerStrategyL1BackShares(address,address,uint256)":"c75a04b7","withdrawSharesAsWeth(address,address,uint256,address)":"e10456fe","withdrawalRootPending(bytes32)":"c3c6b3a9"},"id":76}