{
  "abi": [
    {
      "type": "constructor",
      "inputs": [],
      "stateMutability": "nonpayable"
    },
    {
      "type": "function",
      "name": "deposit",
      "inputs": [
        {
          "name": "token",
          "type": "address",
          "internalType": "contract IERC20"
        },
        {
          "name": "amount",
          "type": "uint256",
          "internalType": "uint256"
        }
      ],
      "outputs": [
        {
          "name": "newShares",
          "type": "uint256",
          "internalType": "uint256"
        }
      ],
      "stateMutability": "nonpayable"
    },
    {
      "type": "function",
      "name": "explanation",
      "inputs": [],
      "outputs": [
        {
          "name": "",
          "type": "string",
          "internalType": "string"
        }
      ],
      "stateMutability": "pure"
    },
    {
      "type": "function",
      "name": "initialize",
      "inputs": [
        {
          "name": "_underlyingToken",
          "type": "address",
          "internalType": "contract IERC20"
        },
        {
          "name": "_relayer",
          "type": "address",
          "internalType": "address"
        },
        {
          "name": "_pauserRegistry",
          "type": "address",
          "internalType": "contract IPauserRegistry"
        },
        {
          "name": "_strategyManager",
          "type": "address",
          "internalType": "contract IStrategyManager"
        }
      ],
      "outputs": [],
      "stateMutability": "nonpayable"
    },
    {
      "type": "function",
      "name": "pause",
      "inputs": [
        {
          "name": "newPausedStatus",
          "type": "uint256",
          "internalType": "uint256"
        }
      ],
      "outputs": [],
      "stateMutability": "nonpayable"
    },
    {
      "type": "function",
      "name": "pauseAll",
      "inputs": [],
      "outputs": [],
      "stateMutability": "nonpayable"
    },
    {
      "type": "function",
      "name": "paused",
      "inputs": [
        {
          "name": "index",
          "type": "uint8",
          "internalType": "uint8"
        }
      ],
      "outputs": [
        {
          "name": "",
          "type": "bool",
          "internalType": "bool"
        }
      ],
      "stateMutability": "view"
    },
    {
      "type": "function",
      "name": "paused",
      "inputs": [],
      "outputs": [
        {
          "name": "",
          "type": "uint256",
          "internalType": "uint256"
        }
      ],
      "stateMutability": "view"
    },
    {
      "type": "function",
      "name": "pauserRegistry",
      "inputs": [],
      "outputs": [
        {
          "name": "",
          "type": "address",
          "internalType": "contract IPauserRegistry"
        }
      ],
      "stateMutability": "view"
    },
    {
      "type": "function",
      "name": "relayer",
      "inputs": [],
      "outputs": [
        {
          "name": "",
          "type": "address",
          "internalType": "address"
        }
      ],
      "stateMutability": "view"
    },
    {
      "type": "function",
      "name": "setPauserRegistry",
      "inputs": [
        {
          "name": "newPauserRegistry",
          "type": "address",
          "internalType": "contract IPauserRegistry"
        }
      ],
      "outputs": [],
      "stateMutability": "nonpayable"
    },
    {
      "type": "function",
      "name": "shares",
      "inputs": [
        {
          "name": "user",
          "type": "address",
          "internalType": "address"
        }
      ],
      "outputs": [
        {
          "name": "",
          "type": "uint256",
          "internalType": "uint256"
        }
      ],
      "stateMutability": "view"
    },
    {
      "type": "function",
      "name": "sharesToUnderlying",
      "inputs": [
        {
          "name": "amountShares",
          "type": "uint256",
          "internalType": "uint256"
        }
      ],
      "outputs": [
        {
          "name": "",
          "type": "uint256",
          "internalType": "uint256"
        }
      ],
      "stateMutability": "view"
    },
    {
      "type": "function",
      "name": "sharesToUnderlyingView",
      "inputs": [
        {
          "name": "amountShares",
          "type": "uint256",
          "internalType": "uint256"
        }
      ],
      "outputs": [
        {
          "name": "",
          "type": "uint256",
          "internalType": "uint256"
        }
      ],
      "stateMutability": "view"
    },
    {
      "type": "function",
      "name": "strategyManager",
      "inputs": [],
      "outputs": [
        {
          "name": "",
          "type": "address",
          "internalType": "contract IStrategyManager"
        }
      ],
      "stateMutability": "view"
    },
    {
      "type": "function",
      "name": "tokenETHBalance",
      "inputs": [],
      "outputs": [
        {
          "name": "",
          "type": "uint256",
          "internalType": "uint256"
        }
      ],
      "stateMutability": "view"
    },
    {
      "type": "function",
      "name": "tokenWETHBalance",
      "inputs": [],
      "outputs": [
        {
          "name": "",
          "type": "uint256",
          "internalType": "uint256"
        }
      ],
      "stateMutability": "view"
    },
    {
      "type": "function",
      "name": "totalShares",
      "inputs": [],
      "outputs": [
        {
          "name": "",
          "type": "uint256",
          "internalType": "uint256"
        }
      ],
      "stateMutability": "view"
    },
    {
      "type": "function",
      "name": "transferETHToL2DappLinkBridge",
      "inputs": [
        {
          "name": "sourceChainId",
          "type": "uint256",
          "internalType": "uint256"
        },
        {
          "name": "destChainId",
          "type": "uint256",
          "internalType": "uint256"
        },
        {
          "name": "bridge",
          "type": "address",
          "internalType": "address"
        },
        {
          "name": "gasLimit",
          "type": "uint256",
          "internalType": "uint256"
        }
      ],
      "outputs": [
        {
          "name": "",
          "type": "bool",
          "internalType": "bool"
        }
      ],
      "stateMutability": "payable"
    },
    {
      "type": "function",
      "name": "transferWETHToL2DappLinkBridge",
      "inputs": [
        {
          "name": "sourceChainId",
          "type": "uint256",
          "internalType": "uint256"
        },
        {
          "name": "destChainId",
          "type": "uint256",
          "internalType": "uint256"
        },
        {
          "name": "bridge",
          "type": "address",
          "internalType": "address"
        },
        {
          "name": "gasLimit",
          "type": "uint256",
          "internalType": "uint256"
        }
      ],
      "outputs": [
        {
          "name": "",
          "type": "bool",
          "internalType": "bool"
        }
      ],
      "stateMutability": "payable"
    },
    {
      "type": "function",
      "name": "underlyingToShares",
      "inputs": [
        {
          "name": "amountUnderlying",
          "type": "uint256",
          "internalType": "uint256"
        }
      ],
      "outputs": [
        {
          "name": "",
          "type": "uint256",
          "internalType": "uint256"
        }
      ],
      "stateMutability": "view"
    },
    {
      "type": "function",
      "name": "underlyingToSharesView",
      "inputs": [
        {
          "name": "amountUnderlying",
          "type": "uint256",
          "internalType": "uint256"
        }
      ],
      "outputs": [
        {
          "name": "",
          "type": "uint256",
          "internalType": "uint256"
        }
      ],
      "stateMutability": "view"
    },
    {
      "type": "function",
      "name": "underlyingToken",
      "inputs": [],
      "outputs": [
        {
          "name": "",
          "type": "address",
          "internalType": "contract IERC20"
        }
      ],
      "stateMutability": "view"
    },
    {
      "type": "function",
      "name": "unpause",
      "inputs": [
        {
          "name": "newPausedStatus",
          "type": "uint256",
          "internalType": "uint256"
        }
      ],
      "outputs": [],
      "stateMutability": "nonpayable"
    },
    {
      "type": "function",
      "name": "userUnderlying",
      "inputs": [
        {
          "name": "user",
          "type": "address",
          "internalType": "address"
        }
      ],
      "outputs": [
        {
          "name": "",
          "type": "uint256",
          "internalType": "uint256"
        }
      ],
      "stateMutability": "nonpayable"
    },
    {
      "type": "function",
      "name": "userUnderlyingView",
      "inputs": [
        {
          "name": "user",
          "type": "address",
          "internalType": "address"
        }
      ],
      "outputs": [
        {
          "name": "",
          "type": "uint256",
          "internalType": "uint256"
        }
      ],
      "stateMutability": "view"
    },
    {
      "type": "function",
      "name": "withdraw",
      "inputs": [
        {
          "name": "recipient",
          "type": "address",
          "internalType": "address"
        },
        {
          "name": "token",
          "type": "address",
          "internalType": "contract IERC20"
        },
        {
          "name": "amountShares",
          "type": "uint256",
          "internalType": "uint256"
        }
      ],
      "outputs": [],
      "stateMutability": "nonpayable"
    },
    {
      "type": "event",
      "name": "Initialized",
      "inputs": [
        {
          "name": "version",
          "type": "uint64",
          "indexed": false,
          "internalType": "uint64"
        }
      ],
      "anonymous": false
    },
    {
      "type": "event",
      "name": "Paused",
      "inputs": [
        {
          "name": "account",
          "type": "address",
          "indexed": true,
          "internalType": "address"
        },
        {
          "name": "newPausedStatus",
          "type": "uint256",
          "indexed": false,
          "internalType": "uint256"
        }
      ],
      "anonymous": false
    },
    {
      "type": "event",
      "name": "PauserRegistrySet",
      "inputs": [
        {
          "name": "pauserRegistry",
          "type": "address",
          "indexed": false,
          "internalType": "contract IPauserRegistry"
        },
        {
          "name": "newPauserRegistry",
          "type": "address",
          "indexed": false,
          "internalType": "contract IPauserRegistry"
        }
      ],
      "anonymous": false
    },
    {
      "type": "event",
      "name": "Unpaused",
      "inputs": [
        {
          "name": "account",
          "type": "address",
          "indexed": true,
          "internalType": "address"
        },
        {
          "name": "newPausedStatus",
          "type": "uint256",
          "indexed": false,
          "internalType": "uint256"
        }
      ],
      "anonymous": false
    },
    {
      "type": "error",
      "name": "AddressEmptyCode",
      "inputs": [
        {
          "name": "target",
          "type": "address",
          "internalType": "address"
        }
      ]
    },
    {
      "type": "error",
      "name": "AddressInsufficientBalance",
      "inputs": [
        {
          "name": "account",
          "type": "address",
          "internalType": "address"
        }
      ]
    },
    {
      "type": "error",
      "name": "FailedInnerCall",
      "inputs": []
    },
    {
      "type": "error",
      "name": "InvalidInitialization",
      "inputs": []
    },
    {
      "type": "error",
      "name": "NotInitializing",
      "inputs": []
    },
    {
      "type": "error",
      "name": "SafeERC20FailedOperation",
      "inputs": [
        {
          "name": "token",
          "type": "address",
          "internalType": "address"
        }
      ]
    }
  ],
  "bytecode": {
    "object": "0x608060405234801561001057600080fd5b5061001961001e565b6100d0565b7ff0c57e16840df040f15088dc2f81fe391c3923bec73e23a9662efc9c229c6a00805468010000000000000000900460ff161561006e5760405163f92ee8a960e01b815260040160405180910390fd5b80546001600160401b03908116146100cd5780546001600160401b0319166001600160401b0390811782556040519081527fc7f505b2f371ae2175ee4913f4499e1f2633a7b5936321eed1cdaeb6115181d29060200160405180910390a15b50565b611ccb806100df6000396000f3fe6080604052600436106101815760003560e01c80637a8b2637116100d1578063ac36440a1161008a578063e3dae51c11610064578063e3dae51c1461043f578063f3e738751461045f578063f8c8765e1461047f578063fabc1cbc1461049f57600080fd5b8063ac36440a146103ea578063ce7c2ac2146103ff578063d9caed121461041f57600080fd5b80637a8b2637146103285780638406c07914610348578063886f1195146103685780638c871019146103885780638f6a6240146103a8578063ab5921e1146103c857600080fd5b806347e7ef241161013e578063553ca5f811610118578063553ca5f8146102b2578063595c6a67146102d25780635ac86ab7146102e75780635c975abb1461031357600080fd5b806347e7ef241461026c57806349fcf4a71461028c5780634fcffb8a1461029f57600080fd5b806310d67a2f14610186578063136439dd146101a85780632495a599146101c857806339b70e38146102055780633a98ef39146102255780634102e0c214610249575b600080fd5b34801561019257600080fd5b506101a66101a1366004611915565b6104bf565b005b3480156101b457600080fd5b506101a66101c3366004611932565b610579565b3480156101d457600080fd5b506033546101e8906001600160a01b031681565b6040516001600160a01b0390911681526020015b60405180910390f35b34801561021157600080fd5b506032546101e8906001600160a01b031681565b34801561023157600080fd5b5061023b60355481565b6040519081526020016101fc565b61025c61025736600461194b565b6106b8565b60405190151581526020016101fc565b34801561027857600080fd5b5061023b61028736600461198a565b6108a0565b34801561029857600080fd5b504761023b565b61025c6102ad36600461194b565b610a28565b3480156102be57600080fd5b5061023b6102cd366004611915565b610b22565b3480156102de57600080fd5b506101a6610b36565b3480156102f357600080fd5b5061025c6103023660046119b6565b6001805460ff9092161b9081161490565b34801561031f57600080fd5b5060015461023b565b34801561033457600080fd5b5061023b610343366004611932565b610bfd565b34801561035457600080fd5b506034546101e8906001600160a01b031681565b34801561037457600080fd5b506000546101e8906001600160a01b031681565b34801561039457600080fd5b5061023b6103a3366004611932565b610c40565b3480156103b457600080fd5b5061023b6103c3366004611915565b610c4b565b3480156103d457600080fd5b506103dd610c59565b6040516101fc91906119fd565b3480156103f657600080fd5b5061023b610c79565b34801561040b57600080fd5b5061023b61041a366004611915565b610ceb565b34801561042b57600080fd5b506101a661043a366004611a30565b610d60565b34801561044b57600080fd5b5061023b61045a366004611932565b610f0a565b34801561046b57600080fd5b5061023b61047a366004611932565b610f43565b34801561048b57600080fd5b506101a661049a366004611a71565b610f4e565b3480156104ab57600080fd5b506101a66104ba366004611932565b61108f565b60008054906101000a90046001600160a01b03166001600160a01b031663eab66d7a6040518163ffffffff1660e01b8152600401602060405180830381865afa158015610510573d6000803e3d6000fd5b505050506040513d601f19601f820116820180604052508101906105349190611acd565b6001600160a01b0316336001600160a01b03161461056d5760405162461bcd60e51b815260040161056490611aea565b60405180910390fd5b610576816111e9565b50565b60005460405163237dfb4760e11b81523360048201526001600160a01b03909116906346fbf68e90602401602060405180830381865afa1580156105c1573d6000803e3d6000fd5b505050506040513d601f19601f820116820180604052508101906105e59190611b34565b6106015760405162461bcd60e51b815260040161056490611b56565b6001548181161461067a5760405162461bcd60e51b815260206004820152603860248201527f5061757361626c652e70617573653a20696e76616c696420617474656d70742060448201527f746f20756e70617573652066756e6374696f6e616c69747900000000000000006064820152608401610564565b600181905560405181815233907fab40a374bc51de372200a8bc981af8c9ecdc08dfdaef0bb6e09f88f3c616ef3d906020015b60405180910390a250565b6034546000906001600160a01b031633146107105760405162461bcd60e51b815260206004820152601860248201527729ba3930ba32b3bca130b9b29737b7363ca932b630bcb2b960411b6044820152606401610564565b6033546040516370a0823160e01b81523060048201526801bc16d674ec800000916001600160a01b0316906370a0823190602401602060405180830381865afa158015610761573d6000803e3d6000fd5b505050506040513d601f19601f820116820180604052508101906107859190611b9e565b10610894576033546040516370a0823160e01b81523060048201526000916801bc16d674ec800000916001600160a01b03909116906370a0823190602401602060405180830381865afa1580156107e0573d6000803e3d6000fd5b505050506040513d601f19601f820116820180604052508101906108049190611b9e565b61080e9190611bcd565b610821906801bc16d674ec800000611bef565b60405160248101889052604481018790526001600160a01b03861660648201526084810182905290915060009061088a9086908690349060a40160408051601f198184030181529190526020810180516001600160e01b0316637e3c2a0b60e01b1790526112e0565b9250610898915050565b5060005b949350505050565b6001805460009182918116036108f45760405162461bcd60e51b815260206004820152601960248201527814185d5cd8589b194e881a5b99195e081a5cc81c185d5cd959603a1b6044820152606401610564565b6032546001600160a01b0316331461094e5760405162461bcd60e51b815260206004820181905260248201527f5374726174656779426173652e6f6e6c7953747261746567794d616e616765726044820152606401610564565b610958848461133e565b60355460006109696103e883611c06565b905060006103e86109786113ec565b6109829190611c06565b905060006109908783611c19565b90508061099d8489611bef565b6109a79190611bcd565b955085600003610a105760405162461bcd60e51b815260206004820152602e60248201527f5374726174656779426173652e6465706f7369743a206e65775368617265732060448201526d63616e6e6f74206265207a65726f60901b6064820152608401610564565b610a1a8685611c06565b603555505050505092915050565b6034546000906001600160a01b03163314610a805760405162461bcd60e51b815260206004820152601860248201527729ba3930ba32b3bca130b9b29737b7363ca932b630bcb2b960411b6044820152606401610564565b6801bc16d674ec800000471115610894576000610aa66801bc16d674ec80000047611bcd565b610ab9906801bc16d674ec800000611bef565b60405160248101889052604481018790526001600160a01b03861660648201526084810182905290915060009061088a9086908690349060a40160408051601f198184030181529190526020810180516001600160e01b03166371bbb61760e01b1790526112e0565b6000610b3061034383610ceb565b92915050565b60005460405163237dfb4760e11b81523360048201526001600160a01b03909116906346fbf68e90602401602060405180830381865afa158015610b7e573d6000803e3d6000fd5b505050506040513d601f19601f82011682018060405250810190610ba29190611b34565b610bbe5760405162461bcd60e51b815260040161056490611b56565b600019600181905560405190815233907fab40a374bc51de372200a8bc981af8c9ecdc08dfdaef0bb6e09f88f3c616ef3d9060200160405180910390a2565b6000806103e8603554610c109190611c06565b905060006103e8610c1f6113ec565b610c299190611c06565b905081610c368583611bef565b6108989190611bcd565b6000610b3082610f0a565b6000610b3061047a83610ceb565b60606040518060800160405280604d8152602001611c49604d9139905090565b6033546040516370a0823160e01b81523060048201526000916001600160a01b0316906370a0823190602401602060405180830381865afa158015610cc2573d6000803e3d6000fd5b505050506040513d601f19601f82011682018060405250810190610ce69190611b9e565b905090565b603254604051633d3f06c960e11b81526001600160a01b0383811660048301523060248301526000921690637a7e0d9290604401602060405180830381865afa158015610d3c573d6000803e3d6000fd5b505050506040513d601f19601f82011682018060405250810190610b309190611b9e565b60018054600290811603610db25760405162461bcd60e51b815260206004820152601960248201527814185d5cd8589b194e881a5b99195e081a5cc81c185d5cd959603a1b6044820152606401610564565b6032546001600160a01b03163314610e0c5760405162461bcd60e51b815260206004820181905260248201527f5374726174656779426173652e6f6e6c7953747261746567794d616e616765726044820152606401610564565b610e17848484611467565b60355480831115610ea65760405162461bcd60e51b815260206004820152604d60248201527f5374726174656779426173652e77697468647261773a20616d6f756e7453686160448201527f726573206d757374206265206c657373207468616e206f7220657175616c207460648201526c6f20746f74616c53686172657360981b608482015260a401610564565b6000610eb46103e883611c06565b905060006103e8610ec36113ec565b610ecd9190611c06565b9050600082610edc8784611bef565b610ee69190611bcd565b9050610ef28685611c19565b603555610f00888883611522565b5050505050505050565b6000806103e8603554610f1d9190611c06565b905060006103e8610f2c6113ec565b610f369190611c06565b905080610c368386611bef565b6000610b3082610bfd565b7ff0c57e16840df040f15088dc2f81fe391c3923bec73e23a9662efc9c229c6a008054600160401b810460ff16159067ffffffffffffffff16600081158015610f945750825b905060008267ffffffffffffffff166001148015610fb15750303b155b905081158015610fbf575080155b15610fdd5760405163f92ee8a960e01b815260040160405180910390fd5b845467ffffffffffffffff19166001178555831561100757845460ff60401b1916600160401b1785555b6110118988611597565b603280546001600160a01b038089166001600160a01b0319928316179092556034805491821691909216179055831561108457845460ff60401b19168555604051600181527fc7f505b2f371ae2175ee4913f4499e1f2633a7b5936321eed1cdaeb6115181d29060200160405180910390a15b505050505050505050565b60008054906101000a90046001600160a01b03166001600160a01b031663eab66d7a6040518163ffffffff1660e01b8152600401602060405180830381865afa1580156110e0573d6000803e3d6000fd5b505050506040513d601f19601f820116820180604052508101906111049190611acd565b6001600160a01b0316336001600160a01b0316146111345760405162461bcd60e51b815260040161056490611aea565b6001541981196001541916146111b25760405162461bcd60e51b815260206004820152603860248201527f5061757361626c652e756e70617573653a20696e76616c696420617474656d7060448201527f7420746f2070617573652066756e6374696f6e616c69747900000000000000006064820152608401610564565b600181905560405181815233907f3582d1828e26bf56bd801502bc021ac0bc8afb57c826e4986b45593c8fad389c906020016106ad565b6001600160a01b0381166112775760405162461bcd60e51b815260206004820152604960248201527f5061757361626c652e5f73657450617573657252656769737472793a206e657760448201527f50617573657252656769737472792063616e6e6f7420626520746865207a65726064820152686f206164647265737360b81b608482015260a401610564565b600054604080516001600160a01b03928316815291831660208301527f6e9fcd539896fca60e8b0f01dd580233e48a6b0f7df013b89ba7f565869acdb6910160405180910390a1600080546001600160a01b0319166001600160a01b0392909216919091179055565b60008060006112f08660006115c5565b905080611326576308c379a06000526020805278185361666543616c6c3a204e6f7420656e6f756768206761736058526064601cfd5b600080855160208701888b5af1979650505050505050565b6033546001600160a01b038381169116148061137657506001600160a01b03821673eeeeeeeeeeeeeeeeeeeeeeeeeeeeeeeeeeeeeeee145b6113e85760405162461bcd60e51b815260206004820152603e60248201527f5374726174656779426173652e6465706f7369743a2043616e206f6e6c79206460448201527f65706f73697420756e6465726c79696e67546f6b656e20616e642065746800006064820152608401610564565b5050565b6033546040516370a0823160e01b815230600482015260009147916001600160a01b03909116906370a0823190602401602060405180830381865afa158015611439573d6000803e3d6000fd5b505050506040513d601f19601f8201168201806040525081019061145d9190611b9e565b610ce69190611c06565b6033546001600160a01b038381169116148061149f57506001600160a01b03821673eeeeeeeeeeeeeeeeeeeeeeeeeeeeeeeeeeeeeeee145b61151d5760405162461bcd60e51b815260206004820152604360248201527f5374726174656779426173652e77697468647261773a2043616e206f6e6c792060448201527f77697468647261772074686520737472617465677920746f6b656e20616e64206064820152620cae8d60eb1b608482015260a401610564565b505050565b73eeeeeeeeeeeeeeeeeeeeeeeeeeeeeeeeeeeeeeed196001600160a01b03831601611583576040516001600160a01b0384169082156108fc029083906000818181858888f1935050505015801561157d573d6000803e3d6000fd5b50505050565b61151d6001600160a01b03831684836115e3565b61159f611635565b603380546001600160a01b0319166001600160a01b0384161790556113e8816000611680565b600080603f83619c4001026040850201603f5a021015949350505050565b604080516001600160a01b038416602482015260448082018490528251808303909101815260649091019091526020810180516001600160e01b031663a9059cbb60e01b17905261151d908490611766565b7ff0c57e16840df040f15088dc2f81fe391c3923bec73e23a9662efc9c229c6a0054600160401b900460ff1661167e57604051631afcd79f60e31b815260040160405180910390fd5b565b6000546001600160a01b03161580156116a157506001600160a01b03821615155b6117235760405162461bcd60e51b815260206004820152604760248201527f5061757361626c652e5f696e697469616c697a655061757365723a205f696e6960448201527f7469616c697a6550617573657228292063616e206f6e6c792062652063616c6c6064820152666564206f6e636560c81b608482015260a401610564565b600181905560405181815233907fab40a374bc51de372200a8bc981af8c9ecdc08dfdaef0bb6e09f88f3c616ef3d9060200160405180910390a26113e8826111e9565b600061177b6001600160a01b038416836117c9565b905080516000141580156117a057508080602001905181019061179e9190611b34565b155b1561151d57604051635274afe760e01b81526001600160a01b0384166004820152602401610564565b60606117d7838360006117de565b9392505050565b6060814710156118035760405163cd78605960e01b8152306004820152602401610564565b600080856001600160a01b0316848660405161181f9190611c2c565b60006040518083038185875af1925050503d806000811461185c576040519150601f19603f3d011682016040523d82523d6000602084013e611861565b606091505b509150915061187186838361187b565b9695505050505050565b6060826118905761188b826118d7565b6117d7565b81511580156118a757506001600160a01b0384163b155b156118d057604051639996b31560e01b81526001600160a01b0385166004820152602401610564565b50806117d7565b8051156118e75780518082602001fd5b604051630a12f52160e11b815260040160405180910390fd5b6001600160a01b038116811461057657600080fd5b60006020828403121561192757600080fd5b81356117d781611900565b60006020828403121561194457600080fd5b5035919050565b6000806000806080858703121561196157600080fd5b8435935060208501359250604085013561197a81611900565b9396929550929360600135925050565b6000806040838503121561199d57600080fd5b82356119a881611900565b946020939093013593505050565b6000602082840312156119c857600080fd5b813560ff811681146117d757600080fd5b60005b838110156119f45781810151838201526020016119dc565b50506000910152565b6020815260008251806020840152611a1c8160408501602087016119d9565b601f01601f19169190910160400192915050565b600080600060608486031215611a4557600080fd5b8335611a5081611900565b92506020840135611a6081611900565b929592945050506040919091013590565b60008060008060808587031215611a8757600080fd5b8435611a9281611900565b93506020850135611aa281611900565b92506040850135611ab281611900565b91506060850135611ac281611900565b939692955090935050565b600060208284031215611adf57600080fd5b81516117d781611900565b6020808252602a908201527f6d73672e73656e646572206973206e6f74207065726d697373696f6e6564206160408201526939903ab73830bab9b2b960b11b606082015260800190565b600060208284031215611b4657600080fd5b815180151581146117d757600080fd5b60208082526028908201527f6d73672e73656e646572206973206e6f74207065726d697373696f6e6564206160408201526739903830bab9b2b960c11b606082015260800190565b600060208284031215611bb057600080fd5b5051919050565b634e487b7160e01b600052601160045260246000fd5b600082611bea57634e487b7160e01b600052601260045260246000fd5b500490565b8082028115828204841417610b3057610b30611bb7565b80820180821115610b3057610b30611bb7565b81810381811115610b3057610b30611bb7565b60008251611c3e8184602087016119d9565b919091019291505056fe4261736520537472617465677920696d706c656d656e746174696f6e20746f20696e68657269742066726f6d20666f72206d6f726520636f6d706c657820696d706c656d656e746174696f6e73a264697066735822122021ea4a923fbd43e3bf1660602e02840e40fd484bdd0f2d55ff60f5a834fa853264736f6c63430008180033",
    "linkReferences": {}
  },
  "methodIdentifiers": {
    "deposit(address,uint256)": "47e7ef24",
    "explanation()": "ab5921e1",
    "initialize(address,address,address,address)": "f8c8765e",
    "pause(uint256)": "136439dd",
    "pauseAll()": "595c6a67",
    "paused()": "5c975abb",
    "paused(uint8)": "5ac86ab7",
    "pauserRegistry()": "886f1195",
    "relayer()": "8406c079",
    "setPauserRegistry(address)": "10d67a2f",
    "shares(address)": "ce7c2ac2",
    "sharesToUnderlying(uint256)": "f3e73875",
    "sharesToUnderlyingView(uint256)": "7a8b2637",
    "strategyManager()": "39b70e38",
    "tokenETHBalance()": "49fcf4a7",
    "tokenWETHBalance()": "ac36440a",
    "totalShares()": "3a98ef39",
    "transferETHToL2DappLinkBridge(uint256,uint256,address,uint256)": "4fcffb8a",
    "transferWETHToL2DappLinkBridge(uint256,uint256,address,uint256)": "4102e0c2",
    "underlyingToShares(uint256)": "8c871019",
    "underlyingToSharesView(uint256)": "e3dae51c",
    "underlyingToken()": "2495a599",
    "unpause(uint256)": "fabc1cbc",
    "userUnderlying(address)": "8f6a6240",
    "userUnderlyingView(address)": "553ca5f8",
    "withdraw(address,address,uint256)": "d9caed12"
  },
  "id": 55
}